{"contracts/core/EntryPoint.sol":{"EntryPoint":{"abi":[{"inputs":[{"internalType":"uint256","name":"preOpGas","type":"uint256"},{"internalType":"uint256","name":"paid","type":"uint256"},{"internalType":"uint48","name":"validAfter","type":"uint48"},{"internalType":"uint48","name":"validUntil","type":"uint48"},{"internalType":"bool","name":"targetSuccess","type":"bool"},{"internalType":"bytes","name":"targetResult","type":"bytes"}],"name":"ExecutionResult","type":"error"},{"inputs":[{"internalType":"uint256","name":"opIndex","type":"uint256"},{"internalType":"string","name":"reason","type":"string"}],"name":"FailedOp","type":"error"},{"inputs":[{"internalType":"address","name":"sender","type":"address"}],"name":"SenderAddressResult","type":"error"},{"inputs":[{"internalType":"address","name":"aggregator","type":"address"}],"name":"SignatureValidationFailed","type":"error"},{"inputs":[{"components":[{"internalType":"uint256","name":"preOpGas","type":"uint256"},{"internalType":"uint256","name":"prefund","type":"uint256"},{"internalType":"bool","name":"sigFailed","type":"bool"},{"internalType":"uint48","name":"validAfter","type":"uint48"},{"internalType":"uint48","name":"validUntil","type":"uint48"},{"internalType":"bytes","name":"paymasterContext","type":"bytes"}],"internalType":"struct IEntryPoint.ReturnInfo","name":"returnInfo","type":"tuple"},{"components":[{"internalType":"uint256","name":"stake","type":"uint256"},{"internalType":"uint256","name":"unstakeDelaySec","type":"uint256"}],"internalType":"struct IStakeManager.StakeInfo","name":"senderInfo","type":"tuple"},{"components":[{"internalType":"uint256","name":"stake","type":"uint256"},{"internalType":"uint256","name":"unstakeDelaySec","type":"uint256"}],"internalType":"struct IStakeManager.StakeInfo","name":"factoryInfo","type":"tuple"},{"components":[{"internalType":"uint256","name":"stake","type":"uint256"},{"internalType":"uint256","name":"unstakeDelaySec","type":"uint256"}],"internalType":"struct IStakeManager.StakeInfo","name":"paymasterInfo","type":"tuple"}],"name":"ValidationResult","type":"error"},{"inputs":[{"components":[{"internalType":"uint256","name":"preOpGas","type":"uint256"},{"internalType":"uint256","name":"prefund","type":"uint256"},{"internalType":"bool","name":"sigFailed","type":"bool"},{"internalType":"uint48","name":"validAfter","type":"uint48"},{"internalType":"uint48","name":"validUntil","type":"uint48"},{"internalType":"bytes","name":"paymasterContext","type":"bytes"}],"internalType":"struct IEntryPoint.ReturnInfo","name":"returnInfo","type":"tuple"},{"components":[{"internalType":"uint256","name":"stake","type":"uint256"},{"internalType":"uint256","name":"unstakeDelaySec","type":"uint256"}],"internalType":"struct IStakeManager.StakeInfo","name":"senderInfo","type":"tuple"},{"components":[{"internalType":"uint256","name":"stake","type":"uint256"},{"internalType":"uint256","name":"unstakeDelaySec","type":"uint256"}],"internalType":"struct IStakeManager.StakeInfo","name":"factoryInfo","type":"tuple"},{"components":[{"internalType":"uint256","name":"stake","type":"uint256"},{"internalType":"uint256","name":"unstakeDelaySec","type":"uint256"}],"internalType":"struct IStakeManager.StakeInfo","name":"paymasterInfo","type":"tuple"},{"components":[{"internalType":"address","name":"aggregator","type":"address"},{"components":[{"internalType":"uint256","name":"stake","type":"uint256"},{"internalType":"uint256","name":"unstakeDelaySec","type":"uint256"}],"internalType":"struct IStakeManager.StakeInfo","name":"stakeInfo","type":"tuple"}],"internalType":"struct IEntryPoint.AggregatorStakeInfo","name":"aggregatorInfo","type":"tuple"}],"name":"ValidationResultWithAggregation","type":"error"},{"anonymous":false,"inputs":[{"indexed":true,"internalType":"bytes32","name":"userOpHash","type":"bytes32"},{"indexed":true,"internalType":"address","name":"sender","type":"address"},{"indexed":false,"internalType":"address","name":"factory","type":"address"},{"indexed":false,"internalType":"address","name":"paymaster","type":"address"}],"name":"AccountDeployed","type":"event"},{"anonymous":false,"inputs":[],"name":"BeforeExecution","type":"event"},{"anonymous":false,"inputs":[{"indexed":true,"internalType":"address","name":"account","type":"address"},{"indexed":false,"internalType":"uint256","name":"totalDeposit","type":"uint256"}],"name":"Deposited","type":"event"},{"anonymous":false,"inputs":[{"indexed":true,"internalType":"address","name":"aggregator","type":"address"}],"name":"SignatureAggregatorChanged","type":"event"},{"anonymous":false,"inputs":[{"indexed":true,"internalType":"address","name":"account","type":"address"},{"indexed":false,"internalType":"uint256","name":"totalStaked","type":"uint256"},{"indexed":false,"internalType":"uint256","name":"unstakeDelaySec","type":"uint256"}],"name":"StakeLocked","type":"event"},{"anonymous":false,"inputs":[{"indexed":true,"internalType":"address","name":"account","type":"address"},{"indexed":false,"internalType":"uint256","name":"withdrawTime","type":"uint256"}],"name":"StakeUnlocked","type":"event"},{"anonymous":false,"inputs":[{"indexed":true,"internalType":"address","name":"account","type":"address"},{"indexed":false,"internalType":"address","name":"withdrawAddress","type":"address"},{"indexed":false,"internalType":"uint256","name":"amount","type":"uint256"}],"name":"StakeWithdrawn","type":"event"},{"anonymous":false,"inputs":[{"indexed":true,"internalType":"bytes32","name":"userOpHash","type":"bytes32"},{"indexed":true,"internalType":"address","name":"sender","type":"address"},{"indexed":true,"internalType":"address","name":"paymaster","type":"address"},{"indexed":false,"internalType":"uint256","name":"nonce","type":"uint256"},{"indexed":false,"internalType":"bool","name":"success","type":"bool"},{"indexed":false,"internalType":"uint256","name":"actualGasCost","type":"uint256"},{"indexed":false,"internalType":"uint256","name":"actualGasUsed","type":"uint256"}],"name":"UserOperationEvent","type":"event"},{"anonymous":false,"inputs":[{"indexed":true,"internalType":"bytes32","name":"userOpHash","type":"bytes32"},{"indexed":true,"internalType":"address","name":"sender","type":"address"},{"indexed":false,"internalType":"uint256","name":"nonce","type":"uint256"},{"indexed":false,"internalType":"bytes","name":"revertReason","type":"bytes"}],"name":"UserOperationRevertReason","type":"event"},{"anonymous":false,"inputs":[{"indexed":true,"internalType":"address","name":"account","type":"address"},{"indexed":false,"internalType":"address","name":"withdrawAddress","type":"address"},{"indexed":false,"internalType":"uint256","name":"amount","type":"uint256"}],"name":"Withdrawn","type":"event"},{"inputs":[],"name":"SIG_VALIDATION_FAILED","outputs":[{"internalType":"uint256","name":"","type":"uint256"}],"stateMutability":"view","type":"function"},{"inputs":[{"internalType":"bytes","name":"initCode","type":"bytes"},{"internalType":"address","name":"sender","type":"address"},{"internalType":"bytes","name":"paymasterAndData","type":"bytes"}],"name":"_validateSenderAndPaymaster","outputs":[],"stateMutability":"view","type":"function"},{"inputs":[{"internalType":"uint32","name":"unstakeDelaySec","type":"uint32"}],"name":"addStake","outputs":[],"stateMutability":"payable","type":"function"},{"inputs":[{"internalType":"address","name":"account","type":"address"}],"name":"balanceOf","outputs":[{"internalType":"uint256","name":"","type":"uint256"}],"stateMutability":"view","type":"function"},{"inputs":[{"internalType":"address","name":"account","type":"address"}],"name":"depositTo","outputs":[],"stateMutability":"payable","type":"function"},{"inputs":[{"internalType":"address","name":"","type":"address"}],"name":"deposits","outputs":[{"internalType":"uint112","name":"deposit","type":"uint112"},{"internalType":"bool","name":"staked","type":"bool"},{"internalType":"uint112","name":"stake","type":"uint112"},{"internalType":"uint32","name":"unstakeDelaySec","type":"uint32"},{"internalType":"uint48","name":"withdrawTime","type":"uint48"}],"stateMutability":"view","type":"function"},{"inputs":[{"internalType":"address","name":"account","type":"address"}],"name":"getDepositInfo","outputs":[{"components":[{"internalType":"uint112","name":"deposit","type":"uint112"},{"internalType":"bool","name":"staked","type":"bool"},{"internalType":"uint112","name":"stake","type":"uint112"},{"internalType":"uint32","name":"unstakeDelaySec","type":"uint32"},{"internalType":"uint48","name":"withdrawTime","type":"uint48"}],"internalType":"struct IStakeManager.DepositInfo","name":"info","type":"tuple"}],"stateMutability":"view","type":"function"},{"inputs":[{"internalType":"address","name":"sender","type":"address"},{"internalType":"uint192","name":"key","type":"uint192"}],"name":"getNonce","outputs":[{"internalType":"uint256","name":"nonce","type":"uint256"}],"stateMutability":"view","type":"function"},{"inputs":[{"internalType":"bytes","name":"initCode","type":"bytes"}],"name":"getSenderAddress","outputs":[],"stateMutability":"nonpayable","type":"function"},{"inputs":[{"components":[{"internalType":"address","name":"sender","type":"address"},{"internalType":"uint256","name":"nonce","type":"uint256"},{"internalType":"bytes","name":"initCode","type":"bytes"},{"internalType":"bytes","name":"callData","type":"bytes"},{"internalType":"uint256","name":"callGasLimit","type":"uint256"},{"internalType":"uint256","name":"verificationGasLimit","type":"uint256"},{"internalType":"uint256","name":"preVerificationGas","type":"uint256"},{"internalType":"uint256","name":"maxFeePerGas","type":"uint256"},{"internalType":"uint256","name":"maxPriorityFeePerGas","type":"uint256"},{"internalType":"bytes","name":"paymasterAndData","type":"bytes"},{"internalType":"bytes","name":"signature","type":"bytes"}],"internalType":"struct UserOperation","name":"userOp","type":"tuple"}],"name":"getUserOpHash","outputs":[{"internalType":"bytes32","name":"","type":"bytes32"}],"stateMutability":"view","type":"function"},{"inputs":[{"components":[{"components":[{"internalType":"address","name":"sender","type":"address"},{"internalType":"uint256","name":"nonce","type":"uint256"},{"internalType":"bytes","name":"initCode","type":"bytes"},{"internalType":"bytes","name":"callData","type":"bytes"},{"internalType":"uint256","name":"callGasLimit","type":"uint256"},{"internalType":"uint256","name":"verificationGasLimit","type":"uint256"},{"internalType":"uint256","name":"preVerificationGas","type":"uint256"},{"internalType":"uint256","name":"maxFeePerGas","type":"uint256"},{"internalType":"uint256","name":"maxPriorityFeePerGas","type":"uint256"},{"internalType":"bytes","name":"paymasterAndData","type":"bytes"},{"internalType":"bytes","name":"signature","type":"bytes"}],"internalType":"struct UserOperation[]","name":"userOps","type":"tuple[]"},{"internalType":"contract IAggregator","name":"aggregator","type":"address"},{"internalType":"bytes","name":"signature","type":"bytes"}],"internalType":"struct IEntryPoint.UserOpsPerAggregator[]","name":"opsPerAggregator","type":"tuple[]"},{"internalType":"address payable","name":"beneficiary","type":"address"}],"name":"handleAggregatedOps","outputs":[],"stateMutability":"nonpayable","type":"function"},{"inputs":[{"components":[{"internalType":"address","name":"sender","type":"address"},{"internalType":"uint256","name":"nonce","type":"uint256"},{"internalType":"bytes","name":"initCode","type":"bytes"},{"internalType":"bytes","name":"callData","type":"bytes"},{"internalType":"uint256","name":"callGasLimit","type":"uint256"},{"internalType":"uint256","name":"verificationGasLimit","type":"uint256"},{"internalType":"uint256","name":"preVerificationGas","type":"uint256"},{"internalType":"uint256","name":"maxFeePerGas","type":"uint256"},{"internalType":"uint256","name":"maxPriorityFeePerGas","type":"uint256"},{"internalType":"bytes","name":"paymasterAndData","type":"bytes"},{"internalType":"bytes","name":"signature","type":"bytes"}],"internalType":"struct UserOperation[]","name":"ops","type":"tuple[]"},{"internalType":"address payable","name":"beneficiary","type":"address"}],"name":"handleOps","outputs":[],"stateMutability":"nonpayable","type":"function"},{"inputs":[{"internalType":"uint192","name":"key","type":"uint192"}],"name":"incrementNonce","outputs":[],"stateMutability":"nonpayable","type":"function"},{"inputs":[{"internalType":"bytes","name":"callData","type":"bytes"},{"components":[{"components":[{"internalType":"address","name":"sender","type":"address"},{"internalType":"uint256","name":"nonce","type":"uint256"},{"internalType":"uint256","name":"callGasLimit","type":"uint256"},{"internalType":"uint256","name":"verificationGasLimit","type":"uint256"},{"internalType":"uint256","name":"preVerificationGas","type":"uint256"},{"internalType":"address","name":"paymaster","type":"address"},{"internalType":"uint256","name":"maxFeePerGas","type":"uint256"},{"internalType":"uint256","name":"maxPriorityFeePerGas","type":"uint256"}],"internalType":"struct EntryPoint.MemoryUserOp","name":"mUserOp","type":"tuple"},{"internalType":"bytes32","name":"userOpHash","type":"bytes32"},{"internalType":"uint256","name":"prefund","type":"uint256"},{"internalType":"uint256","name":"contextOffset","type":"uint256"},{"internalType":"uint256","name":"preOpGas","type":"uint256"}],"internalType":"struct EntryPoint.UserOpInfo","name":"opInfo","type":"tuple"},{"internalType":"bytes","name":"context","type":"bytes"}],"name":"innerHandleOp","outputs":[{"internalType":"uint256","name":"actualGasCost","type":"uint256"}],"stateMutability":"nonpayable","type":"function"},{"inputs":[{"internalType":"address","name":"","type":"address"},{"internalType":"uint192","name":"","type":"uint192"}],"name":"nonceSequenceNumber","outputs":[{"internalType":"uint256","name":"","type":"uint256"}],"stateMutability":"view","type":"function"},{"inputs":[{"components":[{"internalType":"address","name":"sender","type":"address"},{"internalType":"uint256","name":"nonce","type":"uint256"},{"internalType":"bytes","name":"initCode","type":"bytes"},{"internalType":"bytes","name":"callData","type":"bytes"},{"internalType":"uint256","name":"callGasLimit","type":"uint256"},{"internalType":"uint256","name":"verificationGasLimit","type":"uint256"},{"internalType":"uint256","name":"preVerificationGas","type":"uint256"},{"internalType":"uint256","name":"maxFeePerGas","type":"uint256"},{"internalType":"uint256","name":"maxPriorityFeePerGas","type":"uint256"},{"internalType":"bytes","name":"paymasterAndData","type":"bytes"},{"internalType":"bytes","name":"signature","type":"bytes"}],"internalType":"struct UserOperation","name":"op","type":"tuple"},{"internalType":"address","name":"target","type":"address"},{"internalType":"bytes","name":"targetCallData","type":"bytes"}],"name":"simulateHandleOp","outputs":[],"stateMutability":"nonpayable","type":"function"},{"inputs":[{"components":[{"internalType":"address","name":"sender","type":"address"},{"internalType":"uint256","name":"nonce","type":"uint256"},{"internalType":"bytes","name":"initCode","type":"bytes"},{"internalType":"bytes","name":"callData","type":"bytes"},{"internalType":"uint256","name":"callGasLimit","type":"uint256"},{"internalType":"uint256","name":"verificationGasLimit","type":"uint256"},{"internalType":"uint256","name":"preVerificationGas","type":"uint256"},{"internalType":"uint256","name":"maxFeePerGas","type":"uint256"},{"internalType":"uint256","name":"maxPriorityFeePerGas","type":"uint256"},{"internalType":"bytes","name":"paymasterAndData","type":"bytes"},{"internalType":"bytes","name":"signature","type":"bytes"}],"internalType":"struct UserOperation","name":"userOp","type":"tuple"}],"name":"simulateValidation","outputs":[],"stateMutability":"nonpayable","type":"function"},{"inputs":[],"name":"unlockStake","outputs":[],"stateMutability":"nonpayable","type":"function"},{"inputs":[{"internalType":"address payable","name":"withdrawAddress","type":"address"}],"name":"withdrawStake","outputs":[],"stateMutability":"nonpayable","type":"function"},{"inputs":[{"internalType":"address payable","name":"withdrawAddress","type":"address"},{"internalType":"uint256","name":"withdrawAmount","type":"uint256"}],"name":"withdrawTo","outputs":[],"stateMutability":"nonpayable","type":"function"},{"stateMutability":"payable","type":"receive"}],"evm":{"bytecode":{"linkReferences":{},"object":"60a080604052346200008957600160025561022c8181016001600160401b038111838210176200007357829162005d18833903906000f080156200006757608052604051615c8990816200008f82396080518181816113df01528181613e9501526141b60152f35b6040513d6000823e3d90fd5b634e487b7160e01b600052604160045260246000fd5b600080fdfe60806040526004361015610023575b361561001957600080fd5b610021615531565b005b60003560e01c80630396cb60146101b35780630bd28e3b146101aa5780631b2e01b8146101a15780631d732756146101985780631fad948c1461018f578063205c28781461018657806335567e1a1461017d5780634b1d7cf5146101745780635287ce121461016b57806370a08231146101625780638f41ec5a14610159578063957122ab146101505780639b249f6914610147578063a61935311461013e578063b760faf914610135578063bb9fe6bf1461012c578063c23a5cea14610123578063d6383f941461011a578063ee219423146101115763fc7e286d0361000e5761010c611bcd565b61000e565b5061010c6119b5565b5061010c61184d565b5061010c6116b4565b5061010c611536565b5061010c6114f7565b5061010c6114d6565b5061010c611337565b5061010c611164565b5061010c611129565b5061010c6110a4565b5061010c610f54565b5061010c610bf8565b5061010c610b33565b5061010c610994565b5061010c6108ba565b5061010c6106e7565b5061010c610467565b5061010c610385565b5060207ffffffffffffffffffffffffffffffffffffffffffffffffffffffffffffffffc3601126103595760043563ffffffff8116808203610359576103547fa5ae833d0bb1dcd632d98a8b70973e8516812898e19bf27b70071ebc8dc52c01916102716102413373ffffffffffffffffffffffffffffffffffffffff166000526000602052604060002090565b9161024d811515615697565b61026a610261600185015463ffffffff1690565b63ffffffff1690565b11156156fc565b54926103366dffffffffffffffffffffffffffff946102f461029834888460781c166121d5565b966102a4881515615761565b6102b0818911156157c6565b6102d4816102bc6105ec565b941684906dffffffffffffffffffffffffffff169052565b6001602084015287166dffffffffffffffffffffffffffff166040830152565b63ffffffff83166060820152600060808201526103313373ffffffffffffffffffffffffffffffffffffffff166000526000602052604060002090565b61582b565b6040805194855263ffffffff90911660208501523393918291820190565b0390a2005b600080fd5b6024359077ffffffffffffffffffffffffffffffffffffffffffffffff8216820361035957565b50346103595760207ffffffffffffffffffffffffffffffffffffffffffffffffffffffffffffffffc3601126103595760043577ffffffffffffffffffffffffffffffffffffffffffffffff81168103610359576104149033600052600160205260406000209077ffffffffffffffffffffffffffffffffffffffffffffffff16600052602052604060002090565b61041e8154612491565b9055005b73ffffffffffffffffffffffffffffffffffffffff81160361035957565b6024359061044d82610422565b565b60c4359061044d82610422565b359061044d82610422565b50346103595760407ffffffffffffffffffffffffffffffffffffffffffffffffffffffffffffffffc3601126103595760206104fc6004356104a881610422565b73ffffffffffffffffffffffffffffffffffffffff6104c561035e565b91166000526001835260406000209077ffffffffffffffffffffffffffffffffffffffffffffffff16600052602052604060002090565b54604051908152f35b507f4e487b7100000000000000000000000000000000000000000000000000000000600052604160045260246000fd5b60a0810190811067ffffffffffffffff82111761055157604052565b610559610505565b604052565b610100810190811067ffffffffffffffff82111761055157604052565b67ffffffffffffffff811161055157604052565b6060810190811067ffffffffffffffff82111761055157604052565b90601f7fffffffffffffffffffffffffffffffffffffffffffffffffffffffffffffffe0910116810190811067ffffffffffffffff82111761055157604052565b6040519061044d82610535565b6040519060c0820182811067ffffffffffffffff82111761055157604052565b604051906040820182811067ffffffffffffffff82111761055157604052565b7fffffffffffffffffffffffffffffffffffffffffffffffffffffffffffffffe0601f60209267ffffffffffffffff8111610675575b01160190565b61067d610505565b61066f565b92919261068e82610639565b9161069c60405193846105ab565b829481845281830111610359578281602093846000960137010152565b9181601f840112156103595782359167ffffffffffffffff8311610359576020838186019501011161035957565b5034610359576101c07ffffffffffffffffffffffffffffffffffffffffffffffffffffffffffffffffc3601126103595767ffffffffffffffff60043581811161035957366023820112156103595761074a903690602481600401359101610682565b907fffffffffffffffffffffffffffffffffffffffffffffffffffffffffffffffdc36016101808112610359576101006040519161078783610535565b12610359576040516107988161055e565b6107a0610440565b815260443560208201526064356040820152608435606082015260a43560808201526107ca61044f565b60a082015260e43560c08201526101043560e082015281526101243560208201526101443560408201526101643560608201526101843560808201526101a4359182116103595761083e9261082661082e9336906004016106b9565b9290916128b1565b6040519081529081906020820190565b0390f35b9060407ffffffffffffffffffffffffffffffffffffffffffffffffffffffffffffffffc8301126103595760043567ffffffffffffffff9283821161035957806023830112156103595781600401359384116103595760248460051b830101116103595760240191906024356108b781610422565b90565b5034610359576108c936610842565b6108d4929192611e3a565b6108dd83611d2d565b60005b84811061095d57506000927fbb47ee3e183a558b1a2ff0874b079f3fc5478b7454eacf2bfc5af2ff5878f9728480a183915b85831061092d576109238585611ed7565b6100216001600255565b909193600190610953610941878987611dec565b61094b8886611dca565b51908861233f565b0194019190610912565b8061098b610984610972600194869896611dca565b5161097e848a88611dec565b84613448565b9083612f30565b019290926108e0565b50346103595760407ffffffffffffffffffffffffffffffffffffffffffffffffffffffffffffffffc360112610359576004356109d081610422565b6024359060009133835282602052604083206dffffffffffffffffffffffffffff81541692838311610ad557848373ffffffffffffffffffffffffffffffffffffffff829593610a788496610a3f610a2c8798610ad29c6121c0565b6dffffffffffffffffffffffffffff1690565b6dffffffffffffffffffffffffffff167fffffffffffffffffffffffffffffffffffff0000000000000000000000000000825416179055565b6040805173ffffffffffffffffffffffffffffffffffffffff831681526020810185905233917fd1c19fbcd4551a5edfb66d43d2e337c04837afda3482b42bdf569a8fccdae5fb91a2165af1610acc611ea7565b50615ba2565b80f35b60646040517f08c379a000000000000000000000000000000000000000000000000000000000815260206004820152601960248201527f576974686472617720616d6f756e7420746f6f206c61726765000000000000006044820152fd5b50346103595760407ffffffffffffffffffffffffffffffffffffffffffffffffffffffffffffffffc360112610359576020600435610b7181610422565b73ffffffffffffffffffffffffffffffffffffffff610b8e61035e565b911660005260018252610bc98160406000209077ffffffffffffffffffffffffffffffffffffffffffffffff16600052602052604060002090565b547fffffffffffffffffffffffffffffffffffffffffffffffff00000000000000006040519260401b16178152f35b503461035957610c0736610842565b610c0f611e3a565b6000805b838210610df657610c249150611d2d565b7fbb47ee3e183a558b1a2ff0874b079f3fc5478b7454eacf2bfc5af2ff5878f972600080a16000805b848110610d5c57505060008093815b818110610c9357610923868660007f575ff3acadd5ab348fe1855e217e0f3678f8d767d7494c9f9fefbee2e17cca4d8180a2611ed7565b610cf7610ca182848a6124cb565b610ccc610cb3610cb36020840161256d565b73ffffffffffffffffffffffffffffffffffffffff1690565b7f575ff3acadd5ab348fe1855e217e0f3678f8d767d7494c9f9fefbee2e17cca4d600080a280612519565b906000915b808310610d1457505050610d0f90612491565b610c5c565b90919497610d4f610d49610d5592610d438c8b610d3c82610d368e8b8d611dec565b92611dca565b519161233f565b906121d5565b99612491565b95612491565b9190610cfc565b610d678186886124cb565b6020610d7f610d768380612519565b9290930161256d565b9173ffffffffffffffffffffffffffffffffffffffff60009316905b828410610db45750505050610daf90612491565b610c4d565b90919294610d4f81610de985610de2610dd0610dee968d611dca565b51610ddc8c8b8a611dec565b85613448565b908b613148565b612491565b929190610d9b565b610e018285876124cb565b90610e0c8280612519565b92610e1c610cb36020830161256d565b9173ffffffffffffffffffffffffffffffffffffffff8316610e416001821415612577565b610e62575b505050610e5c91610e56916121d5565b91612491565b90610c13565b909592610e7b6040999693999895989788810190611fc8565b92908a3b156103595789938b918a5193849283927fe3563a4f00000000000000000000000000000000000000000000000000000000845260049e8f850193610ec294612711565b03815a93600094fa9081610f3b575b50610f255786517f86a9f75000000000000000000000000000000000000000000000000000000000815273ffffffffffffffffffffffffffffffffffffffff8a16818a0190815281906020010390fd5b0390fd5b9497509295509093509181610e56610e5c610e46565b80610f48610f4e9261057b565b8061111e565b38610ed1565b50346103595760207ffffffffffffffffffffffffffffffffffffffffffffffffffffffffffffffffc3601126103595761083e73ffffffffffffffffffffffffffffffffffffffff600435610fa881610422565b608060409283928351610fba81610535565b60009381858093528260208201528287820152826060820152015216815280602052209061104965ffffffffffff6001835194610ff686610535565b80546dffffffffffffffffffffffffffff8082168852607082901c60ff161515602089015260789190911c1685870152015463ffffffff8116606086015260201c16608084019065ffffffffffff169052565b5191829182919091608065ffffffffffff8160a08401956dffffffffffffffffffffffffffff808251168652602082015115156020870152604082015116604086015263ffffffff6060820151166060860152015116910152565b50346103595760207ffffffffffffffffffffffffffffffffffffffffffffffffffffffffffffffffc3601126103595773ffffffffffffffffffffffffffffffffffffffff6004356110f581610422565b16600052600060205260206dffffffffffffffffffffffffffff60406000205416604051908152f35b600091031261035957565b50346103595760007ffffffffffffffffffffffffffffffffffffffffffffffffffffffffffffffffc36011261035957602060405160018152f35b50346103595760607ffffffffffffffffffffffffffffffffffffffffffffffffffffffffffffffffc36011261035957600467ffffffffffffffff8135818111610359576111b590369084016106b9565b9050602435916111c483610422565b604435908111610359576111db90369085016106b9565b92909115908161132d575b506112c6576014821015611236575b610f21836040519182917f08c379a0000000000000000000000000000000000000000000000000000000008352820160409060208152600060208201520190565b6112466112529261124c92612b88565b90612b96565b60601c90565b3b1561125f5738806111f5565b610f21906040519182917f08c379a0000000000000000000000000000000000000000000000000000000008352820160609060208152601b60208201527f41413330207061796d6173746572206e6f74206465706c6f796564000000000060408201520190565b610f21836040519182917f08c379a0000000000000000000000000000000000000000000000000000000008352820160609060208152601960208201527f41413230206163636f756e74206e6f74206465706c6f7965640000000000000060408201520190565b90503b15386111e6565b50346103595760207ffffffffffffffffffffffffffffffffffffffffffffffffffffffffffffffffc3601126103595760043567ffffffffffffffff81116103595761138960249136906004016106b9565b906113bf6040519283927f570e1a3600000000000000000000000000000000000000000000000000000000845260048401612d2c565b0360208273ffffffffffffffffffffffffffffffffffffffff92816000857f0000000000000000000000000000000000000000000000000000000000000000165af1918215611471575b600092611441575b50604051917f6ca7b806000000000000000000000000000000000000000000000000000000008352166004820152fd5b61146391925060203d811161146a575b61145b81836105ab565b810190612d17565b9038611411565b503d611451565b611479612183565b611409565b90816101609103126103595790565b60207ffffffffffffffffffffffffffffffffffffffffffffffffffffffffffffffffc820112610359576004359067ffffffffffffffff8211610359576108b79160040161147e565b50346103595760206114ef6114ea3661148d565b612a0c565b604051908152f35b5060207ffffffffffffffffffffffffffffffffffffffffffffffffffffffffffffffffc3601126103595761002160043561153181610422565b61562b565b5034610359576000807ffffffffffffffffffffffffffffffffffffffffffffffffffffffffffffffffc3601126116b1573381528060205260408120600181019063ffffffff825416908115611653576115f06115b5611618936115a76115a2855460ff9060701c1690565b61598f565b65ffffffffffff42166159f4565b84547fffffffffffffffffffffffffffffffffffffffffffff000000000000ffffffff16602082901b69ffffffffffff000000001617909455565b7fffffffffffffffffffffffffffffffffff00ffffffffffffffffffffffffffff8154169055565b60405165ffffffffffff91909116815233907ffa9b3c14cc825c412c9ed81b3ba365a5b459439403f18829e572ed53a4180f0a90602090a280f35b60646040517f08c379a000000000000000000000000000000000000000000000000000000000815260206004820152600a60248201527f6e6f74207374616b6564000000000000000000000000000000000000000000006044820152fd5b80fd5b50346103595760207ffffffffffffffffffffffffffffffffffffffffffffffffffffffffffffffffc360112610359576004356116f081610422565b610ad273ffffffffffffffffffffffffffffffffffffffff6117323373ffffffffffffffffffffffffffffffffffffffff166000526000602052604060002090565b926117ea611755610a2c86546dffffffffffffffffffffffffffff9060781c1690565b94611761861515615a0e565b6117c26001820161179a65ffffffffffff611786835465ffffffffffff9060201c1690565b16611792811515615a73565b421015615ad8565b80547fffffffffffffffffffffffffffffffffffffffffffff00000000000000000000169055565b7fffffff0000000000000000000000000000ffffffffffffffffffffffffffffff8154169055565b6040805173ffffffffffffffffffffffffffffffffffffffff831681526020810186905233917fb7c918e0e249f999e965cafeb6c664271b3f4317d296461500e71da39f0cbda391a2600080809581948294165af1611847611ea7565b50615b3d565b50346103595760607ffffffffffffffffffffffffffffffffffffffffffffffffffffffffffffffffc3601126103595767ffffffffffffffff6004358181116103595761189e90369060040161147e565b602435916118ab83610422565b604435908111610359576118c6610f219136906004016106b9565b6118ce611caa565b6118d785612e2b565b6118ea6118e48287613240565b906153ba565b946118fa826000924384526121e2565b96438252819360609573ffffffffffffffffffffffffffffffffffffffff8316611981575b50505050608001519361194e6040611940602084015165ffffffffffff1690565b92015165ffffffffffff1690565b906040519687967f8b7ac980000000000000000000000000000000000000000000000000000000008852600488016127e1565b8395508394965061199b60409492939451809481936127d3565b03925af19060806119aa611ea7565b92919038808061191f565b5034610359576119c43661148d565b6119cc611caa565b6119d582612e2b565b6119df8183613240565b825160a00151919391611a0c9073ffffffffffffffffffffffffffffffffffffffff166154dc565b6154dc565b90611a30611a07855173ffffffffffffffffffffffffffffffffffffffff90511690565b94611a39612b50565b50611a68611a4c60409586810190611fc8565b90600060148310611bc55750611246611a079261124c92612b88565b91611a72916153ba565b805173ffffffffffffffffffffffffffffffffffffffff169073ffffffffffffffffffffffffffffffffffffffff821660018114916080880151978781015191886020820151611ac79065ffffffffffff1690565b91015165ffffffffffff16916060015192611ae06105f9565b9a8b5260208b0152841515898b015265ffffffffffff1660608a015265ffffffffffff16608089015260a088015215159081611bbc575b50611b515750610f2192519485947fe0cff05f00000000000000000000000000000000000000000000000000000000865260048601612cbd565b9190610f2193611b60846154dc565b611b87611b6b610619565b73ffffffffffffffffffffffffffffffffffffffff9096168652565b6020850152519586957ffaecb4e400000000000000000000000000000000000000000000000000000000875260048701612c2b565b90501538611b17565b9150506154dc565b50346103595760207ffffffffffffffffffffffffffffffffffffffffffffffffffffffffffffffffc3601126103595773ffffffffffffffffffffffffffffffffffffffff600435611c1e81610422565b16600052600060205260a0604060002065ffffffffffff60018254920154604051926dffffffffffffffffffffffffffff90818116855260ff8160701c161515602086015260781c16604084015263ffffffff8116606084015260201c166080820152f35b60209067ffffffffffffffff8111611c9d575b60051b0190565b611ca5610505565b611c96565b60405190611cb782610535565b604051608083610100830167ffffffffffffffff811184821017611d20575b60405260009283815283602082015283604082015283606082015283838201528360a08201528360c08201528360e082015281528260208201528260408201528260608201520152565b611d28610505565b611cd6565b90611d3782611c83565b611d4460405191826105ab565b8281527fffffffffffffffffffffffffffffffffffffffffffffffffffffffffffffffe0611d728294611c83565b019060005b828110611d8357505050565b602090611d8e611caa565b82828501015201611d77565b507f4e487b7100000000000000000000000000000000000000000000000000000000600052603260045260246000fd5b6020918151811015611ddf575b60051b010190565b611de7611d9a565b611dd7565b9190811015611e2d575b60051b810135907ffffffffffffffffffffffffffffffffffffffffffffffffffffffffffffffea181360301821215610359570190565b611e35611d9a565b611df6565b6002805414611e495760028055565b60646040517f08c379a000000000000000000000000000000000000000000000000000000000815260206004820152601f60248201527f5265656e7472616e637947756172643a207265656e7472616e742063616c6c006044820152fd5b3d15611ed2573d90611eb882610639565b91611ec660405193846105ab565b82523d6000602084013e565b606090565b73ffffffffffffffffffffffffffffffffffffffff168015611f6a57600080809381935af1611f04611ea7565b5015611f0c57565b60646040517f08c379a000000000000000000000000000000000000000000000000000000000815260206004820152601f60248201527f41413931206661696c65642073656e6420746f2062656e6566696369617279006044820152fd5b60646040517f08c379a000000000000000000000000000000000000000000000000000000000815260206004820152601860248201527f4141393020696e76616c69642062656e656669636961727900000000000000006044820152fd5b9035907fffffffffffffffffffffffffffffffffffffffffffffffffffffffffffffffe181360301821215610359570180359067ffffffffffffffff82116103595760200191813603831361035957565b90816020910312610359575190565b601f82602094937fffffffffffffffffffffffffffffffffffffffffffffffffffffffffffffffe0938186528686013760008582860101520116010190565b60005b83811061207a5750506000910152565b818101518382015260200161206a565b907fffffffffffffffffffffffffffffffffffffffffffffffffffffffffffffffe0601f6020936120c681518092818752878088019101612067565b0116010190565b906120e76080916108b796946101c0808652850191612028565b9360e0815173ffffffffffffffffffffffffffffffffffffffff80825116602087015260208201516040870152604082015160608701526060820151858701528482015160a087015260a08201511660c086015260c081015182860152015161010084015260208101516101208401526040810151610140840152606081015161016084015201516101808201526101a081840391015261208a565b506040513d6000823e3d90fd5b507f4e487b7100000000000000000000000000000000000000000000000000000000600052601160045260246000fd5b919082039182116121cd57565b61044d612190565b919082018092116121cd57565b905a918160206121fb6060830151936060810190611fc8565b906122348560405195869485947f1d732756000000000000000000000000000000000000000000000000000000008652600486016120cd565b03816000305af16000918161230f575b50612308575060206000803e7fdeaddead000000000000000000000000000000000000000000000000000000006000511461229b5761229561228a6108b7945a906121c0565b6080840151906121d5565b91614afc565b6040517f220266b600000000000000000000000000000000000000000000000000000000815280610f21600482016080906000815260406020820152600f60408201527f41413935206f7574206f6620676173000000000000000000000000000000000060608201520190565b9250505090565b61233191925060203d8111612338575b61232981836105ab565b810190612019565b9038612244565b503d61231f565b909291925a9380602061235b6060830151946060810190611fc8565b906123948660405195869485947f1d732756000000000000000000000000000000000000000000000000000000008652600486016120cd565b03816000305af160009181612471575b5061246a575060206000803e7fdeaddead00000000000000000000000000000000000000000000000000000000600051146123fc576123f66123eb6108b795965a906121c0565b6080830151906121d5565b92614ddf565b610f21836040519182917f220266b600000000000000000000000000000000000000000000000000000000835260048301608091815260406020820152600f60408201527f41413935206f7574206f6620676173000000000000000000000000000000000060608201520190565b9450505050565b61248a91925060203d81116123385761232981836105ab565b90386123a4565b6001907fffffffffffffffffffffffffffffffffffffffffffffffffffffffffffffffff81146124bf570190565b6124c7612190565b0190565b919081101561250c575b60051b810135907fffffffffffffffffffffffffffffffffffffffffffffffffffffffffffffffa181360301821215610359570190565b612514611d9a565b6124d5565b9035907fffffffffffffffffffffffffffffffffffffffffffffffffffffffffffffffe181360301821215610359570180359067ffffffffffffffff821161035957602001918160051b3603831361035957565b356108b781610422565b1561257e57565b60646040517f08c379a000000000000000000000000000000000000000000000000000000000815260206004820152601760248201527f4141393620696e76616c69642061676772656761746f720000000000000000006044820152fd5b90357fffffffffffffffffffffffffffffffffffffffffffffffffffffffffffffffe18236030181121561035957016020813591019167ffffffffffffffff821161035957813603831361035957565b6108b7916126578161263d8461045c565b73ffffffffffffffffffffffffffffffffffffffff169052565b602082013560208201526126f26126a361268861267760408601866125dc565b610160806040880152860191612028565b61269560608601866125dc565b908583036060870152612028565b6080840135608084015260a084013560a084015260c084013560c084015260e084013560e084015261010080850135908401526101206126e5818601866125dc565b9185840390860152612028565b9161270361014091828101906125dc565b929091818503910152612028565b949391929083604087016040885252606086019360608160051b8801019482600090815b848310612754575050505050508460206108b795968503910152612028565b9091929394977fffffffffffffffffffffffffffffffffffffffffffffffffffffffffffffffa08b820301855288357ffffffffffffffffffffffffffffffffffffffffffffffffffffffffffffffea1843603018112156127cf57600191846127bd920161262c565b98602090810196950193019190612735565b8280fd5b908092918237016000815290565b9290936108b796959260c0958552602085015265ffffffffffff8092166040850152166060830152151560808201528160a0820152019061208a565b1561282457565b60646040517f08c379a000000000000000000000000000000000000000000000000000000000815260206004820152601760248201527f4141393220696e7465726e616c2063616c6c206f6e6c790000000000000000006044820152fd5b9060406108b79260008152816020820152019061208a565b6040906108b793928152816020820152019061208a565b909291925a936128c230331461281d565b8151946040860151955a6113886060830151890101116129e2576108b7966000958051612909575b50505090612903915a9003608084015101943691610682565b91615047565b612938916129349161292f855173ffffffffffffffffffffffffffffffffffffffff1690565b615c12565b1590565b612944575b80806128ea565b61290392919450612953615c24565b908151612967575b5050600193909161293d565b7f1c4fada7374c0a9ee8841fc38afe82932dc0f8e69012e927f061a8bae611a20173ffffffffffffffffffffffffffffffffffffffff6020870151926129d860206129c6835173ffffffffffffffffffffffffffffffffffffffff1690565b9201519560405193849316968361289a565b0390a3388061295b565b7fdeaddead0000000000000000000000000000000000000000000000000000000060005260206000fd5b612a22612a1c6040830183611fc8565b90615c07565b90612a33612a1c6060830183611fc8565b90612ae9612a48612a1c610120840184611fc8565b60405194859360208501956101008201359260e08301359260c08101359260a08201359260808301359273ffffffffffffffffffffffffffffffffffffffff60208201359135168c9693909a9998959261012098959273ffffffffffffffffffffffffffffffffffffffff6101408a019d168952602089015260408801526060870152608086015260a085015260c084015260e08301526101008201520152565b0391612b1b7fffffffffffffffffffffffffffffffffffffffffffffffffffffffffffffffe0938481018352826105ab565b51902060408051602081019283523091810191909152466060820152608092830181529091612b4a90826105ab565b51902090565b604051906040820182811067ffffffffffffffff821117612b7b575b60405260006020838281520152565b612b83610505565b612b6c565b906014116103595790601490565b7fffffffffffffffffffffffffffffffffffffffff0000000000000000000000009035818116939260148110612bcb57505050565b60140360031b82901b16169150565b9060c060a06108b793805184526020810151602085015260408101511515604085015265ffffffffffff80606083015116606086015260808201511660808501520151918160a0820152019061208a565b9294612c8c61044d95612c7a610100959998612c68612c54602097610140808c528b0190612bda565b9b878a019060208091805184520151910152565b80516060890152602001516080880152565b805160a08701526020015160c0860152565b73ffffffffffffffffffffffffffffffffffffffff81511660e0850152015191019060208091805184520151910152565b612d0661044d94612cf4612cdf60a0959998969960e0865260e0860190612bda565b98602085019060208091805184520151910152565b80516060840152602001516080830152565b019060208091805184520151910152565b9081602091031261035957516108b781610422565b9160206108b7938181520191612028565b90612d6c73ffffffffffffffffffffffffffffffffffffffff916108b797959694606085526060850191612028565b941660208201526040818503910152612028565b60009060033d11612d8d57565b905060046000803e60005160e01c90565b600060443d106108b7576040517ffffffffffffffffffffffffffffffffffffffffffffffffffffffffffffffffc91823d016004833e815167ffffffffffffffff918282113d602484011117612e1a57818401948551938411612e22573d85010160208487010111612e1a57506108b7929101602001906105ab565b949350505050565b50949350505050565b612e386040820182611fc8565b612e50612e448461256d565b93610120810190611fc8565b9290303b1561035957600093612e949160405196879586957f957122ab00000000000000000000000000000000000000000000000000000000875260048701612d3d565b0381305afa9081612f1d575b5061044d576001612eaf612d80565b6308c379a014612ec8575b612ec057565b61044d612183565b612ed0612d9e565b80612edc575b50612eba565b80516000925015612ed657610f21906040519182917f220266b600000000000000000000000000000000000000000000000000000000835260048301612882565b80610f48612f2a9261057b565b38612ea0565b9190612f3b9061317f565b73ffffffffffffffffffffffffffffffffffffffff929183166130da5761306c57612f659061317f565b9116612ffe57612f725750565b604080517f220266b600000000000000000000000000000000000000000000000000000000815260048101929092526024820152602160448201527f41413332207061796d61737465722065787069726564206f72206e6f7420647560648201527f6500000000000000000000000000000000000000000000000000000000000000608482015260a490fd5b610f21826040519182917f220266b600000000000000000000000000000000000000000000000000000000835260048301608091815260406020820152601460408201527f41413334207369676e6174757265206572726f7200000000000000000000000060608201520190565b610f21836040519182917f220266b600000000000000000000000000000000000000000000000000000000835260048301608091815260406020820152601760408201527f414132322065787069726564206f72206e6f742064756500000000000000000060608201520190565b610f21846040519182917f220266b600000000000000000000000000000000000000000000000000000000835260048301608091815260406020820152601460408201527f41413234207369676e6174757265206572726f7200000000000000000000000060608201520190565b9291906131549061317f565b909273ffffffffffffffffffffffffffffffffffffffff808095169116036130da5761306c57612f65905b80156131d25761318e9061535f565b73ffffffffffffffffffffffffffffffffffffffff65ffffffffffff8060408401511642119081156131c2575b5091511691565b90506020830151164210386131bb565b50600090600090565b156131e257565b60646040517f08c379a000000000000000000000000000000000000000000000000000000000815260206004820152601860248201527f41413934206761732076616c756573206f766572666c6f7700000000000000006044820152fd5b916000915a9381519061325382826136b3565b61325c81612a0c565b602084015261329a6effffffffffffffffffffffffffffff60808401516060850151176040850151176101008401359060e0850135171711156131db565b6132a382613775565b6132ae818584613836565b97906132df6129346132d4875173ffffffffffffffffffffffffffffffffffffffff1690565b60208801519061546c565b6133db576132ec43600052565b73ffffffffffffffffffffffffffffffffffffffff61332460a0606097015173ffffffffffffffffffffffffffffffffffffffff1690565b166133c1575b505a810360a0840135106133545760809360c092604087015260608601525a900391013501910152565b6040517f220266b600000000000000000000000000000000000000000000000000000000815280610f21600482016080906000815260406020820152601e60408201527f41413430206f76657220766572696669636174696f6e4761734c696d6974000060608201520190565b909350816133d2929750858461455c565b9590923861332a565b6040517f220266b600000000000000000000000000000000000000000000000000000000815280610f21600482016080906000815260406020820152601a60408201527f4141323520696e76616c6964206163636f756e74206e6f6e636500000000000060608201520190565b9290916000925a825161345b81846136b3565b61346483612a0c565b60208501526134a26effffffffffffffffffffffffffffff60808301516060840151176040840151176101008601359060e0870135171711156131db565b6134ab81613775565b6134b78186868b613ba2565b98906134e86129346134dd865173ffffffffffffffffffffffffffffffffffffffff1690565b60208701519061546c565b6135e0576134f543600052565b73ffffffffffffffffffffffffffffffffffffffff61352d60a0606096015173ffffffffffffffffffffffffffffffffffffffff1690565b166135c5575b505a840360a08601351061355f5750604085015260608401526080919060c0905a900391013501910152565b604080517f220266b600000000000000000000000000000000000000000000000000000000815260048101929092526024820152601e60448201527f41413430206f76657220766572696669636174696f6e4761734c696d697400006064820152608490fd5b909250816135d79298508686856147ef565b96909138613533565b610f21826040519182917f220266b600000000000000000000000000000000000000000000000000000000835260048301608091815260406020820152601a60408201527f4141323520696e76616c6964206163636f756e74206e6f6e636500000000000060608201520190565b1561365557565b60646040517f08c379a000000000000000000000000000000000000000000000000000000000815260206004820152601d60248201527f4141393320696e76616c6964207061796d6173746572416e64446174610000006044820152fd5b613725906136dd6136c38261256d565b73ffffffffffffffffffffffffffffffffffffffff168452565b602081013560208401526080810135604084015260a0810135606084015260c0810135608084015260e081013560c084015261010081013560e0840152610120810190611fc8565b90811561376a5761374f61124c6112468460a09461374a601461044d9998101561364e565b612b88565b73ffffffffffffffffffffffffffffffffffffffff16910152565b505060a06000910152565b60a081015173ffffffffffffffffffffffffffffffffffffffff16156137b75760c060035b60ff60408401519116606084015102016080830151019101510290565b60c0600161379a565b6137d86040929594939560608352606083019061262c565b9460208201520152565b9061044d602f60405180947f414132332072657665727465643a20000000000000000000000000000000000060208301526138268151809260208686019101612067565b810103600f8101855201836105ab565b916000926000925a936139046020835193613865855173ffffffffffffffffffffffffffffffffffffffff1690565b9561387d6138766040830183611fc8565b9084613e0d565b60a086015173ffffffffffffffffffffffffffffffffffffffff16906138a243600052565b85809373ffffffffffffffffffffffffffffffffffffffff809416159889613b3a575b60600151908601516040517f3a871cdd0000000000000000000000000000000000000000000000000000000081529788968795869390600485016137c0565b03938a1690f1829181613b1a575b50613b115750600190613923612d80565b6308c379a014613abd575b50613a50575b613941575b50505a900391565b61396b9073ffffffffffffffffffffffffffffffffffffffff166000526000602052604060002090565b613986610a2c82546dffffffffffffffffffffffffffff1690565b8083116139e3576139dc926dffffffffffffffffffffffffffff9103166dffffffffffffffffffffffffffff167fffffffffffffffffffffffffffffffffffff0000000000000000000000000000825416179055565b3880613939565b6040517f220266b600000000000000000000000000000000000000000000000000000000815280610f21600482016080906000815260406020820152601760408201527f41413231206469646e2774207061792070726566756e6400000000000000000060608201520190565b6040517f220266b600000000000000000000000000000000000000000000000000000000815280610f21600482016080906000815260406020820152601660408201527f4141323320726576657274656420286f72204f4f47290000000000000000000060608201520190565b613ac5612d9e565b9081613ad1575061392e565b610f2191613adf91506137e2565b6040519182917f220266b600000000000000000000000000000000000000000000000000000000835260048301612882565b95506139349050565b613b3391925060203d81116123385761232981836105ab565b9038613912565b9450613b80610a2c613b6c8c73ffffffffffffffffffffffffffffffffffffffff166000526000602052604060002090565b546dffffffffffffffffffffffffffff1690565b8b811115613b975750856060835b969150506138c5565b606087918d03613b8e565b90926000936000935a94613beb6020835193613bd2855173ffffffffffffffffffffffffffffffffffffffff1690565b9561387d613be36040830183611fc8565b90848c61412b565b03938a1690f1829181613ded575b50613de45750600190613c0a612d80565b6308c379a014613d8e575b50613d20575b613c29575b5050505a900391565b613c539073ffffffffffffffffffffffffffffffffffffffff166000526000602052604060002090565b91613c6f610a2c84546dffffffffffffffffffffffffffff1690565b90818311613cba575082547fffffffffffffffffffffffffffffffffffff0000000000000000000000000000169190036dffffffffffffffffffffffffffff16179055388080613c20565b604080517f220266b600000000000000000000000000000000000000000000000000000000815260048101929092526024820152601760448201527f41413231206469646e2774207061792070726566756e640000000000000000006064820152608490fd5b610f21846040519182917f220266b600000000000000000000000000000000000000000000000000000000835260048301608091815260406020820152601660408201527f4141323320726576657274656420286f72204f4f47290000000000000000000060608201520190565b613d96612d9e565b9081613da25750613c15565b8691613dae91506137e2565b90610f216040519283927f220266b60000000000000000000000000000000000000000000000000000000084526004840161289a565b9650613c1b9050565b613e0691925060203d81116123385761232981836105ab565b9038613bf9565b909180613e1957505050565b81515173ffffffffffffffffffffffffffffffffffffffff1692833b6140be57606083510151604051907f570e1a3600000000000000000000000000000000000000000000000000000000825260208280613e78878760048401612d2c565b0381600073ffffffffffffffffffffffffffffffffffffffff95867f00000000000000000000000000000000000000000000000000000000000000001690f19182156140b1575b600092614091575b508082169586156140245716809503613fb7573b15613f4a5761124c6112467fd51a9c61267aa6196961883ecf5ff2da6619c37dac0fa92122513fb32c032d2d93613f1193612b88565b602083810151935160a001516040805173ffffffffffffffffffffffffffffffffffffffff9485168152939091169183019190915290a3565b6040517f220266b600000000000000000000000000000000000000000000000000000000815280610f21600482016080906000815260406020820152602060408201527f4141313520696e6974436f6465206d757374206372656174652073656e64657260608201520190565b6040517f220266b600000000000000000000000000000000000000000000000000000000815280610f21600482016080906000815260406020820152602060408201527f4141313420696e6974436f6465206d7573742072657475726e2073656e64657260608201520190565b6040517f220266b600000000000000000000000000000000000000000000000000000000815280610f21600482016080906000815260406020820152601b60408201527f4141313320696e6974436f6465206661696c6564206f72204f4f47000000000060608201520190565b6140aa91925060203d811161146a5761145b81836105ab565b9038613ec7565b6140b9612183565b613ebf565b6040517f220266b600000000000000000000000000000000000000000000000000000000815280610f21600482016080906000815260406020820152601f60408201527f414131302073656e64657220616c726561647920636f6e73747275637465640060608201520190565b9290918161413a575b50505050565b82515173ffffffffffffffffffffffffffffffffffffffff1693843b6143e257606084510151604051907f570e1a3600000000000000000000000000000000000000000000000000000000825260208280614199888860048401612d2c565b0381600073ffffffffffffffffffffffffffffffffffffffff95867f00000000000000000000000000000000000000000000000000000000000000001690f19182156143d5575b6000926143b5575b5080821696871561434757168096036142d9573b15614273575061124c6112467fd51a9c61267aa6196961883ecf5ff2da6619c37dac0fa92122513fb32c032d2d9361423393612b88565b602083810151935160a001516040805173ffffffffffffffffffffffffffffffffffffffff9485168152939091169183019190915290a338808080614134565b604080517f220266b600000000000000000000000000000000000000000000000000000000815260048101929092526024820152602060448201527f4141313520696e6974436f6465206d757374206372656174652073656e6465726064820152608490fd5b610f21826040519182917f220266b600000000000000000000000000000000000000000000000000000000835260048301608091815260406020820152602060408201527f4141313420696e6974436f6465206d7573742072657475726e2073656e64657260608201520190565b610f21846040519182917f220266b600000000000000000000000000000000000000000000000000000000835260048301608091815260406020820152601b60408201527f4141313320696e6974436f6465206661696c6564206f72204f4f47000000000060608201520190565b6143ce91925060203d811161146a5761145b81836105ab565b90386141e8565b6143dd612183565b6141e0565b604080517f220266b600000000000000000000000000000000000000000000000000000000815260048101929092526024820152601f60448201527f414131302073656e64657220616c726561647920636f6e7374727563746564006064820152608490fd5b1561444f57565b60646040517f08c379a000000000000000000000000000000000000000000000000000000000815260206004820152601f60248201527f4141343120746f6f206c6974746c6520766572696669636174696f6e476173006044820152fd5b919060408382031261035957825167ffffffffffffffff81116103595783019080601f83011215610359578151916144e483610639565b916144f260405193846105ab565b838352602084830101116103595760209261451291848085019101612067565b92015190565b9061044d602f60405180947f414133332072657665727465643a20000000000000000000000000000000000060208301526138268151809260208686019101612067565b93919260609460009460009380519261459b60a08a86015195614580888811614448565b015173ffffffffffffffffffffffffffffffffffffffff1690565b916145c68373ffffffffffffffffffffffffffffffffffffffff166000526000602052604060002090565b946145e2610a2c87546dffffffffffffffffffffffffffff1690565b968588106147825773ffffffffffffffffffffffffffffffffffffffff60208a98946146588a966dffffffffffffffffffffffffffff8b6146919e03166dffffffffffffffffffffffffffff167fffffffffffffffffffffffffffffffffffff0000000000000000000000000000825416179055565b015194604051998a98899788937ff465c77e000000000000000000000000000000000000000000000000000000008552600485016137c0565b0395169103f190818391849361475c575b506147555750506001906146b4612d80565b6308c379a014614733575b506146c657565b6040517f220266b600000000000000000000000000000000000000000000000000000000815280610f21600482016080906000815260406020820152601660408201527f4141333320726576657274656420286f72204f4f47290000000000000000000060608201520190565b61473b612d9e565b908161474757506146bf565b610f2191613adf9150614518565b9450925050565b90925061477b91503d8085833e61477381836105ab565b8101906144ad565b91386146a2565b6040517f220266b600000000000000000000000000000000000000000000000000000000815280610f21600482016080906000815260406020820152601e60408201527f41413331207061796d6173746572206465706f73697420746f6f206c6f77000060608201520190565b91949293909360609560009560009382519061481660a08b84015193614580848611614448565b936148418573ffffffffffffffffffffffffffffffffffffffff166000526000602052604060002090565b61485c610a2c82546dffffffffffffffffffffffffffff1690565b8781106149b7579273ffffffffffffffffffffffffffffffffffffffff60208a989693946146588a966dffffffffffffffffffffffffffff8d6148d69e9c9a03166dffffffffffffffffffffffffffff167fffffffffffffffffffffffffffffffffffff0000000000000000000000000000825416179055565b0395169103f1908183918493614999575b506149915750506001906148f9612d80565b6308c379a014614972575b5061490c5750565b604080517f220266b600000000000000000000000000000000000000000000000000000000815260048101929092526024820152601660448201527f4141333320726576657274656420286f72204f4f4729000000000000000000006064820152608490fd5b61497a612d9e565b90816149865750614904565b613dae925050614518565b955093505050565b9092506149b091503d8085833e61477381836105ab565b91386148e7565b610f218a6040519182917f220266b600000000000000000000000000000000000000000000000000000000835260048301608091815260406020820152601e60408201527f41413331207061796d6173746572206465706f73697420746f6f206c6f77000060608201520190565b60031115614a2f57565b7f4e487b7100000000000000000000000000000000000000000000000000000000600052602160045260246000fd5b929190614a7c6040916002865260606020870152606086019061208a565b930152565b939291906003811015614a2f57604091614a7c91865260606020870152606086019061208a565b9061044d603660405180947f4141353020706f73744f702072657665727465643a20000000000000000000006020830152614aec8151809260208686019101612067565b81010360168101855201836105ab565b929190925a93600091805191614b1183615318565b9260a0810195614b35875173ffffffffffffffffffffffffffffffffffffffff1690565b73ffffffffffffffffffffffffffffffffffffffff93908481169081614ca457505050614b76825173ffffffffffffffffffffffffffffffffffffffff1690565b985b5a90030193840297604084019089825110614c37577f49628fd1471006c1482da88028e9ce4dbb080b815c9b0344d39e5a8e6ec1419f94614bc26020928c614c329551039061553a565b015194896020614c04614be9865173ffffffffffffffffffffffffffffffffffffffff1690565b9a5173ffffffffffffffffffffffffffffffffffffffff1690565b9401519785604051968796169a16988590949392606092608083019683521515602083015260408201520152565b0390a4565b6040517f220266b600000000000000000000000000000000000000000000000000000000815280610f21600482016080906000815260406020820152602060408201527f414135312070726566756e642062656c6f772061637475616c476173436f737460608201520190565b9a918051614cb4575b5050614b78565b6060850151600099509091803b15614ddb579189918983614d07956040518097819682957fa9a234090000000000000000000000000000000000000000000000000000000084528c029060048401614a5e565b0393f19081614dc8575b50614dc3576001614d20612d80565b6308c379a014614da4575b614d37575b3880614cad565b6040517f220266b600000000000000000000000000000000000000000000000000000000815280610f21600482016080906000815260406020820152601260408201527f4141353020706f73744f7020726576657274000000000000000000000000000060608201520190565b614dac612d9e565b80614db75750614d2b565b613adf610f2191614aa8565b614d30565b80610f48614dd59261057b565b38614d11565b8980fd5b9392915a90600092805190614df382615318565b9360a0830196614e17885173ffffffffffffffffffffffffffffffffffffffff1690565b73ffffffffffffffffffffffffffffffffffffffff95908681169081614f0d57505050614e58845173ffffffffffffffffffffffffffffffffffffffff1690565b915b5a9003019485029860408301908a825110614ea757507f49628fd1471006c1482da88028e9ce4dbb080b815c9b0344d39e5a8e6ec1419f949392614bc2614c32938c60209451039061553a565b604080517f220266b600000000000000000000000000000000000000000000000000000000815260048101929092526024820152602060448201527f414135312070726566756e642062656c6f772061637475616c476173436f73746064820152608490fd5b93918051614f1d575b5050614e5a565b606087015160009a509091803b1561504357918a918a83614f70956040518097819682957fa9a234090000000000000000000000000000000000000000000000000000000084528c029060048401614a5e565b0393f19081615030575b5061502b576001614f89612d80565b6308c379a01461500e575b614fa0575b3880614f16565b610f218b6040519182917f220266b600000000000000000000000000000000000000000000000000000000835260048301608091815260406020820152601260408201527f4141353020706f73744f7020726576657274000000000000000000000000000060608201520190565b615016612d9e565b806150215750614f94565b613dae8d91614aa8565b614f99565b80610f4861503d9261057b565b38614f7a565b8a80fd5b909392915a9480519161505983615318565b9260a081019561507d875173ffffffffffffffffffffffffffffffffffffffff1690565b73ffffffffffffffffffffffffffffffffffffffff938185169182615165575050506150bd825173ffffffffffffffffffffffffffffffffffffffff1690565b985b5a90030193840297604084019089825110614c37577f49628fd1471006c1482da88028e9ce4dbb080b815c9b0344d39e5a8e6ec1419f946151096020928c614c329551039061553a565b61511288614a25565b015194896020615139614be9865173ffffffffffffffffffffffffffffffffffffffff1690565b940151604080519182529815602082015297880152606087015290821695909116939081906080820190565b9a918151615175575b50506150bf565b8784026151818a614a25565b60028a1461520c576060860151823b15610359576151d493600080948d604051978896879586937fa9a2340900000000000000000000000000000000000000000000000000000000855260048501614a81565b0393f180156151ff575b6151ec575b505b388061516e565b80610f486151f99261057b565b386151e3565b615207612183565b6151de565b6060860151823b156103595761525793600080948d604051978896879586937fa9a2340900000000000000000000000000000000000000000000000000000000855260048501614a81565b0393f19081615305575b50615300576001615270612d80565b6308c379a0146152ed575b156151e5576040517f220266b600000000000000000000000000000000000000000000000000000000815280610f21600482016080906000815260406020820152601260408201527f4141353020706f73744f7020726576657274000000000000000000000000000060608201520190565b6152f5612d9e565b80614db7575061527b565b6151e5565b80610f486153129261057b565b38615261565b60e060c082015191015180821461533c57480180821015615337575090565b905090565b5090565b6040519061534d8261058f565b60006040838281528260208201520152565b615367615340565b5065ffffffffffff808260a01c1680156153b3575b604051926153898461058f565b73ffffffffffffffffffffffffffffffffffffffff8116845260d01c602084015216604082015290565b508061537c565b6153cf6153d5916153c9615340565b5061535f565b9161535f565b9073ffffffffffffffffffffffffffffffffffffffff9182825116928315615461575b65ffffffffffff928391826040816020850151169301511693836040816020840151169201511690808410615459575b50808511615451575b506040519561543f8761058f565b16855216602084015216604082015290565b935038615431565b925038615428565b8151811693506153f8565b73ffffffffffffffffffffffffffffffffffffffff16600052600160205267ffffffffffffffff6154c88260401c60406000209077ffffffffffffffffffffffffffffffffffffffffffffffff16600052602052604060002090565b918254926154d584612491565b9055161490565b9073ffffffffffffffffffffffffffffffffffffffff6154fa612b50565b9216600052600060205263ffffffff600160406000206dffffffffffffffffffffffffffff815460781c1685520154166020830152565b61044d3361562b565b73ffffffffffffffffffffffffffffffffffffffff16600052600060205260406000206dffffffffffffffffffffffffffff8082541692830180931161561e575b8083116155c05761044d92166dffffffffffffffffffffffffffff167fffffffffffffffffffffffffffffffffffff0000000000000000000000000000825416179055565b60646040517f08c379a000000000000000000000000000000000000000000000000000000000815260206004820152601060248201527f6465706f736974206f766572666c6f77000000000000000000000000000000006044820152fd5b615626612190565b61557b565b73ffffffffffffffffffffffffffffffffffffffff9061564b348261553a565b168060005260006020527f2da466a7b24304f47e87fa2e1e5a81b9831ce54fec19055ce277ca2f39ba42c460206dffffffffffffffffffffffffffff60406000205416604051908152a2565b1561569e57565b60646040517f08c379a000000000000000000000000000000000000000000000000000000000815260206004820152601a60248201527f6d757374207370656369667920756e7374616b652064656c61790000000000006044820152fd5b1561570357565b60646040517f08c379a000000000000000000000000000000000000000000000000000000000815260206004820152601c60248201527f63616e6e6f7420646563726561736520756e7374616b652074696d65000000006044820152fd5b1561576857565b60646040517f08c379a000000000000000000000000000000000000000000000000000000000815260206004820152601260248201527f6e6f207374616b652073706563696669656400000000000000000000000000006044820152fd5b156157cd57565b60646040517f08c379a000000000000000000000000000000000000000000000000000000000815260206004820152600e60248201527f7374616b65206f766572666c6f770000000000000000000000000000000000006044820152fd5b9065ffffffffffff6080600161044d9461588b6dffffffffffffffffffffffffffff86511682906dffffffffffffffffffffffffffff167fffffffffffffffffffffffffffffffffffff0000000000000000000000000000825416179055565b602085015115156eff000000000000000000000000000082549160701b16807fffffffffffffffffffffffffffffffffff00ffffffffffffffffffffffffffff83161783557fffffff000000000000000000000000000000ffffffffffffffffffffffffffff7cffffffffffffffffffffffffffff000000000000000000000000000000604089015160781b16921617178155019263ffffffff6060820151167fffffffffffffffffffffffffffffffffffffffffffffffffffffffff000000008554161784550151167fffffffffffffffffffffffffffffffffffffffffffff000000000000ffffffff69ffffffffffff0000000083549260201b169116179055565b1561599657565b60646040517f08c379a000000000000000000000000000000000000000000000000000000000815260206004820152601160248201527f616c726561647920756e7374616b696e670000000000000000000000000000006044820152fd5b91909165ffffffffffff808094169116019182116121cd57565b15615a1557565b60646040517f08c379a000000000000000000000000000000000000000000000000000000000815260206004820152601460248201527f4e6f207374616b6520746f2077697468647261770000000000000000000000006044820152fd5b15615a7a57565b60646040517f08c379a000000000000000000000000000000000000000000000000000000000815260206004820152601d60248201527f6d7573742063616c6c20756e6c6f636b5374616b6528292066697273740000006044820152fd5b15615adf57565b60646040517f08c379a000000000000000000000000000000000000000000000000000000000815260206004820152601b60248201527f5374616b65207769746864726177616c206973206e6f742064756500000000006044820152fd5b15615b4457565b60646040517f08c379a000000000000000000000000000000000000000000000000000000000815260206004820152601860248201527f6661696c656420746f207769746864726177207374616b6500000000000000006044820152fd5b15615ba957565b60646040517f08c379a000000000000000000000000000000000000000000000000000000000815260206004820152601260248201527f6661696c656420746f20776974686472617700000000000000000000000000006044820152fd5b816040519182372090565b9060009283809360208451940192f190565b3d610800808211615c4b575b50604051906020818301016040528082526000602083013e90565b905038615c3056fea2646970667358221220c0eedef6eb4ae9d1a83a8d02a5912ecfa344da1cc4e8795a40eda1eef6a5c80664736f6c634300081100336080806040523461001657610210908161001c8239f35b600080fdfe6080604052600436101561001257600080fd5b6000803560e01c63570e1a361461002857600080fd5b346100c95760207ffffffffffffffffffffffffffffffffffffffffffffffffffffffffffffffffc3601126100c95760043567ffffffffffffffff918282116100c957366023830112156100c95781600401359283116100c95736602484840101116100c9576100c561009e84602485016100fc565b60405173ffffffffffffffffffffffffffffffffffffffff90911681529081906020820190565b0390f35b80fd5b507f4e487b7100000000000000000000000000000000000000000000000000000000600052604160045260246000fd5b90806014116101bb5767ffffffffffffffff917fffffffffffffffffffffffffffffffffffffffffffffffffffffffffffffffec82018381116101cd575b604051937fffffffffffffffffffffffffffffffffffffffffffffffffffffffffffffffe0603f81600b8701160116850190858210908211176101c0575b604052808452602084019036848401116101bb576020946000600c819682946014880187378301015251923560601c5af19060005191156101b557565b60009150565b600080fd5b6101c86100cc565b610178565b6101d56100cc565b61013a56fea26469706673582212201671bcc582585dff1b1e0ee349cf1db8f55f87daa21d11b5995f7ae0d942f4e864736f6c63430008110033","opcodes":"PUSH1 0xA0 DUP1 PUSH1 0x40 MSTORE CALLVALUE PUSH3 0x89 JUMPI PUSH1 0x1 PUSH1 0x2 SSTORE PUSH2 0x22C DUP2 DUP2 ADD PUSH1 0x1 PUSH1 0x1 PUSH1 0x40 SHL SUB DUP2 GT DUP4 DUP3 LT OR PUSH3 0x73 JUMPI DUP3 SWAP2 PUSH3 0x5D18 DUP4 CODECOPY SUB SWAP1 PUSH1 0x0 CREATE DUP1 ISZERO PUSH3 0x67 JUMPI PUSH1 0x80 MSTORE PUSH1 0x40 MLOAD PUSH2 0x5C89 SWAP1 DUP2 PUSH3 0x8F DUP3 CODECOPY PUSH1 0x80 MLOAD DUP2 DUP2 DUP2 PUSH2 0x13DF ADD MSTORE DUP2 DUP2 PUSH2 0x3E95 ADD MSTORE PUSH2 0x41B6 ADD MSTORE RETURN JUMPDEST PUSH1 0x40 MLOAD RETURNDATASIZE PUSH1 0x0 DUP3 RETURNDATACOPY RETURNDATASIZE SWAP1 REVERT JUMPDEST PUSH4 0x4E487B71 PUSH1 0xE0 SHL PUSH1 0x0 MSTORE PUSH1 0x41 PUSH1 0x4 MSTORE PUSH1 0x24 PUSH1 0x0 REVERT JUMPDEST PUSH1 0x0 DUP1 REVERT INVALID PUSH1 0x80 PUSH1 0x40 MSTORE PUSH1 0x4 CALLDATASIZE LT ISZERO PUSH2 0x23 JUMPI JUMPDEST CALLDATASIZE ISZERO PUSH2 0x19 JUMPI PUSH1 0x0 DUP1 REVERT JUMPDEST PUSH2 0x21 PUSH2 0x5531 JUMP JUMPDEST STOP JUMPDEST PUSH1 0x0 CALLDATALOAD PUSH1 0xE0 SHR DUP1 PUSH4 0x396CB60 EQ PUSH2 0x1B3 JUMPI DUP1 PUSH4 0xBD28E3B EQ PUSH2 0x1AA JUMPI DUP1 PUSH4 0x1B2E01B8 EQ PUSH2 0x1A1 JUMPI DUP1 PUSH4 0x1D732756 EQ PUSH2 0x198 JUMPI DUP1 PUSH4 0x1FAD948C EQ PUSH2 0x18F JUMPI DUP1 PUSH4 0x205C2878 EQ PUSH2 0x186 JUMPI DUP1 PUSH4 0x35567E1A EQ PUSH2 0x17D JUMPI DUP1 PUSH4 0x4B1D7CF5 EQ PUSH2 0x174 JUMPI DUP1 PUSH4 0x5287CE12 EQ PUSH2 0x16B JUMPI DUP1 PUSH4 0x70A08231 EQ PUSH2 0x162 JUMPI DUP1 PUSH4 0x8F41EC5A EQ PUSH2 0x159 JUMPI DUP1 PUSH4 0x957122AB EQ PUSH2 0x150 JUMPI DUP1 PUSH4 0x9B249F69 EQ PUSH2 0x147 JUMPI DUP1 PUSH4 0xA6193531 EQ PUSH2 0x13E JUMPI DUP1 PUSH4 0xB760FAF9 EQ PUSH2 0x135 JUMPI DUP1 PUSH4 0xBB9FE6BF EQ PUSH2 0x12C JUMPI DUP1 PUSH4 0xC23A5CEA EQ PUSH2 0x123 JUMPI DUP1 PUSH4 0xD6383F94 EQ PUSH2 0x11A JUMPI DUP1 PUSH4 0xEE219423 EQ PUSH2 0x111 JUMPI PUSH4 0xFC7E286D SUB PUSH2 0xE JUMPI PUSH2 0x10C PUSH2 0x1BCD JUMP JUMPDEST PUSH2 0xE JUMP JUMPDEST POP PUSH2 0x10C PUSH2 0x19B5 JUMP JUMPDEST POP PUSH2 0x10C PUSH2 0x184D JUMP JUMPDEST POP PUSH2 0x10C PUSH2 0x16B4 JUMP JUMPDEST POP PUSH2 0x10C PUSH2 0x1536 JUMP JUMPDEST POP PUSH2 0x10C PUSH2 0x14F7 JUMP JUMPDEST POP PUSH2 0x10C PUSH2 0x14D6 JUMP JUMPDEST POP PUSH2 0x10C PUSH2 0x1337 JUMP JUMPDEST POP PUSH2 0x10C PUSH2 0x1164 JUMP JUMPDEST POP PUSH2 0x10C PUSH2 0x1129 JUMP JUMPDEST POP PUSH2 0x10C PUSH2 0x10A4 JUMP JUMPDEST POP PUSH2 0x10C PUSH2 0xF54 JUMP JUMPDEST POP PUSH2 0x10C PUSH2 0xBF8 JUMP JUMPDEST POP PUSH2 0x10C PUSH2 0xB33 JUMP JUMPDEST POP PUSH2 0x10C PUSH2 0x994 JUMP JUMPDEST POP PUSH2 0x10C PUSH2 0x8BA JUMP JUMPDEST POP PUSH2 0x10C PUSH2 0x6E7 JUMP JUMPDEST POP PUSH2 0x10C PUSH2 0x467 JUMP JUMPDEST POP PUSH2 0x10C PUSH2 0x385 JUMP JUMPDEST POP PUSH1 0x20 PUSH32 0xFFFFFFFFFFFFFFFFFFFFFFFFFFFFFFFFFFFFFFFFFFFFFFFFFFFFFFFFFFFFFFFC CALLDATASIZE ADD SLT PUSH2 0x359 JUMPI PUSH1 0x4 CALLDATALOAD PUSH4 0xFFFFFFFF DUP2 AND DUP1 DUP3 SUB PUSH2 0x359 JUMPI PUSH2 0x354 PUSH32 0xA5AE833D0BB1DCD632D98A8B70973E8516812898E19BF27B70071EBC8DC52C01 SWAP2 PUSH2 0x271 PUSH2 0x241 CALLER PUSH20 0xFFFFFFFFFFFFFFFFFFFFFFFFFFFFFFFFFFFFFFFF AND PUSH1 0x0 MSTORE PUSH1 0x0 PUSH1 0x20 MSTORE PUSH1 0x40 PUSH1 0x0 KECCAK256 SWAP1 JUMP JUMPDEST SWAP2 PUSH2 0x24D DUP2 ISZERO ISZERO PUSH2 0x5697 JUMP JUMPDEST PUSH2 0x26A PUSH2 0x261 PUSH1 0x1 DUP6 ADD SLOAD PUSH4 0xFFFFFFFF AND SWAP1 JUMP JUMPDEST PUSH4 0xFFFFFFFF AND SWAP1 JUMP JUMPDEST GT ISZERO PUSH2 0x56FC JUMP JUMPDEST SLOAD SWAP3 PUSH2 0x336 PUSH14 0xFFFFFFFFFFFFFFFFFFFFFFFFFFFF SWAP5 PUSH2 0x2F4 PUSH2 0x298 CALLVALUE DUP9 DUP5 PUSH1 0x78 SHR AND PUSH2 0x21D5 JUMP JUMPDEST SWAP7 PUSH2 0x2A4 DUP9 ISZERO ISZERO PUSH2 0x5761 JUMP JUMPDEST PUSH2 0x2B0 DUP2 DUP10 GT ISZERO PUSH2 0x57C6 JUMP JUMPDEST PUSH2 0x2D4 DUP2 PUSH2 0x2BC PUSH2 0x5EC JUMP JUMPDEST SWAP5 AND DUP5 SWAP1 PUSH14 0xFFFFFFFFFFFFFFFFFFFFFFFFFFFF AND SWAP1 MSTORE JUMP JUMPDEST PUSH1 0x1 PUSH1 0x20 DUP5 ADD MSTORE DUP8 AND PUSH14 0xFFFFFFFFFFFFFFFFFFFFFFFFFFFF AND PUSH1 0x40 DUP4 ADD MSTORE JUMP JUMPDEST PUSH4 0xFFFFFFFF DUP4 AND PUSH1 0x60 DUP3 ADD MSTORE PUSH1 0x0 PUSH1 0x80 DUP3 ADD MSTORE PUSH2 0x331 CALLER PUSH20 0xFFFFFFFFFFFFFFFFFFFFFFFFFFFFFFFFFFFFFFFF AND PUSH1 0x0 MSTORE PUSH1 0x0 PUSH1 0x20 MSTORE PUSH1 0x40 PUSH1 0x0 KECCAK256 SWAP1 JUMP JUMPDEST PUSH2 0x582B JUMP JUMPDEST PUSH1 0x40 DUP1 MLOAD SWAP5 DUP6 MSTORE PUSH4 0xFFFFFFFF SWAP1 SWAP2 AND PUSH1 0x20 DUP6 ADD MSTORE CALLER SWAP4 SWAP2 DUP3 SWAP2 DUP3 ADD SWAP1 JUMP JUMPDEST SUB SWAP1 LOG2 STOP JUMPDEST PUSH1 0x0 DUP1 REVERT JUMPDEST PUSH1 0x24 CALLDATALOAD SWAP1 PUSH24 0xFFFFFFFFFFFFFFFFFFFFFFFFFFFFFFFFFFFFFFFFFFFFFFFF DUP3 AND DUP3 SUB PUSH2 0x359 JUMPI JUMP JUMPDEST POP CALLVALUE PUSH2 0x359 JUMPI PUSH1 0x20 PUSH32 0xFFFFFFFFFFFFFFFFFFFFFFFFFFFFFFFFFFFFFFFFFFFFFFFFFFFFFFFFFFFFFFFC CALLDATASIZE ADD SLT PUSH2 0x359 JUMPI PUSH1 0x4 CALLDATALOAD PUSH24 0xFFFFFFFFFFFFFFFFFFFFFFFFFFFFFFFFFFFFFFFFFFFFFFFF DUP2 AND DUP2 SUB PUSH2 0x359 JUMPI PUSH2 0x414 SWAP1 CALLER PUSH1 0x0 MSTORE PUSH1 0x1 PUSH1 0x20 MSTORE PUSH1 0x40 PUSH1 0x0 KECCAK256 SWAP1 PUSH24 0xFFFFFFFFFFFFFFFFFFFFFFFFFFFFFFFFFFFFFFFFFFFFFFFF AND PUSH1 0x0 MSTORE PUSH1 0x20 MSTORE PUSH1 0x40 PUSH1 0x0 KECCAK256 SWAP1 JUMP JUMPDEST PUSH2 0x41E DUP2 SLOAD PUSH2 0x2491 JUMP JUMPDEST SWAP1 SSTORE STOP JUMPDEST PUSH20 0xFFFFFFFFFFFFFFFFFFFFFFFFFFFFFFFFFFFFFFFF DUP2 AND SUB PUSH2 0x359 JUMPI JUMP JUMPDEST PUSH1 0x24 CALLDATALOAD SWAP1 PUSH2 0x44D DUP3 PUSH2 0x422 JUMP JUMPDEST JUMP JUMPDEST PUSH1 0xC4 CALLDATALOAD SWAP1 PUSH2 0x44D DUP3 PUSH2 0x422 JUMP JUMPDEST CALLDATALOAD SWAP1 PUSH2 0x44D DUP3 PUSH2 0x422 JUMP JUMPDEST POP CALLVALUE PUSH2 0x359 JUMPI PUSH1 0x40 PUSH32 0xFFFFFFFFFFFFFFFFFFFFFFFFFFFFFFFFFFFFFFFFFFFFFFFFFFFFFFFFFFFFFFFC CALLDATASIZE ADD SLT PUSH2 0x359 JUMPI PUSH1 0x20 PUSH2 0x4FC PUSH1 0x4 CALLDATALOAD PUSH2 0x4A8 DUP2 PUSH2 0x422 JUMP JUMPDEST PUSH20 0xFFFFFFFFFFFFFFFFFFFFFFFFFFFFFFFFFFFFFFFF PUSH2 0x4C5 PUSH2 0x35E JUMP JUMPDEST SWAP2 AND PUSH1 0x0 MSTORE PUSH1 0x1 DUP4 MSTORE PUSH1 0x40 PUSH1 0x0 KECCAK256 SWAP1 PUSH24 0xFFFFFFFFFFFFFFFFFFFFFFFFFFFFFFFFFFFFFFFFFFFFFFFF AND PUSH1 0x0 MSTORE PUSH1 0x20 MSTORE PUSH1 0x40 PUSH1 0x0 KECCAK256 SWAP1 JUMP JUMPDEST SLOAD PUSH1 0x40 MLOAD SWAP1 DUP2 MSTORE RETURN JUMPDEST POP PUSH32 0x4E487B7100000000000000000000000000000000000000000000000000000000 PUSH1 0x0 MSTORE PUSH1 0x41 PUSH1 0x4 MSTORE PUSH1 0x24 PUSH1 0x0 REVERT JUMPDEST PUSH1 0xA0 DUP2 ADD SWAP1 DUP2 LT PUSH8 0xFFFFFFFFFFFFFFFF DUP3 GT OR PUSH2 0x551 JUMPI PUSH1 0x40 MSTORE JUMP JUMPDEST PUSH2 0x559 PUSH2 0x505 JUMP JUMPDEST PUSH1 0x40 MSTORE JUMP JUMPDEST PUSH2 0x100 DUP2 ADD SWAP1 DUP2 LT PUSH8 0xFFFFFFFFFFFFFFFF DUP3 GT OR PUSH2 0x551 JUMPI PUSH1 0x40 MSTORE JUMP JUMPDEST PUSH8 0xFFFFFFFFFFFFFFFF DUP2 GT PUSH2 0x551 JUMPI PUSH1 0x40 MSTORE JUMP JUMPDEST PUSH1 0x60 DUP2 ADD SWAP1 DUP2 LT PUSH8 0xFFFFFFFFFFFFFFFF DUP3 GT OR PUSH2 0x551 JUMPI PUSH1 0x40 MSTORE JUMP JUMPDEST SWAP1 PUSH1 0x1F PUSH32 0xFFFFFFFFFFFFFFFFFFFFFFFFFFFFFFFFFFFFFFFFFFFFFFFFFFFFFFFFFFFFFFE0 SWAP2 ADD AND DUP2 ADD SWAP1 DUP2 LT PUSH8 0xFFFFFFFFFFFFFFFF DUP3 GT OR PUSH2 0x551 JUMPI PUSH1 0x40 MSTORE JUMP JUMPDEST PUSH1 0x40 MLOAD SWAP1 PUSH2 0x44D DUP3 PUSH2 0x535 JUMP JUMPDEST PUSH1 0x40 MLOAD SWAP1 PUSH1 0xC0 DUP3 ADD DUP3 DUP2 LT PUSH8 0xFFFFFFFFFFFFFFFF DUP3 GT OR PUSH2 0x551 JUMPI PUSH1 0x40 MSTORE JUMP JUMPDEST PUSH1 0x40 MLOAD SWAP1 PUSH1 0x40 DUP3 ADD DUP3 DUP2 LT PUSH8 0xFFFFFFFFFFFFFFFF DUP3 GT OR PUSH2 0x551 JUMPI PUSH1 0x40 MSTORE JUMP JUMPDEST PUSH32 0xFFFFFFFFFFFFFFFFFFFFFFFFFFFFFFFFFFFFFFFFFFFFFFFFFFFFFFFFFFFFFFE0 PUSH1 0x1F PUSH1 0x20 SWAP3 PUSH8 0xFFFFFFFFFFFFFFFF DUP2 GT PUSH2 0x675 JUMPI JUMPDEST ADD AND ADD SWAP1 JUMP JUMPDEST PUSH2 0x67D PUSH2 0x505 JUMP JUMPDEST PUSH2 0x66F JUMP JUMPDEST SWAP3 SWAP2 SWAP3 PUSH2 0x68E DUP3 PUSH2 0x639 JUMP JUMPDEST SWAP2 PUSH2 0x69C PUSH1 0x40 MLOAD SWAP4 DUP5 PUSH2 0x5AB JUMP JUMPDEST DUP3 SWAP5 DUP2 DUP5 MSTORE DUP2 DUP4 ADD GT PUSH2 0x359 JUMPI DUP3 DUP2 PUSH1 0x20 SWAP4 DUP5 PUSH1 0x0 SWAP7 ADD CALLDATACOPY ADD ADD MSTORE JUMP JUMPDEST SWAP2 DUP2 PUSH1 0x1F DUP5 ADD SLT ISZERO PUSH2 0x359 JUMPI DUP3 CALLDATALOAD SWAP2 PUSH8 0xFFFFFFFFFFFFFFFF DUP4 GT PUSH2 0x359 JUMPI PUSH1 0x20 DUP4 DUP2 DUP7 ADD SWAP6 ADD ADD GT PUSH2 0x359 JUMPI JUMP JUMPDEST POP CALLVALUE PUSH2 0x359 JUMPI PUSH2 0x1C0 PUSH32 0xFFFFFFFFFFFFFFFFFFFFFFFFFFFFFFFFFFFFFFFFFFFFFFFFFFFFFFFFFFFFFFFC CALLDATASIZE ADD SLT PUSH2 0x359 JUMPI PUSH8 0xFFFFFFFFFFFFFFFF PUSH1 0x4 CALLDATALOAD DUP2 DUP2 GT PUSH2 0x359 JUMPI CALLDATASIZE PUSH1 0x23 DUP3 ADD SLT ISZERO PUSH2 0x359 JUMPI PUSH2 0x74A SWAP1 CALLDATASIZE SWAP1 PUSH1 0x24 DUP2 PUSH1 0x4 ADD CALLDATALOAD SWAP2 ADD PUSH2 0x682 JUMP JUMPDEST SWAP1 PUSH32 0xFFFFFFFFFFFFFFFFFFFFFFFFFFFFFFFFFFFFFFFFFFFFFFFFFFFFFFFFFFFFFFDC CALLDATASIZE ADD PUSH2 0x180 DUP2 SLT PUSH2 0x359 JUMPI PUSH2 0x100 PUSH1 0x40 MLOAD SWAP2 PUSH2 0x787 DUP4 PUSH2 0x535 JUMP JUMPDEST SLT PUSH2 0x359 JUMPI PUSH1 0x40 MLOAD PUSH2 0x798 DUP2 PUSH2 0x55E JUMP JUMPDEST PUSH2 0x7A0 PUSH2 0x440 JUMP JUMPDEST DUP2 MSTORE PUSH1 0x44 CALLDATALOAD PUSH1 0x20 DUP3 ADD MSTORE PUSH1 0x64 CALLDATALOAD PUSH1 0x40 DUP3 ADD MSTORE PUSH1 0x84 CALLDATALOAD PUSH1 0x60 DUP3 ADD MSTORE PUSH1 0xA4 CALLDATALOAD PUSH1 0x80 DUP3 ADD MSTORE PUSH2 0x7CA PUSH2 0x44F JUMP JUMPDEST PUSH1 0xA0 DUP3 ADD MSTORE PUSH1 0xE4 CALLDATALOAD PUSH1 0xC0 DUP3 ADD MSTORE PUSH2 0x104 CALLDATALOAD PUSH1 0xE0 DUP3 ADD MSTORE DUP2 MSTORE PUSH2 0x124 CALLDATALOAD PUSH1 0x20 DUP3 ADD MSTORE PUSH2 0x144 CALLDATALOAD PUSH1 0x40 DUP3 ADD MSTORE PUSH2 0x164 CALLDATALOAD PUSH1 0x60 DUP3 ADD MSTORE PUSH2 0x184 CALLDATALOAD PUSH1 0x80 DUP3 ADD MSTORE PUSH2 0x1A4 CALLDATALOAD SWAP2 DUP3 GT PUSH2 0x359 JUMPI PUSH2 0x83E SWAP3 PUSH2 0x826 PUSH2 0x82E SWAP4 CALLDATASIZE SWAP1 PUSH1 0x4 ADD PUSH2 0x6B9 JUMP JUMPDEST SWAP3 SWAP1 SWAP2 PUSH2 0x28B1 JUMP JUMPDEST PUSH1 0x40 MLOAD SWAP1 DUP2 MSTORE SWAP1 DUP2 SWAP1 PUSH1 0x20 DUP3 ADD SWAP1 JUMP JUMPDEST SUB SWAP1 RETURN JUMPDEST SWAP1 PUSH1 0x40 PUSH32 0xFFFFFFFFFFFFFFFFFFFFFFFFFFFFFFFFFFFFFFFFFFFFFFFFFFFFFFFFFFFFFFFC DUP4 ADD SLT PUSH2 0x359 JUMPI PUSH1 0x4 CALLDATALOAD PUSH8 0xFFFFFFFFFFFFFFFF SWAP3 DUP4 DUP3 GT PUSH2 0x359 JUMPI DUP1 PUSH1 0x23 DUP4 ADD SLT ISZERO PUSH2 0x359 JUMPI DUP2 PUSH1 0x4 ADD CALLDATALOAD SWAP4 DUP5 GT PUSH2 0x359 JUMPI PUSH1 0x24 DUP5 PUSH1 0x5 SHL DUP4 ADD ADD GT PUSH2 0x359 JUMPI PUSH1 0x24 ADD SWAP2 SWAP1 PUSH1 0x24 CALLDATALOAD PUSH2 0x8B7 DUP2 PUSH2 0x422 JUMP JUMPDEST SWAP1 JUMP JUMPDEST POP CALLVALUE PUSH2 0x359 JUMPI PUSH2 0x8C9 CALLDATASIZE PUSH2 0x842 JUMP JUMPDEST PUSH2 0x8D4 SWAP3 SWAP2 SWAP3 PUSH2 0x1E3A JUMP JUMPDEST PUSH2 0x8DD DUP4 PUSH2 0x1D2D JUMP JUMPDEST PUSH1 0x0 JUMPDEST DUP5 DUP2 LT PUSH2 0x95D JUMPI POP PUSH1 0x0 SWAP3 PUSH32 0xBB47EE3E183A558B1A2FF0874B079F3FC5478B7454EACF2BFC5AF2FF5878F972 DUP5 DUP1 LOG1 DUP4 SWAP2 JUMPDEST DUP6 DUP4 LT PUSH2 0x92D JUMPI PUSH2 0x923 DUP6 DUP6 PUSH2 0x1ED7 JUMP JUMPDEST PUSH2 0x21 PUSH1 0x1 PUSH1 0x2 SSTORE JUMP JUMPDEST SWAP1 SWAP2 SWAP4 PUSH1 0x1 SWAP1 PUSH2 0x953 PUSH2 0x941 DUP8 DUP10 DUP8 PUSH2 0x1DEC JUMP JUMPDEST PUSH2 0x94B DUP9 DUP7 PUSH2 0x1DCA JUMP JUMPDEST MLOAD SWAP1 DUP9 PUSH2 0x233F JUMP JUMPDEST ADD SWAP5 ADD SWAP2 SWAP1 PUSH2 0x912 JUMP JUMPDEST DUP1 PUSH2 0x98B PUSH2 0x984 PUSH2 0x972 PUSH1 0x1 SWAP5 DUP7 SWAP9 SWAP7 PUSH2 0x1DCA JUMP JUMPDEST MLOAD PUSH2 0x97E DUP5 DUP11 DUP9 PUSH2 0x1DEC JUMP JUMPDEST DUP5 PUSH2 0x3448 JUMP JUMPDEST SWAP1 DUP4 PUSH2 0x2F30 JUMP JUMPDEST ADD SWAP3 SWAP1 SWAP3 PUSH2 0x8E0 JUMP JUMPDEST POP CALLVALUE PUSH2 0x359 JUMPI PUSH1 0x40 PUSH32 0xFFFFFFFFFFFFFFFFFFFFFFFFFFFFFFFFFFFFFFFFFFFFFFFFFFFFFFFFFFFFFFFC CALLDATASIZE ADD SLT PUSH2 0x359 JUMPI PUSH1 0x4 CALLDATALOAD PUSH2 0x9D0 DUP2 PUSH2 0x422 JUMP JUMPDEST PUSH1 0x24 CALLDATALOAD SWAP1 PUSH1 0x0 SWAP2 CALLER DUP4 MSTORE DUP3 PUSH1 0x20 MSTORE PUSH1 0x40 DUP4 KECCAK256 PUSH14 0xFFFFFFFFFFFFFFFFFFFFFFFFFFFF DUP2 SLOAD AND SWAP3 DUP4 DUP4 GT PUSH2 0xAD5 JUMPI DUP5 DUP4 PUSH20 0xFFFFFFFFFFFFFFFFFFFFFFFFFFFFFFFFFFFFFFFF DUP3 SWAP6 SWAP4 PUSH2 0xA78 DUP5 SWAP7 PUSH2 0xA3F PUSH2 0xA2C DUP8 SWAP9 PUSH2 0xAD2 SWAP13 PUSH2 0x21C0 JUMP JUMPDEST PUSH14 0xFFFFFFFFFFFFFFFFFFFFFFFFFFFF AND SWAP1 JUMP JUMPDEST PUSH14 0xFFFFFFFFFFFFFFFFFFFFFFFFFFFF AND PUSH32 0xFFFFFFFFFFFFFFFFFFFFFFFFFFFFFFFFFFFF0000000000000000000000000000 DUP3 SLOAD AND OR SWAP1 SSTORE JUMP JUMPDEST PUSH1 0x40 DUP1 MLOAD PUSH20 0xFFFFFFFFFFFFFFFFFFFFFFFFFFFFFFFFFFFFFFFF DUP4 AND DUP2 MSTORE PUSH1 0x20 DUP2 ADD DUP6 SWAP1 MSTORE CALLER SWAP2 PUSH32 0xD1C19FBCD4551A5EDFB66D43D2E337C04837AFDA3482B42BDF569A8FCCDAE5FB SWAP2 LOG2 AND GAS CALL PUSH2 0xACC PUSH2 0x1EA7 JUMP JUMPDEST POP PUSH2 0x5BA2 JUMP JUMPDEST DUP1 RETURN JUMPDEST PUSH1 0x64 PUSH1 0x40 MLOAD PUSH32 0x8C379A000000000000000000000000000000000000000000000000000000000 DUP2 MSTORE PUSH1 0x20 PUSH1 0x4 DUP3 ADD MSTORE PUSH1 0x19 PUSH1 0x24 DUP3 ADD MSTORE PUSH32 0x576974686472617720616D6F756E7420746F6F206C6172676500000000000000 PUSH1 0x44 DUP3 ADD MSTORE REVERT JUMPDEST POP CALLVALUE PUSH2 0x359 JUMPI PUSH1 0x40 PUSH32 0xFFFFFFFFFFFFFFFFFFFFFFFFFFFFFFFFFFFFFFFFFFFFFFFFFFFFFFFFFFFFFFFC CALLDATASIZE ADD SLT PUSH2 0x359 JUMPI PUSH1 0x20 PUSH1 0x4 CALLDATALOAD PUSH2 0xB71 DUP2 PUSH2 0x422 JUMP JUMPDEST PUSH20 0xFFFFFFFFFFFFFFFFFFFFFFFFFFFFFFFFFFFFFFFF PUSH2 0xB8E PUSH2 0x35E JUMP JUMPDEST SWAP2 AND PUSH1 0x0 MSTORE PUSH1 0x1 DUP3 MSTORE PUSH2 0xBC9 DUP2 PUSH1 0x40 PUSH1 0x0 KECCAK256 SWAP1 PUSH24 0xFFFFFFFFFFFFFFFFFFFFFFFFFFFFFFFFFFFFFFFFFFFFFFFF AND PUSH1 0x0 MSTORE PUSH1 0x20 MSTORE PUSH1 0x40 PUSH1 0x0 KECCAK256 SWAP1 JUMP JUMPDEST SLOAD PUSH32 0xFFFFFFFFFFFFFFFFFFFFFFFFFFFFFFFFFFFFFFFFFFFFFFFF0000000000000000 PUSH1 0x40 MLOAD SWAP3 PUSH1 0x40 SHL AND OR DUP2 MSTORE RETURN JUMPDEST POP CALLVALUE PUSH2 0x359 JUMPI PUSH2 0xC07 CALLDATASIZE PUSH2 0x842 JUMP JUMPDEST PUSH2 0xC0F PUSH2 0x1E3A JUMP JUMPDEST PUSH1 0x0 DUP1 JUMPDEST DUP4 DUP3 LT PUSH2 0xDF6 JUMPI PUSH2 0xC24 SWAP2 POP PUSH2 0x1D2D JUMP JUMPDEST PUSH32 0xBB47EE3E183A558B1A2FF0874B079F3FC5478B7454EACF2BFC5AF2FF5878F972 PUSH1 0x0 DUP1 LOG1 PUSH1 0x0 DUP1 JUMPDEST DUP5 DUP2 LT PUSH2 0xD5C JUMPI POP POP PUSH1 0x0 DUP1 SWAP4 DUP2 JUMPDEST DUP2 DUP2 LT PUSH2 0xC93 JUMPI PUSH2 0x923 DUP7 DUP7 PUSH1 0x0 PUSH32 0x575FF3ACADD5AB348FE1855E217E0F3678F8D767D7494C9F9FEFBEE2E17CCA4D DUP2 DUP1 LOG2 PUSH2 0x1ED7 JUMP JUMPDEST PUSH2 0xCF7 PUSH2 0xCA1 DUP3 DUP5 DUP11 PUSH2 0x24CB JUMP JUMPDEST PUSH2 0xCCC PUSH2 0xCB3 PUSH2 0xCB3 PUSH1 0x20 DUP5 ADD PUSH2 0x256D JUMP JUMPDEST PUSH20 0xFFFFFFFFFFFFFFFFFFFFFFFFFFFFFFFFFFFFFFFF AND SWAP1 JUMP JUMPDEST PUSH32 0x575FF3ACADD5AB348FE1855E217E0F3678F8D767D7494C9F9FEFBEE2E17CCA4D PUSH1 0x0 DUP1 LOG2 DUP1 PUSH2 0x2519 JUMP JUMPDEST SWAP1 PUSH1 0x0 SWAP2 JUMPDEST DUP1 DUP4 LT PUSH2 0xD14 JUMPI POP POP POP PUSH2 0xD0F SWAP1 PUSH2 0x2491 JUMP JUMPDEST PUSH2 0xC5C JUMP JUMPDEST SWAP1 SWAP2 SWAP5 SWAP8 PUSH2 0xD4F PUSH2 0xD49 PUSH2 0xD55 SWAP3 PUSH2 0xD43 DUP13 DUP12 PUSH2 0xD3C DUP3 PUSH2 0xD36 DUP15 DUP12 DUP14 PUSH2 0x1DEC JUMP JUMPDEST SWAP3 PUSH2 0x1DCA JUMP JUMPDEST MLOAD SWAP2 PUSH2 0x233F JUMP JUMPDEST SWAP1 PUSH2 0x21D5 JUMP JUMPDEST SWAP10 PUSH2 0x2491 JUMP JUMPDEST SWAP6 PUSH2 0x2491 JUMP JUMPDEST SWAP2 SWAP1 PUSH2 0xCFC JUMP JUMPDEST PUSH2 0xD67 DUP2 DUP7 DUP9 PUSH2 0x24CB JUMP JUMPDEST PUSH1 0x20 PUSH2 0xD7F PUSH2 0xD76 DUP4 DUP1 PUSH2 0x2519 JUMP JUMPDEST SWAP3 SWAP1 SWAP4 ADD PUSH2 0x256D JUMP JUMPDEST SWAP2 PUSH20 0xFFFFFFFFFFFFFFFFFFFFFFFFFFFFFFFFFFFFFFFF PUSH1 0x0 SWAP4 AND SWAP1 JUMPDEST DUP3 DUP5 LT PUSH2 0xDB4 JUMPI POP POP POP POP PUSH2 0xDAF SWAP1 PUSH2 0x2491 JUMP JUMPDEST PUSH2 0xC4D JUMP JUMPDEST SWAP1 SWAP2 SWAP3 SWAP5 PUSH2 0xD4F DUP2 PUSH2 0xDE9 DUP6 PUSH2 0xDE2 PUSH2 0xDD0 PUSH2 0xDEE SWAP7 DUP14 PUSH2 0x1DCA JUMP JUMPDEST MLOAD PUSH2 0xDDC DUP13 DUP12 DUP11 PUSH2 0x1DEC JUMP JUMPDEST DUP6 PUSH2 0x3448 JUMP JUMPDEST SWAP1 DUP12 PUSH2 0x3148 JUMP JUMPDEST PUSH2 0x2491 JUMP JUMPDEST SWAP3 SWAP2 SWAP1 PUSH2 0xD9B JUMP JUMPDEST PUSH2 0xE01 DUP3 DUP6 DUP8 PUSH2 0x24CB JUMP JUMPDEST SWAP1 PUSH2 0xE0C DUP3 DUP1 PUSH2 0x2519 JUMP JUMPDEST SWAP3 PUSH2 0xE1C PUSH2 0xCB3 PUSH1 0x20 DUP4 ADD PUSH2 0x256D JUMP JUMPDEST SWAP2 PUSH20 0xFFFFFFFFFFFFFFFFFFFFFFFFFFFFFFFFFFFFFFFF DUP4 AND PUSH2 0xE41 PUSH1 0x1 DUP3 EQ ISZERO PUSH2 0x2577 JUMP JUMPDEST PUSH2 0xE62 JUMPI JUMPDEST POP POP POP PUSH2 0xE5C SWAP2 PUSH2 0xE56 SWAP2 PUSH2 0x21D5 JUMP JUMPDEST SWAP2 PUSH2 0x2491 JUMP JUMPDEST SWAP1 PUSH2 0xC13 JUMP JUMPDEST SWAP1 SWAP6 SWAP3 PUSH2 0xE7B PUSH1 0x40 SWAP10 SWAP7 SWAP4 SWAP10 SWAP9 SWAP6 SWAP9 SWAP8 DUP9 DUP2 ADD SWAP1 PUSH2 0x1FC8 JUMP JUMPDEST SWAP3 SWAP1 DUP11 EXTCODESIZE ISZERO PUSH2 0x359 JUMPI DUP10 SWAP4 DUP12 SWAP2 DUP11 MLOAD SWAP4 DUP5 SWAP3 DUP4 SWAP3 PUSH32 0xE3563A4F00000000000000000000000000000000000000000000000000000000 DUP5 MSTORE PUSH1 0x4 SWAP15 DUP16 DUP6 ADD SWAP4 PUSH2 0xEC2 SWAP5 PUSH2 0x2711 JUMP JUMPDEST SUB DUP2 GAS SWAP4 PUSH1 0x0 SWAP5 STATICCALL SWAP1 DUP2 PUSH2 0xF3B JUMPI JUMPDEST POP PUSH2 0xF25 JUMPI DUP7 MLOAD PUSH32 0x86A9F75000000000000000000000000000000000000000000000000000000000 DUP2 MSTORE PUSH20 0xFFFFFFFFFFFFFFFFFFFFFFFFFFFFFFFFFFFFFFFF DUP11 AND DUP2 DUP11 ADD SWAP1 DUP2 MSTORE DUP2 SWAP1 PUSH1 0x20 ADD SUB SWAP1 REVERT JUMPDEST SUB SWAP1 REVERT JUMPDEST SWAP5 SWAP8 POP SWAP3 SWAP6 POP SWAP1 SWAP4 POP SWAP2 DUP2 PUSH2 0xE56 PUSH2 0xE5C PUSH2 0xE46 JUMP JUMPDEST DUP1 PUSH2 0xF48 PUSH2 0xF4E SWAP3 PUSH2 0x57B JUMP JUMPDEST DUP1 PUSH2 0x111E JUMP JUMPDEST CODESIZE PUSH2 0xED1 JUMP JUMPDEST POP CALLVALUE PUSH2 0x359 JUMPI PUSH1 0x20 PUSH32 0xFFFFFFFFFFFFFFFFFFFFFFFFFFFFFFFFFFFFFFFFFFFFFFFFFFFFFFFFFFFFFFFC CALLDATASIZE ADD SLT PUSH2 0x359 JUMPI PUSH2 0x83E PUSH20 0xFFFFFFFFFFFFFFFFFFFFFFFFFFFFFFFFFFFFFFFF PUSH1 0x4 CALLDATALOAD PUSH2 0xFA8 DUP2 PUSH2 0x422 JUMP JUMPDEST PUSH1 0x80 PUSH1 0x40 SWAP3 DUP4 SWAP3 DUP4 MLOAD PUSH2 0xFBA DUP2 PUSH2 0x535 JUMP JUMPDEST PUSH1 0x0 SWAP4 DUP2 DUP6 DUP1 SWAP4 MSTORE DUP3 PUSH1 0x20 DUP3 ADD MSTORE DUP3 DUP8 DUP3 ADD MSTORE DUP3 PUSH1 0x60 DUP3 ADD MSTORE ADD MSTORE AND DUP2 MSTORE DUP1 PUSH1 0x20 MSTORE KECCAK256 SWAP1 PUSH2 0x1049 PUSH6 0xFFFFFFFFFFFF PUSH1 0x1 DUP4 MLOAD SWAP5 PUSH2 0xFF6 DUP7 PUSH2 0x535 JUMP JUMPDEST DUP1 SLOAD PUSH14 0xFFFFFFFFFFFFFFFFFFFFFFFFFFFF DUP1 DUP3 AND DUP9 MSTORE PUSH1 0x70 DUP3 SWAP1 SHR PUSH1 0xFF AND ISZERO ISZERO PUSH1 0x20 DUP10 ADD MSTORE PUSH1 0x78 SWAP2 SWAP1 SWAP2 SHR AND DUP6 DUP8 ADD MSTORE ADD SLOAD PUSH4 0xFFFFFFFF DUP2 AND PUSH1 0x60 DUP7 ADD MSTORE PUSH1 0x20 SHR AND PUSH1 0x80 DUP5 ADD SWAP1 PUSH6 0xFFFFFFFFFFFF AND SWAP1 MSTORE JUMP JUMPDEST MLOAD SWAP2 DUP3 SWAP2 DUP3 SWAP2 SWAP1 SWAP2 PUSH1 0x80 PUSH6 0xFFFFFFFFFFFF DUP2 PUSH1 0xA0 DUP5 ADD SWAP6 PUSH14 0xFFFFFFFFFFFFFFFFFFFFFFFFFFFF DUP1 DUP3 MLOAD AND DUP7 MSTORE PUSH1 0x20 DUP3 ADD MLOAD ISZERO ISZERO PUSH1 0x20 DUP8 ADD MSTORE PUSH1 0x40 DUP3 ADD MLOAD AND PUSH1 0x40 DUP7 ADD MSTORE PUSH4 0xFFFFFFFF PUSH1 0x60 DUP3 ADD MLOAD AND PUSH1 0x60 DUP7 ADD MSTORE ADD MLOAD AND SWAP2 ADD MSTORE JUMP JUMPDEST POP CALLVALUE PUSH2 0x359 JUMPI PUSH1 0x20 PUSH32 0xFFFFFFFFFFFFFFFFFFFFFFFFFFFFFFFFFFFFFFFFFFFFFFFFFFFFFFFFFFFFFFFC CALLDATASIZE ADD SLT PUSH2 0x359 JUMPI PUSH20 0xFFFFFFFFFFFFFFFFFFFFFFFFFFFFFFFFFFFFFFFF PUSH1 0x4 CALLDATALOAD PUSH2 0x10F5 DUP2 PUSH2 0x422 JUMP JUMPDEST AND PUSH1 0x0 MSTORE PUSH1 0x0 PUSH1 0x20 MSTORE PUSH1 0x20 PUSH14 0xFFFFFFFFFFFFFFFFFFFFFFFFFFFF PUSH1 0x40 PUSH1 0x0 KECCAK256 SLOAD AND PUSH1 0x40 MLOAD SWAP1 DUP2 MSTORE RETURN JUMPDEST PUSH1 0x0 SWAP2 SUB SLT PUSH2 0x359 JUMPI JUMP JUMPDEST POP CALLVALUE PUSH2 0x359 JUMPI PUSH1 0x0 PUSH32 0xFFFFFFFFFFFFFFFFFFFFFFFFFFFFFFFFFFFFFFFFFFFFFFFFFFFFFFFFFFFFFFFC CALLDATASIZE ADD SLT PUSH2 0x359 JUMPI PUSH1 0x20 PUSH1 0x40 MLOAD PUSH1 0x1 DUP2 MSTORE RETURN JUMPDEST POP CALLVALUE PUSH2 0x359 JUMPI PUSH1 0x60 PUSH32 0xFFFFFFFFFFFFFFFFFFFFFFFFFFFFFFFFFFFFFFFFFFFFFFFFFFFFFFFFFFFFFFFC CALLDATASIZE ADD SLT PUSH2 0x359 JUMPI PUSH1 0x4 PUSH8 0xFFFFFFFFFFFFFFFF DUP2 CALLDATALOAD DUP2 DUP2 GT PUSH2 0x359 JUMPI PUSH2 0x11B5 SWAP1 CALLDATASIZE SWAP1 DUP5 ADD PUSH2 0x6B9 JUMP JUMPDEST SWAP1 POP PUSH1 0x24 CALLDATALOAD SWAP2 PUSH2 0x11C4 DUP4 PUSH2 0x422 JUMP JUMPDEST PUSH1 0x44 CALLDATALOAD SWAP1 DUP2 GT PUSH2 0x359 JUMPI PUSH2 0x11DB SWAP1 CALLDATASIZE SWAP1 DUP6 ADD PUSH2 0x6B9 JUMP JUMPDEST SWAP3 SWAP1 SWAP2 ISZERO SWAP1 DUP2 PUSH2 0x132D JUMPI JUMPDEST POP PUSH2 0x12C6 JUMPI PUSH1 0x14 DUP3 LT ISZERO PUSH2 0x1236 JUMPI JUMPDEST PUSH2 0xF21 DUP4 PUSH1 0x40 MLOAD SWAP2 DUP3 SWAP2 PUSH32 0x8C379A000000000000000000000000000000000000000000000000000000000 DUP4 MSTORE DUP3 ADD PUSH1 0x40 SWAP1 PUSH1 0x20 DUP2 MSTORE PUSH1 0x0 PUSH1 0x20 DUP3 ADD MSTORE ADD SWAP1 JUMP JUMPDEST PUSH2 0x1246 PUSH2 0x1252 SWAP3 PUSH2 0x124C SWAP3 PUSH2 0x2B88 JUMP JUMPDEST SWAP1 PUSH2 0x2B96 JUMP JUMPDEST PUSH1 0x60 SHR SWAP1 JUMP JUMPDEST EXTCODESIZE ISZERO PUSH2 0x125F JUMPI CODESIZE DUP1 PUSH2 0x11F5 JUMP JUMPDEST PUSH2 0xF21 SWAP1 PUSH1 0x40 MLOAD SWAP2 DUP3 SWAP2 PUSH32 0x8C379A000000000000000000000000000000000000000000000000000000000 DUP4 MSTORE DUP3 ADD PUSH1 0x60 SWAP1 PUSH1 0x20 DUP2 MSTORE PUSH1 0x1B PUSH1 0x20 DUP3 ADD MSTORE PUSH32 0x41413330207061796D6173746572206E6F74206465706C6F7965640000000000 PUSH1 0x40 DUP3 ADD MSTORE ADD SWAP1 JUMP JUMPDEST PUSH2 0xF21 DUP4 PUSH1 0x40 MLOAD SWAP2 DUP3 SWAP2 PUSH32 0x8C379A000000000000000000000000000000000000000000000000000000000 DUP4 MSTORE DUP3 ADD PUSH1 0x60 SWAP1 PUSH1 0x20 DUP2 MSTORE PUSH1 0x19 PUSH1 0x20 DUP3 ADD MSTORE PUSH32 0x41413230206163636F756E74206E6F74206465706C6F79656400000000000000 PUSH1 0x40 DUP3 ADD MSTORE ADD SWAP1 JUMP JUMPDEST SWAP1 POP EXTCODESIZE ISZERO CODESIZE PUSH2 0x11E6 JUMP JUMPDEST POP CALLVALUE PUSH2 0x359 JUMPI PUSH1 0x20 PUSH32 0xFFFFFFFFFFFFFFFFFFFFFFFFFFFFFFFFFFFFFFFFFFFFFFFFFFFFFFFFFFFFFFFC CALLDATASIZE ADD SLT PUSH2 0x359 JUMPI PUSH1 0x4 CALLDATALOAD PUSH8 0xFFFFFFFFFFFFFFFF DUP2 GT PUSH2 0x359 JUMPI PUSH2 0x1389 PUSH1 0x24 SWAP2 CALLDATASIZE SWAP1 PUSH1 0x4 ADD PUSH2 0x6B9 JUMP JUMPDEST SWAP1 PUSH2 0x13BF PUSH1 0x40 MLOAD SWAP3 DUP4 SWAP3 PUSH32 0x570E1A3600000000000000000000000000000000000000000000000000000000 DUP5 MSTORE PUSH1 0x4 DUP5 ADD PUSH2 0x2D2C JUMP JUMPDEST SUB PUSH1 0x20 DUP3 PUSH20 0xFFFFFFFFFFFFFFFFFFFFFFFFFFFFFFFFFFFFFFFF SWAP3 DUP2 PUSH1 0x0 DUP6 PUSH32 0x0 AND GAS CALL SWAP2 DUP3 ISZERO PUSH2 0x1471 JUMPI JUMPDEST PUSH1 0x0 SWAP3 PUSH2 0x1441 JUMPI JUMPDEST POP PUSH1 0x40 MLOAD SWAP2 PUSH32 0x6CA7B80600000000000000000000000000000000000000000000000000000000 DUP4 MSTORE AND PUSH1 0x4 DUP3 ADD MSTORE REVERT JUMPDEST PUSH2 0x1463 SWAP2 SWAP3 POP PUSH1 0x20 RETURNDATASIZE DUP2 GT PUSH2 0x146A JUMPI JUMPDEST PUSH2 0x145B DUP2 DUP4 PUSH2 0x5AB JUMP JUMPDEST DUP2 ADD SWAP1 PUSH2 0x2D17 JUMP JUMPDEST SWAP1 CODESIZE PUSH2 0x1411 JUMP JUMPDEST POP RETURNDATASIZE PUSH2 0x1451 JUMP JUMPDEST PUSH2 0x1479 PUSH2 0x2183 JUMP JUMPDEST PUSH2 0x1409 JUMP JUMPDEST SWAP1 DUP2 PUSH2 0x160 SWAP2 SUB SLT PUSH2 0x359 JUMPI SWAP1 JUMP JUMPDEST PUSH1 0x20 PUSH32 0xFFFFFFFFFFFFFFFFFFFFFFFFFFFFFFFFFFFFFFFFFFFFFFFFFFFFFFFFFFFFFFFC DUP3 ADD SLT PUSH2 0x359 JUMPI PUSH1 0x4 CALLDATALOAD SWAP1 PUSH8 0xFFFFFFFFFFFFFFFF DUP3 GT PUSH2 0x359 JUMPI PUSH2 0x8B7 SWAP2 PUSH1 0x4 ADD PUSH2 0x147E JUMP JUMPDEST POP CALLVALUE PUSH2 0x359 JUMPI PUSH1 0x20 PUSH2 0x14EF PUSH2 0x14EA CALLDATASIZE PUSH2 0x148D JUMP JUMPDEST PUSH2 0x2A0C JUMP JUMPDEST PUSH1 0x40 MLOAD SWAP1 DUP2 MSTORE RETURN JUMPDEST POP PUSH1 0x20 PUSH32 0xFFFFFFFFFFFFFFFFFFFFFFFFFFFFFFFFFFFFFFFFFFFFFFFFFFFFFFFFFFFFFFFC CALLDATASIZE ADD SLT PUSH2 0x359 JUMPI PUSH2 0x21 PUSH1 0x4 CALLDATALOAD PUSH2 0x1531 DUP2 PUSH2 0x422 JUMP JUMPDEST PUSH2 0x562B JUMP JUMPDEST POP CALLVALUE PUSH2 0x359 JUMPI PUSH1 0x0 DUP1 PUSH32 0xFFFFFFFFFFFFFFFFFFFFFFFFFFFFFFFFFFFFFFFFFFFFFFFFFFFFFFFFFFFFFFFC CALLDATASIZE ADD SLT PUSH2 0x16B1 JUMPI CALLER DUP2 MSTORE DUP1 PUSH1 0x20 MSTORE PUSH1 0x40 DUP2 KECCAK256 PUSH1 0x1 DUP2 ADD SWAP1 PUSH4 0xFFFFFFFF DUP3 SLOAD AND SWAP1 DUP2 ISZERO PUSH2 0x1653 JUMPI PUSH2 0x15F0 PUSH2 0x15B5 PUSH2 0x1618 SWAP4 PUSH2 0x15A7 PUSH2 0x15A2 DUP6 SLOAD PUSH1 0xFF SWAP1 PUSH1 0x70 SHR AND SWAP1 JUMP JUMPDEST PUSH2 0x598F JUMP JUMPDEST PUSH6 0xFFFFFFFFFFFF TIMESTAMP AND PUSH2 0x59F4 JUMP JUMPDEST DUP5 SLOAD PUSH32 0xFFFFFFFFFFFFFFFFFFFFFFFFFFFFFFFFFFFFFFFFFFFF000000000000FFFFFFFF AND PUSH1 0x20 DUP3 SWAP1 SHL PUSH10 0xFFFFFFFFFFFF00000000 AND OR SWAP1 SWAP5 SSTORE JUMP JUMPDEST PUSH32 0xFFFFFFFFFFFFFFFFFFFFFFFFFFFFFFFFFF00FFFFFFFFFFFFFFFFFFFFFFFFFFFF DUP2 SLOAD AND SWAP1 SSTORE JUMP JUMPDEST PUSH1 0x40 MLOAD PUSH6 0xFFFFFFFFFFFF SWAP2 SWAP1 SWAP2 AND DUP2 MSTORE CALLER SWAP1 PUSH32 0xFA9B3C14CC825C412C9ED81B3BA365A5B459439403F18829E572ED53A4180F0A SWAP1 PUSH1 0x20 SWAP1 LOG2 DUP1 RETURN JUMPDEST PUSH1 0x64 PUSH1 0x40 MLOAD PUSH32 0x8C379A000000000000000000000000000000000000000000000000000000000 DUP2 MSTORE PUSH1 0x20 PUSH1 0x4 DUP3 ADD MSTORE PUSH1 0xA PUSH1 0x24 DUP3 ADD MSTORE PUSH32 0x6E6F74207374616B656400000000000000000000000000000000000000000000 PUSH1 0x44 DUP3 ADD MSTORE REVERT JUMPDEST DUP1 REVERT JUMPDEST POP CALLVALUE PUSH2 0x359 JUMPI PUSH1 0x20 PUSH32 0xFFFFFFFFFFFFFFFFFFFFFFFFFFFFFFFFFFFFFFFFFFFFFFFFFFFFFFFFFFFFFFFC CALLDATASIZE ADD SLT PUSH2 0x359 JUMPI PUSH1 0x4 CALLDATALOAD PUSH2 0x16F0 DUP2 PUSH2 0x422 JUMP JUMPDEST PUSH2 0xAD2 PUSH20 0xFFFFFFFFFFFFFFFFFFFFFFFFFFFFFFFFFFFFFFFF PUSH2 0x1732 CALLER PUSH20 0xFFFFFFFFFFFFFFFFFFFFFFFFFFFFFFFFFFFFFFFF AND PUSH1 0x0 MSTORE PUSH1 0x0 PUSH1 0x20 MSTORE PUSH1 0x40 PUSH1 0x0 KECCAK256 SWAP1 JUMP JUMPDEST SWAP3 PUSH2 0x17EA PUSH2 0x1755 PUSH2 0xA2C DUP7 SLOAD PUSH14 0xFFFFFFFFFFFFFFFFFFFFFFFFFFFF SWAP1 PUSH1 0x78 SHR AND SWAP1 JUMP JUMPDEST SWAP5 PUSH2 0x1761 DUP7 ISZERO ISZERO PUSH2 0x5A0E JUMP JUMPDEST PUSH2 0x17C2 PUSH1 0x1 DUP3 ADD PUSH2 0x179A PUSH6 0xFFFFFFFFFFFF PUSH2 0x1786 DUP4 SLOAD PUSH6 0xFFFFFFFFFFFF SWAP1 PUSH1 0x20 SHR AND SWAP1 JUMP JUMPDEST AND PUSH2 0x1792 DUP2 ISZERO ISZERO PUSH2 0x5A73 JUMP JUMPDEST TIMESTAMP LT ISZERO PUSH2 0x5AD8 JUMP JUMPDEST DUP1 SLOAD PUSH32 0xFFFFFFFFFFFFFFFFFFFFFFFFFFFFFFFFFFFFFFFFFFFF00000000000000000000 AND SWAP1 SSTORE JUMP JUMPDEST PUSH32 0xFFFFFF0000000000000000000000000000FFFFFFFFFFFFFFFFFFFFFFFFFFFFFF DUP2 SLOAD AND SWAP1 SSTORE JUMP JUMPDEST PUSH1 0x40 DUP1 MLOAD PUSH20 0xFFFFFFFFFFFFFFFFFFFFFFFFFFFFFFFFFFFFFFFF DUP4 AND DUP2 MSTORE PUSH1 0x20 DUP2 ADD DUP7 SWAP1 MSTORE CALLER SWAP2 PUSH32 0xB7C918E0E249F999E965CAFEB6C664271B3F4317D296461500E71DA39F0CBDA3 SWAP2 LOG2 PUSH1 0x0 DUP1 DUP1 SWAP6 DUP2 SWAP5 DUP3 SWAP5 AND GAS CALL PUSH2 0x1847 PUSH2 0x1EA7 JUMP JUMPDEST POP PUSH2 0x5B3D JUMP JUMPDEST POP CALLVALUE PUSH2 0x359 JUMPI PUSH1 0x60 PUSH32 0xFFFFFFFFFFFFFFFFFFFFFFFFFFFFFFFFFFFFFFFFFFFFFFFFFFFFFFFFFFFFFFFC CALLDATASIZE ADD SLT PUSH2 0x359 JUMPI PUSH8 0xFFFFFFFFFFFFFFFF PUSH1 0x4 CALLDATALOAD DUP2 DUP2 GT PUSH2 0x359 JUMPI PUSH2 0x189E SWAP1 CALLDATASIZE SWAP1 PUSH1 0x4 ADD PUSH2 0x147E JUMP JUMPDEST PUSH1 0x24 CALLDATALOAD SWAP2 PUSH2 0x18AB DUP4 PUSH2 0x422 JUMP JUMPDEST PUSH1 0x44 CALLDATALOAD SWAP1 DUP2 GT PUSH2 0x359 JUMPI PUSH2 0x18C6 PUSH2 0xF21 SWAP2 CALLDATASIZE SWAP1 PUSH1 0x4 ADD PUSH2 0x6B9 JUMP JUMPDEST PUSH2 0x18CE PUSH2 0x1CAA JUMP JUMPDEST PUSH2 0x18D7 DUP6 PUSH2 0x2E2B JUMP JUMPDEST PUSH2 0x18EA PUSH2 0x18E4 DUP3 DUP8 PUSH2 0x3240 JUMP JUMPDEST SWAP1 PUSH2 0x53BA JUMP JUMPDEST SWAP5 PUSH2 0x18FA DUP3 PUSH1 0x0 SWAP3 NUMBER DUP5 MSTORE PUSH2 0x21E2 JUMP JUMPDEST SWAP7 NUMBER DUP3 MSTORE DUP2 SWAP4 PUSH1 0x60 SWAP6 PUSH20 0xFFFFFFFFFFFFFFFFFFFFFFFFFFFFFFFFFFFFFFFF DUP4 AND PUSH2 0x1981 JUMPI JUMPDEST POP POP POP POP PUSH1 0x80 ADD MLOAD SWAP4 PUSH2 0x194E PUSH1 0x40 PUSH2 0x1940 PUSH1 0x20 DUP5 ADD MLOAD PUSH6 0xFFFFFFFFFFFF AND SWAP1 JUMP JUMPDEST SWAP3 ADD MLOAD PUSH6 0xFFFFFFFFFFFF AND SWAP1 JUMP JUMPDEST SWAP1 PUSH1 0x40 MLOAD SWAP7 DUP8 SWAP7 PUSH32 0x8B7AC98000000000000000000000000000000000000000000000000000000000 DUP9 MSTORE PUSH1 0x4 DUP9 ADD PUSH2 0x27E1 JUMP JUMPDEST DUP4 SWAP6 POP DUP4 SWAP5 SWAP7 POP PUSH2 0x199B PUSH1 0x40 SWAP5 SWAP3 SWAP4 SWAP5 MLOAD DUP1 SWAP5 DUP2 SWAP4 PUSH2 0x27D3 JUMP JUMPDEST SUB SWAP3 GAS CALL SWAP1 PUSH1 0x80 PUSH2 0x19AA PUSH2 0x1EA7 JUMP JUMPDEST SWAP3 SWAP2 SWAP1 CODESIZE DUP1 DUP1 PUSH2 0x191F JUMP JUMPDEST POP CALLVALUE PUSH2 0x359 JUMPI PUSH2 0x19C4 CALLDATASIZE PUSH2 0x148D JUMP JUMPDEST PUSH2 0x19CC PUSH2 0x1CAA JUMP JUMPDEST PUSH2 0x19D5 DUP3 PUSH2 0x2E2B JUMP JUMPDEST PUSH2 0x19DF DUP2 DUP4 PUSH2 0x3240 JUMP JUMPDEST DUP3 MLOAD PUSH1 0xA0 ADD MLOAD SWAP2 SWAP4 SWAP2 PUSH2 0x1A0C SWAP1 PUSH20 0xFFFFFFFFFFFFFFFFFFFFFFFFFFFFFFFFFFFFFFFF AND PUSH2 0x54DC JUMP JUMPDEST PUSH2 0x54DC JUMP JUMPDEST SWAP1 PUSH2 0x1A30 PUSH2 0x1A07 DUP6 MLOAD PUSH20 0xFFFFFFFFFFFFFFFFFFFFFFFFFFFFFFFFFFFFFFFF SWAP1 MLOAD AND SWAP1 JUMP JUMPDEST SWAP5 PUSH2 0x1A39 PUSH2 0x2B50 JUMP JUMPDEST POP PUSH2 0x1A68 PUSH2 0x1A4C PUSH1 0x40 SWAP6 DUP7 DUP2 ADD SWAP1 PUSH2 0x1FC8 JUMP JUMPDEST SWAP1 PUSH1 0x0 PUSH1 0x14 DUP4 LT PUSH2 0x1BC5 JUMPI POP PUSH2 0x1246 PUSH2 0x1A07 SWAP3 PUSH2 0x124C SWAP3 PUSH2 0x2B88 JUMP JUMPDEST SWAP2 PUSH2 0x1A72 SWAP2 PUSH2 0x53BA JUMP JUMPDEST DUP1 MLOAD PUSH20 0xFFFFFFFFFFFFFFFFFFFFFFFFFFFFFFFFFFFFFFFF AND SWAP1 PUSH20 0xFFFFFFFFFFFFFFFFFFFFFFFFFFFFFFFFFFFFFFFF DUP3 AND PUSH1 0x1 DUP2 EQ SWAP2 PUSH1 0x80 DUP9 ADD MLOAD SWAP8 DUP8 DUP2 ADD MLOAD SWAP2 DUP9 PUSH1 0x20 DUP3 ADD MLOAD PUSH2 0x1AC7 SWAP1 PUSH6 0xFFFFFFFFFFFF AND SWAP1 JUMP JUMPDEST SWAP2 ADD MLOAD PUSH6 0xFFFFFFFFFFFF AND SWAP2 PUSH1 0x60 ADD MLOAD SWAP3 PUSH2 0x1AE0 PUSH2 0x5F9 JUMP JUMPDEST SWAP11 DUP12 MSTORE PUSH1 0x20 DUP12 ADD MSTORE DUP5 ISZERO ISZERO DUP10 DUP12 ADD MSTORE PUSH6 0xFFFFFFFFFFFF AND PUSH1 0x60 DUP11 ADD MSTORE PUSH6 0xFFFFFFFFFFFF AND PUSH1 0x80 DUP10 ADD MSTORE PUSH1 0xA0 DUP9 ADD MSTORE ISZERO ISZERO SWAP1 DUP2 PUSH2 0x1BBC JUMPI JUMPDEST POP PUSH2 0x1B51 JUMPI POP PUSH2 0xF21 SWAP3 MLOAD SWAP5 DUP6 SWAP5 PUSH32 0xE0CFF05F00000000000000000000000000000000000000000000000000000000 DUP7 MSTORE PUSH1 0x4 DUP7 ADD PUSH2 0x2CBD JUMP JUMPDEST SWAP2 SWAP1 PUSH2 0xF21 SWAP4 PUSH2 0x1B60 DUP5 PUSH2 0x54DC JUMP JUMPDEST PUSH2 0x1B87 PUSH2 0x1B6B PUSH2 0x619 JUMP JUMPDEST PUSH20 0xFFFFFFFFFFFFFFFFFFFFFFFFFFFFFFFFFFFFFFFF SWAP1 SWAP7 AND DUP7 MSTORE JUMP JUMPDEST PUSH1 0x20 DUP6 ADD MSTORE MLOAD SWAP6 DUP7 SWAP6 PUSH32 0xFAECB4E400000000000000000000000000000000000000000000000000000000 DUP8 MSTORE PUSH1 0x4 DUP8 ADD PUSH2 0x2C2B JUMP JUMPDEST SWAP1 POP ISZERO CODESIZE PUSH2 0x1B17 JUMP JUMPDEST SWAP2 POP POP PUSH2 0x54DC JUMP JUMPDEST POP CALLVALUE PUSH2 0x359 JUMPI PUSH1 0x20 PUSH32 0xFFFFFFFFFFFFFFFFFFFFFFFFFFFFFFFFFFFFFFFFFFFFFFFFFFFFFFFFFFFFFFFC CALLDATASIZE ADD SLT PUSH2 0x359 JUMPI PUSH20 0xFFFFFFFFFFFFFFFFFFFFFFFFFFFFFFFFFFFFFFFF PUSH1 0x4 CALLDATALOAD PUSH2 0x1C1E DUP2 PUSH2 0x422 JUMP JUMPDEST AND PUSH1 0x0 MSTORE PUSH1 0x0 PUSH1 0x20 MSTORE PUSH1 0xA0 PUSH1 0x40 PUSH1 0x0 KECCAK256 PUSH6 0xFFFFFFFFFFFF PUSH1 0x1 DUP3 SLOAD SWAP3 ADD SLOAD PUSH1 0x40 MLOAD SWAP3 PUSH14 0xFFFFFFFFFFFFFFFFFFFFFFFFFFFF SWAP1 DUP2 DUP2 AND DUP6 MSTORE PUSH1 0xFF DUP2 PUSH1 0x70 SHR AND ISZERO ISZERO PUSH1 0x20 DUP7 ADD MSTORE PUSH1 0x78 SHR AND PUSH1 0x40 DUP5 ADD MSTORE PUSH4 0xFFFFFFFF DUP2 AND PUSH1 0x60 DUP5 ADD MSTORE PUSH1 0x20 SHR AND PUSH1 0x80 DUP3 ADD MSTORE RETURN JUMPDEST PUSH1 0x20 SWAP1 PUSH8 0xFFFFFFFFFFFFFFFF DUP2 GT PUSH2 0x1C9D JUMPI JUMPDEST PUSH1 0x5 SHL ADD SWAP1 JUMP JUMPDEST PUSH2 0x1CA5 PUSH2 0x505 JUMP JUMPDEST PUSH2 0x1C96 JUMP JUMPDEST PUSH1 0x40 MLOAD SWAP1 PUSH2 0x1CB7 DUP3 PUSH2 0x535 JUMP JUMPDEST PUSH1 0x40 MLOAD PUSH1 0x80 DUP4 PUSH2 0x100 DUP4 ADD PUSH8 0xFFFFFFFFFFFFFFFF DUP2 GT DUP5 DUP3 LT OR PUSH2 0x1D20 JUMPI JUMPDEST PUSH1 0x40 MSTORE PUSH1 0x0 SWAP3 DUP4 DUP2 MSTORE DUP4 PUSH1 0x20 DUP3 ADD MSTORE DUP4 PUSH1 0x40 DUP3 ADD MSTORE DUP4 PUSH1 0x60 DUP3 ADD MSTORE DUP4 DUP4 DUP3 ADD MSTORE DUP4 PUSH1 0xA0 DUP3 ADD MSTORE DUP4 PUSH1 0xC0 DUP3 ADD MSTORE DUP4 PUSH1 0xE0 DUP3 ADD MSTORE DUP2 MSTORE DUP3 PUSH1 0x20 DUP3 ADD MSTORE DUP3 PUSH1 0x40 DUP3 ADD MSTORE DUP3 PUSH1 0x60 DUP3 ADD MSTORE ADD MSTORE JUMP JUMPDEST PUSH2 0x1D28 PUSH2 0x505 JUMP JUMPDEST PUSH2 0x1CD6 JUMP JUMPDEST SWAP1 PUSH2 0x1D37 DUP3 PUSH2 0x1C83 JUMP JUMPDEST PUSH2 0x1D44 PUSH1 0x40 MLOAD SWAP2 DUP3 PUSH2 0x5AB JUMP JUMPDEST DUP3 DUP2 MSTORE PUSH32 0xFFFFFFFFFFFFFFFFFFFFFFFFFFFFFFFFFFFFFFFFFFFFFFFFFFFFFFFFFFFFFFE0 PUSH2 0x1D72 DUP3 SWAP5 PUSH2 0x1C83 JUMP JUMPDEST ADD SWAP1 PUSH1 0x0 JUMPDEST DUP3 DUP2 LT PUSH2 0x1D83 JUMPI POP POP POP JUMP JUMPDEST PUSH1 0x20 SWAP1 PUSH2 0x1D8E PUSH2 0x1CAA JUMP JUMPDEST DUP3 DUP3 DUP6 ADD ADD MSTORE ADD PUSH2 0x1D77 JUMP JUMPDEST POP PUSH32 0x4E487B7100000000000000000000000000000000000000000000000000000000 PUSH1 0x0 MSTORE PUSH1 0x32 PUSH1 0x4 MSTORE PUSH1 0x24 PUSH1 0x0 REVERT JUMPDEST PUSH1 0x20 SWAP2 DUP2 MLOAD DUP2 LT ISZERO PUSH2 0x1DDF JUMPI JUMPDEST PUSH1 0x5 SHL ADD ADD SWAP1 JUMP JUMPDEST PUSH2 0x1DE7 PUSH2 0x1D9A JUMP JUMPDEST PUSH2 0x1DD7 JUMP JUMPDEST SWAP2 SWAP1 DUP2 LT ISZERO PUSH2 0x1E2D JUMPI JUMPDEST PUSH1 0x5 SHL DUP2 ADD CALLDATALOAD SWAP1 PUSH32 0xFFFFFFFFFFFFFFFFFFFFFFFFFFFFFFFFFFFFFFFFFFFFFFFFFFFFFFFFFFFFFEA1 DUP2 CALLDATASIZE SUB ADD DUP3 SLT ISZERO PUSH2 0x359 JUMPI ADD SWAP1 JUMP JUMPDEST PUSH2 0x1E35 PUSH2 0x1D9A JUMP JUMPDEST PUSH2 0x1DF6 JUMP JUMPDEST PUSH1 0x2 DUP1 SLOAD EQ PUSH2 0x1E49 JUMPI PUSH1 0x2 DUP1 SSTORE JUMP JUMPDEST PUSH1 0x64 PUSH1 0x40 MLOAD PUSH32 0x8C379A000000000000000000000000000000000000000000000000000000000 DUP2 MSTORE PUSH1 0x20 PUSH1 0x4 DUP3 ADD MSTORE PUSH1 0x1F PUSH1 0x24 DUP3 ADD MSTORE PUSH32 0x5265656E7472616E637947756172643A207265656E7472616E742063616C6C00 PUSH1 0x44 DUP3 ADD MSTORE REVERT JUMPDEST RETURNDATASIZE ISZERO PUSH2 0x1ED2 JUMPI RETURNDATASIZE SWAP1 PUSH2 0x1EB8 DUP3 PUSH2 0x639 JUMP JUMPDEST SWAP2 PUSH2 0x1EC6 PUSH1 0x40 MLOAD SWAP4 DUP5 PUSH2 0x5AB JUMP JUMPDEST DUP3 MSTORE RETURNDATASIZE PUSH1 0x0 PUSH1 0x20 DUP5 ADD RETURNDATACOPY JUMP JUMPDEST PUSH1 0x60 SWAP1 JUMP JUMPDEST PUSH20 0xFFFFFFFFFFFFFFFFFFFFFFFFFFFFFFFFFFFFFFFF AND DUP1 ISZERO PUSH2 0x1F6A JUMPI PUSH1 0x0 DUP1 DUP1 SWAP4 DUP2 SWAP4 GAS CALL PUSH2 0x1F04 PUSH2 0x1EA7 JUMP JUMPDEST POP ISZERO PUSH2 0x1F0C JUMPI JUMP JUMPDEST PUSH1 0x64 PUSH1 0x40 MLOAD PUSH32 0x8C379A000000000000000000000000000000000000000000000000000000000 DUP2 MSTORE PUSH1 0x20 PUSH1 0x4 DUP3 ADD MSTORE PUSH1 0x1F PUSH1 0x24 DUP3 ADD MSTORE PUSH32 0x41413931206661696C65642073656E6420746F2062656E656669636961727900 PUSH1 0x44 DUP3 ADD MSTORE REVERT JUMPDEST PUSH1 0x64 PUSH1 0x40 MLOAD PUSH32 0x8C379A000000000000000000000000000000000000000000000000000000000 DUP2 MSTORE PUSH1 0x20 PUSH1 0x4 DUP3 ADD MSTORE PUSH1 0x18 PUSH1 0x24 DUP3 ADD MSTORE PUSH32 0x4141393020696E76616C69642062656E65666963696172790000000000000000 PUSH1 0x44 DUP3 ADD MSTORE REVERT JUMPDEST SWAP1 CALLDATALOAD SWAP1 PUSH32 0xFFFFFFFFFFFFFFFFFFFFFFFFFFFFFFFFFFFFFFFFFFFFFFFFFFFFFFFFFFFFFFE1 DUP2 CALLDATASIZE SUB ADD DUP3 SLT ISZERO PUSH2 0x359 JUMPI ADD DUP1 CALLDATALOAD SWAP1 PUSH8 0xFFFFFFFFFFFFFFFF DUP3 GT PUSH2 0x359 JUMPI PUSH1 0x20 ADD SWAP2 DUP2 CALLDATASIZE SUB DUP4 SGT PUSH2 0x359 JUMPI JUMP JUMPDEST SWAP1 DUP2 PUSH1 0x20 SWAP2 SUB SLT PUSH2 0x359 JUMPI MLOAD SWAP1 JUMP JUMPDEST PUSH1 0x1F DUP3 PUSH1 0x20 SWAP5 SWAP4 PUSH32 0xFFFFFFFFFFFFFFFFFFFFFFFFFFFFFFFFFFFFFFFFFFFFFFFFFFFFFFFFFFFFFFE0 SWAP4 DUP2 DUP7 MSTORE DUP7 DUP7 ADD CALLDATACOPY PUSH1 0x0 DUP6 DUP3 DUP7 ADD ADD MSTORE ADD AND ADD ADD SWAP1 JUMP JUMPDEST PUSH1 0x0 JUMPDEST DUP4 DUP2 LT PUSH2 0x207A JUMPI POP POP PUSH1 0x0 SWAP2 ADD MSTORE JUMP JUMPDEST DUP2 DUP2 ADD MLOAD DUP4 DUP3 ADD MSTORE PUSH1 0x20 ADD PUSH2 0x206A JUMP JUMPDEST SWAP1 PUSH32 0xFFFFFFFFFFFFFFFFFFFFFFFFFFFFFFFFFFFFFFFFFFFFFFFFFFFFFFFFFFFFFFE0 PUSH1 0x1F PUSH1 0x20 SWAP4 PUSH2 0x20C6 DUP2 MLOAD DUP1 SWAP3 DUP2 DUP8 MSTORE DUP8 DUP1 DUP9 ADD SWAP2 ADD PUSH2 0x2067 JUMP JUMPDEST ADD AND ADD ADD SWAP1 JUMP JUMPDEST SWAP1 PUSH2 0x20E7 PUSH1 0x80 SWAP2 PUSH2 0x8B7 SWAP7 SWAP5 PUSH2 0x1C0 DUP1 DUP7 MSTORE DUP6 ADD SWAP2 PUSH2 0x2028 JUMP JUMPDEST SWAP4 PUSH1 0xE0 DUP2 MLOAD PUSH20 0xFFFFFFFFFFFFFFFFFFFFFFFFFFFFFFFFFFFFFFFF DUP1 DUP3 MLOAD AND PUSH1 0x20 DUP8 ADD MSTORE PUSH1 0x20 DUP3 ADD MLOAD PUSH1 0x40 DUP8 ADD MSTORE PUSH1 0x40 DUP3 ADD MLOAD PUSH1 0x60 DUP8 ADD MSTORE PUSH1 0x60 DUP3 ADD MLOAD DUP6 DUP8 ADD MSTORE DUP5 DUP3 ADD MLOAD PUSH1 0xA0 DUP8 ADD MSTORE PUSH1 0xA0 DUP3 ADD MLOAD AND PUSH1 0xC0 DUP7 ADD MSTORE PUSH1 0xC0 DUP2 ADD MLOAD DUP3 DUP7 ADD MSTORE ADD MLOAD PUSH2 0x100 DUP5 ADD MSTORE PUSH1 0x20 DUP2 ADD MLOAD PUSH2 0x120 DUP5 ADD MSTORE PUSH1 0x40 DUP2 ADD MLOAD PUSH2 0x140 DUP5 ADD MSTORE PUSH1 0x60 DUP2 ADD MLOAD PUSH2 0x160 DUP5 ADD MSTORE ADD MLOAD PUSH2 0x180 DUP3 ADD MSTORE PUSH2 0x1A0 DUP2 DUP5 SUB SWAP2 ADD MSTORE PUSH2 0x208A JUMP JUMPDEST POP PUSH1 0x40 MLOAD RETURNDATASIZE PUSH1 0x0 DUP3 RETURNDATACOPY RETURNDATASIZE SWAP1 REVERT JUMPDEST POP PUSH32 0x4E487B7100000000000000000000000000000000000000000000000000000000 PUSH1 0x0 MSTORE PUSH1 0x11 PUSH1 0x4 MSTORE PUSH1 0x24 PUSH1 0x0 REVERT JUMPDEST SWAP2 SWAP1 DUP3 SUB SWAP2 DUP3 GT PUSH2 0x21CD JUMPI JUMP JUMPDEST PUSH2 0x44D PUSH2 0x2190 JUMP JUMPDEST SWAP2 SWAP1 DUP3 ADD DUP1 SWAP3 GT PUSH2 0x21CD JUMPI JUMP JUMPDEST SWAP1 GAS SWAP2 DUP2 PUSH1 0x20 PUSH2 0x21FB PUSH1 0x60 DUP4 ADD MLOAD SWAP4 PUSH1 0x60 DUP2 ADD SWAP1 PUSH2 0x1FC8 JUMP JUMPDEST SWAP1 PUSH2 0x2234 DUP6 PUSH1 0x40 MLOAD SWAP6 DUP7 SWAP5 DUP6 SWAP5 PUSH32 0x1D73275600000000000000000000000000000000000000000000000000000000 DUP7 MSTORE PUSH1 0x4 DUP7 ADD PUSH2 0x20CD JUMP JUMPDEST SUB DUP2 PUSH1 0x0 ADDRESS GAS CALL PUSH1 0x0 SWAP2 DUP2 PUSH2 0x230F JUMPI JUMPDEST POP PUSH2 0x2308 JUMPI POP PUSH1 0x20 PUSH1 0x0 DUP1 RETURNDATACOPY PUSH32 0xDEADDEAD00000000000000000000000000000000000000000000000000000000 PUSH1 0x0 MLOAD EQ PUSH2 0x229B JUMPI PUSH2 0x2295 PUSH2 0x228A PUSH2 0x8B7 SWAP5 GAS SWAP1 PUSH2 0x21C0 JUMP JUMPDEST PUSH1 0x80 DUP5 ADD MLOAD SWAP1 PUSH2 0x21D5 JUMP JUMPDEST SWAP2 PUSH2 0x4AFC JUMP JUMPDEST PUSH1 0x40 MLOAD PUSH32 0x220266B600000000000000000000000000000000000000000000000000000000 DUP2 MSTORE DUP1 PUSH2 0xF21 PUSH1 0x4 DUP3 ADD PUSH1 0x80 SWAP1 PUSH1 0x0 DUP2 MSTORE PUSH1 0x40 PUSH1 0x20 DUP3 ADD MSTORE PUSH1 0xF PUSH1 0x40 DUP3 ADD MSTORE PUSH32 0x41413935206F7574206F66206761730000000000000000000000000000000000 PUSH1 0x60 DUP3 ADD MSTORE ADD SWAP1 JUMP JUMPDEST SWAP3 POP POP POP SWAP1 JUMP JUMPDEST PUSH2 0x2331 SWAP2 SWAP3 POP PUSH1 0x20 RETURNDATASIZE DUP2 GT PUSH2 0x2338 JUMPI JUMPDEST PUSH2 0x2329 DUP2 DUP4 PUSH2 0x5AB JUMP JUMPDEST DUP2 ADD SWAP1 PUSH2 0x2019 JUMP JUMPDEST SWAP1 CODESIZE PUSH2 0x2244 JUMP JUMPDEST POP RETURNDATASIZE PUSH2 0x231F JUMP JUMPDEST SWAP1 SWAP3 SWAP2 SWAP3 GAS SWAP4 DUP1 PUSH1 0x20 PUSH2 0x235B PUSH1 0x60 DUP4 ADD MLOAD SWAP5 PUSH1 0x60 DUP2 ADD SWAP1 PUSH2 0x1FC8 JUMP JUMPDEST SWAP1 PUSH2 0x2394 DUP7 PUSH1 0x40 MLOAD SWAP6 DUP7 SWAP5 DUP6 SWAP5 PUSH32 0x1D73275600000000000000000000000000000000000000000000000000000000 DUP7 MSTORE PUSH1 0x4 DUP7 ADD PUSH2 0x20CD JUMP JUMPDEST SUB DUP2 PUSH1 0x0 ADDRESS GAS CALL PUSH1 0x0 SWAP2 DUP2 PUSH2 0x2471 JUMPI JUMPDEST POP PUSH2 0x246A JUMPI POP PUSH1 0x20 PUSH1 0x0 DUP1 RETURNDATACOPY PUSH32 0xDEADDEAD00000000000000000000000000000000000000000000000000000000 PUSH1 0x0 MLOAD EQ PUSH2 0x23FC JUMPI PUSH2 0x23F6 PUSH2 0x23EB PUSH2 0x8B7 SWAP6 SWAP7 GAS SWAP1 PUSH2 0x21C0 JUMP JUMPDEST PUSH1 0x80 DUP4 ADD MLOAD SWAP1 PUSH2 0x21D5 JUMP JUMPDEST SWAP3 PUSH2 0x4DDF JUMP JUMPDEST PUSH2 0xF21 DUP4 PUSH1 0x40 MLOAD SWAP2 DUP3 SWAP2 PUSH32 0x220266B600000000000000000000000000000000000000000000000000000000 DUP4 MSTORE PUSH1 0x4 DUP4 ADD PUSH1 0x80 SWAP2 DUP2 MSTORE PUSH1 0x40 PUSH1 0x20 DUP3 ADD MSTORE PUSH1 0xF PUSH1 0x40 DUP3 ADD MSTORE PUSH32 0x41413935206F7574206F66206761730000000000000000000000000000000000 PUSH1 0x60 DUP3 ADD MSTORE ADD SWAP1 JUMP JUMPDEST SWAP5 POP POP POP POP JUMP JUMPDEST PUSH2 0x248A SWAP2 SWAP3 POP PUSH1 0x20 RETURNDATASIZE DUP2 GT PUSH2 0x2338 JUMPI PUSH2 0x2329 DUP2 DUP4 PUSH2 0x5AB JUMP JUMPDEST SWAP1 CODESIZE PUSH2 0x23A4 JUMP JUMPDEST PUSH1 0x1 SWAP1 PUSH32 0xFFFFFFFFFFFFFFFFFFFFFFFFFFFFFFFFFFFFFFFFFFFFFFFFFFFFFFFFFFFFFFFF DUP2 EQ PUSH2 0x24BF JUMPI ADD SWAP1 JUMP JUMPDEST PUSH2 0x24C7 PUSH2 0x2190 JUMP JUMPDEST ADD SWAP1 JUMP JUMPDEST SWAP2 SWAP1 DUP2 LT ISZERO PUSH2 0x250C JUMPI JUMPDEST PUSH1 0x5 SHL DUP2 ADD CALLDATALOAD SWAP1 PUSH32 0xFFFFFFFFFFFFFFFFFFFFFFFFFFFFFFFFFFFFFFFFFFFFFFFFFFFFFFFFFFFFFFA1 DUP2 CALLDATASIZE SUB ADD DUP3 SLT ISZERO PUSH2 0x359 JUMPI ADD SWAP1 JUMP JUMPDEST PUSH2 0x2514 PUSH2 0x1D9A JUMP JUMPDEST PUSH2 0x24D5 JUMP JUMPDEST SWAP1 CALLDATALOAD SWAP1 PUSH32 0xFFFFFFFFFFFFFFFFFFFFFFFFFFFFFFFFFFFFFFFFFFFFFFFFFFFFFFFFFFFFFFE1 DUP2 CALLDATASIZE SUB ADD DUP3 SLT ISZERO PUSH2 0x359 JUMPI ADD DUP1 CALLDATALOAD SWAP1 PUSH8 0xFFFFFFFFFFFFFFFF DUP3 GT PUSH2 0x359 JUMPI PUSH1 0x20 ADD SWAP2 DUP2 PUSH1 0x5 SHL CALLDATASIZE SUB DUP4 SGT PUSH2 0x359 JUMPI JUMP JUMPDEST CALLDATALOAD PUSH2 0x8B7 DUP2 PUSH2 0x422 JUMP JUMPDEST ISZERO PUSH2 0x257E JUMPI JUMP JUMPDEST PUSH1 0x64 PUSH1 0x40 MLOAD PUSH32 0x8C379A000000000000000000000000000000000000000000000000000000000 DUP2 MSTORE PUSH1 0x20 PUSH1 0x4 DUP3 ADD MSTORE PUSH1 0x17 PUSH1 0x24 DUP3 ADD MSTORE PUSH32 0x4141393620696E76616C69642061676772656761746F72000000000000000000 PUSH1 0x44 DUP3 ADD MSTORE REVERT JUMPDEST SWAP1 CALLDATALOAD PUSH32 0xFFFFFFFFFFFFFFFFFFFFFFFFFFFFFFFFFFFFFFFFFFFFFFFFFFFFFFFFFFFFFFE1 DUP3 CALLDATASIZE SUB ADD DUP2 SLT ISZERO PUSH2 0x359 JUMPI ADD PUSH1 0x20 DUP2 CALLDATALOAD SWAP2 ADD SWAP2 PUSH8 0xFFFFFFFFFFFFFFFF DUP3 GT PUSH2 0x359 JUMPI DUP2 CALLDATASIZE SUB DUP4 SGT PUSH2 0x359 JUMPI JUMP JUMPDEST PUSH2 0x8B7 SWAP2 PUSH2 0x2657 DUP2 PUSH2 0x263D DUP5 PUSH2 0x45C JUMP JUMPDEST PUSH20 0xFFFFFFFFFFFFFFFFFFFFFFFFFFFFFFFFFFFFFFFF AND SWAP1 MSTORE JUMP JUMPDEST PUSH1 0x20 DUP3 ADD CALLDATALOAD PUSH1 0x20 DUP3 ADD MSTORE PUSH2 0x26F2 PUSH2 0x26A3 PUSH2 0x2688 PUSH2 0x2677 PUSH1 0x40 DUP7 ADD DUP7 PUSH2 0x25DC JUMP JUMPDEST PUSH2 0x160 DUP1 PUSH1 0x40 DUP9 ADD MSTORE DUP7 ADD SWAP2 PUSH2 0x2028 JUMP JUMPDEST PUSH2 0x2695 PUSH1 0x60 DUP7 ADD DUP7 PUSH2 0x25DC JUMP JUMPDEST SWAP1 DUP6 DUP4 SUB PUSH1 0x60 DUP8 ADD MSTORE PUSH2 0x2028 JUMP JUMPDEST PUSH1 0x80 DUP5 ADD CALLDATALOAD PUSH1 0x80 DUP5 ADD MSTORE PUSH1 0xA0 DUP5 ADD CALLDATALOAD PUSH1 0xA0 DUP5 ADD MSTORE PUSH1 0xC0 DUP5 ADD CALLDATALOAD PUSH1 0xC0 DUP5 ADD MSTORE PUSH1 0xE0 DUP5 ADD CALLDATALOAD PUSH1 0xE0 DUP5 ADD MSTORE PUSH2 0x100 DUP1 DUP6 ADD CALLDATALOAD SWAP1 DUP5 ADD MSTORE PUSH2 0x120 PUSH2 0x26E5 DUP2 DUP7 ADD DUP7 PUSH2 0x25DC JUMP JUMPDEST SWAP2 DUP6 DUP5 SUB SWAP1 DUP7 ADD MSTORE PUSH2 0x2028 JUMP JUMPDEST SWAP2 PUSH2 0x2703 PUSH2 0x140 SWAP2 DUP3 DUP2 ADD SWAP1 PUSH2 0x25DC JUMP JUMPDEST SWAP3 SWAP1 SWAP2 DUP2 DUP6 SUB SWAP2 ADD MSTORE PUSH2 0x2028 JUMP JUMPDEST SWAP5 SWAP4 SWAP2 SWAP3 SWAP1 DUP4 PUSH1 0x40 DUP8 ADD PUSH1 0x40 DUP9 MSTORE MSTORE PUSH1 0x60 DUP7 ADD SWAP4 PUSH1 0x60 DUP2 PUSH1 0x5 SHL DUP9 ADD ADD SWAP5 DUP3 PUSH1 0x0 SWAP1 DUP2 JUMPDEST DUP5 DUP4 LT PUSH2 0x2754 JUMPI POP POP POP POP POP POP DUP5 PUSH1 0x20 PUSH2 0x8B7 SWAP6 SWAP7 DUP6 SUB SWAP2 ADD MSTORE PUSH2 0x2028 JUMP JUMPDEST SWAP1 SWAP2 SWAP3 SWAP4 SWAP5 SWAP8 PUSH32 0xFFFFFFFFFFFFFFFFFFFFFFFFFFFFFFFFFFFFFFFFFFFFFFFFFFFFFFFFFFFFFFA0 DUP12 DUP3 SUB ADD DUP6 MSTORE DUP9 CALLDATALOAD PUSH32 0xFFFFFFFFFFFFFFFFFFFFFFFFFFFFFFFFFFFFFFFFFFFFFFFFFFFFFFFFFFFFFEA1 DUP5 CALLDATASIZE SUB ADD DUP2 SLT ISZERO PUSH2 0x27CF JUMPI PUSH1 0x1 SWAP2 DUP5 PUSH2 0x27BD SWAP3 ADD PUSH2 0x262C JUMP JUMPDEST SWAP9 PUSH1 0x20 SWAP1 DUP2 ADD SWAP7 SWAP6 ADD SWAP4 ADD SWAP2 SWAP1 PUSH2 0x2735 JUMP JUMPDEST DUP3 DUP1 REVERT JUMPDEST SWAP1 DUP1 SWAP3 SWAP2 DUP3 CALLDATACOPY ADD PUSH1 0x0 DUP2 MSTORE SWAP1 JUMP JUMPDEST SWAP3 SWAP1 SWAP4 PUSH2 0x8B7 SWAP7 SWAP6 SWAP3 PUSH1 0xC0 SWAP6 DUP6 MSTORE PUSH1 0x20 DUP6 ADD MSTORE PUSH6 0xFFFFFFFFFFFF DUP1 SWAP3 AND PUSH1 0x40 DUP6 ADD MSTORE AND PUSH1 0x60 DUP4 ADD MSTORE ISZERO ISZERO PUSH1 0x80 DUP3 ADD MSTORE DUP2 PUSH1 0xA0 DUP3 ADD MSTORE ADD SWAP1 PUSH2 0x208A JUMP JUMPDEST ISZERO PUSH2 0x2824 JUMPI JUMP JUMPDEST PUSH1 0x64 PUSH1 0x40 MLOAD PUSH32 0x8C379A000000000000000000000000000000000000000000000000000000000 DUP2 MSTORE PUSH1 0x20 PUSH1 0x4 DUP3 ADD MSTORE PUSH1 0x17 PUSH1 0x24 DUP3 ADD MSTORE PUSH32 0x4141393220696E7465726E616C2063616C6C206F6E6C79000000000000000000 PUSH1 0x44 DUP3 ADD MSTORE REVERT JUMPDEST SWAP1 PUSH1 0x40 PUSH2 0x8B7 SWAP3 PUSH1 0x0 DUP2 MSTORE DUP2 PUSH1 0x20 DUP3 ADD MSTORE ADD SWAP1 PUSH2 0x208A JUMP JUMPDEST PUSH1 0x40 SWAP1 PUSH2 0x8B7 SWAP4 SWAP3 DUP2 MSTORE DUP2 PUSH1 0x20 DUP3 ADD MSTORE ADD SWAP1 PUSH2 0x208A JUMP JUMPDEST SWAP1 SWAP3 SWAP2 SWAP3 GAS SWAP4 PUSH2 0x28C2 ADDRESS CALLER EQ PUSH2 0x281D JUMP JUMPDEST DUP2 MLOAD SWAP5 PUSH1 0x40 DUP7 ADD MLOAD SWAP6 GAS PUSH2 0x1388 PUSH1 0x60 DUP4 ADD MLOAD DUP10 ADD ADD GT PUSH2 0x29E2 JUMPI PUSH2 0x8B7 SWAP7 PUSH1 0x0 SWAP6 DUP1 MLOAD PUSH2 0x2909 JUMPI JUMPDEST POP POP POP SWAP1 PUSH2 0x2903 SWAP2 GAS SWAP1 SUB PUSH1 0x80 DUP5 ADD MLOAD ADD SWAP5 CALLDATASIZE SWAP2 PUSH2 0x682 JUMP JUMPDEST SWAP2 PUSH2 0x5047 JUMP JUMPDEST PUSH2 0x2938 SWAP2 PUSH2 0x2934 SWAP2 PUSH2 0x292F DUP6 MLOAD PUSH20 0xFFFFFFFFFFFFFFFFFFFFFFFFFFFFFFFFFFFFFFFF AND SWAP1 JUMP JUMPDEST PUSH2 0x5C12 JUMP JUMPDEST ISZERO SWAP1 JUMP JUMPDEST PUSH2 0x2944 JUMPI JUMPDEST DUP1 DUP1 PUSH2 0x28EA JUMP JUMPDEST PUSH2 0x2903 SWAP3 SWAP2 SWAP5 POP PUSH2 0x2953 PUSH2 0x5C24 JUMP JUMPDEST SWAP1 DUP2 MLOAD PUSH2 0x2967 JUMPI JUMPDEST POP POP PUSH1 0x1 SWAP4 SWAP1 SWAP2 PUSH2 0x293D JUMP JUMPDEST PUSH32 0x1C4FADA7374C0A9EE8841FC38AFE82932DC0F8E69012E927F061A8BAE611A201 PUSH20 0xFFFFFFFFFFFFFFFFFFFFFFFFFFFFFFFFFFFFFFFF PUSH1 0x20 DUP8 ADD MLOAD SWAP3 PUSH2 0x29D8 PUSH1 0x20 PUSH2 0x29C6 DUP4 MLOAD PUSH20 0xFFFFFFFFFFFFFFFFFFFFFFFFFFFFFFFFFFFFFFFF AND SWAP1 JUMP JUMPDEST SWAP3 ADD MLOAD SWAP6 PUSH1 0x40 MLOAD SWAP4 DUP5 SWAP4 AND SWAP7 DUP4 PUSH2 0x289A JUMP JUMPDEST SUB SWAP1 LOG3 CODESIZE DUP1 PUSH2 0x295B JUMP JUMPDEST PUSH32 0xDEADDEAD00000000000000000000000000000000000000000000000000000000 PUSH1 0x0 MSTORE PUSH1 0x20 PUSH1 0x0 REVERT JUMPDEST PUSH2 0x2A22 PUSH2 0x2A1C PUSH1 0x40 DUP4 ADD DUP4 PUSH2 0x1FC8 JUMP JUMPDEST SWAP1 PUSH2 0x5C07 JUMP JUMPDEST SWAP1 PUSH2 0x2A33 PUSH2 0x2A1C PUSH1 0x60 DUP4 ADD DUP4 PUSH2 0x1FC8 JUMP JUMPDEST SWAP1 PUSH2 0x2AE9 PUSH2 0x2A48 PUSH2 0x2A1C PUSH2 0x120 DUP5 ADD DUP5 PUSH2 0x1FC8 JUMP JUMPDEST PUSH1 0x40 MLOAD SWAP5 DUP6 SWAP4 PUSH1 0x20 DUP6 ADD SWAP6 PUSH2 0x100 DUP3 ADD CALLDATALOAD SWAP3 PUSH1 0xE0 DUP4 ADD CALLDATALOAD SWAP3 PUSH1 0xC0 DUP2 ADD CALLDATALOAD SWAP3 PUSH1 0xA0 DUP3 ADD CALLDATALOAD SWAP3 PUSH1 0x80 DUP4 ADD CALLDATALOAD SWAP3 PUSH20 0xFFFFFFFFFFFFFFFFFFFFFFFFFFFFFFFFFFFFFFFF PUSH1 0x20 DUP3 ADD CALLDATALOAD SWAP2 CALLDATALOAD AND DUP13 SWAP7 SWAP4 SWAP1 SWAP11 SWAP10 SWAP9 SWAP6 SWAP3 PUSH2 0x120 SWAP9 SWAP6 SWAP3 PUSH20 0xFFFFFFFFFFFFFFFFFFFFFFFFFFFFFFFFFFFFFFFF PUSH2 0x140 DUP11 ADD SWAP14 AND DUP10 MSTORE PUSH1 0x20 DUP10 ADD MSTORE PUSH1 0x40 DUP9 ADD MSTORE PUSH1 0x60 DUP8 ADD MSTORE PUSH1 0x80 DUP7 ADD MSTORE PUSH1 0xA0 DUP6 ADD MSTORE PUSH1 0xC0 DUP5 ADD MSTORE PUSH1 0xE0 DUP4 ADD MSTORE PUSH2 0x100 DUP3 ADD MSTORE ADD MSTORE JUMP JUMPDEST SUB SWAP2 PUSH2 0x2B1B PUSH32 0xFFFFFFFFFFFFFFFFFFFFFFFFFFFFFFFFFFFFFFFFFFFFFFFFFFFFFFFFFFFFFFE0 SWAP4 DUP5 DUP2 ADD DUP4 MSTORE DUP3 PUSH2 0x5AB JUMP JUMPDEST MLOAD SWAP1 KECCAK256 PUSH1 0x40 DUP1 MLOAD PUSH1 0x20 DUP2 ADD SWAP3 DUP4 MSTORE ADDRESS SWAP2 DUP2 ADD SWAP2 SWAP1 SWAP2 MSTORE CHAINID PUSH1 0x60 DUP3 ADD MSTORE PUSH1 0x80 SWAP3 DUP4 ADD DUP2 MSTORE SWAP1 SWAP2 PUSH2 0x2B4A SWAP1 DUP3 PUSH2 0x5AB JUMP JUMPDEST MLOAD SWAP1 KECCAK256 SWAP1 JUMP JUMPDEST PUSH1 0x40 MLOAD SWAP1 PUSH1 0x40 DUP3 ADD DUP3 DUP2 LT PUSH8 0xFFFFFFFFFFFFFFFF DUP3 GT OR PUSH2 0x2B7B JUMPI JUMPDEST PUSH1 0x40 MSTORE PUSH1 0x0 PUSH1 0x20 DUP4 DUP3 DUP2 MSTORE ADD MSTORE JUMP JUMPDEST PUSH2 0x2B83 PUSH2 0x505 JUMP JUMPDEST PUSH2 0x2B6C JUMP JUMPDEST SWAP1 PUSH1 0x14 GT PUSH2 0x359 JUMPI SWAP1 PUSH1 0x14 SWAP1 JUMP JUMPDEST PUSH32 0xFFFFFFFFFFFFFFFFFFFFFFFFFFFFFFFFFFFFFFFF000000000000000000000000 SWAP1 CALLDATALOAD DUP2 DUP2 AND SWAP4 SWAP3 PUSH1 0x14 DUP2 LT PUSH2 0x2BCB JUMPI POP POP POP JUMP JUMPDEST PUSH1 0x14 SUB PUSH1 0x3 SHL DUP3 SWAP1 SHL AND AND SWAP2 POP JUMP JUMPDEST SWAP1 PUSH1 0xC0 PUSH1 0xA0 PUSH2 0x8B7 SWAP4 DUP1 MLOAD DUP5 MSTORE PUSH1 0x20 DUP2 ADD MLOAD PUSH1 0x20 DUP6 ADD MSTORE PUSH1 0x40 DUP2 ADD MLOAD ISZERO ISZERO PUSH1 0x40 DUP6 ADD MSTORE PUSH6 0xFFFFFFFFFFFF DUP1 PUSH1 0x60 DUP4 ADD MLOAD AND PUSH1 0x60 DUP7 ADD MSTORE PUSH1 0x80 DUP3 ADD MLOAD AND PUSH1 0x80 DUP6 ADD MSTORE ADD MLOAD SWAP2 DUP2 PUSH1 0xA0 DUP3 ADD MSTORE ADD SWAP1 PUSH2 0x208A JUMP JUMPDEST SWAP3 SWAP5 PUSH2 0x2C8C PUSH2 0x44D SWAP6 PUSH2 0x2C7A PUSH2 0x100 SWAP6 SWAP10 SWAP9 PUSH2 0x2C68 PUSH2 0x2C54 PUSH1 0x20 SWAP8 PUSH2 0x140 DUP1 DUP13 MSTORE DUP12 ADD SWAP1 PUSH2 0x2BDA JUMP JUMPDEST SWAP12 DUP8 DUP11 ADD SWAP1 PUSH1 0x20 DUP1 SWAP2 DUP1 MLOAD DUP5 MSTORE ADD MLOAD SWAP2 ADD MSTORE JUMP JUMPDEST DUP1 MLOAD PUSH1 0x60 DUP10 ADD MSTORE PUSH1 0x20 ADD MLOAD PUSH1 0x80 DUP9 ADD MSTORE JUMP JUMPDEST DUP1 MLOAD PUSH1 0xA0 DUP8 ADD MSTORE PUSH1 0x20 ADD MLOAD PUSH1 0xC0 DUP7 ADD MSTORE JUMP JUMPDEST PUSH20 0xFFFFFFFFFFFFFFFFFFFFFFFFFFFFFFFFFFFFFFFF DUP2 MLOAD AND PUSH1 0xE0 DUP6 ADD MSTORE ADD MLOAD SWAP2 ADD SWAP1 PUSH1 0x20 DUP1 SWAP2 DUP1 MLOAD DUP5 MSTORE ADD MLOAD SWAP2 ADD MSTORE JUMP JUMPDEST PUSH2 0x2D06 PUSH2 0x44D SWAP5 PUSH2 0x2CF4 PUSH2 0x2CDF PUSH1 0xA0 SWAP6 SWAP10 SWAP9 SWAP7 SWAP10 PUSH1 0xE0 DUP7 MSTORE PUSH1 0xE0 DUP7 ADD SWAP1 PUSH2 0x2BDA JUMP JUMPDEST SWAP9 PUSH1 0x20 DUP6 ADD SWAP1 PUSH1 0x20 DUP1 SWAP2 DUP1 MLOAD DUP5 MSTORE ADD MLOAD SWAP2 ADD MSTORE JUMP JUMPDEST DUP1 MLOAD PUSH1 0x60 DUP5 ADD MSTORE PUSH1 0x20 ADD MLOAD PUSH1 0x80 DUP4 ADD MSTORE JUMP JUMPDEST ADD SWAP1 PUSH1 0x20 DUP1 SWAP2 DUP1 MLOAD DUP5 MSTORE ADD MLOAD SWAP2 ADD MSTORE JUMP JUMPDEST SWAP1 DUP2 PUSH1 0x20 SWAP2 SUB SLT PUSH2 0x359 JUMPI MLOAD PUSH2 0x8B7 DUP2 PUSH2 0x422 JUMP JUMPDEST SWAP2 PUSH1 0x20 PUSH2 0x8B7 SWAP4 DUP2 DUP2 MSTORE ADD SWAP2 PUSH2 0x2028 JUMP JUMPDEST SWAP1 PUSH2 0x2D6C PUSH20 0xFFFFFFFFFFFFFFFFFFFFFFFFFFFFFFFFFFFFFFFF SWAP2 PUSH2 0x8B7 SWAP8 SWAP6 SWAP7 SWAP5 PUSH1 0x60 DUP6 MSTORE PUSH1 0x60 DUP6 ADD SWAP2 PUSH2 0x2028 JUMP JUMPDEST SWAP5 AND PUSH1 0x20 DUP3 ADD MSTORE PUSH1 0x40 DUP2 DUP6 SUB SWAP2 ADD MSTORE PUSH2 0x2028 JUMP JUMPDEST PUSH1 0x0 SWAP1 PUSH1 0x3 RETURNDATASIZE GT PUSH2 0x2D8D JUMPI JUMP JUMPDEST SWAP1 POP PUSH1 0x4 PUSH1 0x0 DUP1 RETURNDATACOPY PUSH1 0x0 MLOAD PUSH1 0xE0 SHR SWAP1 JUMP JUMPDEST PUSH1 0x0 PUSH1 0x44 RETURNDATASIZE LT PUSH2 0x8B7 JUMPI PUSH1 0x40 MLOAD PUSH32 0xFFFFFFFFFFFFFFFFFFFFFFFFFFFFFFFFFFFFFFFFFFFFFFFFFFFFFFFFFFFFFFFC SWAP2 DUP3 RETURNDATASIZE ADD PUSH1 0x4 DUP4 RETURNDATACOPY DUP2 MLOAD PUSH8 0xFFFFFFFFFFFFFFFF SWAP2 DUP3 DUP3 GT RETURNDATASIZE PUSH1 0x24 DUP5 ADD GT OR PUSH2 0x2E1A JUMPI DUP2 DUP5 ADD SWAP5 DUP6 MLOAD SWAP4 DUP5 GT PUSH2 0x2E22 JUMPI RETURNDATASIZE DUP6 ADD ADD PUSH1 0x20 DUP5 DUP8 ADD ADD GT PUSH2 0x2E1A JUMPI POP PUSH2 0x8B7 SWAP3 SWAP2 ADD PUSH1 0x20 ADD SWAP1 PUSH2 0x5AB JUMP JUMPDEST SWAP5 SWAP4 POP POP POP POP JUMP JUMPDEST POP SWAP5 SWAP4 POP POP POP POP JUMP JUMPDEST PUSH2 0x2E38 PUSH1 0x40 DUP3 ADD DUP3 PUSH2 0x1FC8 JUMP JUMPDEST PUSH2 0x2E50 PUSH2 0x2E44 DUP5 PUSH2 0x256D JUMP JUMPDEST SWAP4 PUSH2 0x120 DUP2 ADD SWAP1 PUSH2 0x1FC8 JUMP JUMPDEST SWAP3 SWAP1 ADDRESS EXTCODESIZE ISZERO PUSH2 0x359 JUMPI PUSH1 0x0 SWAP4 PUSH2 0x2E94 SWAP2 PUSH1 0x40 MLOAD SWAP7 DUP8 SWAP6 DUP7 SWAP6 PUSH32 0x957122AB00000000000000000000000000000000000000000000000000000000 DUP8 MSTORE PUSH1 0x4 DUP8 ADD PUSH2 0x2D3D JUMP JUMPDEST SUB DUP2 ADDRESS GAS STATICCALL SWAP1 DUP2 PUSH2 0x2F1D JUMPI JUMPDEST POP PUSH2 0x44D JUMPI PUSH1 0x1 PUSH2 0x2EAF PUSH2 0x2D80 JUMP JUMPDEST PUSH4 0x8C379A0 EQ PUSH2 0x2EC8 JUMPI JUMPDEST PUSH2 0x2EC0 JUMPI JUMP JUMPDEST PUSH2 0x44D PUSH2 0x2183 JUMP JUMPDEST PUSH2 0x2ED0 PUSH2 0x2D9E JUMP JUMPDEST DUP1 PUSH2 0x2EDC JUMPI JUMPDEST POP PUSH2 0x2EBA JUMP JUMPDEST DUP1 MLOAD PUSH1 0x0 SWAP3 POP ISZERO PUSH2 0x2ED6 JUMPI PUSH2 0xF21 SWAP1 PUSH1 0x40 MLOAD SWAP2 DUP3 SWAP2 PUSH32 0x220266B600000000000000000000000000000000000000000000000000000000 DUP4 MSTORE PUSH1 0x4 DUP4 ADD PUSH2 0x2882 JUMP JUMPDEST DUP1 PUSH2 0xF48 PUSH2 0x2F2A SWAP3 PUSH2 0x57B JUMP JUMPDEST CODESIZE PUSH2 0x2EA0 JUMP JUMPDEST SWAP2 SWAP1 PUSH2 0x2F3B SWAP1 PUSH2 0x317F JUMP JUMPDEST PUSH20 0xFFFFFFFFFFFFFFFFFFFFFFFFFFFFFFFFFFFFFFFF SWAP3 SWAP2 DUP4 AND PUSH2 0x30DA JUMPI PUSH2 0x306C JUMPI PUSH2 0x2F65 SWAP1 PUSH2 0x317F JUMP JUMPDEST SWAP2 AND PUSH2 0x2FFE JUMPI PUSH2 0x2F72 JUMPI POP JUMP JUMPDEST PUSH1 0x40 DUP1 MLOAD PUSH32 0x220266B600000000000000000000000000000000000000000000000000000000 DUP2 MSTORE PUSH1 0x4 DUP2 ADD SWAP3 SWAP1 SWAP3 MSTORE PUSH1 0x24 DUP3 ADD MSTORE PUSH1 0x21 PUSH1 0x44 DUP3 ADD MSTORE PUSH32 0x41413332207061796D61737465722065787069726564206F72206E6F74206475 PUSH1 0x64 DUP3 ADD MSTORE PUSH32 0x6500000000000000000000000000000000000000000000000000000000000000 PUSH1 0x84 DUP3 ADD MSTORE PUSH1 0xA4 SWAP1 REVERT JUMPDEST PUSH2 0xF21 DUP3 PUSH1 0x40 MLOAD SWAP2 DUP3 SWAP2 PUSH32 0x220266B600000000000000000000000000000000000000000000000000000000 DUP4 MSTORE PUSH1 0x4 DUP4 ADD PUSH1 0x80 SWAP2 DUP2 MSTORE PUSH1 0x40 PUSH1 0x20 DUP3 ADD MSTORE PUSH1 0x14 PUSH1 0x40 DUP3 ADD MSTORE PUSH32 0x41413334207369676E6174757265206572726F72000000000000000000000000 PUSH1 0x60 DUP3 ADD MSTORE ADD SWAP1 JUMP JUMPDEST PUSH2 0xF21 DUP4 PUSH1 0x40 MLOAD SWAP2 DUP3 SWAP2 PUSH32 0x220266B600000000000000000000000000000000000000000000000000000000 DUP4 MSTORE PUSH1 0x4 DUP4 ADD PUSH1 0x80 SWAP2 DUP2 MSTORE PUSH1 0x40 PUSH1 0x20 DUP3 ADD MSTORE PUSH1 0x17 PUSH1 0x40 DUP3 ADD MSTORE PUSH32 0x414132322065787069726564206F72206E6F7420647565000000000000000000 PUSH1 0x60 DUP3 ADD MSTORE ADD SWAP1 JUMP JUMPDEST PUSH2 0xF21 DUP5 PUSH1 0x40 MLOAD SWAP2 DUP3 SWAP2 PUSH32 0x220266B600000000000000000000000000000000000000000000000000000000 DUP4 MSTORE PUSH1 0x4 DUP4 ADD PUSH1 0x80 SWAP2 DUP2 MSTORE PUSH1 0x40 PUSH1 0x20 DUP3 ADD MSTORE PUSH1 0x14 PUSH1 0x40 DUP3 ADD MSTORE PUSH32 0x41413234207369676E6174757265206572726F72000000000000000000000000 PUSH1 0x60 DUP3 ADD MSTORE ADD SWAP1 JUMP JUMPDEST SWAP3 SWAP2 SWAP1 PUSH2 0x3154 SWAP1 PUSH2 0x317F JUMP JUMPDEST SWAP1 SWAP3 PUSH20 0xFFFFFFFFFFFFFFFFFFFFFFFFFFFFFFFFFFFFFFFF DUP1 DUP1 SWAP6 AND SWAP2 AND SUB PUSH2 0x30DA JUMPI PUSH2 0x306C JUMPI PUSH2 0x2F65 SWAP1 JUMPDEST DUP1 ISZERO PUSH2 0x31D2 JUMPI PUSH2 0x318E SWAP1 PUSH2 0x535F JUMP JUMPDEST PUSH20 0xFFFFFFFFFFFFFFFFFFFFFFFFFFFFFFFFFFFFFFFF PUSH6 0xFFFFFFFFFFFF DUP1 PUSH1 0x40 DUP5 ADD MLOAD AND TIMESTAMP GT SWAP1 DUP2 ISZERO PUSH2 0x31C2 JUMPI JUMPDEST POP SWAP2 MLOAD AND SWAP2 JUMP JUMPDEST SWAP1 POP PUSH1 0x20 DUP4 ADD MLOAD AND TIMESTAMP LT CODESIZE PUSH2 0x31BB JUMP JUMPDEST POP PUSH1 0x0 SWAP1 PUSH1 0x0 SWAP1 JUMP JUMPDEST ISZERO PUSH2 0x31E2 JUMPI JUMP JUMPDEST PUSH1 0x64 PUSH1 0x40 MLOAD PUSH32 0x8C379A000000000000000000000000000000000000000000000000000000000 DUP2 MSTORE PUSH1 0x20 PUSH1 0x4 DUP3 ADD MSTORE PUSH1 0x18 PUSH1 0x24 DUP3 ADD MSTORE PUSH32 0x41413934206761732076616C756573206F766572666C6F770000000000000000 PUSH1 0x44 DUP3 ADD MSTORE REVERT JUMPDEST SWAP2 PUSH1 0x0 SWAP2 GAS SWAP4 DUP2 MLOAD SWAP1 PUSH2 0x3253 DUP3 DUP3 PUSH2 0x36B3 JUMP JUMPDEST PUSH2 0x325C DUP2 PUSH2 0x2A0C JUMP JUMPDEST PUSH1 0x20 DUP5 ADD MSTORE PUSH2 0x329A PUSH15 0xFFFFFFFFFFFFFFFFFFFFFFFFFFFFFF PUSH1 0x80 DUP5 ADD MLOAD PUSH1 0x60 DUP6 ADD MLOAD OR PUSH1 0x40 DUP6 ADD MLOAD OR PUSH2 0x100 DUP5 ADD CALLDATALOAD SWAP1 PUSH1 0xE0 DUP6 ADD CALLDATALOAD OR OR GT ISZERO PUSH2 0x31DB JUMP JUMPDEST PUSH2 0x32A3 DUP3 PUSH2 0x3775 JUMP JUMPDEST PUSH2 0x32AE DUP2 DUP6 DUP5 PUSH2 0x3836 JUMP JUMPDEST SWAP8 SWAP1 PUSH2 0x32DF PUSH2 0x2934 PUSH2 0x32D4 DUP8 MLOAD PUSH20 0xFFFFFFFFFFFFFFFFFFFFFFFFFFFFFFFFFFFFFFFF AND SWAP1 JUMP JUMPDEST PUSH1 0x20 DUP9 ADD MLOAD SWAP1 PUSH2 0x546C JUMP JUMPDEST PUSH2 0x33DB JUMPI PUSH2 0x32EC NUMBER PUSH1 0x0 MSTORE JUMP JUMPDEST PUSH20 0xFFFFFFFFFFFFFFFFFFFFFFFFFFFFFFFFFFFFFFFF PUSH2 0x3324 PUSH1 0xA0 PUSH1 0x60 SWAP8 ADD MLOAD PUSH20 0xFFFFFFFFFFFFFFFFFFFFFFFFFFFFFFFFFFFFFFFF AND SWAP1 JUMP JUMPDEST AND PUSH2 0x33C1 JUMPI JUMPDEST POP GAS DUP2 SUB PUSH1 0xA0 DUP5 ADD CALLDATALOAD LT PUSH2 0x3354 JUMPI PUSH1 0x80 SWAP4 PUSH1 0xC0 SWAP3 PUSH1 0x40 DUP8 ADD MSTORE PUSH1 0x60 DUP7 ADD MSTORE GAS SWAP1 SUB SWAP2 ADD CALLDATALOAD ADD SWAP2 ADD MSTORE JUMP JUMPDEST PUSH1 0x40 MLOAD PUSH32 0x220266B600000000000000000000000000000000000000000000000000000000 DUP2 MSTORE DUP1 PUSH2 0xF21 PUSH1 0x4 DUP3 ADD PUSH1 0x80 SWAP1 PUSH1 0x0 DUP2 MSTORE PUSH1 0x40 PUSH1 0x20 DUP3 ADD MSTORE PUSH1 0x1E PUSH1 0x40 DUP3 ADD MSTORE PUSH32 0x41413430206F76657220766572696669636174696F6E4761734C696D69740000 PUSH1 0x60 DUP3 ADD MSTORE ADD SWAP1 JUMP JUMPDEST SWAP1 SWAP4 POP DUP2 PUSH2 0x33D2 SWAP3 SWAP8 POP DUP6 DUP5 PUSH2 0x455C JUMP JUMPDEST SWAP6 SWAP1 SWAP3 CODESIZE PUSH2 0x332A JUMP JUMPDEST PUSH1 0x40 MLOAD PUSH32 0x220266B600000000000000000000000000000000000000000000000000000000 DUP2 MSTORE DUP1 PUSH2 0xF21 PUSH1 0x4 DUP3 ADD PUSH1 0x80 SWAP1 PUSH1 0x0 DUP2 MSTORE PUSH1 0x40 PUSH1 0x20 DUP3 ADD MSTORE PUSH1 0x1A PUSH1 0x40 DUP3 ADD MSTORE PUSH32 0x4141323520696E76616C6964206163636F756E74206E6F6E6365000000000000 PUSH1 0x60 DUP3 ADD MSTORE ADD SWAP1 JUMP JUMPDEST SWAP3 SWAP1 SWAP2 PUSH1 0x0 SWAP3 GAS DUP3 MLOAD PUSH2 0x345B DUP2 DUP5 PUSH2 0x36B3 JUMP JUMPDEST PUSH2 0x3464 DUP4 PUSH2 0x2A0C JUMP JUMPDEST PUSH1 0x20 DUP6 ADD MSTORE PUSH2 0x34A2 PUSH15 0xFFFFFFFFFFFFFFFFFFFFFFFFFFFFFF PUSH1 0x80 DUP4 ADD MLOAD PUSH1 0x60 DUP5 ADD MLOAD OR PUSH1 0x40 DUP5 ADD MLOAD OR PUSH2 0x100 DUP7 ADD CALLDATALOAD SWAP1 PUSH1 0xE0 DUP8 ADD CALLDATALOAD OR OR GT ISZERO PUSH2 0x31DB JUMP JUMPDEST PUSH2 0x34AB DUP2 PUSH2 0x3775 JUMP JUMPDEST PUSH2 0x34B7 DUP2 DUP7 DUP7 DUP12 PUSH2 0x3BA2 JUMP JUMPDEST SWAP9 SWAP1 PUSH2 0x34E8 PUSH2 0x2934 PUSH2 0x34DD DUP7 MLOAD PUSH20 0xFFFFFFFFFFFFFFFFFFFFFFFFFFFFFFFFFFFFFFFF AND SWAP1 JUMP JUMPDEST PUSH1 0x20 DUP8 ADD MLOAD SWAP1 PUSH2 0x546C JUMP JUMPDEST PUSH2 0x35E0 JUMPI PUSH2 0x34F5 NUMBER PUSH1 0x0 MSTORE JUMP JUMPDEST PUSH20 0xFFFFFFFFFFFFFFFFFFFFFFFFFFFFFFFFFFFFFFFF PUSH2 0x352D PUSH1 0xA0 PUSH1 0x60 SWAP7 ADD MLOAD PUSH20 0xFFFFFFFFFFFFFFFFFFFFFFFFFFFFFFFFFFFFFFFF AND SWAP1 JUMP JUMPDEST AND PUSH2 0x35C5 JUMPI JUMPDEST POP GAS DUP5 SUB PUSH1 0xA0 DUP7 ADD CALLDATALOAD LT PUSH2 0x355F JUMPI POP PUSH1 0x40 DUP6 ADD MSTORE PUSH1 0x60 DUP5 ADD MSTORE PUSH1 0x80 SWAP2 SWAP1 PUSH1 0xC0 SWAP1 GAS SWAP1 SUB SWAP2 ADD CALLDATALOAD ADD SWAP2 ADD MSTORE JUMP JUMPDEST PUSH1 0x40 DUP1 MLOAD PUSH32 0x220266B600000000000000000000000000000000000000000000000000000000 DUP2 MSTORE PUSH1 0x4 DUP2 ADD SWAP3 SWAP1 SWAP3 MSTORE PUSH1 0x24 DUP3 ADD MSTORE PUSH1 0x1E PUSH1 0x44 DUP3 ADD MSTORE PUSH32 0x41413430206F76657220766572696669636174696F6E4761734C696D69740000 PUSH1 0x64 DUP3 ADD MSTORE PUSH1 0x84 SWAP1 REVERT JUMPDEST SWAP1 SWAP3 POP DUP2 PUSH2 0x35D7 SWAP3 SWAP9 POP DUP7 DUP7 DUP6 PUSH2 0x47EF JUMP JUMPDEST SWAP7 SWAP1 SWAP2 CODESIZE PUSH2 0x3533 JUMP JUMPDEST PUSH2 0xF21 DUP3 PUSH1 0x40 MLOAD SWAP2 DUP3 SWAP2 PUSH32 0x220266B600000000000000000000000000000000000000000000000000000000 DUP4 MSTORE PUSH1 0x4 DUP4 ADD PUSH1 0x80 SWAP2 DUP2 MSTORE PUSH1 0x40 PUSH1 0x20 DUP3 ADD MSTORE PUSH1 0x1A PUSH1 0x40 DUP3 ADD MSTORE PUSH32 0x4141323520696E76616C6964206163636F756E74206E6F6E6365000000000000 PUSH1 0x60 DUP3 ADD MSTORE ADD SWAP1 JUMP JUMPDEST ISZERO PUSH2 0x3655 JUMPI JUMP JUMPDEST PUSH1 0x64 PUSH1 0x40 MLOAD PUSH32 0x8C379A000000000000000000000000000000000000000000000000000000000 DUP2 MSTORE PUSH1 0x20 PUSH1 0x4 DUP3 ADD MSTORE PUSH1 0x1D PUSH1 0x24 DUP3 ADD MSTORE PUSH32 0x4141393320696E76616C6964207061796D6173746572416E6444617461000000 PUSH1 0x44 DUP3 ADD MSTORE REVERT JUMPDEST PUSH2 0x3725 SWAP1 PUSH2 0x36DD PUSH2 0x36C3 DUP3 PUSH2 0x256D JUMP JUMPDEST PUSH20 0xFFFFFFFFFFFFFFFFFFFFFFFFFFFFFFFFFFFFFFFF AND DUP5 MSTORE JUMP JUMPDEST PUSH1 0x20 DUP2 ADD CALLDATALOAD PUSH1 0x20 DUP5 ADD MSTORE PUSH1 0x80 DUP2 ADD CALLDATALOAD PUSH1 0x40 DUP5 ADD MSTORE PUSH1 0xA0 DUP2 ADD CALLDATALOAD PUSH1 0x60 DUP5 ADD MSTORE PUSH1 0xC0 DUP2 ADD CALLDATALOAD PUSH1 0x80 DUP5 ADD MSTORE PUSH1 0xE0 DUP2 ADD CALLDATALOAD PUSH1 0xC0 DUP5 ADD MSTORE PUSH2 0x100 DUP2 ADD CALLDATALOAD PUSH1 0xE0 DUP5 ADD MSTORE PUSH2 0x120 DUP2 ADD SWAP1 PUSH2 0x1FC8 JUMP JUMPDEST SWAP1 DUP2 ISZERO PUSH2 0x376A JUMPI PUSH2 0x374F PUSH2 0x124C PUSH2 0x1246 DUP5 PUSH1 0xA0 SWAP5 PUSH2 0x374A PUSH1 0x14 PUSH2 0x44D SWAP10 SWAP9 LT ISZERO PUSH2 0x364E JUMP JUMPDEST PUSH2 0x2B88 JUMP JUMPDEST PUSH20 0xFFFFFFFFFFFFFFFFFFFFFFFFFFFFFFFFFFFFFFFF AND SWAP2 ADD MSTORE JUMP JUMPDEST POP POP PUSH1 0xA0 PUSH1 0x0 SWAP2 ADD MSTORE JUMP JUMPDEST PUSH1 0xA0 DUP2 ADD MLOAD PUSH20 0xFFFFFFFFFFFFFFFFFFFFFFFFFFFFFFFFFFFFFFFF AND ISZERO PUSH2 0x37B7 JUMPI PUSH1 0xC0 PUSH1 0x3 JUMPDEST PUSH1 0xFF PUSH1 0x40 DUP5 ADD MLOAD SWAP2 AND PUSH1 0x60 DUP5 ADD MLOAD MUL ADD PUSH1 0x80 DUP4 ADD MLOAD ADD SWAP2 ADD MLOAD MUL SWAP1 JUMP JUMPDEST PUSH1 0xC0 PUSH1 0x1 PUSH2 0x379A JUMP JUMPDEST PUSH2 0x37D8 PUSH1 0x40 SWAP3 SWAP6 SWAP5 SWAP4 SWAP6 PUSH1 0x60 DUP4 MSTORE PUSH1 0x60 DUP4 ADD SWAP1 PUSH2 0x262C JUMP JUMPDEST SWAP5 PUSH1 0x20 DUP3 ADD MSTORE ADD MSTORE JUMP JUMPDEST SWAP1 PUSH2 0x44D PUSH1 0x2F PUSH1 0x40 MLOAD DUP1 SWAP5 PUSH32 0x414132332072657665727465643A200000000000000000000000000000000000 PUSH1 0x20 DUP4 ADD MSTORE PUSH2 0x3826 DUP2 MLOAD DUP1 SWAP3 PUSH1 0x20 DUP7 DUP7 ADD SWAP2 ADD PUSH2 0x2067 JUMP JUMPDEST DUP2 ADD SUB PUSH1 0xF DUP2 ADD DUP6 MSTORE ADD DUP4 PUSH2 0x5AB JUMP JUMPDEST SWAP2 PUSH1 0x0 SWAP3 PUSH1 0x0 SWAP3 GAS SWAP4 PUSH2 0x3904 PUSH1 0x20 DUP4 MLOAD SWAP4 PUSH2 0x3865 DUP6 MLOAD PUSH20 0xFFFFFFFFFFFFFFFFFFFFFFFFFFFFFFFFFFFFFFFF AND SWAP1 JUMP JUMPDEST SWAP6 PUSH2 0x387D PUSH2 0x3876 PUSH1 0x40 DUP4 ADD DUP4 PUSH2 0x1FC8 JUMP JUMPDEST SWAP1 DUP5 PUSH2 0x3E0D JUMP JUMPDEST PUSH1 0xA0 DUP7 ADD MLOAD PUSH20 0xFFFFFFFFFFFFFFFFFFFFFFFFFFFFFFFFFFFFFFFF AND SWAP1 PUSH2 0x38A2 NUMBER PUSH1 0x0 MSTORE JUMP JUMPDEST DUP6 DUP1 SWAP4 PUSH20 0xFFFFFFFFFFFFFFFFFFFFFFFFFFFFFFFFFFFFFFFF DUP1 SWAP5 AND ISZERO SWAP9 DUP10 PUSH2 0x3B3A JUMPI JUMPDEST PUSH1 0x60 ADD MLOAD SWAP1 DUP7 ADD MLOAD PUSH1 0x40 MLOAD PUSH32 0x3A871CDD00000000000000000000000000000000000000000000000000000000 DUP2 MSTORE SWAP8 DUP9 SWAP7 DUP8 SWAP6 DUP7 SWAP4 SWAP1 PUSH1 0x4 DUP6 ADD PUSH2 0x37C0 JUMP JUMPDEST SUB SWAP4 DUP11 AND SWAP1 CALL DUP3 SWAP2 DUP2 PUSH2 0x3B1A JUMPI JUMPDEST POP PUSH2 0x3B11 JUMPI POP PUSH1 0x1 SWAP1 PUSH2 0x3923 PUSH2 0x2D80 JUMP JUMPDEST PUSH4 0x8C379A0 EQ PUSH2 0x3ABD JUMPI JUMPDEST POP PUSH2 0x3A50 JUMPI JUMPDEST PUSH2 0x3941 JUMPI JUMPDEST POP POP GAS SWAP1 SUB SWAP2 JUMP JUMPDEST PUSH2 0x396B SWAP1 PUSH20 0xFFFFFFFFFFFFFFFFFFFFFFFFFFFFFFFFFFFFFFFF AND PUSH1 0x0 MSTORE PUSH1 0x0 PUSH1 0x20 MSTORE PUSH1 0x40 PUSH1 0x0 KECCAK256 SWAP1 JUMP JUMPDEST PUSH2 0x3986 PUSH2 0xA2C DUP3 SLOAD PUSH14 0xFFFFFFFFFFFFFFFFFFFFFFFFFFFF AND SWAP1 JUMP JUMPDEST DUP1 DUP4 GT PUSH2 0x39E3 JUMPI PUSH2 0x39DC SWAP3 PUSH14 0xFFFFFFFFFFFFFFFFFFFFFFFFFFFF SWAP2 SUB AND PUSH14 0xFFFFFFFFFFFFFFFFFFFFFFFFFFFF AND PUSH32 0xFFFFFFFFFFFFFFFFFFFFFFFFFFFFFFFFFFFF0000000000000000000000000000 DUP3 SLOAD AND OR SWAP1 SSTORE JUMP JUMPDEST CODESIZE DUP1 PUSH2 0x3939 JUMP JUMPDEST PUSH1 0x40 MLOAD PUSH32 0x220266B600000000000000000000000000000000000000000000000000000000 DUP2 MSTORE DUP1 PUSH2 0xF21 PUSH1 0x4 DUP3 ADD PUSH1 0x80 SWAP1 PUSH1 0x0 DUP2 MSTORE PUSH1 0x40 PUSH1 0x20 DUP3 ADD MSTORE PUSH1 0x17 PUSH1 0x40 DUP3 ADD MSTORE PUSH32 0x41413231206469646E2774207061792070726566756E64000000000000000000 PUSH1 0x60 DUP3 ADD MSTORE ADD SWAP1 JUMP JUMPDEST PUSH1 0x40 MLOAD PUSH32 0x220266B600000000000000000000000000000000000000000000000000000000 DUP2 MSTORE DUP1 PUSH2 0xF21 PUSH1 0x4 DUP3 ADD PUSH1 0x80 SWAP1 PUSH1 0x0 DUP2 MSTORE PUSH1 0x40 PUSH1 0x20 DUP3 ADD MSTORE PUSH1 0x16 PUSH1 0x40 DUP3 ADD MSTORE PUSH32 0x4141323320726576657274656420286F72204F4F472900000000000000000000 PUSH1 0x60 DUP3 ADD MSTORE ADD SWAP1 JUMP JUMPDEST PUSH2 0x3AC5 PUSH2 0x2D9E JUMP JUMPDEST SWAP1 DUP2 PUSH2 0x3AD1 JUMPI POP PUSH2 0x392E JUMP JUMPDEST PUSH2 0xF21 SWAP2 PUSH2 0x3ADF SWAP2 POP PUSH2 0x37E2 JUMP JUMPDEST PUSH1 0x40 MLOAD SWAP2 DUP3 SWAP2 PUSH32 0x220266B600000000000000000000000000000000000000000000000000000000 DUP4 MSTORE PUSH1 0x4 DUP4 ADD PUSH2 0x2882 JUMP JUMPDEST SWAP6 POP PUSH2 0x3934 SWAP1 POP JUMP JUMPDEST PUSH2 0x3B33 SWAP2 SWAP3 POP PUSH1 0x20 RETURNDATASIZE DUP2 GT PUSH2 0x2338 JUMPI PUSH2 0x2329 DUP2 DUP4 PUSH2 0x5AB JUMP JUMPDEST SWAP1 CODESIZE PUSH2 0x3912 JUMP JUMPDEST SWAP5 POP PUSH2 0x3B80 PUSH2 0xA2C PUSH2 0x3B6C DUP13 PUSH20 0xFFFFFFFFFFFFFFFFFFFFFFFFFFFFFFFFFFFFFFFF AND PUSH1 0x0 MSTORE PUSH1 0x0 PUSH1 0x20 MSTORE PUSH1 0x40 PUSH1 0x0 KECCAK256 SWAP1 JUMP JUMPDEST SLOAD PUSH14 0xFFFFFFFFFFFFFFFFFFFFFFFFFFFF AND SWAP1 JUMP JUMPDEST DUP12 DUP2 GT ISZERO PUSH2 0x3B97 JUMPI POP DUP6 PUSH1 0x60 DUP4 JUMPDEST SWAP7 SWAP2 POP POP PUSH2 0x38C5 JUMP JUMPDEST PUSH1 0x60 DUP8 SWAP2 DUP14 SUB PUSH2 0x3B8E JUMP JUMPDEST SWAP1 SWAP3 PUSH1 0x0 SWAP4 PUSH1 0x0 SWAP4 GAS SWAP5 PUSH2 0x3BEB PUSH1 0x20 DUP4 MLOAD SWAP4 PUSH2 0x3BD2 DUP6 MLOAD PUSH20 0xFFFFFFFFFFFFFFFFFFFFFFFFFFFFFFFFFFFFFFFF AND SWAP1 JUMP JUMPDEST SWAP6 PUSH2 0x387D PUSH2 0x3BE3 PUSH1 0x40 DUP4 ADD DUP4 PUSH2 0x1FC8 JUMP JUMPDEST SWAP1 DUP5 DUP13 PUSH2 0x412B JUMP JUMPDEST SUB SWAP4 DUP11 AND SWAP1 CALL DUP3 SWAP2 DUP2 PUSH2 0x3DED JUMPI JUMPDEST POP PUSH2 0x3DE4 JUMPI POP PUSH1 0x1 SWAP1 PUSH2 0x3C0A PUSH2 0x2D80 JUMP JUMPDEST PUSH4 0x8C379A0 EQ PUSH2 0x3D8E JUMPI JUMPDEST POP PUSH2 0x3D20 JUMPI JUMPDEST PUSH2 0x3C29 JUMPI JUMPDEST POP POP POP GAS SWAP1 SUB SWAP2 JUMP JUMPDEST PUSH2 0x3C53 SWAP1 PUSH20 0xFFFFFFFFFFFFFFFFFFFFFFFFFFFFFFFFFFFFFFFF AND PUSH1 0x0 MSTORE PUSH1 0x0 PUSH1 0x20 MSTORE PUSH1 0x40 PUSH1 0x0 KECCAK256 SWAP1 JUMP JUMPDEST SWAP2 PUSH2 0x3C6F PUSH2 0xA2C DUP5 SLOAD PUSH14 0xFFFFFFFFFFFFFFFFFFFFFFFFFFFF AND SWAP1 JUMP JUMPDEST SWAP1 DUP2 DUP4 GT PUSH2 0x3CBA JUMPI POP DUP3 SLOAD PUSH32 0xFFFFFFFFFFFFFFFFFFFFFFFFFFFFFFFFFFFF0000000000000000000000000000 AND SWAP2 SWAP1 SUB PUSH14 0xFFFFFFFFFFFFFFFFFFFFFFFFFFFF AND OR SWAP1 SSTORE CODESIZE DUP1 DUP1 PUSH2 0x3C20 JUMP JUMPDEST PUSH1 0x40 DUP1 MLOAD PUSH32 0x220266B600000000000000000000000000000000000000000000000000000000 DUP2 MSTORE PUSH1 0x4 DUP2 ADD SWAP3 SWAP1 SWAP3 MSTORE PUSH1 0x24 DUP3 ADD MSTORE PUSH1 0x17 PUSH1 0x44 DUP3 ADD MSTORE PUSH32 0x41413231206469646E2774207061792070726566756E64000000000000000000 PUSH1 0x64 DUP3 ADD MSTORE PUSH1 0x84 SWAP1 REVERT JUMPDEST PUSH2 0xF21 DUP5 PUSH1 0x40 MLOAD SWAP2 DUP3 SWAP2 PUSH32 0x220266B600000000000000000000000000000000000000000000000000000000 DUP4 MSTORE PUSH1 0x4 DUP4 ADD PUSH1 0x80 SWAP2 DUP2 MSTORE PUSH1 0x40 PUSH1 0x20 DUP3 ADD MSTORE PUSH1 0x16 PUSH1 0x40 DUP3 ADD MSTORE PUSH32 0x4141323320726576657274656420286F72204F4F472900000000000000000000 PUSH1 0x60 DUP3 ADD MSTORE ADD SWAP1 JUMP JUMPDEST PUSH2 0x3D96 PUSH2 0x2D9E JUMP JUMPDEST SWAP1 DUP2 PUSH2 0x3DA2 JUMPI POP PUSH2 0x3C15 JUMP JUMPDEST DUP7 SWAP2 PUSH2 0x3DAE SWAP2 POP PUSH2 0x37E2 JUMP JUMPDEST SWAP1 PUSH2 0xF21 PUSH1 0x40 MLOAD SWAP3 DUP4 SWAP3 PUSH32 0x220266B600000000000000000000000000000000000000000000000000000000 DUP5 MSTORE PUSH1 0x4 DUP5 ADD PUSH2 0x289A JUMP JUMPDEST SWAP7 POP PUSH2 0x3C1B SWAP1 POP JUMP JUMPDEST PUSH2 0x3E06 SWAP2 SWAP3 POP PUSH1 0x20 RETURNDATASIZE DUP2 GT PUSH2 0x2338 JUMPI PUSH2 0x2329 DUP2 DUP4 PUSH2 0x5AB JUMP JUMPDEST SWAP1 CODESIZE PUSH2 0x3BF9 JUMP JUMPDEST SWAP1 SWAP2 DUP1 PUSH2 0x3E19 JUMPI POP POP POP JUMP JUMPDEST DUP2 MLOAD MLOAD PUSH20 0xFFFFFFFFFFFFFFFFFFFFFFFFFFFFFFFFFFFFFFFF AND SWAP3 DUP4 EXTCODESIZE PUSH2 0x40BE JUMPI PUSH1 0x60 DUP4 MLOAD ADD MLOAD PUSH1 0x40 MLOAD SWAP1 PUSH32 0x570E1A3600000000000000000000000000000000000000000000000000000000 DUP3 MSTORE PUSH1 0x20 DUP3 DUP1 PUSH2 0x3E78 DUP8 DUP8 PUSH1 0x4 DUP5 ADD PUSH2 0x2D2C JUMP JUMPDEST SUB DUP2 PUSH1 0x0 PUSH20 0xFFFFFFFFFFFFFFFFFFFFFFFFFFFFFFFFFFFFFFFF SWAP6 DUP7 PUSH32 0x0 AND SWAP1 CALL SWAP2 DUP3 ISZERO PUSH2 0x40B1 JUMPI JUMPDEST PUSH1 0x0 SWAP3 PUSH2 0x4091 JUMPI JUMPDEST POP DUP1 DUP3 AND SWAP6 DUP7 ISZERO PUSH2 0x4024 JUMPI AND DUP1 SWAP6 SUB PUSH2 0x3FB7 JUMPI EXTCODESIZE ISZERO PUSH2 0x3F4A JUMPI PUSH2 0x124C PUSH2 0x1246 PUSH32 0xD51A9C61267AA6196961883ECF5FF2DA6619C37DAC0FA92122513FB32C032D2D SWAP4 PUSH2 0x3F11 SWAP4 PUSH2 0x2B88 JUMP JUMPDEST PUSH1 0x20 DUP4 DUP2 ADD MLOAD SWAP4 MLOAD PUSH1 0xA0 ADD MLOAD PUSH1 0x40 DUP1 MLOAD PUSH20 0xFFFFFFFFFFFFFFFFFFFFFFFFFFFFFFFFFFFFFFFF SWAP5 DUP6 AND DUP2 MSTORE SWAP4 SWAP1 SWAP2 AND SWAP2 DUP4 ADD SWAP2 SWAP1 SWAP2 MSTORE SWAP1 LOG3 JUMP JUMPDEST PUSH1 0x40 MLOAD PUSH32 0x220266B600000000000000000000000000000000000000000000000000000000 DUP2 MSTORE DUP1 PUSH2 0xF21 PUSH1 0x4 DUP3 ADD PUSH1 0x80 SWAP1 PUSH1 0x0 DUP2 MSTORE PUSH1 0x40 PUSH1 0x20 DUP3 ADD MSTORE PUSH1 0x20 PUSH1 0x40 DUP3 ADD MSTORE PUSH32 0x4141313520696E6974436F6465206D757374206372656174652073656E646572 PUSH1 0x60 DUP3 ADD MSTORE ADD SWAP1 JUMP JUMPDEST PUSH1 0x40 MLOAD PUSH32 0x220266B600000000000000000000000000000000000000000000000000000000 DUP2 MSTORE DUP1 PUSH2 0xF21 PUSH1 0x4 DUP3 ADD PUSH1 0x80 SWAP1 PUSH1 0x0 DUP2 MSTORE PUSH1 0x40 PUSH1 0x20 DUP3 ADD MSTORE PUSH1 0x20 PUSH1 0x40 DUP3 ADD MSTORE PUSH32 0x4141313420696E6974436F6465206D7573742072657475726E2073656E646572 PUSH1 0x60 DUP3 ADD MSTORE ADD SWAP1 JUMP JUMPDEST PUSH1 0x40 MLOAD PUSH32 0x220266B600000000000000000000000000000000000000000000000000000000 DUP2 MSTORE DUP1 PUSH2 0xF21 PUSH1 0x4 DUP3 ADD PUSH1 0x80 SWAP1 PUSH1 0x0 DUP2 MSTORE PUSH1 0x40 PUSH1 0x20 DUP3 ADD MSTORE PUSH1 0x1B PUSH1 0x40 DUP3 ADD MSTORE PUSH32 0x4141313320696E6974436F6465206661696C6564206F72204F4F470000000000 PUSH1 0x60 DUP3 ADD MSTORE ADD SWAP1 JUMP JUMPDEST PUSH2 0x40AA SWAP2 SWAP3 POP PUSH1 0x20 RETURNDATASIZE DUP2 GT PUSH2 0x146A JUMPI PUSH2 0x145B DUP2 DUP4 PUSH2 0x5AB JUMP JUMPDEST SWAP1 CODESIZE PUSH2 0x3EC7 JUMP JUMPDEST PUSH2 0x40B9 PUSH2 0x2183 JUMP JUMPDEST PUSH2 0x3EBF JUMP JUMPDEST PUSH1 0x40 MLOAD PUSH32 0x220266B600000000000000000000000000000000000000000000000000000000 DUP2 MSTORE DUP1 PUSH2 0xF21 PUSH1 0x4 DUP3 ADD PUSH1 0x80 SWAP1 PUSH1 0x0 DUP2 MSTORE PUSH1 0x40 PUSH1 0x20 DUP3 ADD MSTORE PUSH1 0x1F PUSH1 0x40 DUP3 ADD MSTORE PUSH32 0x414131302073656E64657220616C726561647920636F6E737472756374656400 PUSH1 0x60 DUP3 ADD MSTORE ADD SWAP1 JUMP JUMPDEST SWAP3 SWAP1 SWAP2 DUP2 PUSH2 0x413A JUMPI JUMPDEST POP POP POP POP JUMP JUMPDEST DUP3 MLOAD MLOAD PUSH20 0xFFFFFFFFFFFFFFFFFFFFFFFFFFFFFFFFFFFFFFFF AND SWAP4 DUP5 EXTCODESIZE PUSH2 0x43E2 JUMPI PUSH1 0x60 DUP5 MLOAD ADD MLOAD PUSH1 0x40 MLOAD SWAP1 PUSH32 0x570E1A3600000000000000000000000000000000000000000000000000000000 DUP3 MSTORE PUSH1 0x20 DUP3 DUP1 PUSH2 0x4199 DUP9 DUP9 PUSH1 0x4 DUP5 ADD PUSH2 0x2D2C JUMP JUMPDEST SUB DUP2 PUSH1 0x0 PUSH20 0xFFFFFFFFFFFFFFFFFFFFFFFFFFFFFFFFFFFFFFFF SWAP6 DUP7 PUSH32 0x0 AND SWAP1 CALL SWAP2 DUP3 ISZERO PUSH2 0x43D5 JUMPI JUMPDEST PUSH1 0x0 SWAP3 PUSH2 0x43B5 JUMPI JUMPDEST POP DUP1 DUP3 AND SWAP7 DUP8 ISZERO PUSH2 0x4347 JUMPI AND DUP1 SWAP7 SUB PUSH2 0x42D9 JUMPI EXTCODESIZE ISZERO PUSH2 0x4273 JUMPI POP PUSH2 0x124C PUSH2 0x1246 PUSH32 0xD51A9C61267AA6196961883ECF5FF2DA6619C37DAC0FA92122513FB32C032D2D SWAP4 PUSH2 0x4233 SWAP4 PUSH2 0x2B88 JUMP JUMPDEST PUSH1 0x20 DUP4 DUP2 ADD MLOAD SWAP4 MLOAD PUSH1 0xA0 ADD MLOAD PUSH1 0x40 DUP1 MLOAD PUSH20 0xFFFFFFFFFFFFFFFFFFFFFFFFFFFFFFFFFFFFFFFF SWAP5 DUP6 AND DUP2 MSTORE SWAP4 SWAP1 SWAP2 AND SWAP2 DUP4 ADD SWAP2 SWAP1 SWAP2 MSTORE SWAP1 LOG3 CODESIZE DUP1 DUP1 DUP1 PUSH2 0x4134 JUMP JUMPDEST PUSH1 0x40 DUP1 MLOAD PUSH32 0x220266B600000000000000000000000000000000000000000000000000000000 DUP2 MSTORE PUSH1 0x4 DUP2 ADD SWAP3 SWAP1 SWAP3 MSTORE PUSH1 0x24 DUP3 ADD MSTORE PUSH1 0x20 PUSH1 0x44 DUP3 ADD MSTORE PUSH32 0x4141313520696E6974436F6465206D757374206372656174652073656E646572 PUSH1 0x64 DUP3 ADD MSTORE PUSH1 0x84 SWAP1 REVERT JUMPDEST PUSH2 0xF21 DUP3 PUSH1 0x40 MLOAD SWAP2 DUP3 SWAP2 PUSH32 0x220266B600000000000000000000000000000000000000000000000000000000 DUP4 MSTORE PUSH1 0x4 DUP4 ADD PUSH1 0x80 SWAP2 DUP2 MSTORE PUSH1 0x40 PUSH1 0x20 DUP3 ADD MSTORE PUSH1 0x20 PUSH1 0x40 DUP3 ADD MSTORE PUSH32 0x4141313420696E6974436F6465206D7573742072657475726E2073656E646572 PUSH1 0x60 DUP3 ADD MSTORE ADD SWAP1 JUMP JUMPDEST PUSH2 0xF21 DUP5 PUSH1 0x40 MLOAD SWAP2 DUP3 SWAP2 PUSH32 0x220266B600000000000000000000000000000000000000000000000000000000 DUP4 MSTORE PUSH1 0x4 DUP4 ADD PUSH1 0x80 SWAP2 DUP2 MSTORE PUSH1 0x40 PUSH1 0x20 DUP3 ADD MSTORE PUSH1 0x1B PUSH1 0x40 DUP3 ADD MSTORE PUSH32 0x4141313320696E6974436F6465206661696C6564206F72204F4F470000000000 PUSH1 0x60 DUP3 ADD MSTORE ADD SWAP1 JUMP JUMPDEST PUSH2 0x43CE SWAP2 SWAP3 POP PUSH1 0x20 RETURNDATASIZE DUP2 GT PUSH2 0x146A JUMPI PUSH2 0x145B DUP2 DUP4 PUSH2 0x5AB JUMP JUMPDEST SWAP1 CODESIZE PUSH2 0x41E8 JUMP JUMPDEST PUSH2 0x43DD PUSH2 0x2183 JUMP JUMPDEST PUSH2 0x41E0 JUMP JUMPDEST PUSH1 0x40 DUP1 MLOAD PUSH32 0x220266B600000000000000000000000000000000000000000000000000000000 DUP2 MSTORE PUSH1 0x4 DUP2 ADD SWAP3 SWAP1 SWAP3 MSTORE PUSH1 0x24 DUP3 ADD MSTORE PUSH1 0x1F PUSH1 0x44 DUP3 ADD MSTORE PUSH32 0x414131302073656E64657220616C726561647920636F6E737472756374656400 PUSH1 0x64 DUP3 ADD MSTORE PUSH1 0x84 SWAP1 REVERT JUMPDEST ISZERO PUSH2 0x444F JUMPI JUMP JUMPDEST PUSH1 0x64 PUSH1 0x40 MLOAD PUSH32 0x8C379A000000000000000000000000000000000000000000000000000000000 DUP2 MSTORE PUSH1 0x20 PUSH1 0x4 DUP3 ADD MSTORE PUSH1 0x1F PUSH1 0x24 DUP3 ADD MSTORE PUSH32 0x4141343120746F6F206C6974746C6520766572696669636174696F6E47617300 PUSH1 0x44 DUP3 ADD MSTORE REVERT JUMPDEST SWAP2 SWAP1 PUSH1 0x40 DUP4 DUP3 SUB SLT PUSH2 0x359 JUMPI DUP3 MLOAD PUSH8 0xFFFFFFFFFFFFFFFF DUP2 GT PUSH2 0x359 JUMPI DUP4 ADD SWAP1 DUP1 PUSH1 0x1F DUP4 ADD SLT ISZERO PUSH2 0x359 JUMPI DUP2 MLOAD SWAP2 PUSH2 0x44E4 DUP4 PUSH2 0x639 JUMP JUMPDEST SWAP2 PUSH2 0x44F2 PUSH1 0x40 MLOAD SWAP4 DUP5 PUSH2 0x5AB JUMP JUMPDEST DUP4 DUP4 MSTORE PUSH1 0x20 DUP5 DUP4 ADD ADD GT PUSH2 0x359 JUMPI PUSH1 0x20 SWAP3 PUSH2 0x4512 SWAP2 DUP5 DUP1 DUP6 ADD SWAP2 ADD PUSH2 0x2067 JUMP JUMPDEST SWAP3 ADD MLOAD SWAP1 JUMP JUMPDEST SWAP1 PUSH2 0x44D PUSH1 0x2F PUSH1 0x40 MLOAD DUP1 SWAP5 PUSH32 0x414133332072657665727465643A200000000000000000000000000000000000 PUSH1 0x20 DUP4 ADD MSTORE PUSH2 0x3826 DUP2 MLOAD DUP1 SWAP3 PUSH1 0x20 DUP7 DUP7 ADD SWAP2 ADD PUSH2 0x2067 JUMP JUMPDEST SWAP4 SWAP2 SWAP3 PUSH1 0x60 SWAP5 PUSH1 0x0 SWAP5 PUSH1 0x0 SWAP4 DUP1 MLOAD SWAP3 PUSH2 0x459B PUSH1 0xA0 DUP11 DUP7 ADD MLOAD SWAP6 PUSH2 0x4580 DUP9 DUP9 GT PUSH2 0x4448 JUMP JUMPDEST ADD MLOAD PUSH20 0xFFFFFFFFFFFFFFFFFFFFFFFFFFFFFFFFFFFFFFFF AND SWAP1 JUMP JUMPDEST SWAP2 PUSH2 0x45C6 DUP4 PUSH20 0xFFFFFFFFFFFFFFFFFFFFFFFFFFFFFFFFFFFFFFFF AND PUSH1 0x0 MSTORE PUSH1 0x0 PUSH1 0x20 MSTORE PUSH1 0x40 PUSH1 0x0 KECCAK256 SWAP1 JUMP JUMPDEST SWAP5 PUSH2 0x45E2 PUSH2 0xA2C DUP8 SLOAD PUSH14 0xFFFFFFFFFFFFFFFFFFFFFFFFFFFF AND SWAP1 JUMP JUMPDEST SWAP7 DUP6 DUP9 LT PUSH2 0x4782 JUMPI PUSH20 0xFFFFFFFFFFFFFFFFFFFFFFFFFFFFFFFFFFFFFFFF PUSH1 0x20 DUP11 SWAP9 SWAP5 PUSH2 0x4658 DUP11 SWAP7 PUSH14 0xFFFFFFFFFFFFFFFFFFFFFFFFFFFF DUP12 PUSH2 0x4691 SWAP15 SUB AND PUSH14 0xFFFFFFFFFFFFFFFFFFFFFFFFFFFF AND PUSH32 0xFFFFFFFFFFFFFFFFFFFFFFFFFFFFFFFFFFFF0000000000000000000000000000 DUP3 SLOAD AND OR SWAP1 SSTORE JUMP JUMPDEST ADD MLOAD SWAP5 PUSH1 0x40 MLOAD SWAP10 DUP11 SWAP9 DUP10 SWAP8 DUP9 SWAP4 PUSH32 0xF465C77E00000000000000000000000000000000000000000000000000000000 DUP6 MSTORE PUSH1 0x4 DUP6 ADD PUSH2 0x37C0 JUMP JUMPDEST SUB SWAP6 AND SWAP2 SUB CALL SWAP1 DUP2 DUP4 SWAP2 DUP5 SWAP4 PUSH2 0x475C JUMPI JUMPDEST POP PUSH2 0x4755 JUMPI POP POP PUSH1 0x1 SWAP1 PUSH2 0x46B4 PUSH2 0x2D80 JUMP JUMPDEST PUSH4 0x8C379A0 EQ PUSH2 0x4733 JUMPI JUMPDEST POP PUSH2 0x46C6 JUMPI JUMP JUMPDEST PUSH1 0x40 MLOAD PUSH32 0x220266B600000000000000000000000000000000000000000000000000000000 DUP2 MSTORE DUP1 PUSH2 0xF21 PUSH1 0x4 DUP3 ADD PUSH1 0x80 SWAP1 PUSH1 0x0 DUP2 MSTORE PUSH1 0x40 PUSH1 0x20 DUP3 ADD MSTORE PUSH1 0x16 PUSH1 0x40 DUP3 ADD MSTORE PUSH32 0x4141333320726576657274656420286F72204F4F472900000000000000000000 PUSH1 0x60 DUP3 ADD MSTORE ADD SWAP1 JUMP JUMPDEST PUSH2 0x473B PUSH2 0x2D9E JUMP JUMPDEST SWAP1 DUP2 PUSH2 0x4747 JUMPI POP PUSH2 0x46BF JUMP JUMPDEST PUSH2 0xF21 SWAP2 PUSH2 0x3ADF SWAP2 POP PUSH2 0x4518 JUMP JUMPDEST SWAP5 POP SWAP3 POP POP JUMP JUMPDEST SWAP1 SWAP3 POP PUSH2 0x477B SWAP2 POP RETURNDATASIZE DUP1 DUP6 DUP4 RETURNDATACOPY PUSH2 0x4773 DUP2 DUP4 PUSH2 0x5AB JUMP JUMPDEST DUP2 ADD SWAP1 PUSH2 0x44AD JUMP JUMPDEST SWAP2 CODESIZE PUSH2 0x46A2 JUMP JUMPDEST PUSH1 0x40 MLOAD PUSH32 0x220266B600000000000000000000000000000000000000000000000000000000 DUP2 MSTORE DUP1 PUSH2 0xF21 PUSH1 0x4 DUP3 ADD PUSH1 0x80 SWAP1 PUSH1 0x0 DUP2 MSTORE PUSH1 0x40 PUSH1 0x20 DUP3 ADD MSTORE PUSH1 0x1E PUSH1 0x40 DUP3 ADD MSTORE PUSH32 0x41413331207061796D6173746572206465706F73697420746F6F206C6F770000 PUSH1 0x60 DUP3 ADD MSTORE ADD SWAP1 JUMP JUMPDEST SWAP2 SWAP5 SWAP3 SWAP4 SWAP1 SWAP4 PUSH1 0x60 SWAP6 PUSH1 0x0 SWAP6 PUSH1 0x0 SWAP4 DUP3 MLOAD SWAP1 PUSH2 0x4816 PUSH1 0xA0 DUP12 DUP5 ADD MLOAD SWAP4 PUSH2 0x4580 DUP5 DUP7 GT PUSH2 0x4448 JUMP JUMPDEST SWAP4 PUSH2 0x4841 DUP6 PUSH20 0xFFFFFFFFFFFFFFFFFFFFFFFFFFFFFFFFFFFFFFFF AND PUSH1 0x0 MSTORE PUSH1 0x0 PUSH1 0x20 MSTORE PUSH1 0x40 PUSH1 0x0 KECCAK256 SWAP1 JUMP JUMPDEST PUSH2 0x485C PUSH2 0xA2C DUP3 SLOAD PUSH14 0xFFFFFFFFFFFFFFFFFFFFFFFFFFFF AND SWAP1 JUMP JUMPDEST DUP8 DUP2 LT PUSH2 0x49B7 JUMPI SWAP3 PUSH20 0xFFFFFFFFFFFFFFFFFFFFFFFFFFFFFFFFFFFFFFFF PUSH1 0x20 DUP11 SWAP9 SWAP7 SWAP4 SWAP5 PUSH2 0x4658 DUP11 SWAP7 PUSH14 0xFFFFFFFFFFFFFFFFFFFFFFFFFFFF DUP14 PUSH2 0x48D6 SWAP15 SWAP13 SWAP11 SUB AND PUSH14 0xFFFFFFFFFFFFFFFFFFFFFFFFFFFF AND PUSH32 0xFFFFFFFFFFFFFFFFFFFFFFFFFFFFFFFFFFFF0000000000000000000000000000 DUP3 SLOAD AND OR SWAP1 SSTORE JUMP JUMPDEST SUB SWAP6 AND SWAP2 SUB CALL SWAP1 DUP2 DUP4 SWAP2 DUP5 SWAP4 PUSH2 0x4999 JUMPI JUMPDEST POP PUSH2 0x4991 JUMPI POP POP PUSH1 0x1 SWAP1 PUSH2 0x48F9 PUSH2 0x2D80 JUMP JUMPDEST PUSH4 0x8C379A0 EQ PUSH2 0x4972 JUMPI JUMPDEST POP PUSH2 0x490C JUMPI POP JUMP JUMPDEST PUSH1 0x40 DUP1 MLOAD PUSH32 0x220266B600000000000000000000000000000000000000000000000000000000 DUP2 MSTORE PUSH1 0x4 DUP2 ADD SWAP3 SWAP1 SWAP3 MSTORE PUSH1 0x24 DUP3 ADD MSTORE PUSH1 0x16 PUSH1 0x44 DUP3 ADD MSTORE PUSH32 0x4141333320726576657274656420286F72204F4F472900000000000000000000 PUSH1 0x64 DUP3 ADD MSTORE PUSH1 0x84 SWAP1 REVERT JUMPDEST PUSH2 0x497A PUSH2 0x2D9E JUMP JUMPDEST SWAP1 DUP2 PUSH2 0x4986 JUMPI POP PUSH2 0x4904 JUMP JUMPDEST PUSH2 0x3DAE SWAP3 POP POP PUSH2 0x4518 JUMP JUMPDEST SWAP6 POP SWAP4 POP POP POP JUMP JUMPDEST SWAP1 SWAP3 POP PUSH2 0x49B0 SWAP2 POP RETURNDATASIZE DUP1 DUP6 DUP4 RETURNDATACOPY PUSH2 0x4773 DUP2 DUP4 PUSH2 0x5AB JUMP JUMPDEST SWAP2 CODESIZE PUSH2 0x48E7 JUMP JUMPDEST PUSH2 0xF21 DUP11 PUSH1 0x40 MLOAD SWAP2 DUP3 SWAP2 PUSH32 0x220266B600000000000000000000000000000000000000000000000000000000 DUP4 MSTORE PUSH1 0x4 DUP4 ADD PUSH1 0x80 SWAP2 DUP2 MSTORE PUSH1 0x40 PUSH1 0x20 DUP3 ADD MSTORE PUSH1 0x1E PUSH1 0x40 DUP3 ADD MSTORE PUSH32 0x41413331207061796D6173746572206465706F73697420746F6F206C6F770000 PUSH1 0x60 DUP3 ADD MSTORE ADD SWAP1 JUMP JUMPDEST PUSH1 0x3 GT ISZERO PUSH2 0x4A2F JUMPI JUMP JUMPDEST PUSH32 0x4E487B7100000000000000000000000000000000000000000000000000000000 PUSH1 0x0 MSTORE PUSH1 0x21 PUSH1 0x4 MSTORE PUSH1 0x24 PUSH1 0x0 REVERT JUMPDEST SWAP3 SWAP2 SWAP1 PUSH2 0x4A7C PUSH1 0x40 SWAP2 PUSH1 0x2 DUP7 MSTORE PUSH1 0x60 PUSH1 0x20 DUP8 ADD MSTORE PUSH1 0x60 DUP7 ADD SWAP1 PUSH2 0x208A JUMP JUMPDEST SWAP4 ADD MSTORE JUMP JUMPDEST SWAP4 SWAP3 SWAP2 SWAP1 PUSH1 0x3 DUP2 LT ISZERO PUSH2 0x4A2F JUMPI PUSH1 0x40 SWAP2 PUSH2 0x4A7C SWAP2 DUP7 MSTORE PUSH1 0x60 PUSH1 0x20 DUP8 ADD MSTORE PUSH1 0x60 DUP7 ADD SWAP1 PUSH2 0x208A JUMP JUMPDEST SWAP1 PUSH2 0x44D PUSH1 0x36 PUSH1 0x40 MLOAD DUP1 SWAP5 PUSH32 0x4141353020706F73744F702072657665727465643A2000000000000000000000 PUSH1 0x20 DUP4 ADD MSTORE PUSH2 0x4AEC DUP2 MLOAD DUP1 SWAP3 PUSH1 0x20 DUP7 DUP7 ADD SWAP2 ADD PUSH2 0x2067 JUMP JUMPDEST DUP2 ADD SUB PUSH1 0x16 DUP2 ADD DUP6 MSTORE ADD DUP4 PUSH2 0x5AB JUMP JUMPDEST SWAP3 SWAP2 SWAP1 SWAP3 GAS SWAP4 PUSH1 0x0 SWAP2 DUP1 MLOAD SWAP2 PUSH2 0x4B11 DUP4 PUSH2 0x5318 JUMP JUMPDEST SWAP3 PUSH1 0xA0 DUP2 ADD SWAP6 PUSH2 0x4B35 DUP8 MLOAD PUSH20 0xFFFFFFFFFFFFFFFFFFFFFFFFFFFFFFFFFFFFFFFF AND SWAP1 JUMP JUMPDEST PUSH20 0xFFFFFFFFFFFFFFFFFFFFFFFFFFFFFFFFFFFFFFFF SWAP4 SWAP1 DUP5 DUP2 AND SWAP1 DUP2 PUSH2 0x4CA4 JUMPI POP POP POP PUSH2 0x4B76 DUP3 MLOAD PUSH20 0xFFFFFFFFFFFFFFFFFFFFFFFFFFFFFFFFFFFFFFFF AND SWAP1 JUMP JUMPDEST SWAP9 JUMPDEST GAS SWAP1 SUB ADD SWAP4 DUP5 MUL SWAP8 PUSH1 0x40 DUP5 ADD SWAP1 DUP10 DUP3 MLOAD LT PUSH2 0x4C37 JUMPI PUSH32 0x49628FD1471006C1482DA88028E9CE4DBB080B815C9B0344D39E5A8E6EC1419F SWAP5 PUSH2 0x4BC2 PUSH1 0x20 SWAP3 DUP13 PUSH2 0x4C32 SWAP6 MLOAD SUB SWAP1 PUSH2 0x553A JUMP JUMPDEST ADD MLOAD SWAP5 DUP10 PUSH1 0x20 PUSH2 0x4C04 PUSH2 0x4BE9 DUP7 MLOAD PUSH20 0xFFFFFFFFFFFFFFFFFFFFFFFFFFFFFFFFFFFFFFFF AND SWAP1 JUMP JUMPDEST SWAP11 MLOAD PUSH20 0xFFFFFFFFFFFFFFFFFFFFFFFFFFFFFFFFFFFFFFFF AND SWAP1 JUMP JUMPDEST SWAP5 ADD MLOAD SWAP8 DUP6 PUSH1 0x40 MLOAD SWAP7 DUP8 SWAP7 AND SWAP11 AND SWAP9 DUP6 SWAP1 SWAP5 SWAP4 SWAP3 PUSH1 0x60 SWAP3 PUSH1 0x80 DUP4 ADD SWAP7 DUP4 MSTORE ISZERO ISZERO PUSH1 0x20 DUP4 ADD MSTORE PUSH1 0x40 DUP3 ADD MSTORE ADD MSTORE JUMP JUMPDEST SUB SWAP1 LOG4 JUMP JUMPDEST PUSH1 0x40 MLOAD PUSH32 0x220266B600000000000000000000000000000000000000000000000000000000 DUP2 MSTORE DUP1 PUSH2 0xF21 PUSH1 0x4 DUP3 ADD PUSH1 0x80 SWAP1 PUSH1 0x0 DUP2 MSTORE PUSH1 0x40 PUSH1 0x20 DUP3 ADD MSTORE PUSH1 0x20 PUSH1 0x40 DUP3 ADD MSTORE PUSH32 0x414135312070726566756E642062656C6F772061637475616C476173436F7374 PUSH1 0x60 DUP3 ADD MSTORE ADD SWAP1 JUMP JUMPDEST SWAP11 SWAP2 DUP1 MLOAD PUSH2 0x4CB4 JUMPI JUMPDEST POP POP PUSH2 0x4B78 JUMP JUMPDEST PUSH1 0x60 DUP6 ADD MLOAD PUSH1 0x0 SWAP10 POP SWAP1 SWAP2 DUP1 EXTCODESIZE ISZERO PUSH2 0x4DDB JUMPI SWAP2 DUP10 SWAP2 DUP10 DUP4 PUSH2 0x4D07 SWAP6 PUSH1 0x40 MLOAD DUP1 SWAP8 DUP2 SWAP7 DUP3 SWAP6 PUSH32 0xA9A2340900000000000000000000000000000000000000000000000000000000 DUP5 MSTORE DUP13 MUL SWAP1 PUSH1 0x4 DUP5 ADD PUSH2 0x4A5E JUMP JUMPDEST SUB SWAP4 CALL SWAP1 DUP2 PUSH2 0x4DC8 JUMPI JUMPDEST POP PUSH2 0x4DC3 JUMPI PUSH1 0x1 PUSH2 0x4D20 PUSH2 0x2D80 JUMP JUMPDEST PUSH4 0x8C379A0 EQ PUSH2 0x4DA4 JUMPI JUMPDEST PUSH2 0x4D37 JUMPI JUMPDEST CODESIZE DUP1 PUSH2 0x4CAD JUMP JUMPDEST PUSH1 0x40 MLOAD PUSH32 0x220266B600000000000000000000000000000000000000000000000000000000 DUP2 MSTORE DUP1 PUSH2 0xF21 PUSH1 0x4 DUP3 ADD PUSH1 0x80 SWAP1 PUSH1 0x0 DUP2 MSTORE PUSH1 0x40 PUSH1 0x20 DUP3 ADD MSTORE PUSH1 0x12 PUSH1 0x40 DUP3 ADD MSTORE PUSH32 0x4141353020706F73744F70207265766572740000000000000000000000000000 PUSH1 0x60 DUP3 ADD MSTORE ADD SWAP1 JUMP JUMPDEST PUSH2 0x4DAC PUSH2 0x2D9E JUMP JUMPDEST DUP1 PUSH2 0x4DB7 JUMPI POP PUSH2 0x4D2B JUMP JUMPDEST PUSH2 0x3ADF PUSH2 0xF21 SWAP2 PUSH2 0x4AA8 JUMP JUMPDEST PUSH2 0x4D30 JUMP JUMPDEST DUP1 PUSH2 0xF48 PUSH2 0x4DD5 SWAP3 PUSH2 0x57B JUMP JUMPDEST CODESIZE PUSH2 0x4D11 JUMP JUMPDEST DUP10 DUP1 REVERT JUMPDEST SWAP4 SWAP3 SWAP2 GAS SWAP1 PUSH1 0x0 SWAP3 DUP1 MLOAD SWAP1 PUSH2 0x4DF3 DUP3 PUSH2 0x5318 JUMP JUMPDEST SWAP4 PUSH1 0xA0 DUP4 ADD SWAP7 PUSH2 0x4E17 DUP9 MLOAD PUSH20 0xFFFFFFFFFFFFFFFFFFFFFFFFFFFFFFFFFFFFFFFF AND SWAP1 JUMP JUMPDEST PUSH20 0xFFFFFFFFFFFFFFFFFFFFFFFFFFFFFFFFFFFFFFFF SWAP6 SWAP1 DUP7 DUP2 AND SWAP1 DUP2 PUSH2 0x4F0D JUMPI POP POP POP PUSH2 0x4E58 DUP5 MLOAD PUSH20 0xFFFFFFFFFFFFFFFFFFFFFFFFFFFFFFFFFFFFFFFF AND SWAP1 JUMP JUMPDEST SWAP2 JUMPDEST GAS SWAP1 SUB ADD SWAP5 DUP6 MUL SWAP9 PUSH1 0x40 DUP4 ADD SWAP1 DUP11 DUP3 MLOAD LT PUSH2 0x4EA7 JUMPI POP PUSH32 0x49628FD1471006C1482DA88028E9CE4DBB080B815C9B0344D39E5A8E6EC1419F SWAP5 SWAP4 SWAP3 PUSH2 0x4BC2 PUSH2 0x4C32 SWAP4 DUP13 PUSH1 0x20 SWAP5 MLOAD SUB SWAP1 PUSH2 0x553A JUMP JUMPDEST PUSH1 0x40 DUP1 MLOAD PUSH32 0x220266B600000000000000000000000000000000000000000000000000000000 DUP2 MSTORE PUSH1 0x4 DUP2 ADD SWAP3 SWAP1 SWAP3 MSTORE PUSH1 0x24 DUP3 ADD MSTORE PUSH1 0x20 PUSH1 0x44 DUP3 ADD MSTORE PUSH32 0x414135312070726566756E642062656C6F772061637475616C476173436F7374 PUSH1 0x64 DUP3 ADD MSTORE PUSH1 0x84 SWAP1 REVERT JUMPDEST SWAP4 SWAP2 DUP1 MLOAD PUSH2 0x4F1D JUMPI JUMPDEST POP POP PUSH2 0x4E5A JUMP JUMPDEST PUSH1 0x60 DUP8 ADD MLOAD PUSH1 0x0 SWAP11 POP SWAP1 SWAP2 DUP1 EXTCODESIZE ISZERO PUSH2 0x5043 JUMPI SWAP2 DUP11 SWAP2 DUP11 DUP4 PUSH2 0x4F70 SWAP6 PUSH1 0x40 MLOAD DUP1 SWAP8 DUP2 SWAP7 DUP3 SWAP6 PUSH32 0xA9A2340900000000000000000000000000000000000000000000000000000000 DUP5 MSTORE DUP13 MUL SWAP1 PUSH1 0x4 DUP5 ADD PUSH2 0x4A5E JUMP JUMPDEST SUB SWAP4 CALL SWAP1 DUP2 PUSH2 0x5030 JUMPI JUMPDEST POP PUSH2 0x502B JUMPI PUSH1 0x1 PUSH2 0x4F89 PUSH2 0x2D80 JUMP JUMPDEST PUSH4 0x8C379A0 EQ PUSH2 0x500E JUMPI JUMPDEST PUSH2 0x4FA0 JUMPI JUMPDEST CODESIZE DUP1 PUSH2 0x4F16 JUMP JUMPDEST PUSH2 0xF21 DUP12 PUSH1 0x40 MLOAD SWAP2 DUP3 SWAP2 PUSH32 0x220266B600000000000000000000000000000000000000000000000000000000 DUP4 MSTORE PUSH1 0x4 DUP4 ADD PUSH1 0x80 SWAP2 DUP2 MSTORE PUSH1 0x40 PUSH1 0x20 DUP3 ADD MSTORE PUSH1 0x12 PUSH1 0x40 DUP3 ADD MSTORE PUSH32 0x4141353020706F73744F70207265766572740000000000000000000000000000 PUSH1 0x60 DUP3 ADD MSTORE ADD SWAP1 JUMP JUMPDEST PUSH2 0x5016 PUSH2 0x2D9E JUMP JUMPDEST DUP1 PUSH2 0x5021 JUMPI POP PUSH2 0x4F94 JUMP JUMPDEST PUSH2 0x3DAE DUP14 SWAP2 PUSH2 0x4AA8 JUMP JUMPDEST PUSH2 0x4F99 JUMP JUMPDEST DUP1 PUSH2 0xF48 PUSH2 0x503D SWAP3 PUSH2 0x57B JUMP JUMPDEST CODESIZE PUSH2 0x4F7A JUMP JUMPDEST DUP11 DUP1 REVERT JUMPDEST SWAP1 SWAP4 SWAP3 SWAP2 GAS SWAP5 DUP1 MLOAD SWAP2 PUSH2 0x5059 DUP4 PUSH2 0x5318 JUMP JUMPDEST SWAP3 PUSH1 0xA0 DUP2 ADD SWAP6 PUSH2 0x507D DUP8 MLOAD PUSH20 0xFFFFFFFFFFFFFFFFFFFFFFFFFFFFFFFFFFFFFFFF AND SWAP1 JUMP JUMPDEST PUSH20 0xFFFFFFFFFFFFFFFFFFFFFFFFFFFFFFFFFFFFFFFF SWAP4 DUP2 DUP6 AND SWAP2 DUP3 PUSH2 0x5165 JUMPI POP POP POP PUSH2 0x50BD DUP3 MLOAD PUSH20 0xFFFFFFFFFFFFFFFFFFFFFFFFFFFFFFFFFFFFFFFF AND SWAP1 JUMP JUMPDEST SWAP9 JUMPDEST GAS SWAP1 SUB ADD SWAP4 DUP5 MUL SWAP8 PUSH1 0x40 DUP5 ADD SWAP1 DUP10 DUP3 MLOAD LT PUSH2 0x4C37 JUMPI PUSH32 0x49628FD1471006C1482DA88028E9CE4DBB080B815C9B0344D39E5A8E6EC1419F SWAP5 PUSH2 0x5109 PUSH1 0x20 SWAP3 DUP13 PUSH2 0x4C32 SWAP6 MLOAD SUB SWAP1 PUSH2 0x553A JUMP JUMPDEST PUSH2 0x5112 DUP9 PUSH2 0x4A25 JUMP JUMPDEST ADD MLOAD SWAP5 DUP10 PUSH1 0x20 PUSH2 0x5139 PUSH2 0x4BE9 DUP7 MLOAD PUSH20 0xFFFFFFFFFFFFFFFFFFFFFFFFFFFFFFFFFFFFFFFF AND SWAP1 JUMP JUMPDEST SWAP5 ADD MLOAD PUSH1 0x40 DUP1 MLOAD SWAP2 DUP3 MSTORE SWAP9 ISZERO PUSH1 0x20 DUP3 ADD MSTORE SWAP8 DUP9 ADD MSTORE PUSH1 0x60 DUP8 ADD MSTORE SWAP1 DUP3 AND SWAP6 SWAP1 SWAP2 AND SWAP4 SWAP1 DUP2 SWAP1 PUSH1 0x80 DUP3 ADD SWAP1 JUMP JUMPDEST SWAP11 SWAP2 DUP2 MLOAD PUSH2 0x5175 JUMPI JUMPDEST POP POP PUSH2 0x50BF JUMP JUMPDEST DUP8 DUP5 MUL PUSH2 0x5181 DUP11 PUSH2 0x4A25 JUMP JUMPDEST PUSH1 0x2 DUP11 EQ PUSH2 0x520C JUMPI PUSH1 0x60 DUP7 ADD MLOAD DUP3 EXTCODESIZE ISZERO PUSH2 0x359 JUMPI PUSH2 0x51D4 SWAP4 PUSH1 0x0 DUP1 SWAP5 DUP14 PUSH1 0x40 MLOAD SWAP8 DUP9 SWAP7 DUP8 SWAP6 DUP7 SWAP4 PUSH32 0xA9A2340900000000000000000000000000000000000000000000000000000000 DUP6 MSTORE PUSH1 0x4 DUP6 ADD PUSH2 0x4A81 JUMP JUMPDEST SUB SWAP4 CALL DUP1 ISZERO PUSH2 0x51FF JUMPI JUMPDEST PUSH2 0x51EC JUMPI JUMPDEST POP JUMPDEST CODESIZE DUP1 PUSH2 0x516E JUMP JUMPDEST DUP1 PUSH2 0xF48 PUSH2 0x51F9 SWAP3 PUSH2 0x57B JUMP JUMPDEST CODESIZE PUSH2 0x51E3 JUMP JUMPDEST PUSH2 0x5207 PUSH2 0x2183 JUMP JUMPDEST PUSH2 0x51DE JUMP JUMPDEST PUSH1 0x60 DUP7 ADD MLOAD DUP3 EXTCODESIZE ISZERO PUSH2 0x359 JUMPI PUSH2 0x5257 SWAP4 PUSH1 0x0 DUP1 SWAP5 DUP14 PUSH1 0x40 MLOAD SWAP8 DUP9 SWAP7 DUP8 SWAP6 DUP7 SWAP4 PUSH32 0xA9A2340900000000000000000000000000000000000000000000000000000000 DUP6 MSTORE PUSH1 0x4 DUP6 ADD PUSH2 0x4A81 JUMP JUMPDEST SUB SWAP4 CALL SWAP1 DUP2 PUSH2 0x5305 JUMPI JUMPDEST POP PUSH2 0x5300 JUMPI PUSH1 0x1 PUSH2 0x5270 PUSH2 0x2D80 JUMP JUMPDEST PUSH4 0x8C379A0 EQ PUSH2 0x52ED JUMPI JUMPDEST ISZERO PUSH2 0x51E5 JUMPI PUSH1 0x40 MLOAD PUSH32 0x220266B600000000000000000000000000000000000000000000000000000000 DUP2 MSTORE DUP1 PUSH2 0xF21 PUSH1 0x4 DUP3 ADD PUSH1 0x80 SWAP1 PUSH1 0x0 DUP2 MSTORE PUSH1 0x40 PUSH1 0x20 DUP3 ADD MSTORE PUSH1 0x12 PUSH1 0x40 DUP3 ADD MSTORE PUSH32 0x4141353020706F73744F70207265766572740000000000000000000000000000 PUSH1 0x60 DUP3 ADD MSTORE ADD SWAP1 JUMP JUMPDEST PUSH2 0x52F5 PUSH2 0x2D9E JUMP JUMPDEST DUP1 PUSH2 0x4DB7 JUMPI POP PUSH2 0x527B JUMP JUMPDEST PUSH2 0x51E5 JUMP JUMPDEST DUP1 PUSH2 0xF48 PUSH2 0x5312 SWAP3 PUSH2 0x57B JUMP JUMPDEST CODESIZE PUSH2 0x5261 JUMP JUMPDEST PUSH1 0xE0 PUSH1 0xC0 DUP3 ADD MLOAD SWAP2 ADD MLOAD DUP1 DUP3 EQ PUSH2 0x533C JUMPI BASEFEE ADD DUP1 DUP3 LT ISZERO PUSH2 0x5337 JUMPI POP SWAP1 JUMP JUMPDEST SWAP1 POP SWAP1 JUMP JUMPDEST POP SWAP1 JUMP JUMPDEST PUSH1 0x40 MLOAD SWAP1 PUSH2 0x534D DUP3 PUSH2 0x58F JUMP JUMPDEST PUSH1 0x0 PUSH1 0x40 DUP4 DUP3 DUP2 MSTORE DUP3 PUSH1 0x20 DUP3 ADD MSTORE ADD MSTORE JUMP JUMPDEST PUSH2 0x5367 PUSH2 0x5340 JUMP JUMPDEST POP PUSH6 0xFFFFFFFFFFFF DUP1 DUP3 PUSH1 0xA0 SHR AND DUP1 ISZERO PUSH2 0x53B3 JUMPI JUMPDEST PUSH1 0x40 MLOAD SWAP3 PUSH2 0x5389 DUP5 PUSH2 0x58F JUMP JUMPDEST PUSH20 0xFFFFFFFFFFFFFFFFFFFFFFFFFFFFFFFFFFFFFFFF DUP2 AND DUP5 MSTORE PUSH1 0xD0 SHR PUSH1 0x20 DUP5 ADD MSTORE AND PUSH1 0x40 DUP3 ADD MSTORE SWAP1 JUMP JUMPDEST POP DUP1 PUSH2 0x537C JUMP JUMPDEST PUSH2 0x53CF PUSH2 0x53D5 SWAP2 PUSH2 0x53C9 PUSH2 0x5340 JUMP JUMPDEST POP PUSH2 0x535F JUMP JUMPDEST SWAP2 PUSH2 0x535F JUMP JUMPDEST SWAP1 PUSH20 0xFFFFFFFFFFFFFFFFFFFFFFFFFFFFFFFFFFFFFFFF SWAP2 DUP3 DUP3 MLOAD AND SWAP3 DUP4 ISZERO PUSH2 0x5461 JUMPI JUMPDEST PUSH6 0xFFFFFFFFFFFF SWAP3 DUP4 SWAP2 DUP3 PUSH1 0x40 DUP2 PUSH1 0x20 DUP6 ADD MLOAD AND SWAP4 ADD MLOAD AND SWAP4 DUP4 PUSH1 0x40 DUP2 PUSH1 0x20 DUP5 ADD MLOAD AND SWAP3 ADD MLOAD AND SWAP1 DUP1 DUP5 LT PUSH2 0x5459 JUMPI JUMPDEST POP DUP1 DUP6 GT PUSH2 0x5451 JUMPI JUMPDEST POP PUSH1 0x40 MLOAD SWAP6 PUSH2 0x543F DUP8 PUSH2 0x58F JUMP JUMPDEST AND DUP6 MSTORE AND PUSH1 0x20 DUP5 ADD MSTORE AND PUSH1 0x40 DUP3 ADD MSTORE SWAP1 JUMP JUMPDEST SWAP4 POP CODESIZE PUSH2 0x5431 JUMP JUMPDEST SWAP3 POP CODESIZE PUSH2 0x5428 JUMP JUMPDEST DUP2 MLOAD DUP2 AND SWAP4 POP PUSH2 0x53F8 JUMP JUMPDEST PUSH20 0xFFFFFFFFFFFFFFFFFFFFFFFFFFFFFFFFFFFFFFFF AND PUSH1 0x0 MSTORE PUSH1 0x1 PUSH1 0x20 MSTORE PUSH8 0xFFFFFFFFFFFFFFFF PUSH2 0x54C8 DUP3 PUSH1 0x40 SHR PUSH1 0x40 PUSH1 0x0 KECCAK256 SWAP1 PUSH24 0xFFFFFFFFFFFFFFFFFFFFFFFFFFFFFFFFFFFFFFFFFFFFFFFF AND PUSH1 0x0 MSTORE PUSH1 0x20 MSTORE PUSH1 0x40 PUSH1 0x0 KECCAK256 SWAP1 JUMP JUMPDEST SWAP2 DUP3 SLOAD SWAP3 PUSH2 0x54D5 DUP5 PUSH2 0x2491 JUMP JUMPDEST SWAP1 SSTORE AND EQ SWAP1 JUMP JUMPDEST SWAP1 PUSH20 0xFFFFFFFFFFFFFFFFFFFFFFFFFFFFFFFFFFFFFFFF PUSH2 0x54FA PUSH2 0x2B50 JUMP JUMPDEST SWAP3 AND PUSH1 0x0 MSTORE PUSH1 0x0 PUSH1 0x20 MSTORE PUSH4 0xFFFFFFFF PUSH1 0x1 PUSH1 0x40 PUSH1 0x0 KECCAK256 PUSH14 0xFFFFFFFFFFFFFFFFFFFFFFFFFFFF DUP2 SLOAD PUSH1 0x78 SHR AND DUP6 MSTORE ADD SLOAD AND PUSH1 0x20 DUP4 ADD MSTORE JUMP JUMPDEST PUSH2 0x44D CALLER PUSH2 0x562B JUMP JUMPDEST PUSH20 0xFFFFFFFFFFFFFFFFFFFFFFFFFFFFFFFFFFFFFFFF AND PUSH1 0x0 MSTORE PUSH1 0x0 PUSH1 0x20 MSTORE PUSH1 0x40 PUSH1 0x0 KECCAK256 PUSH14 0xFFFFFFFFFFFFFFFFFFFFFFFFFFFF DUP1 DUP3 SLOAD AND SWAP3 DUP4 ADD DUP1 SWAP4 GT PUSH2 0x561E JUMPI JUMPDEST DUP1 DUP4 GT PUSH2 0x55C0 JUMPI PUSH2 0x44D SWAP3 AND PUSH14 0xFFFFFFFFFFFFFFFFFFFFFFFFFFFF AND PUSH32 0xFFFFFFFFFFFFFFFFFFFFFFFFFFFFFFFFFFFF0000000000000000000000000000 DUP3 SLOAD AND OR SWAP1 SSTORE JUMP JUMPDEST PUSH1 0x64 PUSH1 0x40 MLOAD PUSH32 0x8C379A000000000000000000000000000000000000000000000000000000000 DUP2 MSTORE PUSH1 0x20 PUSH1 0x4 DUP3 ADD MSTORE PUSH1 0x10 PUSH1 0x24 DUP3 ADD MSTORE PUSH32 0x6465706F736974206F766572666C6F7700000000000000000000000000000000 PUSH1 0x44 DUP3 ADD MSTORE REVERT JUMPDEST PUSH2 0x5626 PUSH2 0x2190 JUMP JUMPDEST PUSH2 0x557B JUMP JUMPDEST PUSH20 0xFFFFFFFFFFFFFFFFFFFFFFFFFFFFFFFFFFFFFFFF SWAP1 PUSH2 0x564B CALLVALUE DUP3 PUSH2 0x553A JUMP JUMPDEST AND DUP1 PUSH1 0x0 MSTORE PUSH1 0x0 PUSH1 0x20 MSTORE PUSH32 0x2DA466A7B24304F47E87FA2E1E5A81B9831CE54FEC19055CE277CA2F39BA42C4 PUSH1 0x20 PUSH14 0xFFFFFFFFFFFFFFFFFFFFFFFFFFFF PUSH1 0x40 PUSH1 0x0 KECCAK256 SLOAD AND PUSH1 0x40 MLOAD SWAP1 DUP2 MSTORE LOG2 JUMP JUMPDEST ISZERO PUSH2 0x569E JUMPI JUMP JUMPDEST PUSH1 0x64 PUSH1 0x40 MLOAD PUSH32 0x8C379A000000000000000000000000000000000000000000000000000000000 DUP2 MSTORE PUSH1 0x20 PUSH1 0x4 DUP3 ADD MSTORE PUSH1 0x1A PUSH1 0x24 DUP3 ADD MSTORE PUSH32 0x6D757374207370656369667920756E7374616B652064656C6179000000000000 PUSH1 0x44 DUP3 ADD MSTORE REVERT JUMPDEST ISZERO PUSH2 0x5703 JUMPI JUMP JUMPDEST PUSH1 0x64 PUSH1 0x40 MLOAD PUSH32 0x8C379A000000000000000000000000000000000000000000000000000000000 DUP2 MSTORE PUSH1 0x20 PUSH1 0x4 DUP3 ADD MSTORE PUSH1 0x1C PUSH1 0x24 DUP3 ADD MSTORE PUSH32 0x63616E6E6F7420646563726561736520756E7374616B652074696D6500000000 PUSH1 0x44 DUP3 ADD MSTORE REVERT JUMPDEST ISZERO PUSH2 0x5768 JUMPI JUMP JUMPDEST PUSH1 0x64 PUSH1 0x40 MLOAD PUSH32 0x8C379A000000000000000000000000000000000000000000000000000000000 DUP2 MSTORE PUSH1 0x20 PUSH1 0x4 DUP3 ADD MSTORE PUSH1 0x12 PUSH1 0x24 DUP3 ADD MSTORE PUSH32 0x6E6F207374616B65207370656369666965640000000000000000000000000000 PUSH1 0x44 DUP3 ADD MSTORE REVERT JUMPDEST ISZERO PUSH2 0x57CD JUMPI JUMP JUMPDEST PUSH1 0x64 PUSH1 0x40 MLOAD PUSH32 0x8C379A000000000000000000000000000000000000000000000000000000000 DUP2 MSTORE PUSH1 0x20 PUSH1 0x4 DUP3 ADD MSTORE PUSH1 0xE PUSH1 0x24 DUP3 ADD MSTORE PUSH32 0x7374616B65206F766572666C6F77000000000000000000000000000000000000 PUSH1 0x44 DUP3 ADD MSTORE REVERT JUMPDEST SWAP1 PUSH6 0xFFFFFFFFFFFF PUSH1 0x80 PUSH1 0x1 PUSH2 0x44D SWAP5 PUSH2 0x588B PUSH14 0xFFFFFFFFFFFFFFFFFFFFFFFFFFFF DUP7 MLOAD AND DUP3 SWAP1 PUSH14 0xFFFFFFFFFFFFFFFFFFFFFFFFFFFF AND PUSH32 0xFFFFFFFFFFFFFFFFFFFFFFFFFFFFFFFFFFFF0000000000000000000000000000 DUP3 SLOAD AND OR SWAP1 SSTORE JUMP JUMPDEST PUSH1 0x20 DUP6 ADD MLOAD ISZERO ISZERO PUSH15 0xFF0000000000000000000000000000 DUP3 SLOAD SWAP2 PUSH1 0x70 SHL AND DUP1 PUSH32 0xFFFFFFFFFFFFFFFFFFFFFFFFFFFFFFFFFF00FFFFFFFFFFFFFFFFFFFFFFFFFFFF DUP4 AND OR DUP4 SSTORE PUSH32 0xFFFFFF000000000000000000000000000000FFFFFFFFFFFFFFFFFFFFFFFFFFFF PUSH29 0xFFFFFFFFFFFFFFFFFFFFFFFFFFFF000000000000000000000000000000 PUSH1 0x40 DUP10 ADD MLOAD PUSH1 0x78 SHL AND SWAP3 AND OR OR DUP2 SSTORE ADD SWAP3 PUSH4 0xFFFFFFFF PUSH1 0x60 DUP3 ADD MLOAD AND PUSH32 0xFFFFFFFFFFFFFFFFFFFFFFFFFFFFFFFFFFFFFFFFFFFFFFFFFFFFFFFF00000000 DUP6 SLOAD AND OR DUP5 SSTORE ADD MLOAD AND PUSH32 0xFFFFFFFFFFFFFFFFFFFFFFFFFFFFFFFFFFFFFFFFFFFF000000000000FFFFFFFF PUSH10 0xFFFFFFFFFFFF00000000 DUP4 SLOAD SWAP3 PUSH1 0x20 SHL AND SWAP2 AND OR SWAP1 SSTORE JUMP JUMPDEST ISZERO PUSH2 0x5996 JUMPI JUMP JUMPDEST PUSH1 0x64 PUSH1 0x40 MLOAD PUSH32 0x8C379A000000000000000000000000000000000000000000000000000000000 DUP2 MSTORE PUSH1 0x20 PUSH1 0x4 DUP3 ADD MSTORE PUSH1 0x11 PUSH1 0x24 DUP3 ADD MSTORE PUSH32 0x616C726561647920756E7374616B696E67000000000000000000000000000000 PUSH1 0x44 DUP3 ADD MSTORE REVERT JUMPDEST SWAP2 SWAP1 SWAP2 PUSH6 0xFFFFFFFFFFFF DUP1 DUP1 SWAP5 AND SWAP2 AND ADD SWAP2 DUP3 GT PUSH2 0x21CD JUMPI JUMP JUMPDEST ISZERO PUSH2 0x5A15 JUMPI JUMP JUMPDEST PUSH1 0x64 PUSH1 0x40 MLOAD PUSH32 0x8C379A000000000000000000000000000000000000000000000000000000000 DUP2 MSTORE PUSH1 0x20 PUSH1 0x4 DUP3 ADD MSTORE PUSH1 0x14 PUSH1 0x24 DUP3 ADD MSTORE PUSH32 0x4E6F207374616B6520746F207769746864726177000000000000000000000000 PUSH1 0x44 DUP3 ADD MSTORE REVERT JUMPDEST ISZERO PUSH2 0x5A7A JUMPI JUMP JUMPDEST PUSH1 0x64 PUSH1 0x40 MLOAD PUSH32 0x8C379A000000000000000000000000000000000000000000000000000000000 DUP2 MSTORE PUSH1 0x20 PUSH1 0x4 DUP3 ADD MSTORE PUSH1 0x1D PUSH1 0x24 DUP3 ADD MSTORE PUSH32 0x6D7573742063616C6C20756E6C6F636B5374616B652829206669727374000000 PUSH1 0x44 DUP3 ADD MSTORE REVERT JUMPDEST ISZERO PUSH2 0x5ADF JUMPI JUMP JUMPDEST PUSH1 0x64 PUSH1 0x40 MLOAD PUSH32 0x8C379A000000000000000000000000000000000000000000000000000000000 DUP2 MSTORE PUSH1 0x20 PUSH1 0x4 DUP3 ADD MSTORE PUSH1 0x1B PUSH1 0x24 DUP3 ADD MSTORE PUSH32 0x5374616B65207769746864726177616C206973206E6F74206475650000000000 PUSH1 0x44 DUP3 ADD MSTORE REVERT JUMPDEST ISZERO PUSH2 0x5B44 JUMPI JUMP JUMPDEST PUSH1 0x64 PUSH1 0x40 MLOAD PUSH32 0x8C379A000000000000000000000000000000000000000000000000000000000 DUP2 MSTORE PUSH1 0x20 PUSH1 0x4 DUP3 ADD MSTORE PUSH1 0x18 PUSH1 0x24 DUP3 ADD MSTORE PUSH32 0x6661696C656420746F207769746864726177207374616B650000000000000000 PUSH1 0x44 DUP3 ADD MSTORE REVERT JUMPDEST ISZERO PUSH2 0x5BA9 JUMPI JUMP JUMPDEST PUSH1 0x64 PUSH1 0x40 MLOAD PUSH32 0x8C379A000000000000000000000000000000000000000000000000000000000 DUP2 MSTORE PUSH1 0x20 PUSH1 0x4 DUP3 ADD MSTORE PUSH1 0x12 PUSH1 0x24 DUP3 ADD MSTORE PUSH32 0x6661696C656420746F2077697468647261770000000000000000000000000000 PUSH1 0x44 DUP3 ADD MSTORE REVERT JUMPDEST DUP2 PUSH1 0x40 MLOAD SWAP2 DUP3 CALLDATACOPY KECCAK256 SWAP1 JUMP JUMPDEST SWAP1 PUSH1 0x0 SWAP3 DUP4 DUP1 SWAP4 PUSH1 0x20 DUP5 MLOAD SWAP5 ADD SWAP3 CALL SWAP1 JUMP JUMPDEST RETURNDATASIZE PUSH2 0x800 DUP1 DUP3 GT PUSH2 0x5C4B JUMPI JUMPDEST POP PUSH1 0x40 MLOAD SWAP1 PUSH1 0x20 DUP2 DUP4 ADD ADD PUSH1 0x40 MSTORE DUP1 DUP3 MSTORE PUSH1 0x0 PUSH1 0x20 DUP4 ADD RETURNDATACOPY SWAP1 JUMP JUMPDEST SWAP1 POP CODESIZE PUSH2 0x5C30 JUMP INVALID LOG2 PUSH5 0x6970667358 0x22 SLT KECCAK256 0xC0 0xEE 0xDE 0xF6 0xEB 0x4A 0xE9 0xD1 0xA8 GASPRICE DUP14 MUL 0xA5 SWAP2 0x2E 0xCF LOG3 DIFFICULTY 0xDA SHR 0xC4 0xE8 PUSH26 0x5A40EDA1EEF6A5C80664736F6C63430008110033608080604052 CALLVALUE PUSH2 0x16 JUMPI PUSH2 0x210 SWAP1 DUP2 PUSH2 0x1C DUP3 CODECOPY RETURN JUMPDEST PUSH1 0x0 DUP1 REVERT INVALID PUSH1 0x80 PUSH1 0x40 MSTORE PUSH1 0x4 CALLDATASIZE LT ISZERO PUSH2 0x12 JUMPI PUSH1 0x0 DUP1 REVERT JUMPDEST PUSH1 0x0 DUP1 CALLDATALOAD PUSH1 0xE0 SHR PUSH4 0x570E1A36 EQ PUSH2 0x28 JUMPI PUSH1 0x0 DUP1 REVERT JUMPDEST CALLVALUE PUSH2 0xC9 JUMPI PUSH1 0x20 PUSH32 0xFFFFFFFFFFFFFFFFFFFFFFFFFFFFFFFFFFFFFFFFFFFFFFFFFFFFFFFFFFFFFFFC CALLDATASIZE ADD SLT PUSH2 0xC9 JUMPI PUSH1 0x4 CALLDATALOAD PUSH8 0xFFFFFFFFFFFFFFFF SWAP2 DUP3 DUP3 GT PUSH2 0xC9 JUMPI CALLDATASIZE PUSH1 0x23 DUP4 ADD SLT ISZERO PUSH2 0xC9 JUMPI DUP2 PUSH1 0x4 ADD CALLDATALOAD SWAP3 DUP4 GT PUSH2 0xC9 JUMPI CALLDATASIZE PUSH1 0x24 DUP5 DUP5 ADD ADD GT PUSH2 0xC9 JUMPI PUSH2 0xC5 PUSH2 0x9E DUP5 PUSH1 0x24 DUP6 ADD PUSH2 0xFC JUMP JUMPDEST PUSH1 0x40 MLOAD PUSH20 0xFFFFFFFFFFFFFFFFFFFFFFFFFFFFFFFFFFFFFFFF SWAP1 SWAP2 AND DUP2 MSTORE SWAP1 DUP2 SWAP1 PUSH1 0x20 DUP3 ADD SWAP1 JUMP JUMPDEST SUB SWAP1 RETURN JUMPDEST DUP1 REVERT JUMPDEST POP PUSH32 0x4E487B7100000000000000000000000000000000000000000000000000000000 PUSH1 0x0 MSTORE PUSH1 0x41 PUSH1 0x4 MSTORE PUSH1 0x24 PUSH1 0x0 REVERT JUMPDEST SWAP1 DUP1 PUSH1 0x14 GT PUSH2 0x1BB JUMPI PUSH8 0xFFFFFFFFFFFFFFFF SWAP2 PUSH32 0xFFFFFFFFFFFFFFFFFFFFFFFFFFFFFFFFFFFFFFFFFFFFFFFFFFFFFFFFFFFFFFEC DUP3 ADD DUP4 DUP2 GT PUSH2 0x1CD JUMPI JUMPDEST PUSH1 0x40 MLOAD SWAP4 PUSH32 0xFFFFFFFFFFFFFFFFFFFFFFFFFFFFFFFFFFFFFFFFFFFFFFFFFFFFFFFFFFFFFFE0 PUSH1 0x3F DUP2 PUSH1 0xB DUP8 ADD AND ADD AND DUP6 ADD SWAP1 DUP6 DUP3 LT SWAP1 DUP3 GT OR PUSH2 0x1C0 JUMPI JUMPDEST PUSH1 0x40 MSTORE DUP1 DUP5 MSTORE PUSH1 0x20 DUP5 ADD SWAP1 CALLDATASIZE DUP5 DUP5 ADD GT PUSH2 0x1BB JUMPI PUSH1 0x20 SWAP5 PUSH1 0x0 PUSH1 0xC DUP2 SWAP7 DUP3 SWAP5 PUSH1 0x14 DUP9 ADD DUP8 CALLDATACOPY DUP4 ADD ADD MSTORE MLOAD SWAP3 CALLDATALOAD PUSH1 0x60 SHR GAS CALL SWAP1 PUSH1 0x0 MLOAD SWAP2 ISZERO PUSH2 0x1B5 JUMPI JUMP JUMPDEST PUSH1 0x0 SWAP2 POP JUMP JUMPDEST PUSH1 0x0 DUP1 REVERT JUMPDEST PUSH2 0x1C8 PUSH2 0xCC JUMP JUMPDEST PUSH2 0x178 JUMP JUMPDEST PUSH2 0x1D5 PUSH2 0xCC JUMP JUMPDEST PUSH2 0x13A JUMP INVALID LOG2 PUSH5 0x6970667358 0x22 SLT KECCAK256 AND PUSH18 0xBCC582585DFF1B1E0EE349CF1DB8F55F87DA LOG2 SAR GT 0xB5 SWAP10 0x5F PUSH27 0xE0D942F4E864736F6C634300081100330000000000000000000000 "},"methodIdentifiers":{"SIG_VALIDATION_FAILED()":"8f41ec5a","_validateSenderAndPaymaster(bytes,address,bytes)":"957122ab","addStake(uint32)":"0396cb60","balanceOf(address)":"70a08231","depositTo(address)":"b760faf9","deposits(address)":"fc7e286d","getDepositInfo(address)":"5287ce12","getNonce(address,uint192)":"35567e1a","getSenderAddress(bytes)":"9b249f69","getUserOpHash((address,uint256,bytes,bytes,uint256,uint256,uint256,uint256,uint256,bytes,bytes))":"a6193531","handleAggregatedOps(((address,uint256,bytes,bytes,uint256,uint256,uint256,uint256,uint256,bytes,bytes)[],address,bytes)[],address)":"4b1d7cf5","handleOps((address,uint256,bytes,bytes,uint256,uint256,uint256,uint256,uint256,bytes,bytes)[],address)":"1fad948c","incrementNonce(uint192)":"0bd28e3b","innerHandleOp(bytes,((address,uint256,uint256,uint256,uint256,address,uint256,uint256),bytes32,uint256,uint256,uint256),bytes)":"1d732756","nonceSequenceNumber(address,uint192)":"1b2e01b8","simulateHandleOp((address,uint256,bytes,bytes,uint256,uint256,uint256,uint256,uint256,bytes,bytes),address,bytes)":"d6383f94","simulateValidation((address,uint256,bytes,bytes,uint256,uint256,uint256,uint256,uint256,bytes,bytes))":"ee219423","unlockStake()":"bb9fe6bf","withdrawStake(address)":"c23a5cea","withdrawTo(address,uint256)":"205c2878"}}}}}