{"contracts/samples/callback/TokenCallbackHandler.sol":{"TokenCallbackHandler":{"abi":[{"inputs":[{"internalType":"address","name":"","type":"address"},{"internalType":"address","name":"","type":"address"},{"internalType":"uint256[]","name":"","type":"uint256[]"},{"internalType":"uint256[]","name":"","type":"uint256[]"},{"internalType":"bytes","name":"","type":"bytes"}],"name":"onERC1155BatchReceived","outputs":[{"internalType":"bytes4","name":"","type":"bytes4"}],"stateMutability":"pure","type":"function"},{"inputs":[{"internalType":"address","name":"","type":"address"},{"internalType":"address","name":"","type":"address"},{"internalType":"uint256","name":"","type":"uint256"},{"internalType":"uint256","name":"","type":"uint256"},{"internalType":"bytes","name":"","type":"bytes"}],"name":"onERC1155Received","outputs":[{"internalType":"bytes4","name":"","type":"bytes4"}],"stateMutability":"pure","type":"function"},{"inputs":[{"internalType":"address","name":"","type":"address"},{"internalType":"address","name":"","type":"address"},{"internalType":"uint256","name":"","type":"uint256"},{"internalType":"bytes","name":"","type":"bytes"}],"name":"onERC721Received","outputs":[{"internalType":"bytes4","name":"","type":"bytes4"}],"stateMutability":"pure","type":"function"},{"inputs":[{"internalType":"bytes4","name":"interfaceId","type":"bytes4"}],"name":"supportsInterface","outputs":[{"internalType":"bool","name":"","type":"bool"}],"stateMutability":"view","type":"function"},{"inputs":[{"internalType":"address","name":"","type":"address"},{"internalType":"address","name":"","type":"address"},{"internalType":"address","name":"","type":"address"},{"internalType":"uint256","name":"","type":"uint256"},{"internalType":"bytes","name":"","type":"bytes"},{"internalType":"bytes","name":"","type":"bytes"}],"name":"tokensReceived","outputs":[],"stateMutability":"pure","type":"function"}],"evm":{"bytecode":{"linkReferences":{},"object":"60808060405234610016576104ab908161001c8239f35b600080fdfe60808060405260048036101561001457600080fd5b600091823560e01c90816223de291461032b57816301ffc9a71461023d57508063150b7a02146101b0578063bc197c81146100ec5763f23a6e611461005857600080fd5b346100e85760a07ffffffffffffffffffffffffffffffffffffffffffffffffffffffffffffffffc3601126100e85761008f6103cb565b506100986103f3565b5060843567ffffffffffffffff81116100e4576100b89250369101610416565b505060206040517ff23a6e61000000000000000000000000000000000000000000000000000000008152f35b8280fd5b5080fd5b50346100e85760a07ffffffffffffffffffffffffffffffffffffffffffffffffffffffffffffffffc3601126100e8576101246103cb565b5061012d6103f3565b5067ffffffffffffffff6044358181116101ac5761014e9036908401610444565b50506064358181116101ac576101679036908401610444565b50506084359081116100e4576101809250369101610416565b505060206040517fbc197c81000000000000000000000000000000000000000000000000000000008152f35b8380fd5b50346100e85760807ffffffffffffffffffffffffffffffffffffffffffffffffffffffffffffffffc3601126100e8576101e86103cb565b506101f16103f3565b5060643567ffffffffffffffff81116100e4576102119250369101610416565b505060206040517f150b7a02000000000000000000000000000000000000000000000000000000008152f35b919050346100e45760207ffffffffffffffffffffffffffffffffffffffffffffffffffffffffffffffffc3601126100e457357fffffffff0000000000000000000000000000000000000000000000000000000081168091036100e457602092507f150b7a02000000000000000000000000000000000000000000000000000000008114908115610301575b81156102d7575b5015158152f35b7f01ffc9a700000000000000000000000000000000000000000000000000000000915014386102d0565b7f4e2312e000000000000000000000000000000000000000000000000000000000811491506102c9565b5050346100e85760c07ffffffffffffffffffffffffffffffffffffffffffffffffffffffffffffffffc3601126100e8576103646103cb565b5061036d6103f3565b5060443573ffffffffffffffffffffffffffffffffffffffff8116036100e85767ffffffffffffffff906084358281116101ac576103ae9036908301610416565b505060a4359182116100e4576103c691369101610416565b505080f35b6004359073ffffffffffffffffffffffffffffffffffffffff821682036103ee57565b600080fd5b6024359073ffffffffffffffffffffffffffffffffffffffff821682036103ee57565b9181601f840112156103ee5782359167ffffffffffffffff83116103ee57602083818601950101116103ee57565b9181601f840112156103ee5782359167ffffffffffffffff83116103ee576020808501948460051b0101116103ee5756fea26469706673582212206303c8809e6837754ba18a84c6beda1d137397919379f1e2b50ad531e27ca0f764736f6c63430008110033","opcodes":"PUSH1 0x80 DUP1 PUSH1 0x40 MSTORE CALLVALUE PUSH2 0x16 JUMPI PUSH2 0x4AB SWAP1 DUP2 PUSH2 0x1C DUP3 CODECOPY RETURN JUMPDEST PUSH1 0x0 DUP1 REVERT INVALID PUSH1 0x80 DUP1 PUSH1 0x40 MSTORE PUSH1 0x4 DUP1 CALLDATASIZE LT ISZERO PUSH2 0x14 JUMPI PUSH1 0x0 DUP1 REVERT JUMPDEST PUSH1 0x0 SWAP2 DUP3 CALLDATALOAD PUSH1 0xE0 SHR SWAP1 DUP2 PUSH3 0x23DE29 EQ PUSH2 0x32B JUMPI DUP2 PUSH4 0x1FFC9A7 EQ PUSH2 0x23D JUMPI POP DUP1 PUSH4 0x150B7A02 EQ PUSH2 0x1B0 JUMPI DUP1 PUSH4 0xBC197C81 EQ PUSH2 0xEC JUMPI PUSH4 0xF23A6E61 EQ PUSH2 0x58 JUMPI PUSH1 0x0 DUP1 REVERT JUMPDEST CALLVALUE PUSH2 0xE8 JUMPI PUSH1 0xA0 PUSH32 0xFFFFFFFFFFFFFFFFFFFFFFFFFFFFFFFFFFFFFFFFFFFFFFFFFFFFFFFFFFFFFFFC CALLDATASIZE ADD SLT PUSH2 0xE8 JUMPI PUSH2 0x8F PUSH2 0x3CB JUMP JUMPDEST POP PUSH2 0x98 PUSH2 0x3F3 JUMP JUMPDEST POP PUSH1 0x84 CALLDATALOAD PUSH8 0xFFFFFFFFFFFFFFFF DUP2 GT PUSH2 0xE4 JUMPI PUSH2 0xB8 SWAP3 POP CALLDATASIZE SWAP2 ADD PUSH2 0x416 JUMP JUMPDEST POP POP PUSH1 0x20 PUSH1 0x40 MLOAD PUSH32 0xF23A6E6100000000000000000000000000000000000000000000000000000000 DUP2 MSTORE RETURN JUMPDEST DUP3 DUP1 REVERT JUMPDEST POP DUP1 REVERT JUMPDEST POP CALLVALUE PUSH2 0xE8 JUMPI PUSH1 0xA0 PUSH32 0xFFFFFFFFFFFFFFFFFFFFFFFFFFFFFFFFFFFFFFFFFFFFFFFFFFFFFFFFFFFFFFFC CALLDATASIZE ADD SLT PUSH2 0xE8 JUMPI PUSH2 0x124 PUSH2 0x3CB JUMP JUMPDEST POP PUSH2 0x12D PUSH2 0x3F3 JUMP JUMPDEST POP PUSH8 0xFFFFFFFFFFFFFFFF PUSH1 0x44 CALLDATALOAD DUP2 DUP2 GT PUSH2 0x1AC JUMPI PUSH2 0x14E SWAP1 CALLDATASIZE SWAP1 DUP5 ADD PUSH2 0x444 JUMP JUMPDEST POP POP PUSH1 0x64 CALLDATALOAD DUP2 DUP2 GT PUSH2 0x1AC JUMPI PUSH2 0x167 SWAP1 CALLDATASIZE SWAP1 DUP5 ADD PUSH2 0x444 JUMP JUMPDEST POP POP PUSH1 0x84 CALLDATALOAD SWAP1 DUP2 GT PUSH2 0xE4 JUMPI PUSH2 0x180 SWAP3 POP CALLDATASIZE SWAP2 ADD PUSH2 0x416 JUMP JUMPDEST POP POP PUSH1 0x20 PUSH1 0x40 MLOAD PUSH32 0xBC197C8100000000000000000000000000000000000000000000000000000000 DUP2 MSTORE RETURN JUMPDEST DUP4 DUP1 REVERT JUMPDEST POP CALLVALUE PUSH2 0xE8 JUMPI PUSH1 0x80 PUSH32 0xFFFFFFFFFFFFFFFFFFFFFFFFFFFFFFFFFFFFFFFFFFFFFFFFFFFFFFFFFFFFFFFC CALLDATASIZE ADD SLT PUSH2 0xE8 JUMPI PUSH2 0x1E8 PUSH2 0x3CB JUMP JUMPDEST POP PUSH2 0x1F1 PUSH2 0x3F3 JUMP JUMPDEST POP PUSH1 0x64 CALLDATALOAD PUSH8 0xFFFFFFFFFFFFFFFF DUP2 GT PUSH2 0xE4 JUMPI PUSH2 0x211 SWAP3 POP CALLDATASIZE SWAP2 ADD PUSH2 0x416 JUMP JUMPDEST POP POP PUSH1 0x20 PUSH1 0x40 MLOAD PUSH32 0x150B7A0200000000000000000000000000000000000000000000000000000000 DUP2 MSTORE RETURN JUMPDEST SWAP2 SWAP1 POP CALLVALUE PUSH2 0xE4 JUMPI PUSH1 0x20 PUSH32 0xFFFFFFFFFFFFFFFFFFFFFFFFFFFFFFFFFFFFFFFFFFFFFFFFFFFFFFFFFFFFFFFC CALLDATASIZE ADD SLT PUSH2 0xE4 JUMPI CALLDATALOAD PUSH32 0xFFFFFFFF00000000000000000000000000000000000000000000000000000000 DUP2 AND DUP1 SWAP2 SUB PUSH2 0xE4 JUMPI PUSH1 0x20 SWAP3 POP PUSH32 0x150B7A0200000000000000000000000000000000000000000000000000000000 DUP2 EQ SWAP1 DUP2 ISZERO PUSH2 0x301 JUMPI JUMPDEST DUP2 ISZERO PUSH2 0x2D7 JUMPI JUMPDEST POP ISZERO ISZERO DUP2 MSTORE RETURN JUMPDEST PUSH32 0x1FFC9A700000000000000000000000000000000000000000000000000000000 SWAP2 POP EQ CODESIZE PUSH2 0x2D0 JUMP JUMPDEST PUSH32 0x4E2312E000000000000000000000000000000000000000000000000000000000 DUP2 EQ SWAP2 POP PUSH2 0x2C9 JUMP JUMPDEST POP POP CALLVALUE PUSH2 0xE8 JUMPI PUSH1 0xC0 PUSH32 0xFFFFFFFFFFFFFFFFFFFFFFFFFFFFFFFFFFFFFFFFFFFFFFFFFFFFFFFFFFFFFFFC CALLDATASIZE ADD SLT PUSH2 0xE8 JUMPI PUSH2 0x364 PUSH2 0x3CB JUMP JUMPDEST POP PUSH2 0x36D PUSH2 0x3F3 JUMP JUMPDEST POP PUSH1 0x44 CALLDATALOAD PUSH20 0xFFFFFFFFFFFFFFFFFFFFFFFFFFFFFFFFFFFFFFFF DUP2 AND SUB PUSH2 0xE8 JUMPI PUSH8 0xFFFFFFFFFFFFFFFF SWAP1 PUSH1 0x84 CALLDATALOAD DUP3 DUP2 GT PUSH2 0x1AC JUMPI PUSH2 0x3AE SWAP1 CALLDATASIZE SWAP1 DUP4 ADD PUSH2 0x416 JUMP JUMPDEST POP POP PUSH1 0xA4 CALLDATALOAD SWAP2 DUP3 GT PUSH2 0xE4 JUMPI PUSH2 0x3C6 SWAP2 CALLDATASIZE SWAP2 ADD PUSH2 0x416 JUMP JUMPDEST POP POP DUP1 RETURN JUMPDEST PUSH1 0x4 CALLDATALOAD SWAP1 PUSH20 0xFFFFFFFFFFFFFFFFFFFFFFFFFFFFFFFFFFFFFFFF DUP3 AND DUP3 SUB PUSH2 0x3EE JUMPI JUMP JUMPDEST PUSH1 0x0 DUP1 REVERT JUMPDEST PUSH1 0x24 CALLDATALOAD SWAP1 PUSH20 0xFFFFFFFFFFFFFFFFFFFFFFFFFFFFFFFFFFFFFFFF DUP3 AND DUP3 SUB PUSH2 0x3EE JUMPI JUMP JUMPDEST SWAP2 DUP2 PUSH1 0x1F DUP5 ADD SLT ISZERO PUSH2 0x3EE JUMPI DUP3 CALLDATALOAD SWAP2 PUSH8 0xFFFFFFFFFFFFFFFF DUP4 GT PUSH2 0x3EE JUMPI PUSH1 0x20 DUP4 DUP2 DUP7 ADD SWAP6 ADD ADD GT PUSH2 0x3EE JUMPI JUMP JUMPDEST SWAP2 DUP2 PUSH1 0x1F DUP5 ADD SLT ISZERO PUSH2 0x3EE JUMPI DUP3 CALLDATALOAD SWAP2 PUSH8 0xFFFFFFFFFFFFFFFF DUP4 GT PUSH2 0x3EE JUMPI PUSH1 0x20 DUP1 DUP6 ADD SWAP5 DUP5 PUSH1 0x5 SHL ADD ADD GT PUSH2 0x3EE JUMPI JUMP INVALID LOG2 PUSH5 0x6970667358 0x22 SLT KECCAK256 PUSH4 0x3C8809E PUSH9 0x37754BA18A84C6BEDA SAR SGT PUSH20 0x97919379F1E2B50AD531E27CA0F764736F6C6343 STOP ADDMOD GT STOP CALLER "},"methodIdentifiers":{"onERC1155BatchReceived(address,address,uint256[],uint256[],bytes)":"bc197c81","onERC1155Received(address,address,uint256,uint256,bytes)":"f23a6e61","onERC721Received(address,address,uint256,bytes)":"150b7a02","supportsInterface(bytes4)":"01ffc9a7","tokensReceived(address,address,address,uint256,bytes,bytes)":"0023de29"}}}}}