{"contracts/samples/SimpleAccount.sol":{"SimpleAccount":{"abi":[{"inputs":[{"internalType":"contract IEntryPoint","name":"anEntryPoint","type":"address"}],"stateMutability":"nonpayable","type":"constructor"},{"anonymous":false,"inputs":[{"indexed":false,"internalType":"address","name":"previousAdmin","type":"address"},{"indexed":false,"internalType":"address","name":"newAdmin","type":"address"}],"name":"AdminChanged","type":"event"},{"anonymous":false,"inputs":[{"indexed":true,"internalType":"address","name":"beacon","type":"address"}],"name":"BeaconUpgraded","type":"event"},{"anonymous":false,"inputs":[{"indexed":false,"internalType":"uint8","name":"version","type":"uint8"}],"name":"Initialized","type":"event"},{"anonymous":false,"inputs":[{"indexed":true,"internalType":"contract IEntryPoint","name":"entryPoint","type":"address"},{"indexed":true,"internalType":"address","name":"owner","type":"address"}],"name":"SimpleAccountInitialized","type":"event"},{"anonymous":false,"inputs":[{"indexed":true,"internalType":"address","name":"implementation","type":"address"}],"name":"Upgraded","type":"event"},{"inputs":[],"name":"addDeposit","outputs":[],"stateMutability":"payable","type":"function"},{"inputs":[],"name":"entryPoint","outputs":[{"internalType":"contract IEntryPoint","name":"","type":"address"}],"stateMutability":"view","type":"function"},{"inputs":[{"internalType":"address","name":"dest","type":"address"},{"internalType":"uint256","name":"value","type":"uint256"},{"internalType":"bytes","name":"func","type":"bytes"}],"name":"execute","outputs":[],"stateMutability":"nonpayable","type":"function"},{"inputs":[{"internalType":"address[]","name":"dest","type":"address[]"},{"internalType":"uint256[]","name":"value","type":"uint256[]"},{"internalType":"bytes[]","name":"func","type":"bytes[]"}],"name":"executeBatch","outputs":[],"stateMutability":"nonpayable","type":"function"},{"inputs":[],"name":"getDeposit","outputs":[{"internalType":"uint256","name":"","type":"uint256"}],"stateMutability":"view","type":"function"},{"inputs":[],"name":"getNonce","outputs":[{"internalType":"uint256","name":"","type":"uint256"}],"stateMutability":"view","type":"function"},{"inputs":[{"internalType":"address","name":"anOwner","type":"address"}],"name":"initialize","outputs":[],"stateMutability":"nonpayable","type":"function"},{"inputs":[{"internalType":"address","name":"","type":"address"},{"internalType":"address","name":"","type":"address"},{"internalType":"uint256[]","name":"","type":"uint256[]"},{"internalType":"uint256[]","name":"","type":"uint256[]"},{"internalType":"bytes","name":"","type":"bytes"}],"name":"onERC1155BatchReceived","outputs":[{"internalType":"bytes4","name":"","type":"bytes4"}],"stateMutability":"pure","type":"function"},{"inputs":[{"internalType":"address","name":"","type":"address"},{"internalType":"address","name":"","type":"address"},{"internalType":"uint256","name":"","type":"uint256"},{"internalType":"uint256","name":"","type":"uint256"},{"internalType":"bytes","name":"","type":"bytes"}],"name":"onERC1155Received","outputs":[{"internalType":"bytes4","name":"","type":"bytes4"}],"stateMutability":"pure","type":"function"},{"inputs":[{"internalType":"address","name":"","type":"address"},{"internalType":"address","name":"","type":"address"},{"internalType":"uint256","name":"","type":"uint256"},{"internalType":"bytes","name":"","type":"bytes"}],"name":"onERC721Received","outputs":[{"internalType":"bytes4","name":"","type":"bytes4"}],"stateMutability":"pure","type":"function"},{"inputs":[],"name":"owner","outputs":[{"internalType":"address","name":"","type":"address"}],"stateMutability":"view","type":"function"},{"inputs":[],"name":"proxiableUUID","outputs":[{"internalType":"bytes32","name":"","type":"bytes32"}],"stateMutability":"view","type":"function"},{"inputs":[{"internalType":"bytes4","name":"interfaceId","type":"bytes4"}],"name":"supportsInterface","outputs":[{"internalType":"bool","name":"","type":"bool"}],"stateMutability":"view","type":"function"},{"inputs":[{"internalType":"address","name":"","type":"address"},{"internalType":"address","name":"","type":"address"},{"internalType":"address","name":"","type":"address"},{"internalType":"uint256","name":"","type":"uint256"},{"internalType":"bytes","name":"","type":"bytes"},{"internalType":"bytes","name":"","type":"bytes"}],"name":"tokensReceived","outputs":[],"stateMutability":"pure","type":"function"},{"inputs":[{"internalType":"address","name":"newImplementation","type":"address"}],"name":"upgradeTo","outputs":[],"stateMutability":"nonpayable","type":"function"},{"inputs":[{"internalType":"address","name":"newImplementation","type":"address"},{"internalType":"bytes","name":"data","type":"bytes"}],"name":"upgradeToAndCall","outputs":[],"stateMutability":"payable","type":"function"},{"inputs":[{"components":[{"internalType":"address","name":"sender","type":"address"},{"internalType":"uint256","name":"nonce","type":"uint256"},{"internalType":"bytes","name":"initCode","type":"bytes"},{"internalType":"bytes","name":"callData","type":"bytes"},{"internalType":"uint256","name":"callGasLimit","type":"uint256"},{"internalType":"uint256","name":"verificationGasLimit","type":"uint256"},{"internalType":"uint256","name":"preVerificationGas","type":"uint256"},{"internalType":"uint256","name":"maxFeePerGas","type":"uint256"},{"internalType":"uint256","name":"maxPriorityFeePerGas","type":"uint256"},{"internalType":"bytes","name":"paymasterAndData","type":"bytes"},{"internalType":"bytes","name":"signature","type":"bytes"}],"internalType":"struct UserOperation","name":"userOp","type":"tuple"},{"internalType":"bytes32","name":"userOpHash","type":"bytes32"},{"internalType":"uint256","name":"missingAccountFunds","type":"uint256"}],"name":"validateUserOp","outputs":[{"internalType":"uint256","name":"validationData","type":"uint256"}],"stateMutability":"nonpayable","type":"function"},{"inputs":[{"internalType":"address payable","name":"withdrawAddress","type":"address"},{"internalType":"uint256","name":"amount","type":"uint256"}],"name":"withdrawDepositTo","outputs":[],"stateMutability":"nonpayable","type":"function"},{"stateMutability":"payable","type":"receive"}],"evm":{"bytecode":{"linkReferences":{},"object":"60c0346200016857601f6200233a38819003918201601f19168301916001600160401b038311848410176200016d578084926020946040528339810103126200016857516001600160a01b038116810362000168573060805260a05260005460ff8160081c16620001135760ff80821610620000d7575b6040516121b6908162000184823960805181818161044001528181610c410152610e1e015260a05181818161066201528181610913015281816109fc01528181610f9501528181611170015281816113bc01528181611c860152611ce50152f35b60ff90811916176000557f7f26b83ff96e1f2b6a682f133852f6798a09c465da95921460cefb3847402498602060405160ff8152a13862000076565b60405162461bcd60e51b815260206004820152602760248201527f496e697469616c697a61626c653a20636f6e747261637420697320696e697469604482015266616c697a696e6760c81b6064820152608490fd5b600080fd5b634e487b7160e01b600052604160045260246000fdfe6080604052600436101561001b575b361561001957600080fd5b005b60003560e01c806223de291461018257806301ffc9a714610179578063150b7a02146101705780633659cfe6146101675780633a871cdd1461015e57806347e1da2a146101555780634a58db191461014c5780634d44560d146101435780634f1ef2861461013a57806352d1902d146101315780638da5cb5b14610128578063b0d691fe1461011f578063b61d27f614610116578063bc197c811461010d578063c399ec8814610104578063c4d66de8146100fb578063d087d288146100f25763f23a6e610361000e576100ed611429565b61000e565b506100ed611339565b506100ed6111d5565b506100ed6110f6565b506100ed61102e565b506100ed610fb9565b506100ed610f49565b506100ed610ef3565b506100ed610dd7565b506100ed610bbf565b506100ed61099d565b506100ed6108d0565b506100ed61077f565b506100ed6105f7565b506100ed6103eb565b506100ed610359565b506100ed610268565b506100ed6101dc565b73ffffffffffffffffffffffffffffffffffffffff8116036101a957565b600080fd5b9181601f840112156101a95782359167ffffffffffffffff83116101a957602083818601950101116101a957565b50346101a95760c07ffffffffffffffffffffffffffffffffffffffffffffffffffffffffffffffffc3601126101a95761021760043561018b565b61022260243561018b565b61022d60443561018b565b67ffffffffffffffff6084358181116101a95761024e9036906004016101ae565b505060a4359081116101a9576100199036906004016101ae565b50346101a95760207ffffffffffffffffffffffffffffffffffffffffffffffffffffffffffffffffc3601126101a9576004357fffffffff0000000000000000000000000000000000000000000000000000000081168091036101a957807f150b7a02000000000000000000000000000000000000000000000000000000006020921490811561032f575b8115610305575b506040519015158152f35b7f01ffc9a700000000000000000000000000000000000000000000000000000000915014386102fa565b7f4e2312e000000000000000000000000000000000000000000000000000000000811491506102f3565b50346101a95760807ffffffffffffffffffffffffffffffffffffffffffffffffffffffffffffffffc3601126101a95761039460043561018b565b61039f60243561018b565b60643567ffffffffffffffff81116101a9576103bf9036906004016101ae565b505060206040517f150b7a02000000000000000000000000000000000000000000000000000000008152f35b50346101a95760207ffffffffffffffffffffffffffffffffffffffffffffffffffffffffffffffffc3601126101a9576004356104278161018b565b73ffffffffffffffffffffffffffffffffffffffff90817f0000000000000000000000000000000000000000000000000000000000000000169161046d833014156114bb565b61049c7f360894a13ba1a3210667c828492db98dca3e2076cc3735a920a3ca505d382bbc938285541614611546565b6104a46120ed565b604051906104b182610ac6565b600082527f4910fdfa16fed3260ed0e7147f7cc6da11a60208b5b9406d12a635614ffd91435460ff16156104eb5750506100199150611678565b6020600491604094939451928380927f52d1902d00000000000000000000000000000000000000000000000000000000825286165afa600091816105c7575b506105b4576040517f08c379a000000000000000000000000000000000000000000000000000000000815260206004820152602e60248201527f45524331393637557067726164653a206e657720696d706c656d656e7461746960448201527f6f6e206973206e6f7420555550530000000000000000000000000000000000006064820152608490fd5b610019936105c291146115ed565b611764565b6105e991925060203d81116105f0575b6105e18183610afe565b8101906115d1565b903861052a565b503d6105d7565b50346101a9577ffffffffffffffffffffffffffffffffffffffffffffffffffffffffffffffffc6060813601126101a9576004359067ffffffffffffffff82116101a9576101609082360301126101a95760443573ffffffffffffffffffffffffffffffffffffffff7f00000000000000000000000000000000000000000000000000000000000000001633036106f05761069b6106b39260243590600401611d86565b90806106b7575b506040519081529081906020820190565b0390f35b600080808093337ffffffffffffffffffffffffffffffffffffffffffffffffffffffffffffffffff1506106e96118a3565b50386106a2565b60646040517f08c379a000000000000000000000000000000000000000000000000000000000815260206004820152601c60248201527f6163636f756e743a206e6f742066726f6d20456e747279506f696e74000000006044820152fd5b9181601f840112156101a95782359167ffffffffffffffff83116101a9576020808501948460051b0101116101a957565b50346101a95760607ffffffffffffffffffffffffffffffffffffffffffffffffffffffffffffffffc3601126101a95767ffffffffffffffff6004358181116101a9576107d090369060040161074e565b6024929192358281116101a9576107eb90369060040161074e565b926044359081116101a95761080490369060040161074e565b93909161080f611ccd565b848414806108bf575b61082190611a02565b8161087357505060005b82811061083457005b8061086961084e61084961086e94878a611af3565b611b11565b61086361085c848988611b6c565b3691610b88565b906120ae565b611a67565b61082b565b91909460009493945b85811061088557005b8061086961089a6108496108ba948a87611af3565b6108a5838b89611af3565b356108b461085c858b8a611b6c565b916120d6565b61087c565b508115806108185750818514610818565b506000807ffffffffffffffffffffffffffffffffffffffffffffffffffffffffffffffffc36011261099a5773ffffffffffffffffffffffffffffffffffffffff7f00000000000000000000000000000000000000000000000000000000000000001681813b1561099a57602491604051928380927fb760faf900000000000000000000000000000000000000000000000000000000825230600483015234905af1801561098d575b610981575080f35b61098a90610aa5565b80f35b6109956115e0565b610979565b80fd5b50346101a957600060407ffffffffffffffffffffffffffffffffffffffffffffffffffffffffffffffffc36011261099a576004356109db8161018b565b6109e36120ed565b8173ffffffffffffffffffffffffffffffffffffffff807f00000000000000000000000000000000000000000000000000000000000000001692833b15610a71576044908360405195869485937f205c287800000000000000000000000000000000000000000000000000000000855216600484015260243560248401525af1801561098d57610981575080f35b8280fd5b507f4e487b7100000000000000000000000000000000000000000000000000000000600052604160045260246000fd5b67ffffffffffffffff8111610ab957604052565b610ac1610a75565b604052565b6020810190811067ffffffffffffffff821117610ab957604052565b6060810190811067ffffffffffffffff821117610ab957604052565b90601f7fffffffffffffffffffffffffffffffffffffffffffffffffffffffffffffffe0910116810190811067ffffffffffffffff821117610ab957604052565b7fffffffffffffffffffffffffffffffffffffffffffffffffffffffffffffffe0601f60209267ffffffffffffffff8111610b7b575b01160190565b610b83610a75565b610b75565b929192610b9482610b3f565b91610ba26040519384610afe565b8294818452818301116101a9578281602093846000960137010152565b5060407ffffffffffffffffffffffffffffffffffffffffffffffffffffffffffffffffc3601126101a957600435610bf68161018b565b60243567ffffffffffffffff81116101a957366023820112156101a957610c27903690602481600401359101610b88565b9073ffffffffffffffffffffffffffffffffffffffff91827f00000000000000000000000000000000000000000000000000000000000000001692610c6e843014156114bb565b610c9d7f360894a13ba1a3210667c828492db98dca3e2076cc3735a920a3ca505d382bbc948286541614611546565b610ca56120ed565b7f4910fdfa16fed3260ed0e7147f7cc6da11a60208b5b9406d12a635614ffd91435460ff1615610cdb5750506100199150611678565b6020600491604094939451928380927f52d1902d00000000000000000000000000000000000000000000000000000000825286165afa60009181610db7575b50610da4576040517f08c379a000000000000000000000000000000000000000000000000000000000815260206004820152602e60248201527f45524331393637557067726164653a206e657720696d706c656d656e7461746960448201527f6f6e206973206e6f7420555550530000000000000000000000000000000000006064820152608490fd5b61001993610db291146115ed565b611843565b610dd091925060203d81116105f0576105e18183610afe565b9038610d1a565b50346101a95760007ffffffffffffffffffffffffffffffffffffffffffffffffffffffffffffffffc3601126101a95773ffffffffffffffffffffffffffffffffffffffff7f0000000000000000000000000000000000000000000000000000000000000000163003610e6f576040517f360894a13ba1a3210667c828492db98dca3e2076cc3735a920a3ca505d382bbc8152602090f35b60846040517f08c379a000000000000000000000000000000000000000000000000000000000815260206004820152603860248201527f555550535570677261646561626c653a206d757374206e6f742062652063616c60448201527f6c6564207468726f7567682064656c656761746563616c6c00000000000000006064820152fd5b50346101a95760007ffffffffffffffffffffffffffffffffffffffffffffffffffffffffffffffffc3601126101a957602073ffffffffffffffffffffffffffffffffffffffff60005460101c16604051908152f35b50346101a95760007ffffffffffffffffffffffffffffffffffffffffffffffffffffffffffffffffc3601126101a957602060405173ffffffffffffffffffffffffffffffffffffffff7f0000000000000000000000000000000000000000000000000000000000000000168152f35b50346101a95760607ffffffffffffffffffffffffffffffffffffffffffffffffffffffffffffffffc3601126101a957600435610ff58161018b565b6044359067ffffffffffffffff82116101a95761102461101c6100199336906004016101ae565b61085c611ccd565b90602435906120d6565b50346101a95760a07ffffffffffffffffffffffffffffffffffffffffffffffffffffffffffffffffc3601126101a95761106960043561018b565b61107460243561018b565b67ffffffffffffffff6044358181116101a95761109590369060040161074e565b50506064358181116101a9576110af90369060040161074e565b50506084359081116101a9576110c99036906004016101ae565b50506040517fbc197c81000000000000000000000000000000000000000000000000000000008152602090f35b50346101a95760007ffffffffffffffffffffffffffffffffffffffffffffffffffffffffffffffffc3601126101a95760206040517f70a08231000000000000000000000000000000000000000000000000000000008152306004820152818160248173ffffffffffffffffffffffffffffffffffffffff7f0000000000000000000000000000000000000000000000000000000000000000165afa9081156111c8575b6000916111ab575b50604051908152f35b6111c29150823d81116105f0576105e18183610afe565b386111a2565b6111d06115e0565b61119a565b50346101a95760207ffffffffffffffffffffffffffffffffffffffffffffffffffffffffffffffffc3601126101a9576004356112118161018b565b6112736000549161123960ff8460081c16158094819561132b575b811561130b575b50611b96565b8261126a60017fffffffffffffffffffffffffffffffffffffffffffffffffffffffffffffff006000541617600055565b6112d557611c21565b61127957005b6112a67fffffffffffffffffffffffffffffffffffffffffffffffffffffffffffff00ff60005416600055565b604051600181527f7f26b83ff96e1f2b6a682f133852f6798a09c465da95921460cefb384740249890602090a1005b6113066101007fffffffffffffffffffffffffffffffffffffffffffffffffffffffffffff00ff6000541617600055565b611c21565b303b1591508161131d575b5038611233565b6001915060ff161438611316565b600160ff821610915061122c565b50346101a95760007ffffffffffffffffffffffffffffffffffffffffffffffffffffffffffffffffc3601126101a9576106b36040517f35567e1a0000000000000000000000000000000000000000000000000000000081523060048201526000602482015260208160448173ffffffffffffffffffffffffffffffffffffffff7f0000000000000000000000000000000000000000000000000000000000000000165afa90811561141c575b6000916113fe57506040519081529081906020820190565b611416915060203d81116105f0576105e18183610afe565b386106a2565b6114246115e0565b6113e6565b50346101a95760a07ffffffffffffffffffffffffffffffffffffffffffffffffffffffffffffffffc3601126101a95761146460043561018b565b61146f60243561018b565b60843567ffffffffffffffff81116101a95761148f9036906004016101ae565b505060206040517ff23a6e61000000000000000000000000000000000000000000000000000000008152f35b156114c257565b60846040517f08c379a000000000000000000000000000000000000000000000000000000000815260206004820152602c60248201527f46756e6374696f6e206d7573742062652063616c6c6564207468726f7567682060448201527f64656c656761746563616c6c00000000000000000000000000000000000000006064820152fd5b1561154d57565b60846040517f08c379a000000000000000000000000000000000000000000000000000000000815260206004820152602c60248201527f46756e6374696f6e206d7573742062652063616c6c6564207468726f7567682060448201527f6163746976652070726f787900000000000000000000000000000000000000006064820152fd5b908160209103126101a9575190565b506040513d6000823e3d90fd5b156115f457565b60846040517f08c379a000000000000000000000000000000000000000000000000000000000815260206004820152602960248201527f45524331393637557067726164653a20756e737570706f727465642070726f7860448201527f6961626c655555494400000000000000000000000000000000000000000000006064820152fd5b803b156116e05773ffffffffffffffffffffffffffffffffffffffff7f360894a13ba1a3210667c828492db98dca3e2076cc3735a920a3ca505d382bbc91167fffffffffffffffffffffffff0000000000000000000000000000000000000000825416179055565b60846040517f08c379a000000000000000000000000000000000000000000000000000000000815260206004820152602d60248201527f455243313936373a206e657720696d706c656d656e746174696f6e206973206e60448201527f6f74206120636f6e7472616374000000000000000000000000000000000000006064820152fd5b9061176e82611678565b73ffffffffffffffffffffffffffffffffffffffff82167fbc7cd75a20ee27fd9adebab32041f755214dbc6bffa90cc0225b39da2e5c2d3b600080a280511580159061183b575b6117bd575050565b61183891600080604051936117d185610ae2565b602785527f416464726573733a206c6f772d6c6576656c2064656c65676174652063616c6c60208601527f206661696c6564000000000000000000000000000000000000000000000000006040860152602081519101845af46118326118a3565b91611938565b50565b5060006117b5565b9061184d82611678565b73ffffffffffffffffffffffffffffffffffffffff82167fbc7cd75a20ee27fd9adebab32041f755214dbc6bffa90cc0225b39da2e5c2d3b600080a280511580159061189b576117bd575050565b5060016117b5565b3d156118ce573d906118b482610b3f565b916118c26040519384610afe565b82523d6000602084013e565b606090565b156118da57565b60646040517f08c379a000000000000000000000000000000000000000000000000000000000815260206004820152601d60248201527f416464726573733a2063616c6c20746f206e6f6e2d636f6e74726163740000006044820152fd5b9192901561195b575081511561194c575090565b611958903b15156118d3565b90565b82519091501561196e5750805190602001fd5b604051907f08c379a000000000000000000000000000000000000000000000000000000000825281602080600483015282519283602484015260005b8481106119eb575050507fffffffffffffffffffffffffffffffffffffffffffffffffffffffffffffffe0601f836000604480968601015201168101030190fd5b8181018301518682016044015285935082016119aa565b15611a0957565b60646040517f08c379a000000000000000000000000000000000000000000000000000000000815260206004820152601360248201527f77726f6e67206172726179206c656e67746873000000000000000000000000006044820152fd5b7fffffffffffffffffffffffffffffffffffffffffffffffffffffffffffffffff8114611a945760010190565b7f4e487b7100000000000000000000000000000000000000000000000000000000600052601160045260246000fd5b507f4e487b7100000000000000000000000000000000000000000000000000000000600052603260045260246000fd5b9190811015611b04575b60051b0190565b611b0c611ac3565b611afd565b356119588161018b565b9035907fffffffffffffffffffffffffffffffffffffffffffffffffffffffffffffffe1813603018212156101a9570180359067ffffffffffffffff82116101a9576020019181360383136101a957565b9091611b8592811015611b89575b60051b810190611b1b565b9091565b611b91611ac3565b611b7a565b15611b9d57565b60846040517f08c379a000000000000000000000000000000000000000000000000000000000815260206004820152602e60248201527f496e697469616c697a61626c653a20636f6e747261637420697320616c72656160448201527f647920696e697469616c697a65640000000000000000000000000000000000006064820152fd5b7fffffffffffffffffffff0000000000000000000000000000000000000000ffff75ffffffffffffffffffffffffffffffffffffffff00006000549260101b169116178060005573ffffffffffffffffffffffffffffffffffffffff809160101c16907f0000000000000000000000000000000000000000000000000000000000000000167f47e55c76e7a6f1fd8996a1da8008c1ea29699cca35e7bcd057f2dec313b6e5de600080a3565b73ffffffffffffffffffffffffffffffffffffffff807f0000000000000000000000000000000000000000000000000000000000000000163314908115611d75575b5015611d1757565b60646040517f08c379a000000000000000000000000000000000000000000000000000000000815260206004820152602060248201527f6163636f756e743a206e6f74204f776e6572206f7220456e747279506f696e746044820152fd5b905060005460101c16331438611d0f565b9060405160208101917f19457468657265756d205369676e6564204d6573736167653a0a3332000000008352603c820152603c8152611dc481610ae2565b519020611e0b611e0373ffffffffffffffffffffffffffffffffffffffff92611dfd61085c8560005460101c1696610140810190611b1b565b90611fdd565b919091611e54565b1603611e1657600090565b600190565b60051115611e2557565b7f4e487b7100000000000000000000000000000000000000000000000000000000600052602160045260246000fd5b611e5d81611e1b565b80611e655750565b611e6e81611e1b565b60018103611ed5576040517f08c379a000000000000000000000000000000000000000000000000000000000815260206004820152601860248201527f45434453413a20696e76616c6964207369676e617475726500000000000000006044820152606490fd5b611ede81611e1b565b60028103611f45576040517f08c379a000000000000000000000000000000000000000000000000000000000815260206004820152601f60248201527f45434453413a20696e76616c6964207369676e6174757265206c656e677468006044820152606490fd5b80611f51600392611e1b565b14611f5857565b6040517f08c379a000000000000000000000000000000000000000000000000000000000815260206004820152602260248201527f45434453413a20696e76616c6964207369676e6174757265202773272076616c60448201527f75650000000000000000000000000000000000000000000000000000000000006064820152608490fd5b90604181511460001461200757611b85916020820151906060604084015193015160001a90612011565b5050600090600290565b9291907f7fffffffffffffffffffffffffffffff5d576e7357a4501ddfe92f46681b20a083116120a25791608094939160ff602094604051948552168484015260408301526060820152600093849182805260015afa15612095575b815173ffffffffffffffffffffffffffffffffffffffff81161561208f579190565b50600190565b61209d6115e0565b61206d565b50505050600090600390565b600091829182602083519301915af16120c56118a3565b90156120ce5750565b602081519101fd5b916000928392602083519301915af16120c56118a3565b73ffffffffffffffffffffffffffffffffffffffff60005460101c1633148015612177575b1561211957565b60646040517f08c379a000000000000000000000000000000000000000000000000000000000815260206004820152600a60248201527f6f6e6c79206f776e6572000000000000000000000000000000000000000000006044820152fd5b5030331461211256fea2646970667358221220ad9dd0eccae76833fd4c76cc519894232477dd3c483e945a4c5066a29ca025b364736f6c63430008110033","opcodes":"PUSH1 0xC0 CALLVALUE PUSH3 0x168 JUMPI PUSH1 0x1F PUSH3 0x233A CODESIZE DUP2 SWAP1 SUB SWAP2 DUP3 ADD PUSH1 0x1F NOT AND DUP4 ADD SWAP2 PUSH1 0x1 PUSH1 0x1 PUSH1 0x40 SHL SUB DUP4 GT DUP5 DUP5 LT OR PUSH3 0x16D JUMPI DUP1 DUP5 SWAP3 PUSH1 0x20 SWAP5 PUSH1 0x40 MSTORE DUP4 CODECOPY DUP2 ADD SUB SLT PUSH3 0x168 JUMPI MLOAD PUSH1 0x1 PUSH1 0x1 PUSH1 0xA0 SHL SUB DUP2 AND DUP2 SUB PUSH3 0x168 JUMPI ADDRESS PUSH1 0x80 MSTORE PUSH1 0xA0 MSTORE PUSH1 0x0 SLOAD PUSH1 0xFF DUP2 PUSH1 0x8 SHR AND PUSH3 0x113 JUMPI PUSH1 0xFF DUP1 DUP3 AND LT PUSH3 0xD7 JUMPI JUMPDEST PUSH1 0x40 MLOAD PUSH2 0x21B6 SWAP1 DUP2 PUSH3 0x184 DUP3 CODECOPY PUSH1 0x80 MLOAD DUP2 DUP2 DUP2 PUSH2 0x440 ADD MSTORE DUP2 DUP2 PUSH2 0xC41 ADD MSTORE PUSH2 0xE1E ADD MSTORE PUSH1 0xA0 MLOAD DUP2 DUP2 DUP2 PUSH2 0x662 ADD MSTORE DUP2 DUP2 PUSH2 0x913 ADD MSTORE DUP2 DUP2 PUSH2 0x9FC ADD MSTORE DUP2 DUP2 PUSH2 0xF95 ADD MSTORE DUP2 DUP2 PUSH2 0x1170 ADD MSTORE DUP2 DUP2 PUSH2 0x13BC ADD MSTORE DUP2 DUP2 PUSH2 0x1C86 ADD MSTORE PUSH2 0x1CE5 ADD MSTORE RETURN JUMPDEST PUSH1 0xFF SWAP1 DUP2 NOT AND OR PUSH1 0x0 SSTORE PUSH32 0x7F26B83FF96E1F2B6A682F133852F6798A09C465DA95921460CEFB3847402498 PUSH1 0x20 PUSH1 0x40 MLOAD PUSH1 0xFF DUP2 MSTORE LOG1 CODESIZE PUSH3 0x76 JUMP JUMPDEST PUSH1 0x40 MLOAD PUSH3 0x461BCD PUSH1 0xE5 SHL DUP2 MSTORE PUSH1 0x20 PUSH1 0x4 DUP3 ADD MSTORE PUSH1 0x27 PUSH1 0x24 DUP3 ADD MSTORE PUSH32 0x496E697469616C697A61626C653A20636F6E747261637420697320696E697469 PUSH1 0x44 DUP3 ADD MSTORE PUSH7 0x616C697A696E67 PUSH1 0xC8 SHL PUSH1 0x64 DUP3 ADD MSTORE PUSH1 0x84 SWAP1 REVERT JUMPDEST PUSH1 0x0 DUP1 REVERT JUMPDEST PUSH4 0x4E487B71 PUSH1 0xE0 SHL PUSH1 0x0 MSTORE PUSH1 0x41 PUSH1 0x4 MSTORE PUSH1 0x24 PUSH1 0x0 REVERT INVALID PUSH1 0x80 PUSH1 0x40 MSTORE PUSH1 0x4 CALLDATASIZE LT ISZERO PUSH2 0x1B JUMPI JUMPDEST CALLDATASIZE ISZERO PUSH2 0x19 JUMPI PUSH1 0x0 DUP1 REVERT JUMPDEST STOP JUMPDEST PUSH1 0x0 CALLDATALOAD PUSH1 0xE0 SHR DUP1 PUSH3 0x23DE29 EQ PUSH2 0x182 JUMPI DUP1 PUSH4 0x1FFC9A7 EQ PUSH2 0x179 JUMPI DUP1 PUSH4 0x150B7A02 EQ PUSH2 0x170 JUMPI DUP1 PUSH4 0x3659CFE6 EQ PUSH2 0x167 JUMPI DUP1 PUSH4 0x3A871CDD EQ PUSH2 0x15E JUMPI DUP1 PUSH4 0x47E1DA2A EQ PUSH2 0x155 JUMPI DUP1 PUSH4 0x4A58DB19 EQ PUSH2 0x14C JUMPI DUP1 PUSH4 0x4D44560D EQ PUSH2 0x143 JUMPI DUP1 PUSH4 0x4F1EF286 EQ PUSH2 0x13A JUMPI DUP1 PUSH4 0x52D1902D EQ PUSH2 0x131 JUMPI DUP1 PUSH4 0x8DA5CB5B EQ PUSH2 0x128 JUMPI DUP1 PUSH4 0xB0D691FE EQ PUSH2 0x11F JUMPI DUP1 PUSH4 0xB61D27F6 EQ PUSH2 0x116 JUMPI DUP1 PUSH4 0xBC197C81 EQ PUSH2 0x10D JUMPI DUP1 PUSH4 0xC399EC88 EQ PUSH2 0x104 JUMPI DUP1 PUSH4 0xC4D66DE8 EQ PUSH2 0xFB JUMPI DUP1 PUSH4 0xD087D288 EQ PUSH2 0xF2 JUMPI PUSH4 0xF23A6E61 SUB PUSH2 0xE JUMPI PUSH2 0xED PUSH2 0x1429 JUMP JUMPDEST PUSH2 0xE JUMP JUMPDEST POP PUSH2 0xED PUSH2 0x1339 JUMP JUMPDEST POP PUSH2 0xED PUSH2 0x11D5 JUMP JUMPDEST POP PUSH2 0xED PUSH2 0x10F6 JUMP JUMPDEST POP PUSH2 0xED PUSH2 0x102E JUMP JUMPDEST POP PUSH2 0xED PUSH2 0xFB9 JUMP JUMPDEST POP PUSH2 0xED PUSH2 0xF49 JUMP JUMPDEST POP PUSH2 0xED PUSH2 0xEF3 JUMP JUMPDEST POP PUSH2 0xED PUSH2 0xDD7 JUMP JUMPDEST POP PUSH2 0xED PUSH2 0xBBF JUMP JUMPDEST POP PUSH2 0xED PUSH2 0x99D JUMP JUMPDEST POP PUSH2 0xED PUSH2 0x8D0 JUMP JUMPDEST POP PUSH2 0xED PUSH2 0x77F JUMP JUMPDEST POP PUSH2 0xED PUSH2 0x5F7 JUMP JUMPDEST POP PUSH2 0xED PUSH2 0x3EB JUMP JUMPDEST POP PUSH2 0xED PUSH2 0x359 JUMP JUMPDEST POP PUSH2 0xED PUSH2 0x268 JUMP JUMPDEST POP PUSH2 0xED PUSH2 0x1DC JUMP JUMPDEST PUSH20 0xFFFFFFFFFFFFFFFFFFFFFFFFFFFFFFFFFFFFFFFF DUP2 AND SUB PUSH2 0x1A9 JUMPI JUMP JUMPDEST PUSH1 0x0 DUP1 REVERT JUMPDEST SWAP2 DUP2 PUSH1 0x1F DUP5 ADD SLT ISZERO PUSH2 0x1A9 JUMPI DUP3 CALLDATALOAD SWAP2 PUSH8 0xFFFFFFFFFFFFFFFF DUP4 GT PUSH2 0x1A9 JUMPI PUSH1 0x20 DUP4 DUP2 DUP7 ADD SWAP6 ADD ADD GT PUSH2 0x1A9 JUMPI JUMP JUMPDEST POP CALLVALUE PUSH2 0x1A9 JUMPI PUSH1 0xC0 PUSH32 0xFFFFFFFFFFFFFFFFFFFFFFFFFFFFFFFFFFFFFFFFFFFFFFFFFFFFFFFFFFFFFFFC CALLDATASIZE ADD SLT PUSH2 0x1A9 JUMPI PUSH2 0x217 PUSH1 0x4 CALLDATALOAD PUSH2 0x18B JUMP JUMPDEST PUSH2 0x222 PUSH1 0x24 CALLDATALOAD PUSH2 0x18B JUMP JUMPDEST PUSH2 0x22D PUSH1 0x44 CALLDATALOAD PUSH2 0x18B JUMP JUMPDEST PUSH8 0xFFFFFFFFFFFFFFFF PUSH1 0x84 CALLDATALOAD DUP2 DUP2 GT PUSH2 0x1A9 JUMPI PUSH2 0x24E SWAP1 CALLDATASIZE SWAP1 PUSH1 0x4 ADD PUSH2 0x1AE JUMP JUMPDEST POP POP PUSH1 0xA4 CALLDATALOAD SWAP1 DUP2 GT PUSH2 0x1A9 JUMPI PUSH2 0x19 SWAP1 CALLDATASIZE SWAP1 PUSH1 0x4 ADD PUSH2 0x1AE JUMP JUMPDEST POP CALLVALUE PUSH2 0x1A9 JUMPI PUSH1 0x20 PUSH32 0xFFFFFFFFFFFFFFFFFFFFFFFFFFFFFFFFFFFFFFFFFFFFFFFFFFFFFFFFFFFFFFFC CALLDATASIZE ADD SLT PUSH2 0x1A9 JUMPI PUSH1 0x4 CALLDATALOAD PUSH32 0xFFFFFFFF00000000000000000000000000000000000000000000000000000000 DUP2 AND DUP1 SWAP2 SUB PUSH2 0x1A9 JUMPI DUP1 PUSH32 0x150B7A0200000000000000000000000000000000000000000000000000000000 PUSH1 0x20 SWAP3 EQ SWAP1 DUP2 ISZERO PUSH2 0x32F JUMPI JUMPDEST DUP2 ISZERO PUSH2 0x305 JUMPI JUMPDEST POP PUSH1 0x40 MLOAD SWAP1 ISZERO ISZERO DUP2 MSTORE RETURN JUMPDEST PUSH32 0x1FFC9A700000000000000000000000000000000000000000000000000000000 SWAP2 POP EQ CODESIZE PUSH2 0x2FA JUMP JUMPDEST PUSH32 0x4E2312E000000000000000000000000000000000000000000000000000000000 DUP2 EQ SWAP2 POP PUSH2 0x2F3 JUMP JUMPDEST POP CALLVALUE PUSH2 0x1A9 JUMPI PUSH1 0x80 PUSH32 0xFFFFFFFFFFFFFFFFFFFFFFFFFFFFFFFFFFFFFFFFFFFFFFFFFFFFFFFFFFFFFFFC CALLDATASIZE ADD SLT PUSH2 0x1A9 JUMPI PUSH2 0x394 PUSH1 0x4 CALLDATALOAD PUSH2 0x18B JUMP JUMPDEST PUSH2 0x39F PUSH1 0x24 CALLDATALOAD PUSH2 0x18B JUMP JUMPDEST PUSH1 0x64 CALLDATALOAD PUSH8 0xFFFFFFFFFFFFFFFF DUP2 GT PUSH2 0x1A9 JUMPI PUSH2 0x3BF SWAP1 CALLDATASIZE SWAP1 PUSH1 0x4 ADD PUSH2 0x1AE JUMP JUMPDEST POP POP PUSH1 0x20 PUSH1 0x40 MLOAD PUSH32 0x150B7A0200000000000000000000000000000000000000000000000000000000 DUP2 MSTORE RETURN JUMPDEST POP CALLVALUE PUSH2 0x1A9 JUMPI PUSH1 0x20 PUSH32 0xFFFFFFFFFFFFFFFFFFFFFFFFFFFFFFFFFFFFFFFFFFFFFFFFFFFFFFFFFFFFFFFC CALLDATASIZE ADD SLT PUSH2 0x1A9 JUMPI PUSH1 0x4 CALLDATALOAD PUSH2 0x427 DUP2 PUSH2 0x18B JUMP JUMPDEST PUSH20 0xFFFFFFFFFFFFFFFFFFFFFFFFFFFFFFFFFFFFFFFF SWAP1 DUP2 PUSH32 0x0 AND SWAP2 PUSH2 0x46D DUP4 ADDRESS EQ ISZERO PUSH2 0x14BB JUMP JUMPDEST PUSH2 0x49C PUSH32 0x360894A13BA1A3210667C828492DB98DCA3E2076CC3735A920A3CA505D382BBC SWAP4 DUP3 DUP6 SLOAD AND EQ PUSH2 0x1546 JUMP JUMPDEST PUSH2 0x4A4 PUSH2 0x20ED JUMP JUMPDEST PUSH1 0x40 MLOAD SWAP1 PUSH2 0x4B1 DUP3 PUSH2 0xAC6 JUMP JUMPDEST PUSH1 0x0 DUP3 MSTORE PUSH32 0x4910FDFA16FED3260ED0E7147F7CC6DA11A60208B5B9406D12A635614FFD9143 SLOAD PUSH1 0xFF AND ISZERO PUSH2 0x4EB JUMPI POP POP PUSH2 0x19 SWAP2 POP PUSH2 0x1678 JUMP JUMPDEST PUSH1 0x20 PUSH1 0x4 SWAP2 PUSH1 0x40 SWAP5 SWAP4 SWAP5 MLOAD SWAP3 DUP4 DUP1 SWAP3 PUSH32 0x52D1902D00000000000000000000000000000000000000000000000000000000 DUP3 MSTORE DUP7 AND GAS STATICCALL PUSH1 0x0 SWAP2 DUP2 PUSH2 0x5C7 JUMPI JUMPDEST POP PUSH2 0x5B4 JUMPI PUSH1 0x40 MLOAD PUSH32 0x8C379A000000000000000000000000000000000000000000000000000000000 DUP2 MSTORE PUSH1 0x20 PUSH1 0x4 DUP3 ADD MSTORE PUSH1 0x2E PUSH1 0x24 DUP3 ADD MSTORE PUSH32 0x45524331393637557067726164653A206E657720696D706C656D656E74617469 PUSH1 0x44 DUP3 ADD MSTORE PUSH32 0x6F6E206973206E6F742055555053000000000000000000000000000000000000 PUSH1 0x64 DUP3 ADD MSTORE PUSH1 0x84 SWAP1 REVERT JUMPDEST PUSH2 0x19 SWAP4 PUSH2 0x5C2 SWAP2 EQ PUSH2 0x15ED JUMP JUMPDEST PUSH2 0x1764 JUMP JUMPDEST PUSH2 0x5E9 SWAP2 SWAP3 POP PUSH1 0x20 RETURNDATASIZE DUP2 GT PUSH2 0x5F0 JUMPI JUMPDEST PUSH2 0x5E1 DUP2 DUP4 PUSH2 0xAFE JUMP JUMPDEST DUP2 ADD SWAP1 PUSH2 0x15D1 JUMP JUMPDEST SWAP1 CODESIZE PUSH2 0x52A JUMP JUMPDEST POP RETURNDATASIZE PUSH2 0x5D7 JUMP JUMPDEST POP CALLVALUE PUSH2 0x1A9 JUMPI PUSH32 0xFFFFFFFFFFFFFFFFFFFFFFFFFFFFFFFFFFFFFFFFFFFFFFFFFFFFFFFFFFFFFFFC PUSH1 0x60 DUP2 CALLDATASIZE ADD SLT PUSH2 0x1A9 JUMPI PUSH1 0x4 CALLDATALOAD SWAP1 PUSH8 0xFFFFFFFFFFFFFFFF DUP3 GT PUSH2 0x1A9 JUMPI PUSH2 0x160 SWAP1 DUP3 CALLDATASIZE SUB ADD SLT PUSH2 0x1A9 JUMPI PUSH1 0x44 CALLDATALOAD PUSH20 0xFFFFFFFFFFFFFFFFFFFFFFFFFFFFFFFFFFFFFFFF PUSH32 0x0 AND CALLER SUB PUSH2 0x6F0 JUMPI PUSH2 0x69B PUSH2 0x6B3 SWAP3 PUSH1 0x24 CALLDATALOAD SWAP1 PUSH1 0x4 ADD PUSH2 0x1D86 JUMP JUMPDEST SWAP1 DUP1 PUSH2 0x6B7 JUMPI JUMPDEST POP PUSH1 0x40 MLOAD SWAP1 DUP2 MSTORE SWAP1 DUP2 SWAP1 PUSH1 0x20 DUP3 ADD SWAP1 JUMP JUMPDEST SUB SWAP1 RETURN JUMPDEST PUSH1 0x0 DUP1 DUP1 DUP1 SWAP4 CALLER PUSH32 0xFFFFFFFFFFFFFFFFFFFFFFFFFFFFFFFFFFFFFFFFFFFFFFFFFFFFFFFFFFFFFFFF CALL POP PUSH2 0x6E9 PUSH2 0x18A3 JUMP JUMPDEST POP CODESIZE PUSH2 0x6A2 JUMP JUMPDEST PUSH1 0x64 PUSH1 0x40 MLOAD PUSH32 0x8C379A000000000000000000000000000000000000000000000000000000000 DUP2 MSTORE PUSH1 0x20 PUSH1 0x4 DUP3 ADD MSTORE PUSH1 0x1C PUSH1 0x24 DUP3 ADD MSTORE PUSH32 0x6163636F756E743A206E6F742066726F6D20456E747279506F696E7400000000 PUSH1 0x44 DUP3 ADD MSTORE REVERT JUMPDEST SWAP2 DUP2 PUSH1 0x1F DUP5 ADD SLT ISZERO PUSH2 0x1A9 JUMPI DUP3 CALLDATALOAD SWAP2 PUSH8 0xFFFFFFFFFFFFFFFF DUP4 GT PUSH2 0x1A9 JUMPI PUSH1 0x20 DUP1 DUP6 ADD SWAP5 DUP5 PUSH1 0x5 SHL ADD ADD GT PUSH2 0x1A9 JUMPI JUMP JUMPDEST POP CALLVALUE PUSH2 0x1A9 JUMPI PUSH1 0x60 PUSH32 0xFFFFFFFFFFFFFFFFFFFFFFFFFFFFFFFFFFFFFFFFFFFFFFFFFFFFFFFFFFFFFFFC CALLDATASIZE ADD SLT PUSH2 0x1A9 JUMPI PUSH8 0xFFFFFFFFFFFFFFFF PUSH1 0x4 CALLDATALOAD DUP2 DUP2 GT PUSH2 0x1A9 JUMPI PUSH2 0x7D0 SWAP1 CALLDATASIZE SWAP1 PUSH1 0x4 ADD PUSH2 0x74E JUMP JUMPDEST PUSH1 0x24 SWAP3 SWAP2 SWAP3 CALLDATALOAD DUP3 DUP2 GT PUSH2 0x1A9 JUMPI PUSH2 0x7EB SWAP1 CALLDATASIZE SWAP1 PUSH1 0x4 ADD PUSH2 0x74E JUMP JUMPDEST SWAP3 PUSH1 0x44 CALLDATALOAD SWAP1 DUP2 GT PUSH2 0x1A9 JUMPI PUSH2 0x804 SWAP1 CALLDATASIZE SWAP1 PUSH1 0x4 ADD PUSH2 0x74E JUMP JUMPDEST SWAP4 SWAP1 SWAP2 PUSH2 0x80F PUSH2 0x1CCD JUMP JUMPDEST DUP5 DUP5 EQ DUP1 PUSH2 0x8BF JUMPI JUMPDEST PUSH2 0x821 SWAP1 PUSH2 0x1A02 JUMP JUMPDEST DUP2 PUSH2 0x873 JUMPI POP POP PUSH1 0x0 JUMPDEST DUP3 DUP2 LT PUSH2 0x834 JUMPI STOP JUMPDEST DUP1 PUSH2 0x869 PUSH2 0x84E PUSH2 0x849 PUSH2 0x86E SWAP5 DUP8 DUP11 PUSH2 0x1AF3 JUMP JUMPDEST PUSH2 0x1B11 JUMP JUMPDEST PUSH2 0x863 PUSH2 0x85C DUP5 DUP10 DUP9 PUSH2 0x1B6C JUMP JUMPDEST CALLDATASIZE SWAP2 PUSH2 0xB88 JUMP JUMPDEST SWAP1 PUSH2 0x20AE JUMP JUMPDEST PUSH2 0x1A67 JUMP JUMPDEST PUSH2 0x82B JUMP JUMPDEST SWAP2 SWAP1 SWAP5 PUSH1 0x0 SWAP5 SWAP4 SWAP5 JUMPDEST DUP6 DUP2 LT PUSH2 0x885 JUMPI STOP JUMPDEST DUP1 PUSH2 0x869 PUSH2 0x89A PUSH2 0x849 PUSH2 0x8BA SWAP5 DUP11 DUP8 PUSH2 0x1AF3 JUMP JUMPDEST PUSH2 0x8A5 DUP4 DUP12 DUP10 PUSH2 0x1AF3 JUMP JUMPDEST CALLDATALOAD PUSH2 0x8B4 PUSH2 0x85C DUP6 DUP12 DUP11 PUSH2 0x1B6C JUMP JUMPDEST SWAP2 PUSH2 0x20D6 JUMP JUMPDEST PUSH2 0x87C JUMP JUMPDEST POP DUP2 ISZERO DUP1 PUSH2 0x818 JUMPI POP DUP2 DUP6 EQ PUSH2 0x818 JUMP JUMPDEST POP PUSH1 0x0 DUP1 PUSH32 0xFFFFFFFFFFFFFFFFFFFFFFFFFFFFFFFFFFFFFFFFFFFFFFFFFFFFFFFFFFFFFFFC CALLDATASIZE ADD SLT PUSH2 0x99A JUMPI PUSH20 0xFFFFFFFFFFFFFFFFFFFFFFFFFFFFFFFFFFFFFFFF PUSH32 0x0 AND DUP2 DUP2 EXTCODESIZE ISZERO PUSH2 0x99A JUMPI PUSH1 0x24 SWAP2 PUSH1 0x40 MLOAD SWAP3 DUP4 DUP1 SWAP3 PUSH32 0xB760FAF900000000000000000000000000000000000000000000000000000000 DUP3 MSTORE ADDRESS PUSH1 0x4 DUP4 ADD MSTORE CALLVALUE SWAP1 GAS CALL DUP1 ISZERO PUSH2 0x98D JUMPI JUMPDEST PUSH2 0x981 JUMPI POP DUP1 RETURN JUMPDEST PUSH2 0x98A SWAP1 PUSH2 0xAA5 JUMP JUMPDEST DUP1 RETURN JUMPDEST PUSH2 0x995 PUSH2 0x15E0 JUMP JUMPDEST PUSH2 0x979 JUMP JUMPDEST DUP1 REVERT JUMPDEST POP CALLVALUE PUSH2 0x1A9 JUMPI PUSH1 0x0 PUSH1 0x40 PUSH32 0xFFFFFFFFFFFFFFFFFFFFFFFFFFFFFFFFFFFFFFFFFFFFFFFFFFFFFFFFFFFFFFFC CALLDATASIZE ADD SLT PUSH2 0x99A JUMPI PUSH1 0x4 CALLDATALOAD PUSH2 0x9DB DUP2 PUSH2 0x18B JUMP JUMPDEST PUSH2 0x9E3 PUSH2 0x20ED JUMP JUMPDEST DUP2 PUSH20 0xFFFFFFFFFFFFFFFFFFFFFFFFFFFFFFFFFFFFFFFF DUP1 PUSH32 0x0 AND SWAP3 DUP4 EXTCODESIZE ISZERO PUSH2 0xA71 JUMPI PUSH1 0x44 SWAP1 DUP4 PUSH1 0x40 MLOAD SWAP6 DUP7 SWAP5 DUP6 SWAP4 PUSH32 0x205C287800000000000000000000000000000000000000000000000000000000 DUP6 MSTORE AND PUSH1 0x4 DUP5 ADD MSTORE PUSH1 0x24 CALLDATALOAD PUSH1 0x24 DUP5 ADD MSTORE GAS CALL DUP1 ISZERO PUSH2 0x98D JUMPI PUSH2 0x981 JUMPI POP DUP1 RETURN JUMPDEST DUP3 DUP1 REVERT JUMPDEST POP PUSH32 0x4E487B7100000000000000000000000000000000000000000000000000000000 PUSH1 0x0 MSTORE PUSH1 0x41 PUSH1 0x4 MSTORE PUSH1 0x24 PUSH1 0x0 REVERT JUMPDEST PUSH8 0xFFFFFFFFFFFFFFFF DUP2 GT PUSH2 0xAB9 JUMPI PUSH1 0x40 MSTORE JUMP JUMPDEST PUSH2 0xAC1 PUSH2 0xA75 JUMP JUMPDEST PUSH1 0x40 MSTORE JUMP JUMPDEST PUSH1 0x20 DUP2 ADD SWAP1 DUP2 LT PUSH8 0xFFFFFFFFFFFFFFFF DUP3 GT OR PUSH2 0xAB9 JUMPI PUSH1 0x40 MSTORE JUMP JUMPDEST PUSH1 0x60 DUP2 ADD SWAP1 DUP2 LT PUSH8 0xFFFFFFFFFFFFFFFF DUP3 GT OR PUSH2 0xAB9 JUMPI PUSH1 0x40 MSTORE JUMP JUMPDEST SWAP1 PUSH1 0x1F PUSH32 0xFFFFFFFFFFFFFFFFFFFFFFFFFFFFFFFFFFFFFFFFFFFFFFFFFFFFFFFFFFFFFFE0 SWAP2 ADD AND DUP2 ADD SWAP1 DUP2 LT PUSH8 0xFFFFFFFFFFFFFFFF DUP3 GT OR PUSH2 0xAB9 JUMPI PUSH1 0x40 MSTORE JUMP JUMPDEST PUSH32 0xFFFFFFFFFFFFFFFFFFFFFFFFFFFFFFFFFFFFFFFFFFFFFFFFFFFFFFFFFFFFFFE0 PUSH1 0x1F PUSH1 0x20 SWAP3 PUSH8 0xFFFFFFFFFFFFFFFF DUP2 GT PUSH2 0xB7B JUMPI JUMPDEST ADD AND ADD SWAP1 JUMP JUMPDEST PUSH2 0xB83 PUSH2 0xA75 JUMP JUMPDEST PUSH2 0xB75 JUMP JUMPDEST SWAP3 SWAP2 SWAP3 PUSH2 0xB94 DUP3 PUSH2 0xB3F JUMP JUMPDEST SWAP2 PUSH2 0xBA2 PUSH1 0x40 MLOAD SWAP4 DUP5 PUSH2 0xAFE JUMP JUMPDEST DUP3 SWAP5 DUP2 DUP5 MSTORE DUP2 DUP4 ADD GT PUSH2 0x1A9 JUMPI DUP3 DUP2 PUSH1 0x20 SWAP4 DUP5 PUSH1 0x0 SWAP7 ADD CALLDATACOPY ADD ADD MSTORE JUMP JUMPDEST POP PUSH1 0x40 PUSH32 0xFFFFFFFFFFFFFFFFFFFFFFFFFFFFFFFFFFFFFFFFFFFFFFFFFFFFFFFFFFFFFFFC CALLDATASIZE ADD SLT PUSH2 0x1A9 JUMPI PUSH1 0x4 CALLDATALOAD PUSH2 0xBF6 DUP2 PUSH2 0x18B JUMP JUMPDEST PUSH1 0x24 CALLDATALOAD PUSH8 0xFFFFFFFFFFFFFFFF DUP2 GT PUSH2 0x1A9 JUMPI CALLDATASIZE PUSH1 0x23 DUP3 ADD SLT ISZERO PUSH2 0x1A9 JUMPI PUSH2 0xC27 SWAP1 CALLDATASIZE SWAP1 PUSH1 0x24 DUP2 PUSH1 0x4 ADD CALLDATALOAD SWAP2 ADD PUSH2 0xB88 JUMP JUMPDEST SWAP1 PUSH20 0xFFFFFFFFFFFFFFFFFFFFFFFFFFFFFFFFFFFFFFFF SWAP2 DUP3 PUSH32 0x0 AND SWAP3 PUSH2 0xC6E DUP5 ADDRESS EQ ISZERO PUSH2 0x14BB JUMP JUMPDEST PUSH2 0xC9D PUSH32 0x360894A13BA1A3210667C828492DB98DCA3E2076CC3735A920A3CA505D382BBC SWAP5 DUP3 DUP7 SLOAD AND EQ PUSH2 0x1546 JUMP JUMPDEST PUSH2 0xCA5 PUSH2 0x20ED JUMP JUMPDEST PUSH32 0x4910FDFA16FED3260ED0E7147F7CC6DA11A60208B5B9406D12A635614FFD9143 SLOAD PUSH1 0xFF AND ISZERO PUSH2 0xCDB JUMPI POP POP PUSH2 0x19 SWAP2 POP PUSH2 0x1678 JUMP JUMPDEST PUSH1 0x20 PUSH1 0x4 SWAP2 PUSH1 0x40 SWAP5 SWAP4 SWAP5 MLOAD SWAP3 DUP4 DUP1 SWAP3 PUSH32 0x52D1902D00000000000000000000000000000000000000000000000000000000 DUP3 MSTORE DUP7 AND GAS STATICCALL PUSH1 0x0 SWAP2 DUP2 PUSH2 0xDB7 JUMPI JUMPDEST POP PUSH2 0xDA4 JUMPI PUSH1 0x40 MLOAD PUSH32 0x8C379A000000000000000000000000000000000000000000000000000000000 DUP2 MSTORE PUSH1 0x20 PUSH1 0x4 DUP3 ADD MSTORE PUSH1 0x2E PUSH1 0x24 DUP3 ADD MSTORE PUSH32 0x45524331393637557067726164653A206E657720696D706C656D656E74617469 PUSH1 0x44 DUP3 ADD MSTORE PUSH32 0x6F6E206973206E6F742055555053000000000000000000000000000000000000 PUSH1 0x64 DUP3 ADD MSTORE PUSH1 0x84 SWAP1 REVERT JUMPDEST PUSH2 0x19 SWAP4 PUSH2 0xDB2 SWAP2 EQ PUSH2 0x15ED JUMP JUMPDEST PUSH2 0x1843 JUMP JUMPDEST PUSH2 0xDD0 SWAP2 SWAP3 POP PUSH1 0x20 RETURNDATASIZE DUP2 GT PUSH2 0x5F0 JUMPI PUSH2 0x5E1 DUP2 DUP4 PUSH2 0xAFE JUMP JUMPDEST SWAP1 CODESIZE PUSH2 0xD1A JUMP JUMPDEST POP CALLVALUE PUSH2 0x1A9 JUMPI PUSH1 0x0 PUSH32 0xFFFFFFFFFFFFFFFFFFFFFFFFFFFFFFFFFFFFFFFFFFFFFFFFFFFFFFFFFFFFFFFC CALLDATASIZE ADD SLT PUSH2 0x1A9 JUMPI PUSH20 0xFFFFFFFFFFFFFFFFFFFFFFFFFFFFFFFFFFFFFFFF PUSH32 0x0 AND ADDRESS SUB PUSH2 0xE6F JUMPI PUSH1 0x40 MLOAD PUSH32 0x360894A13BA1A3210667C828492DB98DCA3E2076CC3735A920A3CA505D382BBC DUP2 MSTORE PUSH1 0x20 SWAP1 RETURN JUMPDEST PUSH1 0x84 PUSH1 0x40 MLOAD PUSH32 0x8C379A000000000000000000000000000000000000000000000000000000000 DUP2 MSTORE PUSH1 0x20 PUSH1 0x4 DUP3 ADD MSTORE PUSH1 0x38 PUSH1 0x24 DUP3 ADD MSTORE PUSH32 0x555550535570677261646561626C653A206D757374206E6F742062652063616C PUSH1 0x44 DUP3 ADD MSTORE PUSH32 0x6C6564207468726F7567682064656C656761746563616C6C0000000000000000 PUSH1 0x64 DUP3 ADD MSTORE REVERT JUMPDEST POP CALLVALUE PUSH2 0x1A9 JUMPI PUSH1 0x0 PUSH32 0xFFFFFFFFFFFFFFFFFFFFFFFFFFFFFFFFFFFFFFFFFFFFFFFFFFFFFFFFFFFFFFFC CALLDATASIZE ADD SLT PUSH2 0x1A9 JUMPI PUSH1 0x20 PUSH20 0xFFFFFFFFFFFFFFFFFFFFFFFFFFFFFFFFFFFFFFFF PUSH1 0x0 SLOAD PUSH1 0x10 SHR AND PUSH1 0x40 MLOAD SWAP1 DUP2 MSTORE RETURN JUMPDEST POP CALLVALUE PUSH2 0x1A9 JUMPI PUSH1 0x0 PUSH32 0xFFFFFFFFFFFFFFFFFFFFFFFFFFFFFFFFFFFFFFFFFFFFFFFFFFFFFFFFFFFFFFFC CALLDATASIZE ADD SLT PUSH2 0x1A9 JUMPI PUSH1 0x20 PUSH1 0x40 MLOAD PUSH20 0xFFFFFFFFFFFFFFFFFFFFFFFFFFFFFFFFFFFFFFFF PUSH32 0x0 AND DUP2 MSTORE RETURN JUMPDEST POP CALLVALUE PUSH2 0x1A9 JUMPI PUSH1 0x60 PUSH32 0xFFFFFFFFFFFFFFFFFFFFFFFFFFFFFFFFFFFFFFFFFFFFFFFFFFFFFFFFFFFFFFFC CALLDATASIZE ADD SLT PUSH2 0x1A9 JUMPI PUSH1 0x4 CALLDATALOAD PUSH2 0xFF5 DUP2 PUSH2 0x18B JUMP JUMPDEST PUSH1 0x44 CALLDATALOAD SWAP1 PUSH8 0xFFFFFFFFFFFFFFFF DUP3 GT PUSH2 0x1A9 JUMPI PUSH2 0x1024 PUSH2 0x101C PUSH2 0x19 SWAP4 CALLDATASIZE SWAP1 PUSH1 0x4 ADD PUSH2 0x1AE JUMP JUMPDEST PUSH2 0x85C PUSH2 0x1CCD JUMP JUMPDEST SWAP1 PUSH1 0x24 CALLDATALOAD SWAP1 PUSH2 0x20D6 JUMP JUMPDEST POP CALLVALUE PUSH2 0x1A9 JUMPI PUSH1 0xA0 PUSH32 0xFFFFFFFFFFFFFFFFFFFFFFFFFFFFFFFFFFFFFFFFFFFFFFFFFFFFFFFFFFFFFFFC CALLDATASIZE ADD SLT PUSH2 0x1A9 JUMPI PUSH2 0x1069 PUSH1 0x4 CALLDATALOAD PUSH2 0x18B JUMP JUMPDEST PUSH2 0x1074 PUSH1 0x24 CALLDATALOAD PUSH2 0x18B JUMP JUMPDEST PUSH8 0xFFFFFFFFFFFFFFFF PUSH1 0x44 CALLDATALOAD DUP2 DUP2 GT PUSH2 0x1A9 JUMPI PUSH2 0x1095 SWAP1 CALLDATASIZE SWAP1 PUSH1 0x4 ADD PUSH2 0x74E JUMP JUMPDEST POP POP PUSH1 0x64 CALLDATALOAD DUP2 DUP2 GT PUSH2 0x1A9 JUMPI PUSH2 0x10AF SWAP1 CALLDATASIZE SWAP1 PUSH1 0x4 ADD PUSH2 0x74E JUMP JUMPDEST POP POP PUSH1 0x84 CALLDATALOAD SWAP1 DUP2 GT PUSH2 0x1A9 JUMPI PUSH2 0x10C9 SWAP1 CALLDATASIZE SWAP1 PUSH1 0x4 ADD PUSH2 0x1AE JUMP JUMPDEST POP POP PUSH1 0x40 MLOAD PUSH32 0xBC197C8100000000000000000000000000000000000000000000000000000000 DUP2 MSTORE PUSH1 0x20 SWAP1 RETURN JUMPDEST POP CALLVALUE PUSH2 0x1A9 JUMPI PUSH1 0x0 PUSH32 0xFFFFFFFFFFFFFFFFFFFFFFFFFFFFFFFFFFFFFFFFFFFFFFFFFFFFFFFFFFFFFFFC CALLDATASIZE ADD SLT PUSH2 0x1A9 JUMPI PUSH1 0x20 PUSH1 0x40 MLOAD PUSH32 0x70A0823100000000000000000000000000000000000000000000000000000000 DUP2 MSTORE ADDRESS PUSH1 0x4 DUP3 ADD MSTORE DUP2 DUP2 PUSH1 0x24 DUP2 PUSH20 0xFFFFFFFFFFFFFFFFFFFFFFFFFFFFFFFFFFFFFFFF PUSH32 0x0 AND GAS STATICCALL SWAP1 DUP2 ISZERO PUSH2 0x11C8 JUMPI JUMPDEST PUSH1 0x0 SWAP2 PUSH2 0x11AB JUMPI JUMPDEST POP PUSH1 0x40 MLOAD SWAP1 DUP2 MSTORE RETURN JUMPDEST PUSH2 0x11C2 SWAP2 POP DUP3 RETURNDATASIZE DUP2 GT PUSH2 0x5F0 JUMPI PUSH2 0x5E1 DUP2 DUP4 PUSH2 0xAFE JUMP JUMPDEST CODESIZE PUSH2 0x11A2 JUMP JUMPDEST PUSH2 0x11D0 PUSH2 0x15E0 JUMP JUMPDEST PUSH2 0x119A JUMP JUMPDEST POP CALLVALUE PUSH2 0x1A9 JUMPI PUSH1 0x20 PUSH32 0xFFFFFFFFFFFFFFFFFFFFFFFFFFFFFFFFFFFFFFFFFFFFFFFFFFFFFFFFFFFFFFFC CALLDATASIZE ADD SLT PUSH2 0x1A9 JUMPI PUSH1 0x4 CALLDATALOAD PUSH2 0x1211 DUP2 PUSH2 0x18B JUMP JUMPDEST PUSH2 0x1273 PUSH1 0x0 SLOAD SWAP2 PUSH2 0x1239 PUSH1 0xFF DUP5 PUSH1 0x8 SHR AND ISZERO DUP1 SWAP5 DUP2 SWAP6 PUSH2 0x132B JUMPI JUMPDEST DUP2 ISZERO PUSH2 0x130B JUMPI JUMPDEST POP PUSH2 0x1B96 JUMP JUMPDEST DUP3 PUSH2 0x126A PUSH1 0x1 PUSH32 0xFFFFFFFFFFFFFFFFFFFFFFFFFFFFFFFFFFFFFFFFFFFFFFFFFFFFFFFFFFFFFF00 PUSH1 0x0 SLOAD AND OR PUSH1 0x0 SSTORE JUMP JUMPDEST PUSH2 0x12D5 JUMPI PUSH2 0x1C21 JUMP JUMPDEST PUSH2 0x1279 JUMPI STOP JUMPDEST PUSH2 0x12A6 PUSH32 0xFFFFFFFFFFFFFFFFFFFFFFFFFFFFFFFFFFFFFFFFFFFFFFFFFFFFFFFFFFFF00FF PUSH1 0x0 SLOAD AND PUSH1 0x0 SSTORE JUMP JUMPDEST PUSH1 0x40 MLOAD PUSH1 0x1 DUP2 MSTORE PUSH32 0x7F26B83FF96E1F2B6A682F133852F6798A09C465DA95921460CEFB3847402498 SWAP1 PUSH1 0x20 SWAP1 LOG1 STOP JUMPDEST PUSH2 0x1306 PUSH2 0x100 PUSH32 0xFFFFFFFFFFFFFFFFFFFFFFFFFFFFFFFFFFFFFFFFFFFFFFFFFFFFFFFFFFFF00FF PUSH1 0x0 SLOAD AND OR PUSH1 0x0 SSTORE JUMP JUMPDEST PUSH2 0x1C21 JUMP JUMPDEST ADDRESS EXTCODESIZE ISZERO SWAP2 POP DUP2 PUSH2 0x131D JUMPI JUMPDEST POP CODESIZE PUSH2 0x1233 JUMP JUMPDEST PUSH1 0x1 SWAP2 POP PUSH1 0xFF AND EQ CODESIZE PUSH2 0x1316 JUMP JUMPDEST PUSH1 0x1 PUSH1 0xFF DUP3 AND LT SWAP2 POP PUSH2 0x122C JUMP JUMPDEST POP CALLVALUE PUSH2 0x1A9 JUMPI PUSH1 0x0 PUSH32 0xFFFFFFFFFFFFFFFFFFFFFFFFFFFFFFFFFFFFFFFFFFFFFFFFFFFFFFFFFFFFFFFC CALLDATASIZE ADD SLT PUSH2 0x1A9 JUMPI PUSH2 0x6B3 PUSH1 0x40 MLOAD PUSH32 0x35567E1A00000000000000000000000000000000000000000000000000000000 DUP2 MSTORE ADDRESS PUSH1 0x4 DUP3 ADD MSTORE PUSH1 0x0 PUSH1 0x24 DUP3 ADD MSTORE PUSH1 0x20 DUP2 PUSH1 0x44 DUP2 PUSH20 0xFFFFFFFFFFFFFFFFFFFFFFFFFFFFFFFFFFFFFFFF PUSH32 0x0 AND GAS STATICCALL SWAP1 DUP2 ISZERO PUSH2 0x141C JUMPI JUMPDEST PUSH1 0x0 SWAP2 PUSH2 0x13FE JUMPI POP PUSH1 0x40 MLOAD SWAP1 DUP2 MSTORE SWAP1 DUP2 SWAP1 PUSH1 0x20 DUP3 ADD SWAP1 JUMP JUMPDEST PUSH2 0x1416 SWAP2 POP PUSH1 0x20 RETURNDATASIZE DUP2 GT PUSH2 0x5F0 JUMPI PUSH2 0x5E1 DUP2 DUP4 PUSH2 0xAFE JUMP JUMPDEST CODESIZE PUSH2 0x6A2 JUMP JUMPDEST PUSH2 0x1424 PUSH2 0x15E0 JUMP JUMPDEST PUSH2 0x13E6 JUMP JUMPDEST POP CALLVALUE PUSH2 0x1A9 JUMPI PUSH1 0xA0 PUSH32 0xFFFFFFFFFFFFFFFFFFFFFFFFFFFFFFFFFFFFFFFFFFFFFFFFFFFFFFFFFFFFFFFC CALLDATASIZE ADD SLT PUSH2 0x1A9 JUMPI PUSH2 0x1464 PUSH1 0x4 CALLDATALOAD PUSH2 0x18B JUMP JUMPDEST PUSH2 0x146F PUSH1 0x24 CALLDATALOAD PUSH2 0x18B JUMP JUMPDEST PUSH1 0x84 CALLDATALOAD PUSH8 0xFFFFFFFFFFFFFFFF DUP2 GT PUSH2 0x1A9 JUMPI PUSH2 0x148F SWAP1 CALLDATASIZE SWAP1 PUSH1 0x4 ADD PUSH2 0x1AE JUMP JUMPDEST POP POP PUSH1 0x20 PUSH1 0x40 MLOAD PUSH32 0xF23A6E6100000000000000000000000000000000000000000000000000000000 DUP2 MSTORE RETURN JUMPDEST ISZERO PUSH2 0x14C2 JUMPI JUMP JUMPDEST PUSH1 0x84 PUSH1 0x40 MLOAD PUSH32 0x8C379A000000000000000000000000000000000000000000000000000000000 DUP2 MSTORE PUSH1 0x20 PUSH1 0x4 DUP3 ADD MSTORE PUSH1 0x2C PUSH1 0x24 DUP3 ADD MSTORE PUSH32 0x46756E6374696F6E206D7573742062652063616C6C6564207468726F75676820 PUSH1 0x44 DUP3 ADD MSTORE PUSH32 0x64656C656761746563616C6C0000000000000000000000000000000000000000 PUSH1 0x64 DUP3 ADD MSTORE REVERT JUMPDEST ISZERO PUSH2 0x154D JUMPI JUMP JUMPDEST PUSH1 0x84 PUSH1 0x40 MLOAD PUSH32 0x8C379A000000000000000000000000000000000000000000000000000000000 DUP2 MSTORE PUSH1 0x20 PUSH1 0x4 DUP3 ADD MSTORE PUSH1 0x2C PUSH1 0x24 DUP3 ADD MSTORE PUSH32 0x46756E6374696F6E206D7573742062652063616C6C6564207468726F75676820 PUSH1 0x44 DUP3 ADD MSTORE PUSH32 0x6163746976652070726F78790000000000000000000000000000000000000000 PUSH1 0x64 DUP3 ADD MSTORE REVERT JUMPDEST SWAP1 DUP2 PUSH1 0x20 SWAP2 SUB SLT PUSH2 0x1A9 JUMPI MLOAD SWAP1 JUMP JUMPDEST POP PUSH1 0x40 MLOAD RETURNDATASIZE PUSH1 0x0 DUP3 RETURNDATACOPY RETURNDATASIZE SWAP1 REVERT JUMPDEST ISZERO PUSH2 0x15F4 JUMPI JUMP JUMPDEST PUSH1 0x84 PUSH1 0x40 MLOAD PUSH32 0x8C379A000000000000000000000000000000000000000000000000000000000 DUP2 MSTORE PUSH1 0x20 PUSH1 0x4 DUP3 ADD MSTORE PUSH1 0x29 PUSH1 0x24 DUP3 ADD MSTORE PUSH32 0x45524331393637557067726164653A20756E737570706F727465642070726F78 PUSH1 0x44 DUP3 ADD MSTORE PUSH32 0x6961626C65555549440000000000000000000000000000000000000000000000 PUSH1 0x64 DUP3 ADD MSTORE REVERT JUMPDEST DUP1 EXTCODESIZE ISZERO PUSH2 0x16E0 JUMPI PUSH20 0xFFFFFFFFFFFFFFFFFFFFFFFFFFFFFFFFFFFFFFFF PUSH32 0x360894A13BA1A3210667C828492DB98DCA3E2076CC3735A920A3CA505D382BBC SWAP2 AND PUSH32 0xFFFFFFFFFFFFFFFFFFFFFFFF0000000000000000000000000000000000000000 DUP3 SLOAD AND OR SWAP1 SSTORE JUMP JUMPDEST PUSH1 0x84 PUSH1 0x40 MLOAD PUSH32 0x8C379A000000000000000000000000000000000000000000000000000000000 DUP2 MSTORE PUSH1 0x20 PUSH1 0x4 DUP3 ADD MSTORE PUSH1 0x2D PUSH1 0x24 DUP3 ADD MSTORE PUSH32 0x455243313936373A206E657720696D706C656D656E746174696F6E206973206E PUSH1 0x44 DUP3 ADD MSTORE PUSH32 0x6F74206120636F6E747261637400000000000000000000000000000000000000 PUSH1 0x64 DUP3 ADD MSTORE REVERT JUMPDEST SWAP1 PUSH2 0x176E DUP3 PUSH2 0x1678 JUMP JUMPDEST PUSH20 0xFFFFFFFFFFFFFFFFFFFFFFFFFFFFFFFFFFFFFFFF DUP3 AND PUSH32 0xBC7CD75A20EE27FD9ADEBAB32041F755214DBC6BFFA90CC0225B39DA2E5C2D3B PUSH1 0x0 DUP1 LOG2 DUP1 MLOAD ISZERO DUP1 ISZERO SWAP1 PUSH2 0x183B JUMPI JUMPDEST PUSH2 0x17BD JUMPI POP POP JUMP JUMPDEST PUSH2 0x1838 SWAP2 PUSH1 0x0 DUP1 PUSH1 0x40 MLOAD SWAP4 PUSH2 0x17D1 DUP6 PUSH2 0xAE2 JUMP JUMPDEST PUSH1 0x27 DUP6 MSTORE PUSH32 0x416464726573733A206C6F772D6C6576656C2064656C65676174652063616C6C PUSH1 0x20 DUP7 ADD MSTORE PUSH32 0x206661696C656400000000000000000000000000000000000000000000000000 PUSH1 0x40 DUP7 ADD MSTORE PUSH1 0x20 DUP2 MLOAD SWAP2 ADD DUP5 GAS DELEGATECALL PUSH2 0x1832 PUSH2 0x18A3 JUMP JUMPDEST SWAP2 PUSH2 0x1938 JUMP JUMPDEST POP JUMP JUMPDEST POP PUSH1 0x0 PUSH2 0x17B5 JUMP JUMPDEST SWAP1 PUSH2 0x184D DUP3 PUSH2 0x1678 JUMP JUMPDEST PUSH20 0xFFFFFFFFFFFFFFFFFFFFFFFFFFFFFFFFFFFFFFFF DUP3 AND PUSH32 0xBC7CD75A20EE27FD9ADEBAB32041F755214DBC6BFFA90CC0225B39DA2E5C2D3B PUSH1 0x0 DUP1 LOG2 DUP1 MLOAD ISZERO DUP1 ISZERO SWAP1 PUSH2 0x189B JUMPI PUSH2 0x17BD JUMPI POP POP JUMP JUMPDEST POP PUSH1 0x1 PUSH2 0x17B5 JUMP JUMPDEST RETURNDATASIZE ISZERO PUSH2 0x18CE JUMPI RETURNDATASIZE SWAP1 PUSH2 0x18B4 DUP3 PUSH2 0xB3F JUMP JUMPDEST SWAP2 PUSH2 0x18C2 PUSH1 0x40 MLOAD SWAP4 DUP5 PUSH2 0xAFE JUMP JUMPDEST DUP3 MSTORE RETURNDATASIZE PUSH1 0x0 PUSH1 0x20 DUP5 ADD RETURNDATACOPY JUMP JUMPDEST PUSH1 0x60 SWAP1 JUMP JUMPDEST ISZERO PUSH2 0x18DA JUMPI JUMP JUMPDEST PUSH1 0x64 PUSH1 0x40 MLOAD PUSH32 0x8C379A000000000000000000000000000000000000000000000000000000000 DUP2 MSTORE PUSH1 0x20 PUSH1 0x4 DUP3 ADD MSTORE PUSH1 0x1D PUSH1 0x24 DUP3 ADD MSTORE PUSH32 0x416464726573733A2063616C6C20746F206E6F6E2D636F6E7472616374000000 PUSH1 0x44 DUP3 ADD MSTORE REVERT JUMPDEST SWAP2 SWAP3 SWAP1 ISZERO PUSH2 0x195B JUMPI POP DUP2 MLOAD ISZERO PUSH2 0x194C JUMPI POP SWAP1 JUMP JUMPDEST PUSH2 0x1958 SWAP1 EXTCODESIZE ISZERO ISZERO PUSH2 0x18D3 JUMP JUMPDEST SWAP1 JUMP JUMPDEST DUP3 MLOAD SWAP1 SWAP2 POP ISZERO PUSH2 0x196E JUMPI POP DUP1 MLOAD SWAP1 PUSH1 0x20 ADD REVERT JUMPDEST PUSH1 0x40 MLOAD SWAP1 PUSH32 0x8C379A000000000000000000000000000000000000000000000000000000000 DUP3 MSTORE DUP2 PUSH1 0x20 DUP1 PUSH1 0x4 DUP4 ADD MSTORE DUP3 MLOAD SWAP3 DUP4 PUSH1 0x24 DUP5 ADD MSTORE PUSH1 0x0 JUMPDEST DUP5 DUP2 LT PUSH2 0x19EB JUMPI POP POP POP PUSH32 0xFFFFFFFFFFFFFFFFFFFFFFFFFFFFFFFFFFFFFFFFFFFFFFFFFFFFFFFFFFFFFFE0 PUSH1 0x1F DUP4 PUSH1 0x0 PUSH1 0x44 DUP1 SWAP7 DUP7 ADD ADD MSTORE ADD AND DUP2 ADD SUB ADD SWAP1 REVERT JUMPDEST DUP2 DUP2 ADD DUP4 ADD MLOAD DUP7 DUP3 ADD PUSH1 0x44 ADD MSTORE DUP6 SWAP4 POP DUP3 ADD PUSH2 0x19AA JUMP JUMPDEST ISZERO PUSH2 0x1A09 JUMPI JUMP JUMPDEST PUSH1 0x64 PUSH1 0x40 MLOAD PUSH32 0x8C379A000000000000000000000000000000000000000000000000000000000 DUP2 MSTORE PUSH1 0x20 PUSH1 0x4 DUP3 ADD MSTORE PUSH1 0x13 PUSH1 0x24 DUP3 ADD MSTORE PUSH32 0x77726F6E67206172726179206C656E6774687300000000000000000000000000 PUSH1 0x44 DUP3 ADD MSTORE REVERT JUMPDEST PUSH32 0xFFFFFFFFFFFFFFFFFFFFFFFFFFFFFFFFFFFFFFFFFFFFFFFFFFFFFFFFFFFFFFFF DUP2 EQ PUSH2 0x1A94 JUMPI PUSH1 0x1 ADD SWAP1 JUMP JUMPDEST PUSH32 0x4E487B7100000000000000000000000000000000000000000000000000000000 PUSH1 0x0 MSTORE PUSH1 0x11 PUSH1 0x4 MSTORE PUSH1 0x24 PUSH1 0x0 REVERT JUMPDEST POP PUSH32 0x4E487B7100000000000000000000000000000000000000000000000000000000 PUSH1 0x0 MSTORE PUSH1 0x32 PUSH1 0x4 MSTORE PUSH1 0x24 PUSH1 0x0 REVERT JUMPDEST SWAP2 SWAP1 DUP2 LT ISZERO PUSH2 0x1B04 JUMPI JUMPDEST PUSH1 0x5 SHL ADD SWAP1 JUMP JUMPDEST PUSH2 0x1B0C PUSH2 0x1AC3 JUMP JUMPDEST PUSH2 0x1AFD JUMP JUMPDEST CALLDATALOAD PUSH2 0x1958 DUP2 PUSH2 0x18B JUMP JUMPDEST SWAP1 CALLDATALOAD SWAP1 PUSH32 0xFFFFFFFFFFFFFFFFFFFFFFFFFFFFFFFFFFFFFFFFFFFFFFFFFFFFFFFFFFFFFFE1 DUP2 CALLDATASIZE SUB ADD DUP3 SLT ISZERO PUSH2 0x1A9 JUMPI ADD DUP1 CALLDATALOAD SWAP1 PUSH8 0xFFFFFFFFFFFFFFFF DUP3 GT PUSH2 0x1A9 JUMPI PUSH1 0x20 ADD SWAP2 DUP2 CALLDATASIZE SUB DUP4 SGT PUSH2 0x1A9 JUMPI JUMP JUMPDEST SWAP1 SWAP2 PUSH2 0x1B85 SWAP3 DUP2 LT ISZERO PUSH2 0x1B89 JUMPI JUMPDEST PUSH1 0x5 SHL DUP2 ADD SWAP1 PUSH2 0x1B1B JUMP JUMPDEST SWAP1 SWAP2 JUMP JUMPDEST PUSH2 0x1B91 PUSH2 0x1AC3 JUMP JUMPDEST PUSH2 0x1B7A JUMP JUMPDEST ISZERO PUSH2 0x1B9D JUMPI JUMP JUMPDEST PUSH1 0x84 PUSH1 0x40 MLOAD PUSH32 0x8C379A000000000000000000000000000000000000000000000000000000000 DUP2 MSTORE PUSH1 0x20 PUSH1 0x4 DUP3 ADD MSTORE PUSH1 0x2E PUSH1 0x24 DUP3 ADD MSTORE PUSH32 0x496E697469616C697A61626C653A20636F6E747261637420697320616C726561 PUSH1 0x44 DUP3 ADD MSTORE PUSH32 0x647920696E697469616C697A6564000000000000000000000000000000000000 PUSH1 0x64 DUP3 ADD MSTORE REVERT JUMPDEST PUSH32 0xFFFFFFFFFFFFFFFFFFFF0000000000000000000000000000000000000000FFFF PUSH22 0xFFFFFFFFFFFFFFFFFFFFFFFFFFFFFFFFFFFFFFFF0000 PUSH1 0x0 SLOAD SWAP3 PUSH1 0x10 SHL AND SWAP2 AND OR DUP1 PUSH1 0x0 SSTORE PUSH20 0xFFFFFFFFFFFFFFFFFFFFFFFFFFFFFFFFFFFFFFFF DUP1 SWAP2 PUSH1 0x10 SHR AND SWAP1 PUSH32 0x0 AND PUSH32 0x47E55C76E7A6F1FD8996A1DA8008C1EA29699CCA35E7BCD057F2DEC313B6E5DE PUSH1 0x0 DUP1 LOG3 JUMP JUMPDEST PUSH20 0xFFFFFFFFFFFFFFFFFFFFFFFFFFFFFFFFFFFFFFFF DUP1 PUSH32 0x0 AND CALLER EQ SWAP1 DUP2 ISZERO PUSH2 0x1D75 JUMPI JUMPDEST POP ISZERO PUSH2 0x1D17 JUMPI JUMP JUMPDEST PUSH1 0x64 PUSH1 0x40 MLOAD PUSH32 0x8C379A000000000000000000000000000000000000000000000000000000000 DUP2 MSTORE PUSH1 0x20 PUSH1 0x4 DUP3 ADD MSTORE PUSH1 0x20 PUSH1 0x24 DUP3 ADD MSTORE PUSH32 0x6163636F756E743A206E6F74204F776E6572206F7220456E747279506F696E74 PUSH1 0x44 DUP3 ADD MSTORE REVERT JUMPDEST SWAP1 POP PUSH1 0x0 SLOAD PUSH1 0x10 SHR AND CALLER EQ CODESIZE PUSH2 0x1D0F JUMP JUMPDEST SWAP1 PUSH1 0x40 MLOAD PUSH1 0x20 DUP2 ADD SWAP2 PUSH32 0x19457468657265756D205369676E6564204D6573736167653A0A333200000000 DUP4 MSTORE PUSH1 0x3C DUP3 ADD MSTORE PUSH1 0x3C DUP2 MSTORE PUSH2 0x1DC4 DUP2 PUSH2 0xAE2 JUMP JUMPDEST MLOAD SWAP1 KECCAK256 PUSH2 0x1E0B PUSH2 0x1E03 PUSH20 0xFFFFFFFFFFFFFFFFFFFFFFFFFFFFFFFFFFFFFFFF SWAP3 PUSH2 0x1DFD PUSH2 0x85C DUP6 PUSH1 0x0 SLOAD PUSH1 0x10 SHR AND SWAP7 PUSH2 0x140 DUP2 ADD SWAP1 PUSH2 0x1B1B JUMP JUMPDEST SWAP1 PUSH2 0x1FDD JUMP JUMPDEST SWAP2 SWAP1 SWAP2 PUSH2 0x1E54 JUMP JUMPDEST AND SUB PUSH2 0x1E16 JUMPI PUSH1 0x0 SWAP1 JUMP JUMPDEST PUSH1 0x1 SWAP1 JUMP JUMPDEST PUSH1 0x5 GT ISZERO PUSH2 0x1E25 JUMPI JUMP JUMPDEST PUSH32 0x4E487B7100000000000000000000000000000000000000000000000000000000 PUSH1 0x0 MSTORE PUSH1 0x21 PUSH1 0x4 MSTORE PUSH1 0x24 PUSH1 0x0 REVERT JUMPDEST PUSH2 0x1E5D DUP2 PUSH2 0x1E1B JUMP JUMPDEST DUP1 PUSH2 0x1E65 JUMPI POP JUMP JUMPDEST PUSH2 0x1E6E DUP2 PUSH2 0x1E1B JUMP JUMPDEST PUSH1 0x1 DUP2 SUB PUSH2 0x1ED5 JUMPI PUSH1 0x40 MLOAD PUSH32 0x8C379A000000000000000000000000000000000000000000000000000000000 DUP2 MSTORE PUSH1 0x20 PUSH1 0x4 DUP3 ADD MSTORE PUSH1 0x18 PUSH1 0x24 DUP3 ADD MSTORE PUSH32 0x45434453413A20696E76616C6964207369676E61747572650000000000000000 PUSH1 0x44 DUP3 ADD MSTORE PUSH1 0x64 SWAP1 REVERT JUMPDEST PUSH2 0x1EDE DUP2 PUSH2 0x1E1B JUMP JUMPDEST PUSH1 0x2 DUP2 SUB PUSH2 0x1F45 JUMPI PUSH1 0x40 MLOAD PUSH32 0x8C379A000000000000000000000000000000000000000000000000000000000 DUP2 MSTORE PUSH1 0x20 PUSH1 0x4 DUP3 ADD MSTORE PUSH1 0x1F PUSH1 0x24 DUP3 ADD MSTORE PUSH32 0x45434453413A20696E76616C6964207369676E6174757265206C656E67746800 PUSH1 0x44 DUP3 ADD MSTORE PUSH1 0x64 SWAP1 REVERT JUMPDEST DUP1 PUSH2 0x1F51 PUSH1 0x3 SWAP3 PUSH2 0x1E1B JUMP JUMPDEST EQ PUSH2 0x1F58 JUMPI JUMP JUMPDEST PUSH1 0x40 MLOAD PUSH32 0x8C379A000000000000000000000000000000000000000000000000000000000 DUP2 MSTORE PUSH1 0x20 PUSH1 0x4 DUP3 ADD MSTORE PUSH1 0x22 PUSH1 0x24 DUP3 ADD MSTORE PUSH32 0x45434453413A20696E76616C6964207369676E6174757265202773272076616C PUSH1 0x44 DUP3 ADD MSTORE PUSH32 0x7565000000000000000000000000000000000000000000000000000000000000 PUSH1 0x64 DUP3 ADD MSTORE PUSH1 0x84 SWAP1 REVERT JUMPDEST SWAP1 PUSH1 0x41 DUP2 MLOAD EQ PUSH1 0x0 EQ PUSH2 0x2007 JUMPI PUSH2 0x1B85 SWAP2 PUSH1 0x20 DUP3 ADD MLOAD SWAP1 PUSH1 0x60 PUSH1 0x40 DUP5 ADD MLOAD SWAP4 ADD MLOAD PUSH1 0x0 BYTE SWAP1 PUSH2 0x2011 JUMP JUMPDEST POP POP PUSH1 0x0 SWAP1 PUSH1 0x2 SWAP1 JUMP JUMPDEST SWAP3 SWAP2 SWAP1 PUSH32 0x7FFFFFFFFFFFFFFFFFFFFFFFFFFFFFFF5D576E7357A4501DDFE92F46681B20A0 DUP4 GT PUSH2 0x20A2 JUMPI SWAP2 PUSH1 0x80 SWAP5 SWAP4 SWAP2 PUSH1 0xFF PUSH1 0x20 SWAP5 PUSH1 0x40 MLOAD SWAP5 DUP6 MSTORE AND DUP5 DUP5 ADD MSTORE PUSH1 0x40 DUP4 ADD MSTORE PUSH1 0x60 DUP3 ADD MSTORE PUSH1 0x0 SWAP4 DUP5 SWAP2 DUP3 DUP1 MSTORE PUSH1 0x1 GAS STATICCALL ISZERO PUSH2 0x2095 JUMPI JUMPDEST DUP2 MLOAD PUSH20 0xFFFFFFFFFFFFFFFFFFFFFFFFFFFFFFFFFFFFFFFF DUP2 AND ISZERO PUSH2 0x208F JUMPI SWAP2 SWAP1 JUMP JUMPDEST POP PUSH1 0x1 SWAP1 JUMP JUMPDEST PUSH2 0x209D PUSH2 0x15E0 JUMP JUMPDEST PUSH2 0x206D JUMP JUMPDEST POP POP POP POP PUSH1 0x0 SWAP1 PUSH1 0x3 SWAP1 JUMP JUMPDEST PUSH1 0x0 SWAP2 DUP3 SWAP2 DUP3 PUSH1 0x20 DUP4 MLOAD SWAP4 ADD SWAP2 GAS CALL PUSH2 0x20C5 PUSH2 0x18A3 JUMP JUMPDEST SWAP1 ISZERO PUSH2 0x20CE JUMPI POP JUMP JUMPDEST PUSH1 0x20 DUP2 MLOAD SWAP2 ADD REVERT JUMPDEST SWAP2 PUSH1 0x0 SWAP3 DUP4 SWAP3 PUSH1 0x20 DUP4 MLOAD SWAP4 ADD SWAP2 GAS CALL PUSH2 0x20C5 PUSH2 0x18A3 JUMP JUMPDEST PUSH20 0xFFFFFFFFFFFFFFFFFFFFFFFFFFFFFFFFFFFFFFFF PUSH1 0x0 SLOAD PUSH1 0x10 SHR AND CALLER EQ DUP1 ISZERO PUSH2 0x2177 JUMPI JUMPDEST ISZERO PUSH2 0x2119 JUMPI JUMP JUMPDEST PUSH1 0x64 PUSH1 0x40 MLOAD PUSH32 0x8C379A000000000000000000000000000000000000000000000000000000000 DUP2 MSTORE PUSH1 0x20 PUSH1 0x4 DUP3 ADD MSTORE PUSH1 0xA PUSH1 0x24 DUP3 ADD MSTORE PUSH32 0x6F6E6C79206F776E657200000000000000000000000000000000000000000000 PUSH1 0x44 DUP3 ADD MSTORE REVERT JUMPDEST POP ADDRESS CALLER EQ PUSH2 0x2112 JUMP INVALID LOG2 PUSH5 0x6970667358 0x22 SLT KECCAK256 0xAD SWAP14 0xD0 0xEC 0xCA 0xE7 PUSH9 0x33FD4C76CC51989423 0x24 PUSH24 0xDD3C483E945A4C5066A29CA025B364736F6C634300081100 CALLER "},"methodIdentifiers":{"addDeposit()":"4a58db19","entryPoint()":"b0d691fe","execute(address,uint256,bytes)":"b61d27f6","executeBatch(address[],uint256[],bytes[])":"47e1da2a","getDeposit()":"c399ec88","getNonce()":"d087d288","initialize(address)":"c4d66de8","onERC1155BatchReceived(address,address,uint256[],uint256[],bytes)":"bc197c81","onERC1155Received(address,address,uint256,uint256,bytes)":"f23a6e61","onERC721Received(address,address,uint256,bytes)":"150b7a02","owner()":"8da5cb5b","proxiableUUID()":"52d1902d","supportsInterface(bytes4)":"01ffc9a7","tokensReceived(address,address,address,uint256,bytes,bytes)":"0023de29","upgradeTo(address)":"3659cfe6","upgradeToAndCall(address,bytes)":"4f1ef286","validateUserOp((address,uint256,bytes,bytes,uint256,uint256,uint256,uint256,uint256,bytes,bytes),bytes32,uint256)":"3a871cdd","withdrawDepositTo(address,uint256)":"4d44560d"}}}}}