{
  "_format": "hh-sol-artifact-1",
  "contractName": "EpochRegistry",
  "sourceName": "contracts/flattened/EpochRegistry.sol",
  "abi": [
    {
      "anonymous": false,
      "inputs": [
        {
          "indexed": true,
          "internalType": "uint256",
          "name": "id",
          "type": "uint256"
        },
        {
          "components": [
            {
              "internalType": "bool",
              "name": "useDataSource",
              "type": "bool"
            },
            {
              "internalType": "uint32",
              "name": "dataPosition",
              "type": "uint32"
            },
            {
              "internalType": "uint32",
              "name": "positionInCallData",
              "type": "uint32"
            },
            {
              "internalType": "address",
              "name": "dataSource",
              "type": "address"
            },
            {
              "internalType": "bytes",
              "name": "encodedQuery",
              "type": "bytes"
            }
          ],
          "indexed": false,
          "internalType": "struct IEpochRegistry.DataSource",
          "name": "dataSource",
          "type": "tuple"
        }
      ],
      "name": "NewDataSource",
      "type": "event"
    },
    {
      "anonymous": false,
      "inputs": [
        {
          "indexed": true,
          "internalType": "uint256",
          "name": "id",
          "type": "uint256"
        },
        {
          "components": [
            {
              "internalType": "bool",
              "name": "useExecutionWindow",
              "type": "bool"
            },
            {
              "internalType": "bool",
              "name": "recurring",
              "type": "bool"
            },
            {
              "internalType": "uint64",
              "name": "recurrenceGap",
              "type": "uint64"
            },
            {
              "internalType": "uint64",
              "name": "executionWindowStart",
              "type": "uint64"
            },
            {
              "internalType": "uint64",
              "name": "executionWindowEnd",
              "type": "uint64"
            }
          ],
          "indexed": false,
          "internalType": "struct IEpochRegistry.ExecutionWindow",
          "name": "window",
          "type": "tuple"
        }
      ],
      "name": "NewExecutionWindow",
      "type": "event"
    },
    {
      "anonymous": false,
      "inputs": [
        {
          "indexed": true,
          "internalType": "uint256",
          "name": "id",
          "type": "uint256"
        },
        {
          "components": [
            {
              "internalType": "bool",
              "name": "useOnChainCondition",
              "type": "bool"
            },
            {
              "internalType": "uint32",
              "name": "dataPosition",
              "type": "uint32"
            },
            {
              "internalType": "address",
              "name": "dataSource",
              "type": "address"
            },
            {
              "internalType": "contract IConditionChecker",
              "name": "conditionChecker",
              "type": "address"
            },
            {
              "internalType": "enum IEpochRegistry.DataType",
              "name": "dataType",
              "type": "uint8"
            },
            {
              "internalType": "bytes",
              "name": "encodedQuery",
              "type": "bytes"
            },
            {
              "internalType": "bytes",
              "name": "encodedCondition",
              "type": "bytes"
            }
          ],
          "indexed": false,
          "internalType": "struct IEpochRegistry.OnChainCondition",
          "name": "condition",
          "type": "tuple"
        }
      ],
      "name": "NewOnChainCondition",
      "type": "event"
    },
    {
      "anonymous": false,
      "inputs": [
        {
          "components": [
            {
              "internalType": "uint256",
              "name": "taskId",
              "type": "uint256"
            },
            {
              "internalType": "bool",
              "name": "isBatchTransaction",
              "type": "bool"
            },
            {
              "internalType": "address",
              "name": "taskOwner",
              "type": "address"
            },
            {
              "internalType": "address",
              "name": "destination",
              "type": "address"
            },
            {
              "internalType": "uint256",
              "name": "timeConditionId",
              "type": "uint256"
            },
            {
              "internalType": "uint256",
              "name": "onChainConditionId",
              "type": "uint256"
            },
            {
              "internalType": "uint256",
              "name": "dataSourceId",
              "type": "uint256"
            },
            {
              "internalType": "address[]",
              "name": "destinations",
              "type": "address[]"
            }
          ],
          "indexed": false,
          "internalType": "struct IEpochRegistry.Task",
          "name": "task",
          "type": "tuple"
        }
      ],
      "name": "NewTask",
      "type": "event"
    },
    {
      "anonymous": false,
      "inputs": [
        {
          "components": [
            {
              "internalType": "uint256",
              "name": "taskId",
              "type": "uint256"
            },
            {
              "internalType": "bool",
              "name": "isBatchTransaction",
              "type": "bool"
            },
            {
              "internalType": "address",
              "name": "taskOwner",
              "type": "address"
            },
            {
              "internalType": "address",
              "name": "destination",
              "type": "address"
            },
            {
              "internalType": "uint256",
              "name": "timeConditionId",
              "type": "uint256"
            },
            {
              "internalType": "uint256",
              "name": "onChainConditionId",
              "type": "uint256"
            },
            {
              "internalType": "uint256",
              "name": "dataSourceId",
              "type": "uint256"
            },
            {
              "internalType": "address[]",
              "name": "destinations",
              "type": "address[]"
            }
          ],
          "indexed": false,
          "internalType": "struct IEpochRegistry.Task",
          "name": "task",
          "type": "tuple"
        }
      ],
      "name": "TaskDeleted",
      "type": "event"
    },
    {
      "anonymous": false,
      "inputs": [
        {
          "indexed": true,
          "internalType": "uint256",
          "name": "id",
          "type": "uint256"
        }
      ],
      "name": "TaskProcessed",
      "type": "event"
    },
    {
      "inputs": [
        {
          "internalType": "address",
          "name": "destination",
          "type": "address"
        },
        {
          "internalType": "bool",
          "name": "isBatchTransaction",
          "type": "bool"
        },
        {
          "components": [
            {
              "internalType": "bool",
              "name": "useExecutionWindow",
              "type": "bool"
            },
            {
              "internalType": "bool",
              "name": "recurring",
              "type": "bool"
            },
            {
              "internalType": "uint64",
              "name": "recurrenceGap",
              "type": "uint64"
            },
            {
              "internalType": "uint64",
              "name": "executionWindowStart",
              "type": "uint64"
            },
            {
              "internalType": "uint64",
              "name": "executionWindowEnd",
              "type": "uint64"
            }
          ],
          "internalType": "struct IEpochRegistry.ExecutionWindow",
          "name": "executionWindowCondition",
          "type": "tuple"
        },
        {
          "components": [
            {
              "internalType": "bool",
              "name": "useOnChainCondition",
              "type": "bool"
            },
            {
              "internalType": "uint32",
              "name": "dataPosition",
              "type": "uint32"
            },
            {
              "internalType": "address",
              "name": "dataSource",
              "type": "address"
            },
            {
              "internalType": "contract IConditionChecker",
              "name": "conditionChecker",
              "type": "address"
            },
            {
              "internalType": "enum IEpochRegistry.DataType",
              "name": "dataType",
              "type": "uint8"
            },
            {
              "internalType": "bytes",
              "name": "encodedQuery",
              "type": "bytes"
            },
            {
              "internalType": "bytes",
              "name": "encodedCondition",
              "type": "bytes"
            }
          ],
          "internalType": "struct IEpochRegistry.OnChainCondition",
          "name": "onChainCondition",
          "type": "tuple"
        },
        {
          "components": [
            {
              "internalType": "bool",
              "name": "useDataSource",
              "type": "bool"
            },
            {
              "internalType": "uint32",
              "name": "dataPosition",
              "type": "uint32"
            },
            {
              "internalType": "uint32",
              "name": "positionInCallData",
              "type": "uint32"
            },
            {
              "internalType": "address",
              "name": "dataSource",
              "type": "address"
            },
            {
              "internalType": "bytes",
              "name": "encodedQuery",
              "type": "bytes"
            }
          ],
          "internalType": "struct IEpochRegistry.DataSource",
          "name": "dataSource",
          "type": "tuple"
        },
        {
          "internalType": "address[]",
          "name": "destinations",
          "type": "address[]"
        }
      ],
      "name": "addTask",
      "outputs": [
        {
          "internalType": "uint256",
          "name": "",
          "type": "uint256"
        }
      ],
      "stateMutability": "nonpayable",
      "type": "function"
    },
    {
      "inputs": [
        {
          "internalType": "uint256",
          "name": "",
          "type": "uint256"
        }
      ],
      "name": "dataSourceMapping",
      "outputs": [
        {
          "internalType": "bool",
          "name": "useDataSource",
          "type": "bool"
        },
        {
          "internalType": "uint32",
          "name": "dataPosition",
          "type": "uint32"
        },
        {
          "internalType": "uint32",
          "name": "positionInCallData",
          "type": "uint32"
        },
        {
          "internalType": "address",
          "name": "dataSource",
          "type": "address"
        },
        {
          "internalType": "bytes",
          "name": "encodedQuery",
          "type": "bytes"
        }
      ],
      "stateMutability": "view",
      "type": "function"
    },
    {
      "inputs": [
        {
          "internalType": "uint256",
          "name": "taskId",
          "type": "uint256"
        }
      ],
      "name": "deleteTask",
      "outputs": [],
      "stateMutability": "nonpayable",
      "type": "function"
    },
    {
      "inputs": [
        {
          "internalType": "uint256",
          "name": "",
          "type": "uint256"
        }
      ],
      "name": "executionWindowMapping",
      "outputs": [
        {
          "internalType": "bool",
          "name": "useExecutionWindow",
          "type": "bool"
        },
        {
          "internalType": "bool",
          "name": "recurring",
          "type": "bool"
        },
        {
          "internalType": "uint64",
          "name": "recurrenceGap",
          "type": "uint64"
        },
        {
          "internalType": "uint64",
          "name": "executionWindowStart",
          "type": "uint64"
        },
        {
          "internalType": "uint64",
          "name": "executionWindowEnd",
          "type": "uint64"
        }
      ],
      "stateMutability": "view",
      "type": "function"
    },
    {
      "inputs": [
        {
          "internalType": "uint256",
          "name": "",
          "type": "uint256"
        }
      ],
      "name": "onChainConditionMapping",
      "outputs": [
        {
          "internalType": "bool",
          "name": "useOnChainCondition",
          "type": "bool"
        },
        {
          "internalType": "uint32",
          "name": "dataPosition",
          "type": "uint32"
        },
        {
          "internalType": "address",
          "name": "dataSource",
          "type": "address"
        },
        {
          "internalType": "contract IConditionChecker",
          "name": "conditionChecker",
          "type": "address"
        },
        {
          "internalType": "enum IEpochRegistry.DataType",
          "name": "dataType",
          "type": "uint8"
        },
        {
          "internalType": "bytes",
          "name": "encodedQuery",
          "type": "bytes"
        },
        {
          "internalType": "bytes",
          "name": "encodedCondition",
          "type": "bytes"
        }
      ],
      "stateMutability": "view",
      "type": "function"
    },
    {
      "inputs": [
        {
          "internalType": "uint256",
          "name": "taskId",
          "type": "uint256"
        },
        {
          "internalType": "address[]",
          "name": "dest",
          "type": "address[]"
        },
        {
          "internalType": "uint256[]",
          "name": "values",
          "type": "uint256[]"
        },
        {
          "internalType": "bytes[]",
          "name": "func",
          "type": "bytes[]"
        }
      ],
      "name": "processBatchTransaction",
      "outputs": [
        {
          "internalType": "bool",
          "name": "_send",
          "type": "bool"
        },
        {
          "internalType": "address[]",
          "name": "_dest",
          "type": "address[]"
        },
        {
          "internalType": "uint256[]",
          "name": "_values",
          "type": "uint256[]"
        },
        {
          "internalType": "bytes[]",
          "name": "_func",
          "type": "bytes[]"
        }
      ],
      "stateMutability": "nonpayable",
      "type": "function"
    },
    {
      "inputs": [
        {
          "internalType": "uint256",
          "name": "taskId",
          "type": "uint256"
        },
        {
          "internalType": "address",
          "name": "dest",
          "type": "address"
        },
        {
          "internalType": "uint256",
          "name": "value",
          "type": "uint256"
        },
        {
          "internalType": "bytes",
          "name": "func",
          "type": "bytes"
        }
      ],
      "name": "processTransaction",
      "outputs": [
        {
          "internalType": "bool",
          "name": "_send",
          "type": "bool"
        },
        {
          "internalType": "address",
          "name": "_dest",
          "type": "address"
        },
        {
          "internalType": "uint256",
          "name": "_value",
          "type": "uint256"
        },
        {
          "internalType": "bytes",
          "name": "_func",
          "type": "bytes"
        }
      ],
      "stateMutability": "nonpayable",
      "type": "function"
    },
    {
      "inputs": [
        {
          "internalType": "uint256",
          "name": "",
          "type": "uint256"
        }
      ],
      "name": "taskDeleted",
      "outputs": [
        {
          "internalType": "bool",
          "name": "",
          "type": "bool"
        }
      ],
      "stateMutability": "view",
      "type": "function"
    },
    {
      "inputs": [
        {
          "internalType": "uint256",
          "name": "",
          "type": "uint256"
        }
      ],
      "name": "taskMapping",
      "outputs": [
        {
          "internalType": "uint256",
          "name": "taskId",
          "type": "uint256"
        },
        {
          "internalType": "bool",
          "name": "isBatchTransaction",
          "type": "bool"
        },
        {
          "internalType": "address",
          "name": "taskOwner",
          "type": "address"
        },
        {
          "internalType": "address",
          "name": "destination",
          "type": "address"
        },
        {
          "internalType": "uint256",
          "name": "timeConditionId",
          "type": "uint256"
        },
        {
          "internalType": "uint256",
          "name": "onChainConditionId",
          "type": "uint256"
        },
        {
          "internalType": "uint256",
          "name": "dataSourceId",
          "type": "uint256"
        }
      ],
      "stateMutability": "view",
      "type": "function"
    },
    {
      "inputs": [
        {
          "internalType": "uint256",
          "name": "",
          "type": "uint256"
        }
      ],
      "name": "taskStatus",
      "outputs": [
        {
          "internalType": "bool",
          "name": "",
          "type": "bool"
        }
      ],
      "stateMutability": "view",
      "type": "function"
    },
    {
      "inputs": [
        {
          "internalType": "uint256",
          "name": "taskId",
          "type": "uint256"
        },
        {
          "components": [
            {
              "internalType": "address",
              "name": "sender",
              "type": "address"
            },
            {
              "internalType": "uint256",
              "name": "nonce",
              "type": "uint256"
            },
            {
              "internalType": "bytes",
              "name": "initCode",
              "type": "bytes"
            },
            {
              "internalType": "bytes",
              "name": "callData",
              "type": "bytes"
            },
            {
              "internalType": "uint256",
              "name": "callGasLimit",
              "type": "uint256"
            },
            {
              "internalType": "uint256",
              "name": "verificationGasLimit",
              "type": "uint256"
            },
            {
              "internalType": "uint256",
              "name": "preVerificationGas",
              "type": "uint256"
            },
            {
              "internalType": "uint256",
              "name": "maxFeePerGas",
              "type": "uint256"
            },
            {
              "internalType": "uint256",
              "name": "maxPriorityFeePerGas",
              "type": "uint256"
            },
            {
              "internalType": "bytes",
              "name": "paymasterAndData",
              "type": "bytes"
            },
            {
              "internalType": "bytes",
              "name": "signature",
              "type": "bytes"
            }
          ],
          "internalType": "struct UserOperation",
          "name": "userOperation",
          "type": "tuple"
        }
      ],
      "name": "verifyTransaction",
      "outputs": [
        {
          "internalType": "bool",
          "name": "_send",
          "type": "bool"
        }
      ],
      "stateMutability": "nonpayable",
      "type": "function"
    }
  ],
  "bytecode": "0x60806040526001600055600180556001600255600160035534801561002357600080fd5b50614353806100336000396000f3fe608060405234801561001057600080fd5b50600436106100c95760003560e01c80636666ed4911610081578063ab3f26c81161005b578063ab3f26c814610261578063e1994fc314610282578063e5fdd9e21461033457600080fd5b80636666ed49146101f7578063972240801461021b5780639af69f151461023e57600080fd5b806328ea9d48116100b257806328ea9d481461019c578063546e9179146101bf578063560f3192146101e257600080fd5b80630436212b146100ce57806323d2affd14610176575b600080fd5b6101386100dc3660046130bb565b60076020526000908152604090205460ff8082169161010081049091169067ffffffffffffffff6201000082048116916a0100000000000000000000810482169172010000000000000000000000000000000000009091041685565b604080519515158652931515602086015267ffffffffffffffff928316938501939093528116606084015216608082015260a0015b60405180910390f35b6101896101843660046130bb565b610357565b60405161016d97969594939291906131b8565b6101af6101aa366004613230565b6104e4565b604051901515815260200161016d565b6101af6101cd3660046130bb565b60046020526000908152604090205460ff1681565b6101f56101f03660046130bb565b611050565b005b61020a6102053660046130bb565b611342565b60405161016d95949392919061327f565b6101af6102293660046130bb565b60056020526000908152604090205460ff1681565b61025161024c3660046132fe565b611429565b60405161016d9493929190613394565b61027461026f36600461377c565b6119ef565b60405190815260200161016d565b6102e66102903660046130bb565b600660205260009081526040902080546001820154600283015460038401546004850154600590950154939460ff84169461010090940473ffffffffffffffffffffffffffffffffffffffff9081169493169287565b60408051978852951515602088015273ffffffffffffffffffffffffffffffffffffffff94851695870195909552929091166060850152608084015260a083015260c082015260e00161016d565b610347610342366004613905565b612332565b60405161016d94939291906139fa565b60086020526000908152604090208054600182015460028301805460ff8085169563ffffffff6101008704169573ffffffffffffffffffffffffffffffffffffffff650100000000009091048116959081169474010000000000000000000000000000000000000000909104909216929091906103d390613ac9565b80601f01602080910402602001604051908101604052809291908181526020018280546103ff90613ac9565b801561044c5780601f106104215761010080835404028352916020019161044c565b820191906000526020600020905b81548152906001019060200180831161042f57829003601f168201915b50505050509080600301805461046190613ac9565b80601f016020809104026020016040519081016040528092919081815260200182805461048d90613ac9565b80156104da5780601f106104af576101008083540402835291602001916104da565b820191906000526020600020905b8154815290600101906020018083116104bd57829003601f168201915b5050505050905087565b60008281526004602052604081205460ff1615610562576040517f08c379a000000000000000000000000000000000000000000000000000000000815260206004820152601f60248201527f52656769737472793a207461736b20616c72656164792065786563757465640060448201526064015b60405180910390fd5b60006105a3610570846127fe565b7f19457468657265756d205369676e6564204d6573736167653a0a3332000000006000908152601c91909152603c902090565b60008581526006602081815260408084208151610100808201845282548252600183015460ff81161515838701520473ffffffffffffffffffffffffffffffffffffffff90811682850152600283015416606082015260038201546080820152600482015460a0820152600582015460c0820152938101805483518186028101860190945280845296975094959394909360e086019383018282801561067f57602002820191906000526020600020905b815473ffffffffffffffffffffffffffffffffffffffff168152600190910190602001808311610654575b5050505050815250509050600033905060008173ffffffffffffffffffffffffffffffffffffffff16638da5cb5b6040518163ffffffff1660e01b81526004016020604051808303816000875af11580156106de573d6000803e3d6000fd5b505050506040513d601f19601f820116820180604052508101906107029190613b1c565b604084015190915073ffffffffffffffffffffffffffffffffffffffff163314610788576040517f08c379a000000000000000000000000000000000000000000000000000000000815260206004820152601b60248201527f52656769737472793a204e6f20746865207461736b206f776e657200000000006044820152606401610559565b6107d6610799610140880188613b40565b8080601f01602080910402602001604051908101604052809392919081815260200183838082843760009201919091525088939250506128179050565b73ffffffffffffffffffffffffffffffffffffffff168173ffffffffffffffffffffffffffffffffffffffff161461086a576040517f08c379a000000000000000000000000000000000000000000000000000000000815260206004820152601b60248201527f52656769737472793a20496e76616c6964205369676e617475726500000000006044820152606401610559565b60006108796060880188613b40565b61088891600491600091613ba5565b61089191613bcf565b9050836020015115610a82577fffffffff0000000000000000000000000000000000000000000000000000000081167fa42d15f4000000000000000000000000000000000000000000000000000000001461096e576040517f08c379a000000000000000000000000000000000000000000000000000000000815260206004820152602b60248201527f52656769737472793a205472616e73616374696f6e206e6f742062617463682060448201527f7472616e73616374696f6e0000000000000000000000000000000000000000006064820152608401610559565b600061097d6060890189613b40565b61098b916004908290613ba5565b8101906109989190613cab565b5050915050806040516020016109ae9190613d94565b604051602081830303815290604052805190602001208560e001516040516020016109d99190613d94565b6040516020818303038152906040528051906020012014610a7c576040517f08c379a000000000000000000000000000000000000000000000000000000000815260206004820152602360248201527f52656769737472793a20496e76616c6964204465737469616e74696f6e20417260448201527f72617900000000000000000000000000000000000000000000000000000000006064820152608401610559565b50610bf7565b7fffffffff0000000000000000000000000000000000000000000000000000000081167f0b1aee180000000000000000000000000000000000000000000000000000000014610b2d576040517f08c379a000000000000000000000000000000000000000000000000000000000815260206004820152601f60248201527f52656769737472793a20496e76616c69642046756e6374696f6e2043616c6c006044820152606401610559565b6000610b3c6060890189613b40565b610b4a916004908290613ba5565b810190610b579190613da7565b50509150508073ffffffffffffffffffffffffffffffffffffffff16856060015173ffffffffffffffffffffffffffffffffffffffff1614610bf5576040517f08c379a000000000000000000000000000000000000000000000000000000000815260206004820152601d60248201527f52656769737472793a20496e76616c69642044657374696e6174696f6e0000006044820152606401610559565b505b608084015115610dbd57608080850151600090815260076020908152604091829020825160a081018452905460ff8082161515835261010082041615159282019290925267ffffffffffffffff6201000083048116938201939093526a01000000000000000000008204831660608201819052720100000000000000000000000000000000000090920490921692820192909252904211610d1a576040517f08c379a000000000000000000000000000000000000000000000000000000000815260206004820152602760248201527f52656769737472793a2054696d6520737461727420436f6e646974696f6e204660448201527f61696c69757265000000000000000000000000000000000000000000000000006064820152608401610559565b42816080015167ffffffffffffffff1611610db7576040517f08c379a000000000000000000000000000000000000000000000000000000000815260206004820152602560248201527f52656769737472793a2054696d6520656e6420436f6e646974696f6e2046616960448201527f6c697572650000000000000000000000000000000000000000000000000000006064820152608401610559565b50611042565b60a0840151156110425760a08401516000908152600860209081526040808320815160e081018352815460ff8082161515835263ffffffff6101008304169583019590955273ffffffffffffffffffffffffffffffffffffffff650100000000009091048116938201939093526001820154928316606082015292909160808401917401000000000000000000000000000000000000000090910416600e811115610e6a57610e6a6130d4565b600e811115610e7b57610e7b6130d4565b8152602001600282018054610e8f90613ac9565b80601f0160208091040260200160405190810160405280929190818152602001828054610ebb90613ac9565b8015610f085780601f10610edd57610100808354040283529160200191610f08565b820191906000526020600020905b815481529060010190602001808311610eeb57829003601f168201915b50505050508152602001600382018054610f2190613ac9565b80601f0160208091040260200160405190810160405280929190818152602001828054610f4d90613ac9565b8015610f9a5780601f10610f6f57610100808354040283529160200191610f9a565b820191906000526020600020905b815481529060010190602001808311610f7d57829003601f168201915b50505050508152505090506000610fb08261283b565b90508061103f576040517f08c379a000000000000000000000000000000000000000000000000000000000815260206004820152602360248201527f52656769737472793a204f6e2d636861696e20436f6e646974696f6e2046616960448201527f6c656400000000000000000000000000000000000000000000000000000000006064820152608401610559565b50505b506001979650505050505050565b60008181526006602081815260408084208151610100808201845282548252600183015460ff81161515838701520473ffffffffffffffffffffffffffffffffffffffff90811682850152600283015416606082015260038201546080820152600482015460a0820152600582015460c08201529381018054835181860281018601909452808452919360e0860193929083018282801561112757602002820191906000526020600020905b815473ffffffffffffffffffffffffffffffffffffffff1681526001909101906020018083116110fc575b50505050508152505090503373ffffffffffffffffffffffffffffffffffffffff16816040015173ffffffffffffffffffffffffffffffffffffffff16146111cb576040517f08c379a000000000000000000000000000000000000000000000000000000000815260206004820152601c60248201527f52656769737472793a206e6f7420746865207461736b206f776e6572000000006044820152606401610559565b80518214611235576040517f08c379a000000000000000000000000000000000000000000000000000000000815260206004820152601d60248201527f52656769737472793a207461736b20646f6573206e6f742065786973740000006044820152606401610559565b6000828152600460208181526040808420805460017fffffffffffffffffffffffffffffffffffffffffffffffffffffffffffffff00918216811790925560058085528387208054909216831790915560069384905291852085815590810180547fffffffffffffffffffffff0000000000000000000000000000000000000000001690556002810180547fffffffffffffffffffffffff000000000000000000000000000000000000000016905560038101859055928301849055820183905590919061130590830182612ffe565b50507f5f0cbe56d0fb25013af0022f0eaa79e2fea498da0e14f383e3e7e9bd3a0ed055816040516113369190613dfe565b60405180910390a15050565b6009602052600090815260409020805460018201805460ff831693610100840463ffffffff9081169465010000000000810490911693690100000000000000000090910473ffffffffffffffffffffffffffffffffffffffff16926113a690613ac9565b80601f01602080910402602001604051908101604052809291908181526020018280546113d290613ac9565b801561141f5780601f106113f45761010080835404028352916020019161141f565b820191906000526020600020905b81548152906001019060200180831161140257829003601f168201915b5050505050905085565b6000858152600460205260408120548190819060609060ff16156114a9576040517f08c379a000000000000000000000000000000000000000000000000000000000815260206004820152601f60248201527f52656769737472793a205461736b20616c7265616479206578656375746564006044820152606401610559565b6000898152600660205260409020548914611520576040517f08c379a000000000000000000000000000000000000000000000000000000000815260206004820152601d60248201527f52656769737472793a205461736b20646f6573206e6f742065786973740000006044820152606401610559565b60008981526006602081815260408084208151610100808201845282548252600183015460ff81161515838701520473ffffffffffffffffffffffffffffffffffffffff90811682850152600283015416606082015260038201546080820152600482015460a0820152600582015460c08201529381018054835181860281018601909452808452919360e086019392908301828280156115f757602002820191906000526020600020905b815473ffffffffffffffffffffffffffffffffffffffff1681526001909101906020018083116115cc575b505050505081525050905086868080601f016020809104026020016040519081016040528093929190818152602001838380828437600092019190915250505060c083015191935050156117675760c08101516000908152600960209081526040808320815160a081018352815460ff811615158252610100810463ffffffff9081169583019590955265010000000000810490941692810192909252690100000000000000000090920473ffffffffffffffffffffffffffffffffffffffff1660608201526001820180549192916080840191906116d590613ac9565b80601f016020809104026020016040519081016040528092919081815260200182805461170190613ac9565b801561174e5780601f106117235761010080835404028352916020019161174e565b820191906000526020600020905b81548152906001019060200180831161173157829003601f168201915b505050505081525050905061176381846129e9565b9250505b608080820151600090815260076020908152604091829020825160a081018452905460ff808216151583526101008204161580159383019390935267ffffffffffffffff6201000082048116948301949094526a01000000000000000000008104841660608301527201000000000000000000000000000000000000900490921692820192909252600196508a95508994509061197e578060400151816060018181516118149190613ec8565b67ffffffffffffffff169052506040810151608082018051611837908390613ec8565b67ffffffffffffffff90811690915260808085015160009081526007602090815260409182902086518154928801519388015160608901519589015187167201000000000000000000000000000000000000027fffffffffffff0000000000000000ffffffffffffffffffffffffffffffffffff9688166a0100000000000000000000027fffffffffffffffffffffffffffff0000000000000000ffffffffffffffffffff929098166201000002919091167fffffffffffffffffffffffffffff00000000000000000000000000000000ffff951515610100027fffffffffffffffffffffffffffffffffffffffffffffffffffffffffffff00ff931515939093167fffffffffffffffffffffffffffffffffffffffffffffffffffffffffffff0000909516949094179190911793909316919091179390931791909116179055506119b6565b60008b815260046020526040902080547fffffffffffffffffffffffffffffffffffffffffffffffffffffffffffffff001660011790555b6040518b907f7aa881478d27af36d431f61fef6f7ace4a94a16a5939a8fbaaa1a950e8d7621190600090a2505095509550955095915050565b8351600090806119fd575083515b611a63576040517f08c379a000000000000000000000000000000000000000000000000000000000815260206004820152601f60248201527f52656769737472793a206e6f20636f6e646974696f6e2070726f7669646564006044820152606401610559565b8515611b8e576000825111611afa576040517f08c379a000000000000000000000000000000000000000000000000000000000815260206004820152602e60248201527f52656769737472793a204261746368205472616e73616374696f6e73206e656560448201527f642064657374696e6174696f6e730000000000000000000000000000000000006064820152608401610559565b825115611b89576040517f08c379a000000000000000000000000000000000000000000000000000000000815260206004820152603d60248201527f52656769737472793a206261746368207472616e73616374696f6e732063616e60448201527f206e6f74207573652065787465726e616c206461746120736f757263650000006064820152608401610559565b611c0b565b73ffffffffffffffffffffffffffffffffffffffff8716611c0b576040517f08c379a000000000000000000000000000000000000000000000000000000000815260206004820152601d60248201527f52656769737472793a20496e76616c69642064657374696e6174696f6e0000006044820152606401610559565b6040805161010081018252600080548083528915156020840152339383019390935273ffffffffffffffffffffffffffffffffffffffff8a1660608301526080820181905260a0820181905260c0820181905260e0820185905290919080611c7283613ef4565b9091555050855115611e5a576001805460009081526007602090815260409182902089518154928b0151848c015160608d01516080808f015167ffffffffffffffff9081167201000000000000000000000000000000000000027fffffffffffff0000000000000000ffffffffffffffffffffffffffffffffffff9382166a0100000000000000000000027fffffffffffffffffffffffffffff0000000000000000ffffffffffffffffffff929095166201000002919091167fffffffffffffffffffffffffffff00000000000000000000000000000000ffff951515610100027fffffffffffffffffffffffffffffffffffffffffffffffffffffffffffff00ff971515979097167fffffffffffffffffffffffffffffffffffffffffffffffffffffffffffff00009099169890981795909517939093169590951717939093161790559154918301829052517f86baa440de9030abb62eee7ede83141ccb644ded5d637ae37fe56f6f0db426ac90611e38908990600060a082019050825115158252602083015115156020830152604083015167ffffffffffffffff8082166040850152806060860151166060850152806080860151166080850152505092915050565b60405180910390a260018054906000611e5083613ef4565b919050555061203d565b84511561203d576002546000908152600860209081526040918290208751815492890151938901517fffffffffffffffffffffffffffffffffffffffffffffffffffffff00000000009093169015157fffffffffffffffffffffffffffffffffffffffffffffffffffffff00000000ff161761010063ffffffff90941693909302929092177fffffffffffffff0000000000000000000000000000000000000000ffffffffff166501000000000073ffffffffffffffffffffffffffffffffffffffff9283160217825560608701516001830180547fffffffffffffffffffffffff00000000000000000000000000000000000000008116929093169182178155608089015189949390927fffffffffffffffffffffff000000000000000000000000000000000000000000909116177401000000000000000000000000000000000000000083600e811115611fb257611fb26130d4565b021790555060a08201516002820190611fcb9082613f7b565b5060c08201516003820190611fe09082613f7b565b505060025460a083018190526040519091507f29018b62fdebdfbbd302d046d4a9a98684c7699a6acbb893bdfe9fece0eb84d49061201f908890614095565b60405180910390a26002805490600061203783613ef4565b91905055505b8351156121b757600354600090815260096020908152604091829020865181549288015193880151606089015173ffffffffffffffffffffffffffffffffffffffff166901000000000000000000027fffffff0000000000000000000000000000000000000000ffffffffffffffffff63ffffffff9283166501000000000002167fffffff000000000000000000000000000000000000000000000000ffffffffff92909616610100027fffffffffffffffffffffffffffffffffffffffffffffffffffffff00000000ff931515939093167fffffffffffffffffffffffffffffffffffffffffffffffffffffff0000000000909516949094179190911716929092171781556080850151859190600182019061215a9082613f7b565b505060035460c083018190526040519091507f2bc4e949de4b8d431563c39f92469ed2ae5eb6338b36cb4d2da85e646f1e06ed9061219990879061416d565b60405180910390a2600380549060006121b183613ef4565b91905055505b80516000908152600660208181526040928390208451815581850151600182018054958701517fffffffffffffffffffffff0000000000000000000000000000000000000000009096169115157fffffffffffffffffffffff0000000000000000000000000000000000000000ff169190911761010073ffffffffffffffffffffffffffffffffffffffff9687160217905560608501516002820180547fffffffffffffffffffffffff00000000000000000000000000000000000000001691909516179093556080840151600384015560a0840151600484015560c0840151600584015560e084015180518594936122b59390850192019061301c565b505081516000908152600460205260409081902080547fffffffffffffffffffffffffffffffffffffffffffffffffffffffffffffff00169055517ffe0071385df1e0b448c9a88a7471f25a73c77d950d3d834150aaaceab5da580b915061231e908390613dfe565b60405180910390a151979650505050505050565b6000878152600460205260408120546060908190819060ff16156123b2576040517f08c379a000000000000000000000000000000000000000000000000000000000815260206004820152601f60248201527f52656769737472793a205461736b20616c7265616479206578656375746564006044820152606401610559565b60008b81526006602081815260408084208151610100808201845282548252600183015460ff81161515838701520473ffffffffffffffffffffffffffffffffffffffff90811682850152600283015416606082015260038201546080820152600482015460a0820152600582015460c08201529381018054835181860281018601909452808452919360e0860193929083018282801561248957602002820191906000526020600020905b815473ffffffffffffffffffffffffffffffffffffffff16815260019091019060200180831161245e575b50505050508152505090508b816000015114612501576040517f08c379a000000000000000000000000000000000000000000000000000000000815260206004820152601d60248201527f52656769737472793a205461736b20646f6573206e6f742065786973740000006044820152606401610559565b600194508a8a8080602002602001604051908101604052809392919081815260200183836020028082843760009201919091525092965061254892508891508990506141d4565b91508888808060200260200160405190810160405280939291908181526020018383602002808284376000920182905250608080870151825260076020908152604092839020835160a081018552905460ff808216151583526101008204161580159383019390935267ffffffffffffffff6201000082048116958301959095526a0100000000000000000000810485166060830152720100000000000000000000000000000000000090049093169183019190915294975093925061278b915050578060400151816060018181516126219190613ec8565b67ffffffffffffffff169052506040810151608082018051612644908390613ec8565b67ffffffffffffffff90811690915260808085015160009081526007602090815260409182902086518154928801519388015160608901519589015187167201000000000000000000000000000000000000027fffffffffffff0000000000000000ffffffffffffffffffffffffffffffffffff9688166a0100000000000000000000027fffffffffffffffffffffffffffff0000000000000000ffffffffffffffffffff929098166201000002919091167fffffffffffffffffffffffffffff00000000000000000000000000000000ffff951515610100027fffffffffffffffffffffffffffffffffffffffffffffffffffffffffffff00ff931515939093167fffffffffffffffffffffffffffffffffffffffffffffffffffffffffffff0000909516949094179190911793909316919091179390931791909116179055506127c3565b60008d815260046020526040902080547fffffffffffffffffffffffffffffffffffffffffffffffffffffffffffffff001660011790555b6040518d907f7aa881478d27af36d431f61fef6f7ace4a94a16a5939a8fbaaa1a950e8d7621190600090a25050975097509750979350505050565b600061280982612c2f565b805190602001209050919050565b60008060006128268585612d01565b9150915061283381612d46565b509392505050565b6000806000836040015173ffffffffffffffffffffffffffffffffffffffff168460a0015160405161286d91906141e1565b6000604051808303816000865af19150503d80600081146128aa576040519150601f19603f3d011682016040523d82523d6000602084013e6128af565b606091505b509150915081612941576040517f08c379a000000000000000000000000000000000000000000000000000000000815260206004820152602260248201527f52656769737472793a20496e76616c6964204f6e436861696e436f6e6469746960448201527f6f6e0000000000000000000000000000000000000000000000000000000000006064820152608401610559565b606084015160c08501516040517fbe81ec9a00000000000000000000000000000000000000000000000000000000815273ffffffffffffffffffffffffffffffffffffffff9092169163be81ec9a9161299e9185906004016141fd565b6020604051808303816000875af11580156129bd573d6000803e3d6000fd5b505050506040513d601f19601f820116820180604052508101906129e19190614222565b949350505050565b6060600080846060015173ffffffffffffffffffffffffffffffffffffffff168560800151604051612a1b91906141e1565b6000604051808303816000865af19150503d8060008114612a58576040519150601f19603f3d011682016040523d82523d6000602084013e612a5d565b606091505b509150915081612ac9576040517f08c379a000000000000000000000000000000000000000000000000000000000815260206004820152601b60248201527f52656769737472793a2064617461206665746368206661696c656400000000006044820152606401610559565b60208501516040517f15751a4f00000000000000000000000000000000000000000000000000000000815260009173__$7784bc39d6dfa4a7f4e471837a98fa26bb$__916315751a4f91612b229186919060040161423f565b602060405180830381865af4158015612b3f573d6000803e3d6000fd5b505050506040513d601f19601f82011682018060405250810190612b639190614267565b60408088015190517f9523baae00000000000000000000000000000000000000000000000000000000815291925060009173__$7784bc39d6dfa4a7f4e471837a98fa26bb$__91639523baae91612bc1918a91879190600401614280565b600060405180830381865af4158015612bde573d6000803e3d6000fd5b505050506040513d6000823e601f3d9081017fffffffffffffffffffffffffffffffffffffffffffffffffffffffffffffffe0168201604052612c2491908101906142af565b979650505050505050565b606081356000612c4a612c456040860186613b40565b612efc565b90506000612c5e612c456060870187613b40565b9050608085013560a086013560c087013560e08801356101008901356000612c8d612c456101208d018d613b40565b6040805173ffffffffffffffffffffffffffffffffffffffff9b909b1660208c01528a81019990995260608a019790975250608088019490945260a087019290925260c086015260e08501526101008401526101208084019190915281518084039091018152610140909201905292915050565b6000808251604103612d375760208301516040840151606085015160001a612d2b87828585612f0f565b94509450505050612d3f565b506000905060025b9250929050565b6000816004811115612d5a57612d5a6130d4565b03612d625750565b6001816004811115612d7657612d766130d4565b03612ddd576040517f08c379a000000000000000000000000000000000000000000000000000000000815260206004820152601860248201527f45434453413a20696e76616c6964207369676e617475726500000000000000006044820152606401610559565b6002816004811115612df157612df16130d4565b03612e58576040517f08c379a000000000000000000000000000000000000000000000000000000000815260206004820152601f60248201527f45434453413a20696e76616c6964207369676e6174757265206c656e677468006044820152606401610559565b6003816004811115612e6c57612e6c6130d4565b03612ef9576040517f08c379a000000000000000000000000000000000000000000000000000000000815260206004820152602260248201527f45434453413a20696e76616c6964207369676e6174757265202773272076616c60448201527f75650000000000000000000000000000000000000000000000000000000000006064820152608401610559565b50565b6000604051828085833790209392505050565b6000807f7fffffffffffffffffffffffffffffff5d576e7357a4501ddfe92f46681b20a0831115612f465750600090506003612ff5565b6040805160008082526020820180845289905260ff881692820192909252606081018690526080810185905260019060a0016020604051602081039080840390855afa158015612f9a573d6000803e3d6000fd5b50506040517fffffffffffffffffffffffffffffffffffffffffffffffffffffffffffffffe0015191505073ffffffffffffffffffffffffffffffffffffffff8116612fee57600060019250925050612ff5565b9150600090505b94509492505050565b5080546000825590600052602060002090810190612ef991906130a6565b828054828255906000526020600020908101928215613096579160200282015b8281111561309657825182547fffffffffffffffffffffffff00000000000000000000000000000000000000001673ffffffffffffffffffffffffffffffffffffffff90911617825560209092019160019091019061303c565b506130a29291506130a6565b5090565b5b808211156130a257600081556001016130a7565b6000602082840312156130cd57600080fd5b5035919050565b7f4e487b7100000000000000000000000000000000000000000000000000000000600052602160045260246000fd5b600f811061313a577f4e487b7100000000000000000000000000000000000000000000000000000000600052602160045260246000fd5b9052565b60005b83811015613159578181015183820152602001613141565b83811115613168576000848401525b50505050565b6000815180845261318681602086016020860161313e565b601f017fffffffffffffffffffffffffffffffffffffffffffffffffffffffffffffffe0169290920160200192915050565b871515815263ffffffff8716602082015273ffffffffffffffffffffffffffffffffffffffff86811660408301528516606082015260006131fc6080830186613103565b60e060a083015261321060e083018561316e565b82810360c0840152613222818561316e565b9a9950505050505050505050565b6000806040838503121561324357600080fd5b82359150602083013567ffffffffffffffff81111561326157600080fd5b8301610160818603121561327457600080fd5b809150509250929050565b8515158152600063ffffffff808716602084015280861660408401525073ffffffffffffffffffffffffffffffffffffffff8416606083015260a06080830152612c2460a083018461316e565b73ffffffffffffffffffffffffffffffffffffffff81168114612ef957600080fd5b80356132f9816132cc565b919050565b60008060008060006080868803121561331657600080fd5b853594506020860135613328816132cc565b935060408601359250606086013567ffffffffffffffff8082111561334c57600080fd5b818801915088601f83011261336057600080fd5b81358181111561336f57600080fd5b89602082850101111561338157600080fd5b9699959850939650602001949392505050565b841515815273ffffffffffffffffffffffffffffffffffffffff841660208201528260408201526080606082015260006133d1608083018461316e565b9695505050505050565b8015158114612ef957600080fd5b80356132f9816133db565b7f4e487b7100000000000000000000000000000000000000000000000000000000600052604160045260246000fd5b60405160e0810167ffffffffffffffff81118282101715613446576134466133f4565b60405290565b60405160a0810167ffffffffffffffff81118282101715613446576134466133f4565b604051601f82017fffffffffffffffffffffffffffffffffffffffffffffffffffffffffffffffe016810167ffffffffffffffff811182821017156134b6576134b66133f4565b604052919050565b803567ffffffffffffffff811681146132f957600080fd5b803563ffffffff811681146132f957600080fd5b8035600f81106132f957600080fd5b600067ffffffffffffffff821115613513576135136133f4565b50601f017fffffffffffffffffffffffffffffffffffffffffffffffffffffffffffffffe01660200190565b600082601f83011261355057600080fd5b813561356361355e826134f9565b61346f565b81815284602083860101111561357857600080fd5b816020850160208301376000918101602001919091529392505050565b600060e082840312156135a757600080fd5b6135af613423565b90506135ba826133e9565b81526135c8602083016134d6565b60208201526135d9604083016132ee565b60408201526135ea606083016132ee565b60608201526135fb608083016134ea565b608082015260a082013567ffffffffffffffff8082111561361b57600080fd5b6136278583860161353f565b60a084015260c084013591508082111561364057600080fd5b5061364d8482850161353f565b60c08301525092915050565b600060a0828403121561366b57600080fd5b61367361344c565b90508135613680816133db565b815261368e602083016134d6565b602082015261369f604083016134d6565b604082015260608201356136b2816132cc565b6060820152608082013567ffffffffffffffff8111156136d157600080fd5b6136dd8482850161353f565b60808301525092915050565b600067ffffffffffffffff821115613703576137036133f4565b5060051b60200190565b600082601f83011261371e57600080fd5b8135602061372e61355e836136e9565b82815260059290921b8401810191818101908684111561374d57600080fd5b8286015b84811015613771578035613764816132cc565b8352918301918301613751565b509695505050505050565b60008060008060008086880361014081121561379757600080fd5b87356137a2816132cc565b965060208801356137b2816133db565b955060a07fffffffffffffffffffffffffffffffffffffffffffffffffffffffffffffffc0820112156137e457600080fd5b506137ed61344c565b60408801356137fb816133db565b8152606088013561380b816133db565b602082015261381c608089016134be565b604082015261382d60a089016134be565b606082015261383e60c089016134be565b6080820152935060e087013567ffffffffffffffff8082111561386057600080fd5b61386c8a838b01613595565b945061010089013591508082111561388357600080fd5b61388f8a838b01613659565b93506101208901359150808211156138a657600080fd5b506138b389828a0161370d565b9150509295509295509295565b60008083601f8401126138d257600080fd5b50813567ffffffffffffffff8111156138ea57600080fd5b6020830191508360208260051b8501011115612d3f57600080fd5b60008060008060008060006080888a03121561392057600080fd5b87359650602088013567ffffffffffffffff8082111561393f57600080fd5b61394b8b838c016138c0565b909850965060408a013591508082111561396457600080fd5b6139708b838c016138c0565b909650945060608a013591508082111561398957600080fd5b506139968a828b016138c0565b989b979a50959850939692959293505050565b600081518084526020808501945080840160005b838110156139ef57815173ffffffffffffffffffffffffffffffffffffffff16875295820195908201906001016139bd565b509495945050505050565b841515815260006020608081840152613a1660808401876139a9565b838103604085015285518082528287019183019060005b81811015613a4957835183529284019291840191600101613a2d565b5050848103606086015285518082528382019250600581901b8201840184880160005b83811015613ab8577fffffffffffffffffffffffffffffffffffffffffffffffffffffffffffffffe0858403018652613aa683835161316e565b95870195925090860190600101613a6c565b50909b9a5050505050505050505050565b600181811c90821680613add57607f821691505b602082108103613b16577f4e487b7100000000000000000000000000000000000000000000000000000000600052602260045260246000fd5b50919050565b600060208284031215613b2e57600080fd5b8151613b39816132cc565b9392505050565b60008083357fffffffffffffffffffffffffffffffffffffffffffffffffffffffffffffffe1843603018112613b7557600080fd5b83018035915067ffffffffffffffff821115613b9057600080fd5b602001915036819003821315612d3f57600080fd5b60008085851115613bb557600080fd5b83861115613bc257600080fd5b5050820193919092039150565b7fffffffff000000000000000000000000000000000000000000000000000000008135818116916004851015613c0f5780818660040360031b1b83161692505b505092915050565b6000613c2561355e846136e9565b8381529050602080820190600585901b840186811115613c4457600080fd5b845b81811015613c8057803567ffffffffffffffff811115613c665760008081fd5b613c728982890161353f565b855250928201928201613c46565b505050509392505050565b600082601f830112613c9c57600080fd5b613b3983833560208501613c17565b60008060008060808587031215613cc157600080fd5b8435935060208086013567ffffffffffffffff80821115613ce157600080fd5b613ced89838a0161370d565b95506040880135915080821115613d0357600080fd5b818801915088601f830112613d1757600080fd5b8135613d2561355e826136e9565b81815260059190911b8301840190848101908b831115613d4457600080fd5b938501935b82851015613d6257843582529385019390850190613d49565b965050506060880135925080831115613d7a57600080fd5b5050613d8887828801613c8b565b91505092959194509250565b602081526000613b3960208301846139a9565b60008060008060808587031215613dbd57600080fd5b843593506020850135613dcf816132cc565b925060408501359150606085013567ffffffffffffffff811115613df257600080fd5b613d888782880161353f565b602081528151602082015260208201511515604082015273ffffffffffffffffffffffffffffffffffffffff604083015116606082015260006060830151613e5e608084018273ffffffffffffffffffffffffffffffffffffffff169052565b50608083015160a083015260a083015160c083015260c083015160e083015260e08301516101008081850152506129e16101208401826139a9565b7f4e487b7100000000000000000000000000000000000000000000000000000000600052601160045260246000fd5b600067ffffffffffffffff808316818516808303821115613eeb57613eeb613e99565b01949350505050565b60007fffffffffffffffffffffffffffffffffffffffffffffffffffffffffffffffff8203613f2557613f25613e99565b5060010190565b601f821115613f7657600081815260208120601f850160051c81016020861015613f535750805b601f850160051c820191505b81811015613f7257828155600101613f5f565b5050505b505050565b815167ffffffffffffffff811115613f9557613f956133f4565b613fa981613fa38454613ac9565b84613f2c565b602080601f831160018114613ffc5760008415613fc65750858301515b7fffffffffffffffffffffffffffffffffffffffffffffffffffffffffffffffff600386901b1c1916600185901b178555613f72565b6000858152602081207fffffffffffffffffffffffffffffffffffffffffffffffffffffffffffffffe08616915b828110156140495788860151825594840194600190910190840161402a565b508582101561408557878501517fffffffffffffffffffffffffffffffffffffffffffffffffffffffffffffffff600388901b60f8161c191681555b5050505050600190811b01905550565b6020815281511515602082015263ffffffff602083015116604082015273ffffffffffffffffffffffffffffffffffffffff6040830151166060820152600060608301516140fb608084018273ffffffffffffffffffffffffffffffffffffffff169052565b50608083015161410e60a0840182613103565b5060a083015160e060c084015261412961010084018261316e565b905060c08401517fffffffffffffffffffffffffffffffffffffffffffffffffffffffffffffffe08483030160e0850152614164828261316e565b95945050505050565b602081528151151560208201526000602083015163ffffffff8082166040850152806040860151166060850152505073ffffffffffffffffffffffffffffffffffffffff6060840151166080830152608083015160a0808401526129e160c084018261316e565b6000613b39368484613c17565b600082516141f381846020870161313e565b9190910192915050565b604081526000614210604083018561316e565b8281036020840152614164818561316e565b60006020828403121561423457600080fd5b8151613b39816133db565b604081526000614252604083018561316e565b905063ffffffff831660208301529392505050565b60006020828403121561427957600080fd5b5051919050565b606081526000614293606083018661316e565b905083602083015263ffffffff83166040830152949350505050565b6000602082840312156142c157600080fd5b815167ffffffffffffffff8111156142d857600080fd5b8201601f810184136142e957600080fd5b80516142f761355e826134f9565b81815285602083850101111561430c57600080fd5b61416482602083016020860161313e56fea26469706673582212209f8a72917a79dec927c3429b14d4463db54f94a24df1f98fb43d305e78f5f7ed64736f6c634300080f0033",
  "linkReferences": {
    "contracts/flattened/EpochRegistry.sol": {
      "ByteManipulationLibrary": [
        {
          "length": 20,
          "start": 11052
        },
        {
          "length": 20,
          "start": 11209
        }
      ]
    }
  },
  "deployedLinkReferences": {
    "contracts/flattened/EpochRegistry.sol": {
      "ByteManipulationLibrary": [
        {
          "length": 20,
          "start": 11001
        },
        {
          "length": 20,
          "start": 11158
        }
      ]
    }
  }
}