{
  "_format": "hh-sol-artifact-1",
  "contractName": "TestAggregatedAccount",
  "sourceName": "contracts/test/TestAggregatedAccount.sol",
  "abi": [
    {
      "inputs": [
        {
          "internalType": "contract IEntryPoint",
          "name": "anEntryPoint",
          "type": "address"
        },
        {
          "internalType": "address",
          "name": "anAggregator",
          "type": "address"
        }
      ],
      "stateMutability": "nonpayable",
      "type": "constructor"
    },
    {
      "anonymous": false,
      "inputs": [
        {
          "indexed": false,
          "internalType": "address",
          "name": "previousAdmin",
          "type": "address"
        },
        {
          "indexed": false,
          "internalType": "address",
          "name": "newAdmin",
          "type": "address"
        }
      ],
      "name": "AdminChanged",
      "type": "event"
    },
    {
      "anonymous": false,
      "inputs": [
        {
          "indexed": true,
          "internalType": "address",
          "name": "beacon",
          "type": "address"
        }
      ],
      "name": "BeaconUpgraded",
      "type": "event"
    },
    {
      "anonymous": false,
      "inputs": [
        {
          "indexed": false,
          "internalType": "uint8",
          "name": "version",
          "type": "uint8"
        }
      ],
      "name": "Initialized",
      "type": "event"
    },
    {
      "anonymous": false,
      "inputs": [
        {
          "indexed": true,
          "internalType": "contract IEntryPoint",
          "name": "entryPoint",
          "type": "address"
        },
        {
          "indexed": true,
          "internalType": "address",
          "name": "owner",
          "type": "address"
        }
      ],
      "name": "SimpleAccountInitialized",
      "type": "event"
    },
    {
      "anonymous": false,
      "inputs": [
        {
          "indexed": true,
          "internalType": "address",
          "name": "implementation",
          "type": "address"
        }
      ],
      "name": "Upgraded",
      "type": "event"
    },
    {
      "inputs": [],
      "name": "addDeposit",
      "outputs": [],
      "stateMutability": "payable",
      "type": "function"
    },
    {
      "inputs": [],
      "name": "aggregator",
      "outputs": [
        {
          "internalType": "address",
          "name": "",
          "type": "address"
        }
      ],
      "stateMutability": "view",
      "type": "function"
    },
    {
      "inputs": [],
      "name": "entryPoint",
      "outputs": [
        {
          "internalType": "contract IEntryPoint",
          "name": "",
          "type": "address"
        }
      ],
      "stateMutability": "view",
      "type": "function"
    },
    {
      "inputs": [
        {
          "internalType": "address",
          "name": "dest",
          "type": "address"
        },
        {
          "internalType": "uint256",
          "name": "value",
          "type": "uint256"
        },
        {
          "internalType": "bytes",
          "name": "func",
          "type": "bytes"
        }
      ],
      "name": "execute",
      "outputs": [],
      "stateMutability": "nonpayable",
      "type": "function"
    },
    {
      "inputs": [
        {
          "internalType": "address[]",
          "name": "dest",
          "type": "address[]"
        },
        {
          "internalType": "uint256[]",
          "name": "value",
          "type": "uint256[]"
        },
        {
          "internalType": "bytes[]",
          "name": "func",
          "type": "bytes[]"
        }
      ],
      "name": "executeBatch",
      "outputs": [],
      "stateMutability": "nonpayable",
      "type": "function"
    },
    {
      "inputs": [],
      "name": "getDeposit",
      "outputs": [
        {
          "internalType": "uint256",
          "name": "",
          "type": "uint256"
        }
      ],
      "stateMutability": "view",
      "type": "function"
    },
    {
      "inputs": [],
      "name": "getNonce",
      "outputs": [
        {
          "internalType": "uint256",
          "name": "",
          "type": "uint256"
        }
      ],
      "stateMutability": "view",
      "type": "function"
    },
    {
      "inputs": [
        {
          "internalType": "address",
          "name": "",
          "type": "address"
        }
      ],
      "name": "initialize",
      "outputs": [],
      "stateMutability": "nonpayable",
      "type": "function"
    },
    {
      "inputs": [
        {
          "internalType": "address",
          "name": "",
          "type": "address"
        },
        {
          "internalType": "address",
          "name": "",
          "type": "address"
        },
        {
          "internalType": "uint256[]",
          "name": "",
          "type": "uint256[]"
        },
        {
          "internalType": "uint256[]",
          "name": "",
          "type": "uint256[]"
        },
        {
          "internalType": "bytes",
          "name": "",
          "type": "bytes"
        }
      ],
      "name": "onERC1155BatchReceived",
      "outputs": [
        {
          "internalType": "bytes4",
          "name": "",
          "type": "bytes4"
        }
      ],
      "stateMutability": "pure",
      "type": "function"
    },
    {
      "inputs": [
        {
          "internalType": "address",
          "name": "",
          "type": "address"
        },
        {
          "internalType": "address",
          "name": "",
          "type": "address"
        },
        {
          "internalType": "uint256",
          "name": "",
          "type": "uint256"
        },
        {
          "internalType": "uint256",
          "name": "",
          "type": "uint256"
        },
        {
          "internalType": "bytes",
          "name": "",
          "type": "bytes"
        }
      ],
      "name": "onERC1155Received",
      "outputs": [
        {
          "internalType": "bytes4",
          "name": "",
          "type": "bytes4"
        }
      ],
      "stateMutability": "pure",
      "type": "function"
    },
    {
      "inputs": [
        {
          "internalType": "address",
          "name": "",
          "type": "address"
        },
        {
          "internalType": "address",
          "name": "",
          "type": "address"
        },
        {
          "internalType": "uint256",
          "name": "",
          "type": "uint256"
        },
        {
          "internalType": "bytes",
          "name": "",
          "type": "bytes"
        }
      ],
      "name": "onERC721Received",
      "outputs": [
        {
          "internalType": "bytes4",
          "name": "",
          "type": "bytes4"
        }
      ],
      "stateMutability": "pure",
      "type": "function"
    },
    {
      "inputs": [],
      "name": "owner",
      "outputs": [
        {
          "internalType": "address",
          "name": "",
          "type": "address"
        }
      ],
      "stateMutability": "view",
      "type": "function"
    },
    {
      "inputs": [],
      "name": "proxiableUUID",
      "outputs": [
        {
          "internalType": "bytes32",
          "name": "",
          "type": "bytes32"
        }
      ],
      "stateMutability": "view",
      "type": "function"
    },
    {
      "inputs": [
        {
          "internalType": "bytes4",
          "name": "interfaceId",
          "type": "bytes4"
        }
      ],
      "name": "supportsInterface",
      "outputs": [
        {
          "internalType": "bool",
          "name": "",
          "type": "bool"
        }
      ],
      "stateMutability": "view",
      "type": "function"
    },
    {
      "inputs": [
        {
          "internalType": "address",
          "name": "",
          "type": "address"
        },
        {
          "internalType": "address",
          "name": "",
          "type": "address"
        },
        {
          "internalType": "address",
          "name": "",
          "type": "address"
        },
        {
          "internalType": "uint256",
          "name": "",
          "type": "uint256"
        },
        {
          "internalType": "bytes",
          "name": "",
          "type": "bytes"
        },
        {
          "internalType": "bytes",
          "name": "",
          "type": "bytes"
        }
      ],
      "name": "tokensReceived",
      "outputs": [],
      "stateMutability": "pure",
      "type": "function"
    },
    {
      "inputs": [
        {
          "internalType": "address",
          "name": "newImplementation",
          "type": "address"
        }
      ],
      "name": "upgradeTo",
      "outputs": [],
      "stateMutability": "nonpayable",
      "type": "function"
    },
    {
      "inputs": [
        {
          "internalType": "address",
          "name": "newImplementation",
          "type": "address"
        },
        {
          "internalType": "bytes",
          "name": "data",
          "type": "bytes"
        }
      ],
      "name": "upgradeToAndCall",
      "outputs": [],
      "stateMutability": "payable",
      "type": "function"
    },
    {
      "inputs": [
        {
          "components": [
            {
              "internalType": "address",
              "name": "sender",
              "type": "address"
            },
            {
              "internalType": "uint256",
              "name": "nonce",
              "type": "uint256"
            },
            {
              "internalType": "bytes",
              "name": "initCode",
              "type": "bytes"
            },
            {
              "internalType": "bytes",
              "name": "callData",
              "type": "bytes"
            },
            {
              "internalType": "uint256",
              "name": "callGasLimit",
              "type": "uint256"
            },
            {
              "internalType": "uint256",
              "name": "verificationGasLimit",
              "type": "uint256"
            },
            {
              "internalType": "uint256",
              "name": "preVerificationGas",
              "type": "uint256"
            },
            {
              "internalType": "uint256",
              "name": "maxFeePerGas",
              "type": "uint256"
            },
            {
              "internalType": "uint256",
              "name": "maxPriorityFeePerGas",
              "type": "uint256"
            },
            {
              "internalType": "bytes",
              "name": "paymasterAndData",
              "type": "bytes"
            },
            {
              "internalType": "bytes",
              "name": "signature",
              "type": "bytes"
            }
          ],
          "internalType": "struct UserOperation",
          "name": "userOp",
          "type": "tuple"
        },
        {
          "internalType": "bytes32",
          "name": "userOpHash",
          "type": "bytes32"
        },
        {
          "internalType": "uint256",
          "name": "missingAccountFunds",
          "type": "uint256"
        }
      ],
      "name": "validateUserOp",
      "outputs": [
        {
          "internalType": "uint256",
          "name": "validationData",
          "type": "uint256"
        }
      ],
      "stateMutability": "nonpayable",
      "type": "function"
    },
    {
      "inputs": [
        {
          "internalType": "address payable",
          "name": "withdrawAddress",
          "type": "address"
        },
        {
          "internalType": "uint256",
          "name": "amount",
          "type": "uint256"
        }
      ],
      "name": "withdrawDepositTo",
      "outputs": [],
      "stateMutability": "nonpayable",
      "type": "function"
    },
    {
      "stateMutability": "payable",
      "type": "receive"
    }
  ],
  "bytecode": "0x60e0604052306080523480156200001557600080fd5b50604051620023583803806200235883398101604081905262000038916200013f565b6001600160a01b03821660a052816200005062000064565b506001600160a01b031660c052506200017e565b600054610100900460ff1615620000d15760405162461bcd60e51b815260206004820152602760248201527f496e697469616c697a61626c653a20636f6e747261637420697320696e697469604482015266616c697a696e6760c81b606482015260840160405180910390fd5b60005460ff908116101562000124576000805460ff191660ff9081179091556040519081527f7f26b83ff96e1f2b6a682f133852f6798a09c465da95921460cefb38474024989060200160405180910390a15b565b6001600160a01b03811681146200013c57600080fd5b50565b600080604083850312156200015357600080fd5b8251620001608162000126565b6020840151909250620001738162000126565b809150509250929050565b60805160a05160c051612156620002026000396000818161023701526107b501526000818161037e015281816109ae01528181610a5c01528181610e78015281816110ca0152818161131d01528181611429015261163c0152600081816105960152818161064b01528181610b1801528181610bc80152610d1101526121566000f3fe6080604052600436106101475760003560e01c80634f1ef286116100c0578063bc197c8111610074578063c4d66de811610059578063c4d66de81461041f578063d087d2881461043f578063f23a6e611461045457600080fd5b8063bc197c81146103c2578063c399ec881461040a57600080fd5b80638da5cb5b116100a55780638da5cb5b1461033c578063b0d691fe1461036f578063b61d27f6146103a257600080fd5b80634f1ef2861461031457806352d1902d1461032757600080fd5b80633659cfe61161011757806347e1da2a116100fc57806347e1da2a146102cc5780634a58db19146102ec5780634d44560d146102f457600080fd5b80633659cfe61461027e5780633a871cdd1461029e57600080fd5b806223de291461015357806301ffc9a71461017a578063150b7a02146101af578063245a7bfc1461022557600080fd5b3661014e57005b600080fd5b34801561015f57600080fd5b5061017861016e3660046119fd565b5050505050505050565b005b34801561018657600080fd5b5061019a610195366004611aae565b61049a565b60405190151581526020015b60405180910390f35b3480156101bb57600080fd5b506101f46101ca366004611af0565b7f150b7a020000000000000000000000000000000000000000000000000000000095945050505050565b6040517fffffffff0000000000000000000000000000000000000000000000000000000090911681526020016101a6565b34801561023157600080fd5b506102597f000000000000000000000000000000000000000000000000000000000000000081565b60405173ffffffffffffffffffffffffffffffffffffffff90911681526020016101a6565b34801561028a57600080fd5b50610178610299366004611b63565b61057f565b3480156102aa57600080fd5b506102be6102b9366004611b80565b610789565b6040519081526020016101a6565b3480156102d857600080fd5b506101786102e7366004611c19565b6107f6565b6101786109ac565b34801561030057600080fd5b5061017861030f366004611cb3565b610a52565b610178610322366004611d0e565b610b01565b34801561033357600080fd5b506102be610cf7565b34801561034857600080fd5b506000546102599062010000900473ffffffffffffffffffffffffffffffffffffffff1681565b34801561037b57600080fd5b507f0000000000000000000000000000000000000000000000000000000000000000610259565b3480156103ae57600080fd5b506101786103bd366004611df0565b610de3565b3480156103ce57600080fd5b506101f46103dd366004611e4c565b7fbc197c810000000000000000000000000000000000000000000000000000000098975050505050505050565b34801561041657600080fd5b506102be610e32565b34801561042b57600080fd5b5061017861043a366004611b63565b610ee9565b34801561044b57600080fd5b506102be61107d565b34801561046057600080fd5b506101f461046f366004611eea565b7ff23a6e61000000000000000000000000000000000000000000000000000000009695505050505050565b60007fffffffff0000000000000000000000000000000000000000000000000000000082167f150b7a0200000000000000000000000000000000000000000000000000000000148061052d57507fffffffff0000000000000000000000000000000000000000000000000000000082167f4e2312e000000000000000000000000000000000000000000000000000000000145b8061057957507fffffffff0000000000000000000000000000000000000000000000000000000082167f01ffc9a700000000000000000000000000000000000000000000000000000000145b92915050565b73ffffffffffffffffffffffffffffffffffffffff7f0000000000000000000000000000000000000000000000000000000000000000163003610649576040517f08c379a000000000000000000000000000000000000000000000000000000000815260206004820152602c60248201527f46756e6374696f6e206d7573742062652063616c6c6564207468726f7567682060448201527f64656c656761746563616c6c000000000000000000000000000000000000000060648201526084015b60405180910390fd5b7f000000000000000000000000000000000000000000000000000000000000000073ffffffffffffffffffffffffffffffffffffffff166106be7f360894a13ba1a3210667c828492db98dca3e2076cc3735a920a3ca505d382bbc5473ffffffffffffffffffffffffffffffffffffffff1690565b73ffffffffffffffffffffffffffffffffffffffff1614610761576040517f08c379a000000000000000000000000000000000000000000000000000000000815260206004820152602c60248201527f46756e6374696f6e206d7573742062652063616c6c6564207468726f7567682060448201527f6163746976652070726f787900000000000000000000000000000000000000006064820152608401610640565b61076a816110f9565b6040805160008082526020820190925261078691839190611101565b50565b6000610793611305565b506040805160608101825273ffffffffffffffffffffffffffffffffffffffff7f00000000000000000000000000000000000000000000000000000000000000001680825260006020830181905291909201526107ef826113a6565b9392505050565b6107fe611411565b8481148015610814575082158061081457508281145b61087a576040517f08c379a000000000000000000000000000000000000000000000000000000000815260206004820152601360248201527f77726f6e67206172726179206c656e67746873000000000000000000000000006044820152606401610640565b60008390036109305760005b8581101561092a576109188787838181106108a3576108a3611f54565b90506020020160208101906108b89190611b63565b60008585858181106108cc576108cc611f54565b90506020028101906108de9190611f83565b8080601f0160208091040260200160405190810160405280939291908181526020018383808284376000920191909152506114d892505050565b8061092281611fe8565b915050610886565b506109a4565b60005b858110156109a25761099087878381811061095057610950611f54565b90506020020160208101906109659190611b63565b86868481811061097757610977611f54565b905060200201358585858181106108cc576108cc611f54565b8061099a81611fe8565b915050610933565b505b505050505050565b7f00000000000000000000000000000000000000000000000000000000000000006040517fb760faf900000000000000000000000000000000000000000000000000000000815230600482015273ffffffffffffffffffffffffffffffffffffffff919091169063b760faf99034906024016000604051808303818588803b158015610a3757600080fd5b505af1158015610a4b573d6000803e3d6000fd5b5050505050565b610a5a611555565b7f00000000000000000000000000000000000000000000000000000000000000006040517f205c287800000000000000000000000000000000000000000000000000000000815273ffffffffffffffffffffffffffffffffffffffff848116600483015260248201849052919091169063205c287890604401600060405180830381600087803b158015610aed57600080fd5b505af11580156109a4573d6000803e3d6000fd5b73ffffffffffffffffffffffffffffffffffffffff7f0000000000000000000000000000000000000000000000000000000000000000163003610bc6576040517f08c379a000000000000000000000000000000000000000000000000000000000815260206004820152602c60248201527f46756e6374696f6e206d7573742062652063616c6c6564207468726f7567682060448201527f64656c656761746563616c6c00000000000000000000000000000000000000006064820152608401610640565b7f000000000000000000000000000000000000000000000000000000000000000073ffffffffffffffffffffffffffffffffffffffff16610c3b7f360894a13ba1a3210667c828492db98dca3e2076cc3735a920a3ca505d382bbc5473ffffffffffffffffffffffffffffffffffffffff1690565b73ffffffffffffffffffffffffffffffffffffffff1614610cde576040517f08c379a000000000000000000000000000000000000000000000000000000000815260206004820152602c60248201527f46756e6374696f6e206d7573742062652063616c6c6564207468726f7567682060448201527f6163746976652070726f787900000000000000000000000000000000000000006064820152608401610640565b610ce7826110f9565b610cf382826001611101565b5050565b60003073ffffffffffffffffffffffffffffffffffffffff7f00000000000000000000000000000000000000000000000000000000000000001614610dbe576040517f08c379a000000000000000000000000000000000000000000000000000000000815260206004820152603860248201527f555550535570677261646561626c653a206d757374206e6f742062652063616c60448201527f6c6564207468726f7567682064656c656761746563616c6c00000000000000006064820152608401610640565b507f360894a13ba1a3210667c828492db98dca3e2076cc3735a920a3ca505d382bbc90565b610deb611411565b610e2c848484848080601f0160208091040260200160405190810160405280939291908181526020018383808284376000920191909152506114d892505050565b50505050565b6040517f70a0823100000000000000000000000000000000000000000000000000000000815230600482015260009073ffffffffffffffffffffffffffffffffffffffff7f000000000000000000000000000000000000000000000000000000000000000016906370a08231906024015b602060405180830381865afa158015610ec0573d6000803e3d6000fd5b505050506040513d601f19601f82011682018060405250810190610ee49190612047565b905090565b600054610100900460ff1615808015610f095750600054600160ff909116105b80610f235750303b158015610f23575060005460ff166001145b610faf576040517f08c379a000000000000000000000000000000000000000000000000000000000815260206004820152602e60248201527f496e697469616c697a61626c653a20636f6e747261637420697320616c72656160448201527f647920696e697469616c697a65640000000000000000000000000000000000006064820152608401610640565b600080547fffffffffffffffffffffffffffffffffffffffffffffffffffffffffffffff00166001179055801561100d57600080547fffffffffffffffffffffffffffffffffffffffffffffffffffffffffffff00ff166101001790555b61101760006115e6565b8015610cf357600080547fffffffffffffffffffffffffffffffffffffffffffffffffffffffffffff00ff169055604051600181527f7f26b83ff96e1f2b6a682f133852f6798a09c465da95921460cefb38474024989060200160405180910390a15050565b6040517f35567e1a0000000000000000000000000000000000000000000000000000000081523060048201526000602482018190529073ffffffffffffffffffffffffffffffffffffffff7f000000000000000000000000000000000000000000000000000000000000000016906335567e1a90604401610ea3565b610786611555565b7f4910fdfa16fed3260ed0e7147f7cc6da11a60208b5b9406d12a635614ffd91435460ff16156111395761113483611685565b505050565b8273ffffffffffffffffffffffffffffffffffffffff166352d1902d6040518163ffffffff1660e01b8152600401602060405180830381865afa9250505080156111be575060408051601f3d9081017fffffffffffffffffffffffffffffffffffffffffffffffffffffffffffffffe01682019092526111bb91810190612047565b60015b61124a576040517f08c379a000000000000000000000000000000000000000000000000000000000815260206004820152602e60248201527f45524331393637557067726164653a206e657720696d706c656d656e7461746960448201527f6f6e206973206e6f7420555550530000000000000000000000000000000000006064820152608401610640565b7f360894a13ba1a3210667c828492db98dca3e2076cc3735a920a3ca505d382bbc81146112f9576040517f08c379a000000000000000000000000000000000000000000000000000000000815260206004820152602960248201527f45524331393637557067726164653a20756e737570706f727465642070726f7860448201527f6961626c655555494400000000000000000000000000000000000000000000006064820152608401610640565b5061113483838361178f565b3373ffffffffffffffffffffffffffffffffffffffff7f000000000000000000000000000000000000000000000000000000000000000016146113a4576040517f08c379a000000000000000000000000000000000000000000000000000000000815260206004820152601c60248201527f6163636f756e743a206e6f742066726f6d20456e747279506f696e74000000006044820152606401610640565b565b80156107865760405160009033907fffffffffffffffffffffffffffffffffffffffffffffffffffffffffffffffff90849084818181858888f193505050503d8060008114610a4b576040519150601f19603f3d011682016040523d82523d6000602084013e610a4b565b3373ffffffffffffffffffffffffffffffffffffffff7f0000000000000000000000000000000000000000000000000000000000000000161480611472575060005462010000900473ffffffffffffffffffffffffffffffffffffffff1633145b6113a4576040517f08c379a000000000000000000000000000000000000000000000000000000000815260206004820181905260248201527f6163636f756e743a206e6f74204f776e6572206f7220456e747279506f696e746044820152606401610640565b6000808473ffffffffffffffffffffffffffffffffffffffff168484604051611501919061208c565b60006040518083038185875af1925050503d806000811461153e576040519150601f19603f3d011682016040523d82523d6000602084013e611543565b606091505b509150915081610a4b57805160208201fd5b60005462010000900473ffffffffffffffffffffffffffffffffffffffff1633148061158057503330145b6113a4576040517f08c379a000000000000000000000000000000000000000000000000000000000815260206004820152600a60248201527f6f6e6c79206f776e6572000000000000000000000000000000000000000000006044820152606401610640565b600080547fffffffffffffffffffff0000000000000000000000000000000000000000ffff166201000073ffffffffffffffffffffffffffffffffffffffff8481168202929092178084556040519190048216927f0000000000000000000000000000000000000000000000000000000000000000909216917f47e55c76e7a6f1fd8996a1da8008c1ea29699cca35e7bcd057f2dec313b6e5de91a350565b73ffffffffffffffffffffffffffffffffffffffff81163b611729576040517f08c379a000000000000000000000000000000000000000000000000000000000815260206004820152602d60248201527f455243313936373a206e657720696d706c656d656e746174696f6e206973206e60448201527f6f74206120636f6e7472616374000000000000000000000000000000000000006064820152608401610640565b7f360894a13ba1a3210667c828492db98dca3e2076cc3735a920a3ca505d382bbc80547fffffffffffffffffffffffff00000000000000000000000000000000000000001673ffffffffffffffffffffffffffffffffffffffff92909216919091179055565b611798836117b4565b6000825111806117a55750805b1561113457610e2c8383611801565b6117bd81611685565b60405173ffffffffffffffffffffffffffffffffffffffff8216907fbc7cd75a20ee27fd9adebab32041f755214dbc6bffa90cc0225b39da2e5c2d3b90600090a250565b60606107ef83836040518060600160405280602781526020016120fa6027913960606000808573ffffffffffffffffffffffffffffffffffffffff168560405161184b919061208c565b600060405180830381855af49150503d8060008114611886576040519150601f19603f3d011682016040523d82523d6000602084013e61188b565b606091505b509150915061189c868383876118a6565b9695505050505050565b6060831561193c5782516000036119355773ffffffffffffffffffffffffffffffffffffffff85163b611935576040517f08c379a000000000000000000000000000000000000000000000000000000000815260206004820152601d60248201527f416464726573733a2063616c6c20746f206e6f6e2d636f6e74726163740000006044820152606401610640565b5081611946565b611946838361194e565b949350505050565b81511561195e5781518083602001fd5b806040517f08c379a000000000000000000000000000000000000000000000000000000000815260040161064091906120a8565b73ffffffffffffffffffffffffffffffffffffffff8116811461078657600080fd5b60008083601f8401126119c657600080fd5b50813567ffffffffffffffff8111156119de57600080fd5b6020830191508360208285010111156119f657600080fd5b9250929050565b60008060008060008060008060c0898b031215611a1957600080fd5b8835611a2481611992565b97506020890135611a3481611992565b96506040890135611a4481611992565b955060608901359450608089013567ffffffffffffffff80821115611a6857600080fd5b611a748c838d016119b4565b909650945060a08b0135915080821115611a8d57600080fd5b50611a9a8b828c016119b4565b999c989b5096995094979396929594505050565b600060208284031215611ac057600080fd5b81357fffffffff00000000000000000000000000000000000000000000000000000000811681146107ef57600080fd5b600080600080600060808688031215611b0857600080fd5b8535611b1381611992565b94506020860135611b2381611992565b935060408601359250606086013567ffffffffffffffff811115611b4657600080fd5b611b52888289016119b4565b969995985093965092949392505050565b600060208284031215611b7557600080fd5b81356107ef81611992565b600080600060608486031215611b9557600080fd5b833567ffffffffffffffff811115611bac57600080fd5b84016101608187031215611bbf57600080fd5b95602085013595506040909401359392505050565b60008083601f840112611be657600080fd5b50813567ffffffffffffffff811115611bfe57600080fd5b6020830191508360208260051b85010111156119f657600080fd5b60008060008060008060608789031215611c3257600080fd5b863567ffffffffffffffff80821115611c4a57600080fd5b611c568a838b01611bd4565b90985096506020890135915080821115611c6f57600080fd5b611c7b8a838b01611bd4565b90965094506040890135915080821115611c9457600080fd5b50611ca189828a01611bd4565b979a9699509497509295939492505050565b60008060408385031215611cc657600080fd5b8235611cd181611992565b946020939093013593505050565b7f4e487b7100000000000000000000000000000000000000000000000000000000600052604160045260246000fd5b60008060408385031215611d2157600080fd5b8235611d2c81611992565b9150602083013567ffffffffffffffff80821115611d4957600080fd5b818501915085601f830112611d5d57600080fd5b813581811115611d6f57611d6f611cdf565b604051601f82017fffffffffffffffffffffffffffffffffffffffffffffffffffffffffffffffe0908116603f01168101908382118183101715611db557611db5611cdf565b81604052828152886020848701011115611dce57600080fd5b8260208601602083013760006020848301015280955050505050509250929050565b60008060008060608587031215611e0657600080fd5b8435611e1181611992565b935060208501359250604085013567ffffffffffffffff811115611e3457600080fd5b611e40878288016119b4565b95989497509550505050565b60008060008060008060008060a0898b031215611e6857600080fd5b8835611e7381611992565b97506020890135611e8381611992565b9650604089013567ffffffffffffffff80821115611ea057600080fd5b611eac8c838d01611bd4565b909850965060608b0135915080821115611ec557600080fd5b611ed18c838d01611bd4565b909650945060808b0135915080821115611a8d57600080fd5b60008060008060008060a08789031215611f0357600080fd5b8635611f0e81611992565b95506020870135611f1e81611992565b94506040870135935060608701359250608087013567ffffffffffffffff811115611f4857600080fd5b611ca189828a016119b4565b7f4e487b7100000000000000000000000000000000000000000000000000000000600052603260045260246000fd5b60008083357fffffffffffffffffffffffffffffffffffffffffffffffffffffffffffffffe1843603018112611fb857600080fd5b83018035915067ffffffffffffffff821115611fd357600080fd5b6020019150368190038213156119f657600080fd5b60007fffffffffffffffffffffffffffffffffffffffffffffffffffffffffffffffff8203612040577f4e487b7100000000000000000000000000000000000000000000000000000000600052601160045260246000fd5b5060010190565b60006020828403121561205957600080fd5b5051919050565b60005b8381101561207b578181015183820152602001612063565b83811115610e2c5750506000910152565b6000825161209e818460208701612060565b9190910192915050565b60208152600082518060208401526120c7816040850160208701612060565b601f017fffffffffffffffffffffffffffffffffffffffffffffffffffffffffffffffe016919091016040019291505056fe416464726573733a206c6f772d6c6576656c2064656c65676174652063616c6c206661696c6564a264697066735822122088a318489e2edb331cbf7818cc51631a5358dd9351ffd249c99b9986982e292164736f6c634300080f0033",
  "linkReferences": {},
  "deployedLinkReferences": {}
}